{
  "contractName": "CertificationEvent",
  "abi": [
    {
      "anonymous": false,
      "inputs": [
        {
          "indexed": false,
          "internalType": "string",
          "name": "eventID",
          "type": "string"
        },
        {
          "indexed": false,
          "internalType": "string",
          "name": "entityType",
          "type": "string"
        },
        {
          "indexed": false,
          "internalType": "string",
          "name": "entityID",
          "type": "string"
        },
        {
          "indexed": false,
          "internalType": "string",
          "name": "certificationCID",
          "type": "string"
        },
        {
          "indexed": false,
          "internalType": "uint256",
          "name": "issuedDate",
          "type": "uint256"
        },
        {
          "indexed": false,
          "internalType": "uint256",
          "name": "expiryDate",
          "type": "uint256"
        },
        {
          "indexed": false,
          "internalType": "uint256",
          "name": "createdOn",
          "type": "uint256"
        }
      ],
      "name": "CertificationEventStored",
      "type": "event"
    },
    {
      "inputs": [
        {
          "internalType": "string",
          "name": "",
          "type": "string"
        }
      ],
      "name": "certificationEvents",
      "outputs": [
        {
          "internalType": "string",
          "name": "eventID",
          "type": "string"
        },
        {
          "internalType": "string",
          "name": "entityType",
          "type": "string"
        },
        {
          "internalType": "string",
          "name": "entityID",
          "type": "string"
        },
        {
          "internalType": "string",
          "name": "certificationCID",
          "type": "string"
        },
        {
          "internalType": "uint256",
          "name": "issuedDate",
          "type": "uint256"
        },
        {
          "internalType": "uint256",
          "name": "expiryDate",
          "type": "uint256"
        },
        {
          "internalType": "uint256",
          "name": "createdOn",
          "type": "uint256"
        }
      ],
      "stateMutability": "view",
      "type": "function",
      "constant": true
    },
    {
      "inputs": [
        {
          "internalType": "string",
          "name": "eventID",
          "type": "string"
        },
        {
          "internalType": "string",
          "name": "entityType",
          "type": "string"
        },
        {
          "internalType": "string",
          "name": "entityID",
          "type": "string"
        },
        {
          "internalType": "string",
          "name": "certificationCID",
          "type": "string"
        },
        {
          "internalType": "uint256",
          "name": "issuedDate",
          "type": "uint256"
        },
        {
          "internalType": "uint256",
          "name": "expiryDate",
          "type": "uint256"
        }
      ],
      "name": "storeCertificationEvent",
      "outputs": [],
      "stateMutability": "nonpayable",
      "type": "function"
    },
    {
      "inputs": [
        {
          "internalType": "string",
          "name": "eventID",
          "type": "string"
        }
      ],
      "name": "getCertificationEvent",
      "outputs": [
        {
          "internalType": "string",
          "name": "",
          "type": "string"
        },
        {
          "internalType": "string",
          "name": "",
          "type": "string"
        },
        {
          "internalType": "string",
          "name": "",
          "type": "string"
        },
        {
          "internalType": "string",
          "name": "",
          "type": "string"
        },
        {
          "internalType": "uint256",
          "name": "",
          "type": "uint256"
        },
        {
          "internalType": "uint256",
          "name": "",
          "type": "uint256"
        },
        {
          "internalType": "uint256",
          "name": "",
          "type": "uint256"
        }
      ],
      "stateMutability": "view",
      "type": "function",
      "constant": true
    }
  ],
  "bytecode": "0x608060405234801561001057600080fd5b50610e8b806100206000396000f3fe608060405234801561001057600080fd5b50600436106100415760003560e01c8063046c0d9f14610046578063379ca547146100625780633e97061314610098575b600080fd5b610060600480360381019061005b91906108c5565b6100ce565b005b61007c600480360381019061007791906109c2565b6101e3565b60405161008f9796959493929190610a99565b60405180910390f35b6100b260048036038101906100ad91906109c2565b61045b565b6040516100c59796959493929190610a99565b60405180910390f35b6040518060e00160405280878152602001868152602001858152602001848152602001838152602001828152602001428152506000876040516101119190610b60565b908152602001604051809103902060008201518160000190816101349190610d83565b50602082015181600101908161014a9190610d83565b5060408201518160020190816101609190610d83565b5060608201518160030190816101769190610d83565b506080820151816004015560a0820151816005015560c082015181600601559050507f101ae11cd6dd5de9b8f881e67ee4261a7ab8cec71c2147ad4e94dd21571fef7e868686868686426040516101d39796959493929190610a99565b60405180910390a1505050505050565b60008180516020810182018051848252602083016020850120818352809550505050505060009150905080600001805461021c90610ba6565b80601f016020809104026020016040519081016040528092919081815260200182805461024890610ba6565b80156102955780601f1061026a57610100808354040283529160200191610295565b820191906000526020600020905b81548152906001019060200180831161027857829003601f168201915b5050505050908060010180546102aa90610ba6565b80601f01602080910402602001604051908101604052809291908181526020018280546102d690610ba6565b80156103235780601f106102f857610100808354040283529160200191610323565b820191906000526020600020905b81548152906001019060200180831161030657829003601f168201915b50505050509080600201805461033890610ba6565b80601f016020809104026020016040519081016040528092919081815260200182805461036490610ba6565b80156103b15780601f10610386576101008083540402835291602001916103b1565b820191906000526020600020905b81548152906001019060200180831161039457829003601f168201915b5050505050908060030180546103c690610ba6565b80601f01602080910402602001604051908101604052809291908181526020018280546103f290610ba6565b801561043f5780601f106104145761010080835404028352916020019161043f565b820191906000526020600020905b81548152906001019060200180831161042257829003601f168201915b5050505050908060040154908060050154908060060154905087565b6060806060806000806000806000896040516104779190610b60565b90815260200160405180910390206040518060e00160405290816000820180546104a090610ba6565b80601f01602080910402602001604051908101604052809291908181526020018280546104cc90610ba6565b80156105195780601f106104ee57610100808354040283529160200191610519565b820191906000526020600020905b8154815290600101906020018083116104fc57829003601f168201915b5050505050815260200160018201805461053290610ba6565b80601f016020809104026020016040519081016040528092919081815260200182805461055e90610ba6565b80156105ab5780601f10610580576101008083540402835291602001916105ab565b820191906000526020600020905b81548152906001019060200180831161058e57829003601f168201915b505050505081526020016002820180546105c490610ba6565b80601f01602080910402602001604051908101604052809291908181526020018280546105f090610ba6565b801561063d5780601f106106125761010080835404028352916020019161063d565b820191906000526020600020905b81548152906001019060200180831161062057829003601f168201915b5050505050815260200160038201805461065690610ba6565b80601f016020809104026020016040519081016040528092919081815260200182805461068290610ba6565b80156106cf5780601f106106a4576101008083540402835291602001916106cf565b820191906000526020600020905b8154815290600101906020018083116106b257829003601f168201915b5050505050815260200160048201548152602001600582015481526020016006820154815250509050806000015181602001518260400151836060015184608001518560a001518660c00151975097509750975097509750975050919395979092949650565b6000604051905090565b600080fd5b600080fd5b600080fd5b600080fd5b6000601f19601f8301169050919050565b7f4e487b7100000000000000000000000000000000000000000000000000000000600052604160045260246000fd5b61079c82610753565b810181811067ffffffffffffffff821117156107bb576107ba610764565b5b80604052505050565b60006107ce610735565b90506107da8282610793565b919050565b600067ffffffffffffffff8211156107fa576107f9610764565b5b61080382610753565b9050602081019050919050565b82818337600083830152505050565b600061083261082d846107df565b6107c4565b90508281526020810184848401111561084e5761084d61074e565b5b610859848285610810565b509392505050565b600082601f83011261087657610875610749565b5b813561088684826020860161081f565b91505092915050565b6000819050919050565b6108a28161088f565b81146108ad57600080fd5b50565b6000813590506108bf81610899565b92915050565b60008060008060008060c087890312156108e2576108e161073f565b5b600087013567ffffffffffffffff811115610900576108ff610744565b5b61090c89828a01610861565b965050602087013567ffffffffffffffff81111561092d5761092c610744565b5b61093989828a01610861565b955050604087013567ffffffffffffffff81111561095a57610959610744565b5b61096689828a01610861565b945050606087013567ffffffffffffffff81111561098757610986610744565b5b61099389828a01610861565b93505060806109a489828a016108b0565b92505060a06109b589828a016108b0565b9150509295509295509295565b6000602082840312156109d8576109d761073f565b5b600082013567ffffffffffffffff8111156109f6576109f5610744565b5b610a0284828501610861565b91505092915050565b600081519050919050565b600082825260208201905092915050565b60005b83811015610a45578082015181840152602081019050610a2a565b60008484015250505050565b6000610a5c82610a0b565b610a668185610a16565b9350610a76818560208601610a27565b610a7f81610753565b840191505092915050565b610a938161088f565b82525050565b600060e0820190508181036000830152610ab3818a610a51565b90508181036020830152610ac78189610a51565b90508181036040830152610adb8188610a51565b90508181036060830152610aef8187610a51565b9050610afe6080830186610a8a565b610b0b60a0830185610a8a565b610b1860c0830184610a8a565b98975050505050505050565b600081905092915050565b6000610b3a82610a0b565b610b448185610b24565b9350610b54818560208601610a27565b80840191505092915050565b6000610b6c8284610b2f565b915081905092915050565b7f4e487b7100000000000000000000000000000000000000000000000000000000600052602260045260246000fd5b60006002820490506001821680610bbe57607f821691505b602082108103610bd157610bd0610b77565b5b50919050565b60008190508160005260206000209050919050565b60006020601f8301049050919050565b600082821b905092915050565b600060088302610c397fffffffffffffffffffffffffffffffffffffffffffffffffffffffffffffffff82610bfc565b610c438683610bfc565b95508019841693508086168417925050509392505050565b6000819050919050565b6000610c80610c7b610c768461088f565b610c5b565b61088f565b9050919050565b6000819050919050565b610c9a83610c65565b610cae610ca682610c87565b848454610c09565b825550505050565b600090565b610cc3610cb6565b610cce818484610c91565b505050565b5b81811015610cf257610ce7600082610cbb565b600181019050610cd4565b5050565b601f821115610d3757610d0881610bd7565b610d1184610bec565b81016020851015610d20578190505b610d34610d2c85610bec565b830182610cd3565b50505b505050565b600082821c905092915050565b6000610d5a60001984600802610d3c565b1980831691505092915050565b6000610d738383610d49565b9150826002028217905092915050565b610d8c82610a0b565b67ffffffffffffffff811115610da557610da4610764565b5b610daf8254610ba6565b610dba828285610cf6565b600060209050601f831160018114610ded5760008415610ddb578287015190505b610de58582610d67565b865550610e4d565b601f198416610dfb86610bd7565b60005b82811015610e2357848901518255600182019150602085019450602081019050610dfe565b86831015610e405784890151610e3c601f891682610d49565b8355505b6001600288020188555050505b50505050505056fea264697066735822122007f0712443c32859ff7650f4ae401fad5360732bb0499802cfd8ceb4912292c564736f6c63430008130033",
  "immutableReferences": {},
  "source": "// SPDX-License-Identifier: MIT\npragma solidity ^0.8.0;\n\ncontract CertificationEvent {\n    struct CertEvent {\n        string eventID;\n        string entityType; // Farmer, Factory, Retailer, Logistics\n        string entityID;\n        string certificationCID;\n        uint256 issuedDate;\n        uint256 expiryDate;\n        uint256 createdOn;\n    }\n\n    mapping(string => CertEvent) public certificationEvents;\n    event CertificationEventStored(string eventID, string entityType, string entityID, string certificationCID, uint256 issuedDate, uint256 expiryDate, uint256 createdOn);\n\n    function storeCertificationEvent(\n        string memory eventID,\n        string memory entityType,\n        string memory entityID,\n        string memory certificationCID,\n        uint256 issuedDate,\n        uint256 expiryDate\n    ) public {\n        certificationEvents[eventID] = CertEvent(eventID, entityType, entityID, certificationCID, issuedDate, expiryDate, block.timestamp);\n        emit CertificationEventStored(eventID, entityType, entityID, certificationCID, issuedDate, expiryDate, block.timestamp);\n    }\n\n    function getCertificationEvent(string memory eventID) public view returns (string memory, string memory, string memory, string memory, uint256, uint256, uint256) {\n        CertEvent memory certEvent = certificationEvents[eventID];\n        return (certEvent.eventID, certEvent.entityType, certEvent.entityID, certEvent.certificationCID, certEvent.issuedDate, certEvent.expiryDate, certEvent.createdOn);\n    }\n}\n",
  "sourcePath": "/home/kmitl-ivo/Documents/Back/Backend/solidity/contracts/CertificationEvent.sol",
  "compiler": {
    "name": "solc",
    "version": "0.8.19+commit.7dd6d404.Emscripten.clang"
  },
  "schemaVersion": "3.4.16",
  "updatedAt": "2025-02-24T09:16:03.466Z",
  "networkType": "ethereum",
  "devdoc": {
    "kind": "dev",
    "methods": {},
    "version": 1
  },
  "userdoc": {
    "kind": "user",
    "methods": {},
    "version": 1
  }
}