{
  "contractName": "CertificationEvent",
  "abi": [
    {
      "inputs": [
        {
          "internalType": "address",
          "name": "_userRegistryAddress",
          "type": "address"
        }
      ],
      "stateMutability": "nonpayable",
      "type": "constructor"
    },
    {
      "anonymous": false,
      "inputs": [
        {
          "indexed": false,
          "internalType": "string",
          "name": "eventID",
          "type": "string"
        },
        {
          "indexed": false,
          "internalType": "string",
          "name": "entityID",
          "type": "string"
        },
        {
          "indexed": false,
          "internalType": "uint256",
          "name": "timestamp",
          "type": "uint256"
        }
      ],
      "name": "CertificationEventDeactivated",
      "type": "event"
    },
    {
      "anonymous": false,
      "inputs": [
        {
          "indexed": false,
          "internalType": "string",
          "name": "eventID",
          "type": "string"
        },
        {
          "indexed": false,
          "internalType": "string",
          "name": "entityType",
          "type": "string"
        },
        {
          "indexed": false,
          "internalType": "string",
          "name": "entityID",
          "type": "string"
        },
        {
          "indexed": false,
          "internalType": "string",
          "name": "certificationCID",
          "type": "string"
        },
        {
          "indexed": false,
          "internalType": "uint256",
          "name": "issuedDate",
          "type": "uint256"
        },
        {
          "indexed": false,
          "internalType": "uint256",
          "name": "expiryDate",
          "type": "uint256"
        },
        {
          "indexed": false,
          "internalType": "uint256",
          "name": "createdOn",
          "type": "uint256"
        },
        {
          "indexed": false,
          "internalType": "bool",
          "name": "isActive",
          "type": "bool"
        }
      ],
      "name": "CertificationEventStored",
      "type": "event"
    },
    {
      "inputs": [
        {
          "internalType": "string",
          "name": "",
          "type": "string"
        }
      ],
      "name": "certificationEvents",
      "outputs": [
        {
          "internalType": "string",
          "name": "eventID",
          "type": "string"
        },
        {
          "internalType": "string",
          "name": "entityType",
          "type": "string"
        },
        {
          "internalType": "string",
          "name": "entityID",
          "type": "string"
        },
        {
          "internalType": "string",
          "name": "certificationCID",
          "type": "string"
        },
        {
          "internalType": "uint256",
          "name": "issuedDate",
          "type": "uint256"
        },
        {
          "internalType": "uint256",
          "name": "expiryDate",
          "type": "uint256"
        },
        {
          "internalType": "uint256",
          "name": "createdOn",
          "type": "uint256"
        },
        {
          "internalType": "bool",
          "name": "isActive",
          "type": "bool"
        }
      ],
      "stateMutability": "view",
      "type": "function",
      "constant": true
    },
    {
      "inputs": [
        {
          "internalType": "string",
          "name": "eventID",
          "type": "string"
        },
        {
          "internalType": "string",
          "name": "entityType",
          "type": "string"
        },
        {
          "internalType": "string",
          "name": "entityID",
          "type": "string"
        },
        {
          "internalType": "string",
          "name": "certificationCID",
          "type": "string"
        },
        {
          "internalType": "uint256",
          "name": "issuedDate",
          "type": "uint256"
        },
        {
          "internalType": "uint256",
          "name": "expiryDate",
          "type": "uint256"
        }
      ],
      "name": "storeCertificationEvent",
      "outputs": [],
      "stateMutability": "nonpayable",
      "type": "function"
    },
    {
      "inputs": [
        {
          "internalType": "string",
          "name": "eventID",
          "type": "string"
        }
      ],
      "name": "deactivateCertificationEvent",
      "outputs": [],
      "stateMutability": "nonpayable",
      "type": "function"
    },
    {
      "inputs": [
        {
          "internalType": "string",
          "name": "entityID",
          "type": "string"
        }
      ],
      "name": "getActiveCertificationsForEntity",
      "outputs": [
        {
          "components": [
            {
              "internalType": "string",
              "name": "eventID",
              "type": "string"
            },
            {
              "internalType": "string",
              "name": "entityType",
              "type": "string"
            },
            {
              "internalType": "string",
              "name": "entityID",
              "type": "string"
            },
            {
              "internalType": "string",
              "name": "certificationCID",
              "type": "string"
            },
            {
              "internalType": "uint256",
              "name": "issuedDate",
              "type": "uint256"
            },
            {
              "internalType": "uint256",
              "name": "expiryDate",
              "type": "uint256"
            },
            {
              "internalType": "uint256",
              "name": "createdOn",
              "type": "uint256"
            },
            {
              "internalType": "bool",
              "name": "isActive",
              "type": "bool"
            }
          ],
          "internalType": "struct CertificationEvent.CertEvent[]",
          "name": "",
          "type": "tuple[]"
        }
      ],
      "stateMutability": "view",
      "type": "function",
      "constant": true
    },
    {
      "inputs": [],
      "name": "getAllCertifications",
      "outputs": [
        {
          "components": [
            {
              "internalType": "string",
              "name": "eventID",
              "type": "string"
            },
            {
              "internalType": "string",
              "name": "entityType",
              "type": "string"
            },
            {
              "internalType": "string",
              "name": "entityID",
              "type": "string"
            },
            {
              "internalType": "string",
              "name": "certificationCID",
              "type": "string"
            },
            {
              "internalType": "uint256",
              "name": "issuedDate",
              "type": "uint256"
            },
            {
              "internalType": "uint256",
              "name": "expiryDate",
              "type": "uint256"
            },
            {
              "internalType": "uint256",
              "name": "createdOn",
              "type": "uint256"
            },
            {
              "internalType": "bool",
              "name": "isActive",
              "type": "bool"
            }
          ],
          "internalType": "struct CertificationEvent.CertEvent[]",
          "name": "",
          "type": "tuple[]"
        }
      ],
      "stateMutability": "view",
      "type": "function",
      "constant": true
    },
    {
      "inputs": [
        {
          "internalType": "string",
          "name": "certificationCID",
          "type": "string"
        }
      ],
      "name": "isCertificationCIDExists",
      "outputs": [
        {
          "internalType": "bool",
          "name": "",
          "type": "bool"
        }
      ],
      "stateMutability": "view",
      "type": "function",
      "constant": true
    }
  ],
  "bytecode": "0x60806040523480156200001157600080fd5b506040516200235b3803806200235b8339818101604052810190620000379190620000e8565b806000806101000a81548173ffffffffffffffffffffffffffffffffffffffff021916908373ffffffffffffffffffffffffffffffffffffffff160217905550506200011a565b600080fd5b600073ffffffffffffffffffffffffffffffffffffffff82169050919050565b6000620000b08262000083565b9050919050565b620000c281620000a3565b8114620000ce57600080fd5b50565b600081519050620000e281620000b7565b92915050565b6000602082840312156200010157620001006200007e565b5b60006200011184828501620000d1565b91505092915050565b612231806200012a6000396000f3fe608060405234801561001057600080fd5b50600436106100625760003560e01c8063046c0d9f14610067578063379ca54714610083578063b46dc5cb146100ba578063bac9ba98146100d8578063e8dab040146100f4578063f42e4e5614610124575b600080fd5b610081600480360381019061007c91906114a3565b610154565b005b61009d600480360381019061009891906115a0565b61050e565b6040516100b1989796959493929190611692565b60405180910390f35b6100c2610799565b6040516100cf919061191b565b60405180910390f35b6100f260048036038101906100ed91906115a0565b610b0a565b005b61010e600480360381019061010991906115a0565b610d60565b60405161011b919061193d565b60405180910390f35b61013e600480360381019061013991906115a0565b610d95565b60405161014b919061191b565b60405180910390f35b60008054906101000a900473ffffffffffffffffffffffffffffffffffffffff1673ffffffffffffffffffffffffffffffffffffffff1663163f7522336040518263ffffffff1660e01b81526004016101ad9190611999565b602060405180830381865afa1580156101ca573d6000803e3d6000fd5b505050506040513d601f19601f820116820180604052508101906101ee91906119e0565b61022d576040517f08c379a000000000000000000000000000000000000000000000000000000000815260040161022490611a59565b60405180910390fd5b600060018760405161023f9190611ab5565b9081526020016040518091039020600001805461025b90611afb565b90501461029d576040517f08c379a000000000000000000000000000000000000000000000000000000000815260040161029490611b9e565b60405180910390fd5b600015156003846040516102b19190611ab5565b908152602001604051809103902060009054906101000a900460ff1615151461030f576040517f08c379a000000000000000000000000000000000000000000000000000000000815260040161030690611c30565b60405180910390fd5b6040518061010001604052808781526020018681526020018581526020018481526020018381526020018281526020014281526020016001151581525060018760405161035c9190611ab5565b9081526020016040518091039020600082015181600001908161037f9190611dfc565b5060208201518160010190816103959190611dfc565b5060408201518160020190816103ab9190611dfc565b5060608201518160030190816103c19190611dfc565b506080820151816004015560a0820151816005015560c0820151816006015560e08201518160070160006101000a81548160ff0219169083151502179055509050506002846040516104139190611ab5565b9081526020016040518091039020869080600181540180825580915050600190039060005260206000200160009091909190915090816104539190611dfc565b5060016003846040516104669190611ab5565b908152602001604051809103902060006101000a81548160ff0219169083151502179055506004869080600181540180825580915050600190039060005260206000200160009091909190915090816104bf9190611dfc565b507f3105924db4236c20ebd33b32e084c8041fac64467f17b95da82af0358bc58d5a8686868686864260016040516104fe989796959493929190611692565b60405180910390a1505050505050565b60018180516020810182018051848252602083016020850120818352809550505050505060009150905080600001805461054790611afb565b80601f016020809104026020016040519081016040528092919081815260200182805461057390611afb565b80156105c05780601f10610595576101008083540402835291602001916105c0565b820191906000526020600020905b8154815290600101906020018083116105a357829003601f168201915b5050505050908060010180546105d590611afb565b80601f016020809104026020016040519081016040528092919081815260200182805461060190611afb565b801561064e5780601f106106235761010080835404028352916020019161064e565b820191906000526020600020905b81548152906001019060200180831161063157829003601f168201915b50505050509080600201805461066390611afb565b80601f016020809104026020016040519081016040528092919081815260200182805461068f90611afb565b80156106dc5780601f106106b1576101008083540402835291602001916106dc565b820191906000526020600020905b8154815290600101906020018083116106bf57829003601f168201915b5050505050908060030180546106f190611afb565b80601f016020809104026020016040519081016040528092919081815260200182805461071d90611afb565b801561076a5780601f1061073f5761010080835404028352916020019161076a565b820191906000526020600020905b81548152906001019060200180831161074d57829003601f168201915b5050505050908060040154908060050154908060060154908060070160009054906101000a900460ff16905088565b60606000600480549050905060008167ffffffffffffffff8111156107c1576107c0611342565b5b6040519080825280602002602001820160405280156107fa57816020015b6107e76112cc565b8152602001906001900390816107df5790505b50905060005b82811015610b015760016004828154811061081e5761081d611ece565b5b906000526020600020016040516108359190611f80565b90815260200160405180910390206040518061010001604052908160008201805461085f90611afb565b80601f016020809104026020016040519081016040528092919081815260200182805461088b90611afb565b80156108d85780601f106108ad576101008083540402835291602001916108d8565b820191906000526020600020905b8154815290600101906020018083116108bb57829003601f168201915b505050505081526020016001820180546108f190611afb565b80601f016020809104026020016040519081016040528092919081815260200182805461091d90611afb565b801561096a5780601f1061093f5761010080835404028352916020019161096a565b820191906000526020600020905b81548152906001019060200180831161094d57829003601f168201915b5050505050815260200160028201805461098390611afb565b80601f01602080910402602001604051908101604052809291908181526020018280546109af90611afb565b80156109fc5780601f106109d1576101008083540402835291602001916109fc565b820191906000526020600020905b8154815290600101906020018083116109df57829003601f168201915b50505050508152602001600382018054610a1590611afb565b80601f0160208091040260200160405190810160405280929190818152602001828054610a4190611afb565b8015610a8e5780601f10610a6357610100808354040283529160200191610a8e565b820191906000526020600020905b815481529060010190602001808311610a7157829003601f168201915b505050505081526020016004820154815260200160058201548152602001600682015481526020016007820160009054906101000a900460ff161515151581525050828281518110610ae357610ae2611ece565b5b60200260200101819052508080610af990611fc6565b915050610800565b50809250505090565b60008054906101000a900473ffffffffffffffffffffffffffffffffffffffff1673ffffffffffffffffffffffffffffffffffffffff1663163f7522336040518263ffffffff1660e01b8152600401610b639190611999565b602060405180830381865afa158015610b80573d6000803e3d6000fd5b505050506040513d601f19601f82011682018060405250810190610ba491906119e0565b610be3576040517f08c379a0000000000000000000000000000000000000000000000000000000008152600401610bda90611a59565b60405180910390fd5b6000600182604051610bf59190611ab5565b90815260200160405180910390206000018054610c1190611afb565b905003610c53576040517f08c379a0000000000000000000000000000000000000000000000000000000008152600401610c4a90612080565b60405180910390fd5b60011515600182604051610c679190611ab5565b908152602001604051809103902060070160009054906101000a900460ff16151514610cc8576040517f08c379a0000000000000000000000000000000000000000000000000000000008152600401610cbf90612112565b60405180910390fd5b6000600182604051610cda9190611ab5565b908152602001604051809103902060070160006101000a81548160ff0219169083151502179055507f98b61e6ccb902eb502f90b318e95553cfec1b91ba40a570f7fe611016cdccca081600183604051610d349190611ab5565b908152602001604051809103902060020142604051610d55939291906121b6565b60405180910390a150565b6000600382604051610d729190611ab5565b908152602001604051809103902060009054906101000a900460ff169050919050565b60606000600283604051610da99190611ab5565b9081526020016040518091039020805480602002602001604051908101604052809291908181526020016000905b82821015610e83578382906000526020600020018054610df690611afb565b80601f0160208091040260200160405190810160405280929190818152602001828054610e2290611afb565b8015610e6f5780601f10610e4457610100808354040283529160200191610e6f565b820191906000526020600020905b815481529060010190602001808311610e5257829003601f168201915b505050505081526020019060010190610dd7565b5050505090506000805b8251811015610f06576001838281518110610eab57610eaa611ece565b5b6020026020010151604051610ec09190611ab5565b908152602001604051809103902060070160009054906101000a900460ff1615610ef3578180610eef90611fc6565b9250505b8080610efe90611fc6565b915050610e8d565b5060008167ffffffffffffffff811115610f2357610f22611342565b5b604051908082528060200260200182016040528015610f5c57816020015b610f496112cc565b815260200190600190039081610f415790505b5090506000805b84518110156112bf576001858281518110610f8157610f80611ece565b5b6020026020010151604051610f969190611ab5565b908152602001604051809103902060070160009054906101000a900460ff16156112ac576001858281518110610fcf57610fce611ece565b5b6020026020010151604051610fe49190611ab5565b90815260200160405180910390206040518061010001604052908160008201805461100e90611afb565b80601f016020809104026020016040519081016040528092919081815260200182805461103a90611afb565b80156110875780601f1061105c57610100808354040283529160200191611087565b820191906000526020600020905b81548152906001019060200180831161106a57829003601f168201915b505050505081526020016001820180546110a090611afb565b80601f01602080910402602001604051908101604052809291908181526020018280546110cc90611afb565b80156111195780601f106110ee57610100808354040283529160200191611119565b820191906000526020600020905b8154815290600101906020018083116110fc57829003601f168201915b5050505050815260200160028201805461113290611afb565b80601f016020809104026020016040519081016040528092919081815260200182805461115e90611afb565b80156111ab5780601f10611180576101008083540402835291602001916111ab565b820191906000526020600020905b81548152906001019060200180831161118e57829003601f168201915b505050505081526020016003820180546111c490611afb565b80601f01602080910402602001604051908101604052809291908181526020018280546111f090611afb565b801561123d5780601f106112125761010080835404028352916020019161123d565b820191906000526020600020905b81548152906001019060200180831161122057829003601f168201915b505050505081526020016004820154815260200160058201548152602001600682015481526020016007820160009054906101000a900460ff16151515158152505083838151811061129257611291611ece565b5b602002602001018190525081806112a890611fc6565b9250505b80806112b790611fc6565b915050610f63565b5081945050505050919050565b604051806101000160405280606081526020016060815260200160608152602001606081526020016000815260200160008152602001600081526020016000151581525090565b6000604051905090565b600080fd5b600080fd5b600080fd5b600080fd5b6000601f19601f8301169050919050565b7f4e487b7100000000000000000000000000000000000000000000000000000000600052604160045260246000fd5b61137a82611331565b810181811067ffffffffffffffff8211171561139957611398611342565b5b80604052505050565b60006113ac611313565b90506113b88282611371565b919050565b600067ffffffffffffffff8211156113d8576113d7611342565b5b6113e182611331565b9050602081019050919050565b82818337600083830152505050565b600061141061140b846113bd565b6113a2565b90508281526020810184848401111561142c5761142b61132c565b5b6114378482856113ee565b509392505050565b600082601f83011261145457611453611327565b5b81356114648482602086016113fd565b91505092915050565b6000819050919050565b6114808161146d565b811461148b57600080fd5b50565b60008135905061149d81611477565b92915050565b60008060008060008060c087890312156114c0576114bf61131d565b5b600087013567ffffffffffffffff8111156114de576114dd611322565b5b6114ea89828a0161143f565b965050602087013567ffffffffffffffff81111561150b5761150a611322565b5b61151789828a0161143f565b955050604087013567ffffffffffffffff81111561153857611537611322565b5b61154489828a0161143f565b945050606087013567ffffffffffffffff81111561156557611564611322565b5b61157189828a0161143f565b935050608061158289828a0161148e565b92505060a061159389828a0161148e565b9150509295509295509295565b6000602082840312156115b6576115b561131d565b5b600082013567ffffffffffffffff8111156115d4576115d3611322565b5b6115e08482850161143f565b91505092915050565b600081519050919050565b600082825260208201905092915050565b60005b83811015611623578082015181840152602081019050611608565b60008484015250505050565b600061163a826115e9565b61164481856115f4565b9350611654818560208601611605565b61165d81611331565b840191505092915050565b6116718161146d565b82525050565b60008115159050919050565b61168c81611677565b82525050565b60006101008201905081810360008301526116ad818b61162f565b905081810360208301526116c1818a61162f565b905081810360408301526116d5818961162f565b905081810360608301526116e9818861162f565b90506116f86080830187611668565b61170560a0830186611668565b61171260c0830185611668565b61171f60e0830184611683565b9998505050505050505050565b600081519050919050565b600082825260208201905092915050565b6000819050602082019050919050565b600082825260208201905092915050565b6000611774826115e9565b61177e8185611758565b935061178e818560208601611605565b61179781611331565b840191505092915050565b6117ab8161146d565b82525050565b6117ba81611677565b82525050565b60006101008301600083015184820360008601526117de8282611769565b915050602083015184820360208601526117f88282611769565b915050604083015184820360408601526118128282611769565b9150506060830151848203606086015261182c8282611769565b915050608083015161184160808601826117a2565b5060a083015161185460a08601826117a2565b5060c083015161186760c08601826117a2565b5060e083015161187a60e08601826117b1565b508091505092915050565b600061189183836117c0565b905092915050565b6000602082019050919050565b60006118b18261172c565b6118bb8185611737565b9350836020820285016118cd85611748565b8060005b8581101561190957848403895281516118ea8582611885565b94506118f583611899565b925060208a019950506001810190506118d1565b50829750879550505050505092915050565b6000602082019050818103600083015261193581846118a6565b905092915050565b60006020820190506119526000830184611683565b92915050565b600073ffffffffffffffffffffffffffffffffffffffff82169050919050565b600061198382611958565b9050919050565b61199381611978565b82525050565b60006020820190506119ae600083018461198a565b92915050565b6119bd81611677565b81146119c857600080fd5b50565b6000815190506119da816119b4565b92915050565b6000602082840312156119f6576119f561131d565b5b6000611a04848285016119cb565b91505092915050565b7f4572726f723a2055736572206d75737420726567697374657220666972737400600082015250565b6000611a43601f836115f4565b9150611a4e82611a0d565b602082019050919050565b60006020820190508181036000830152611a7281611a36565b9050919050565b600081905092915050565b6000611a8f826115e9565b611a998185611a79565b9350611aa9818560208601611605565b80840191505092915050565b6000611ac18284611a84565b915081905092915050565b7f4e487b7100000000000000000000000000000000000000000000000000000000600052602260045260246000fd5b60006002820490506001821680611b1357607f821691505b602082108103611b2657611b25611acc565b5b50919050565b7f4572726f723a2043657274696669636174696f6e20616c72656164792065786960008201527f7374730000000000000000000000000000000000000000000000000000000000602082015250565b6000611b886023836115f4565b9150611b9382611b2c565b604082019050919050565b60006020820190508181036000830152611bb781611b7b565b9050919050565b7f4572726f723a2043657274696669636174696f6e2043494420616c726561647960008201527f2065786973747320696e2073797374656d000000000000000000000000000000602082015250565b6000611c1a6031836115f4565b9150611c2582611bbe565b604082019050919050565b60006020820190508181036000830152611c4981611c0d565b9050919050565b60008190508160005260206000209050919050565b60006020601f8301049050919050565b600082821b905092915050565b600060088302611cb27fffffffffffffffffffffffffffffffffffffffffffffffffffffffffffffffff82611c75565b611cbc8683611c75565b95508019841693508086168417925050509392505050565b6000819050919050565b6000611cf9611cf4611cef8461146d565b611cd4565b61146d565b9050919050565b6000819050919050565b611d1383611cde565b611d27611d1f82611d00565b848454611c82565b825550505050565b600090565b611d3c611d2f565b611d47818484611d0a565b505050565b5b81811015611d6b57611d60600082611d34565b600181019050611d4d565b5050565b601f821115611db057611d8181611c50565b611d8a84611c65565b81016020851015611d99578190505b611dad611da585611c65565b830182611d4c565b50505b505050565b600082821c905092915050565b6000611dd360001984600802611db5565b1980831691505092915050565b6000611dec8383611dc2565b9150826002028217905092915050565b611e05826115e9565b67ffffffffffffffff811115611e1e57611e1d611342565b5b611e288254611afb565b611e33828285611d6f565b600060209050601f831160018114611e665760008415611e54578287015190505b611e5e8582611de0565b865550611ec6565b601f198416611e7486611c50565b60005b82811015611e9c57848901518255600182019150602085019450602081019050611e77565b86831015611eb95784890151611eb5601f891682611dc2565b8355505b6001600288020188555050505b505050505050565b7f4e487b7100000000000000000000000000000000000000000000000000000000600052603260045260246000fd5b60008154611f0a81611afb565b611f148186611a79565b94506001821660008114611f2f5760018114611f4457611f77565b60ff1983168652811515820286019350611f77565b611f4d85611c50565b60005b83811015611f6f57815481890152600182019150602081019050611f50565b838801955050505b50505092915050565b6000611f8c8284611efd565b915081905092915050565b7f4e487b7100000000000000000000000000000000000000000000000000000000600052601160045260246000fd5b6000611fd18261146d565b91507fffffffffffffffffffffffffffffffffffffffffffffffffffffffffffffffff820361200357612002611f97565b5b600182019050919050565b7f4572726f723a2043657274696669636174696f6e206576656e7420646f65732060008201527f6e6f742065786973740000000000000000000000000000000000000000000000602082015250565b600061206a6029836115f4565b91506120758261200e565b604082019050919050565b600060208201905081810360008301526120998161205d565b9050919050565b7f4572726f723a2043657274696669636174696f6e20697320616c72656164792060008201527f696e616374697665000000000000000000000000000000000000000000000000602082015250565b60006120fc6028836115f4565b9150612107826120a0565b604082019050919050565b6000602082019050818103600083015261212b816120ef565b9050919050565b6000815461213f81611afb565b61214981866115f4565b94506001821660008114612164576001811461217a576121ad565b60ff1983168652811515602002860193506121ad565b61218385611c50565b60005b838110156121a557815481890152600182019150602081019050612186565b808801955050505b50505092915050565b600060608201905081810360008301526121d0818661162f565b905081810360208301526121e48185612132565b90506121f36040830184611668565b94935050505056fea26469706673582212202a5bb3b42fef2254c1e6be68ec91f820814e329e39904c566a2f182f0d8f3d8a64736f6c63430008130033",
  "immutableReferences": {},
  "source": "// SPDX-License-Identifier: MIT\npragma solidity ^0.8.19;\n\nimport \"./UserRegistry.sol\"; //  \n\ncontract CertificationEvent {\n    UserRegistry private userRegistry; //   UserRegistry\n\n    struct CertEvent {\n        string eventID;\n        string entityType; \n        string entityID;\n        string certificationCID;\n        uint256 issuedDate;\n        uint256 expiryDate;\n        uint256 createdOn;\n        bool isActive;\n    }\n\n    mapping(string => CertEvent) public certificationEvents;\n    mapping(string => string[]) private entityCertifications; //   eventID  entityID\n    mapping(string => bool) private existingCIDs; //   CID \n    string[] private allEventIDs; //   eventID  ( getAllCertifications)\n\n    event CertificationEventStored(\n        string eventID,\n        string entityType,\n        string entityID,\n        string certificationCID,\n        uint256 issuedDate,\n        uint256 expiryDate,\n        uint256 createdOn,\n        bool isActive\n    );\n\n    event CertificationEventDeactivated(string eventID, string entityID, uint256 timestamp);\n\n    //  Constructor  UserRegistry\n    constructor(address _userRegistryAddress) {\n        userRegistry = UserRegistry(_userRegistryAddress);\n    }\n\n    //  Modifier  msg.sender \n    modifier onlyRegisteredUser() {\n        require(userRegistry.isUserRegistered(msg.sender), \"Error: User must register first\");\n        _;\n    }\n\n    //     Role \n    function storeCertificationEvent(\n        string memory eventID,\n        string memory entityType,\n        string memory entityID,\n        string memory certificationCID,\n        uint256 issuedDate,\n        uint256 expiryDate\n    ) public onlyRegisteredUser {\n        require(bytes(certificationEvents[eventID].eventID).length == 0, \"Error: Certification already exists\");\n\n        //   CID  (Global Unique Check)\n        require(existingCIDs[certificationCID] == false, \"Error: Certification CID already exists in system\");\n\n        //  \n        certificationEvents[eventID] = CertEvent(\n            eventID,\n            entityType,\n            entityID,\n            certificationCID,\n            issuedDate,\n            expiryDate,\n            block.timestamp,\n            true\n        );\n\n        entityCertifications[entityID].push(eventID); //   eventID  entityID\n        existingCIDs[certificationCID] = true; //   CID \n        allEventIDs.push(eventID); //   eventID \n\n        emit CertificationEventStored(eventID, entityType, entityID, certificationCID, issuedDate, expiryDate, block.timestamp, true);\n    }\n\n    //  \n    function deactivateCertificationEvent(string memory eventID) public onlyRegisteredUser {\n        require(bytes(certificationEvents[eventID].eventID).length != 0, \"Error: Certification event does not exist\");\n        require(certificationEvents[eventID].isActive == true, \"Error: Certification is already inactive\");\n\n        certificationEvents[eventID].isActive = false;\n        emit CertificationEventDeactivated(eventID, certificationEvents[eventID].entityID, block.timestamp);\n    }\n\n    //   \" Active \"  entityID\n    function getActiveCertificationsForEntity(string memory entityID) public view returns (CertEvent[] memory) {\n        string[] memory certs = entityCertifications[entityID];\n        uint256 activeCount = 0;\n\n        //   Active\n        for (uint256 i = 0; i < certs.length; i++) {\n            if (certificationEvents[certs[i]].isActive) {\n                activeCount++;\n            }\n        }\n\n        //   Active\n        CertEvent[] memory activeCerts = new CertEvent[](activeCount);\n        uint256 index = 0;\n        for (uint256 i = 0; i < certs.length; i++) {\n            if (certificationEvents[certs[i]].isActive) {\n                activeCerts[index] = certificationEvents[certs[i]];\n                index++;\n            }\n        }\n\n        return activeCerts;\n    }\n\n    //   \"\" ( entity)\n    function getAllCertifications() public view returns (CertEvent[] memory) {\n        uint256 totalCerts = allEventIDs.length;\n\n        //  \n        CertEvent[] memory allCerts = new CertEvent[](totalCerts);\n        \n        for (uint256 i = 0; i < totalCerts; i++) {\n            allCerts[i] = certificationEvents[allEventIDs[i]];\n        }\n\n        return allCerts;\n    }\n\n    //   CID \n    function isCertificationCIDExists(string memory certificationCID) public view returns (bool) {\n        return existingCIDs[certificationCID];\n    }\n}\n",
  "sourcePath": "/home/kmitl-ivo/Documents/Back/Backend/solidity/contracts/CertificationEvent.sol",
  "compiler": {
    "name": "solc",
    "version": "0.8.19+commit.7dd6d404.Emscripten.clang"
  },
  "schemaVersion": "3.4.16",
  "updatedAt": "2025-03-04T06:08:31.703Z",
  "networkType": "ethereum",
  "devdoc": {
    "kind": "dev",
    "methods": {},
    "version": 1
  },
  "userdoc": {
    "kind": "user",
    "methods": {},
    "version": 1
  }
}