{
  "contractName": "Product",
  "abi": [
    {
      "inputs": [
        {
          "internalType": "address",
          "name": "_userRegistry",
          "type": "address"
        }
      ],
      "stateMutability": "nonpayable",
      "type": "constructor"
    },
    {
      "anonymous": false,
      "inputs": [
        {
          "indexed": false,
          "internalType": "string",
          "name": "message",
          "type": "string"
        },
        {
          "indexed": false,
          "internalType": "address",
          "name": "sender",
          "type": "address"
        },
        {
          "indexed": false,
          "internalType": "bytes32",
          "name": "productId",
          "type": "bytes32"
        },
        {
          "indexed": false,
          "internalType": "string",
          "name": "productName",
          "type": "string"
        },
        {
          "indexed": false,
          "internalType": "string",
          "name": "productCID",
          "type": "string"
        },
        {
          "indexed": false,
          "internalType": "string",
          "name": "category",
          "type": "string"
        }
      ],
      "name": "DebugLog",
      "type": "event"
    },
    {
      "anonymous": false,
      "inputs": [
        {
          "indexed": true,
          "internalType": "bytes32",
          "name": "productId",
          "type": "bytes32"
        },
        {
          "indexed": true,
          "internalType": "address",
          "name": "factoryWallet",
          "type": "address"
        },
        {
          "indexed": false,
          "internalType": "string",
          "name": "productName",
          "type": "string"
        },
        {
          "indexed": false,
          "internalType": "string",
          "name": "productCID",
          "type": "string"
        },
        {
          "indexed": false,
          "internalType": "string",
          "name": "category",
          "type": "string"
        }
      ],
      "name": "ProductCreated",
      "type": "event"
    },
    {
      "inputs": [
        {
          "internalType": "uint256",
          "name": "",
          "type": "uint256"
        }
      ],
      "name": "productIds",
      "outputs": [
        {
          "internalType": "bytes32",
          "name": "",
          "type": "bytes32"
        }
      ],
      "stateMutability": "view",
      "type": "function",
      "constant": true
    },
    {
      "inputs": [
        {
          "internalType": "bytes32",
          "name": "",
          "type": "bytes32"
        }
      ],
      "name": "products",
      "outputs": [
        {
          "internalType": "bytes32",
          "name": "productId",
          "type": "bytes32"
        },
        {
          "internalType": "address",
          "name": "factoryWallet",
          "type": "address"
        },
        {
          "internalType": "string",
          "name": "productName",
          "type": "string"
        },
        {
          "internalType": "string",
          "name": "productCID",
          "type": "string"
        },
        {
          "internalType": "string",
          "name": "category",
          "type": "string"
        }
      ],
      "stateMutability": "view",
      "type": "function",
      "constant": true
    },
    {
      "inputs": [],
      "name": "userRegistry",
      "outputs": [
        {
          "internalType": "contract UserRegistry",
          "name": "",
          "type": "address"
        }
      ],
      "stateMutability": "view",
      "type": "function",
      "constant": true
    },
    {
      "inputs": [
        {
          "internalType": "bytes32",
          "name": "_productId",
          "type": "bytes32"
        },
        {
          "internalType": "string",
          "name": "_productName",
          "type": "string"
        },
        {
          "internalType": "string",
          "name": "_productCID",
          "type": "string"
        },
        {
          "internalType": "string",
          "name": "_category",
          "type": "string"
        }
      ],
      "name": "createProduct",
      "outputs": [],
      "stateMutability": "nonpayable",
      "type": "function"
    }
  ],
  "bytecode": "0x60806040523480156200001157600080fd5b50604051620010c6380380620010c68339818101604052810190620000379190620000e8565b806000806101000a81548173ffffffffffffffffffffffffffffffffffffffff021916908373ffffffffffffffffffffffffffffffffffffffff160217905550506200011a565b600080fd5b600073ffffffffffffffffffffffffffffffffffffffff82169050919050565b6000620000b08262000083565b9050919050565b620000c281620000a3565b8114620000ce57600080fd5b50565b600081519050620000e281620000b7565b92915050565b6000602082840312156200010157620001006200007e565b5b60006200011184828501620000d1565b91505092915050565b610f9c806200012a6000396000f3fe608060405234801561001057600080fd5b506004361061004c5760003560e01c8063290344c7146100515780635c7460d61461006d578063790543911461008b578063cb51bba9146100bf575b600080fd5b61006b600480360381019061006691906106da565b6100ef565b005b610075610314565b6040516100829190610814565b60405180910390f35b6100a560048036038101906100a0919061082f565b610338565b6040516100b695949392919061090b565b60405180910390f35b6100d960048036038101906100d491906109a9565b610526565b6040516100e691906109d6565b60405180910390f35b7f693e39e19b42d1b5ad69fada9680c72cb82a8e4a0102c9548839d6fc7e95d70c3385858585604051610126959493929190610a3d565b60405180910390a17f693e39e19b42d1b5ad69fada9680c72cb82a8e4a0102c9548839d6fc7e95d70c3385858585604051610165959493929190610b04565b60405180910390a16040518060a001604052808581526020013373ffffffffffffffffffffffffffffffffffffffff16815260200184815260200183815260200182815250600160008681526020019081526020016000206000820151816000015560208201518160010160006101000a81548173ffffffffffffffffffffffffffffffffffffffff021916908373ffffffffffffffffffffffffffffffffffffffff16021790555060408201518160020190816102239190610d81565b5060608201518160030190816102399190610d81565b50608082015181600401908161024f9190610d81565b5090505060028490806001815401808255809150506001900390600052602060002001600090919091909150553373ffffffffffffffffffffffffffffffffffffffff16847fce36d41273b724ef277b938c439afb2342a6d7a476a905409f0b300fbbadcc728585856040516102c793929190610e53565b60405180910390a37f693e39e19b42d1b5ad69fada9680c72cb82a8e4a0102c9548839d6fc7e95d70c3385858585604051610306959493929190610eeb565b60405180910390a150505050565b60008054906101000a900473ffffffffffffffffffffffffffffffffffffffff1681565b60016020528060005260406000206000915090508060000154908060010160009054906101000a900473ffffffffffffffffffffffffffffffffffffffff169080600201805461038790610bae565b80601f01602080910402602001604051908101604052809291908181526020018280546103b390610bae565b80156104005780601f106103d557610100808354040283529160200191610400565b820191906000526020600020905b8154815290600101906020018083116103e357829003601f168201915b50505050509080600301805461041590610bae565b80601f016020809104026020016040519081016040528092919081815260200182805461044190610bae565b801561048e5780601f106104635761010080835404028352916020019161048e565b820191906000526020600020905b81548152906001019060200180831161047157829003601f168201915b5050505050908060040180546104a390610bae565b80601f01602080910402602001604051908101604052809291908181526020018280546104cf90610bae565b801561051c5780601f106104f15761010080835404028352916020019161051c565b820191906000526020600020905b8154815290600101906020018083116104ff57829003601f168201915b5050505050905085565b6002818154811061053657600080fd5b906000526020600020016000915090505481565b6000604051905090565b600080fd5b600080fd5b6000819050919050565b6105718161055e565b811461057c57600080fd5b50565b60008135905061058e81610568565b92915050565b600080fd5b600080fd5b6000601f19601f8301169050919050565b7f4e487b7100000000000000000000000000000000000000000000000000000000600052604160045260246000fd5b6105e78261059e565b810181811067ffffffffffffffff82111715610606576106056105af565b5b80604052505050565b600061061961054a565b905061062582826105de565b919050565b600067ffffffffffffffff821115610645576106446105af565b5b61064e8261059e565b9050602081019050919050565b82818337600083830152505050565b600061067d6106788461062a565b61060f565b90508281526020810184848401111561069957610698610599565b5b6106a484828561065b565b509392505050565b600082601f8301126106c1576106c0610594565b5b81356106d184826020860161066a565b91505092915050565b600080600080608085870312156106f4576106f3610554565b5b60006107028782880161057f565b945050602085013567ffffffffffffffff81111561072357610722610559565b5b61072f878288016106ac565b935050604085013567ffffffffffffffff8111156107505761074f610559565b5b61075c878288016106ac565b925050606085013567ffffffffffffffff81111561077d5761077c610559565b5b610789878288016106ac565b91505092959194509250565b600073ffffffffffffffffffffffffffffffffffffffff82169050919050565b6000819050919050565b60006107da6107d56107d084610795565b6107b5565b610795565b9050919050565b60006107ec826107bf565b9050919050565b60006107fe826107e1565b9050919050565b61080e816107f3565b82525050565b60006020820190506108296000830184610805565b92915050565b60006020828403121561084557610844610554565b5b60006108538482850161057f565b91505092915050565b6108658161055e565b82525050565b600061087682610795565b9050919050565b6108868161086b565b82525050565b600081519050919050565b600082825260208201905092915050565b60005b838110156108c65780820151818401526020810190506108ab565b60008484015250505050565b60006108dd8261088c565b6108e78185610897565b93506108f78185602086016108a8565b6109008161059e565b840191505092915050565b600060a082019050610920600083018861085c565b61092d602083018761087d565b818103604083015261093f81866108d2565b9050818103606083015261095381856108d2565b9050818103608083015261096781846108d2565b90509695505050505050565b6000819050919050565b61098681610973565b811461099157600080fd5b50565b6000813590506109a38161097d565b92915050565b6000602082840312156109bf576109be610554565b5b60006109cd84828501610994565b91505092915050565b60006020820190506109eb600083018461085c565b92915050565b7f4265666f726520436865636b7300000000000000000000000000000000000000600082015250565b6000610a27600d83610897565b9150610a32826109f1565b602082019050919050565b600060c0820190508181036000830152610a5681610a1a565b9050610a65602083018861087d565b610a72604083018761085c565b8181036060830152610a8481866108d2565b90508181036080830152610a9881856108d2565b905081810360a0830152610aac81846108d2565b90509695505050505050565b7f50726f63656564696e6720746f204372656174652050726f6475637400000000600082015250565b6000610aee601c83610897565b9150610af982610ab8565b602082019050919050565b600060c0820190508181036000830152610b1d81610ae1565b9050610b2c602083018861087d565b610b39604083018761085c565b8181036060830152610b4b81866108d2565b90508181036080830152610b5f81856108d2565b905081810360a0830152610b7381846108d2565b90509695505050505050565b7f4e487b7100000000000000000000000000000000000000000000000000000000600052602260045260246000fd5b60006002820490506001821680610bc657607f821691505b602082108103610bd957610bd8610b7f565b5b50919050565b60008190508160005260206000209050919050565b60006020601f8301049050919050565b600082821b905092915050565b600060088302610c417fffffffffffffffffffffffffffffffffffffffffffffffffffffffffffffffff82610c04565b610c4b8683610c04565b95508019841693508086168417925050509392505050565b6000610c7e610c79610c7484610973565b6107b5565b610973565b9050919050565b6000819050919050565b610c9883610c63565b610cac610ca482610c85565b848454610c11565b825550505050565b600090565b610cc1610cb4565b610ccc818484610c8f565b505050565b5b81811015610cf057610ce5600082610cb9565b600181019050610cd2565b5050565b601f821115610d3557610d0681610bdf565b610d0f84610bf4565b81016020851015610d1e578190505b610d32610d2a85610bf4565b830182610cd1565b50505b505050565b600082821c905092915050565b6000610d5860001984600802610d3a565b1980831691505092915050565b6000610d718383610d47565b9150826002028217905092915050565b610d8a8261088c565b67ffffffffffffffff811115610da357610da26105af565b5b610dad8254610bae565b610db8828285610cf4565b600060209050601f831160018114610deb5760008415610dd9578287015190505b610de38582610d65565b865550610e4b565b601f198416610df986610bdf565b60005b82811015610e2157848901518255600182019150602085019450602081019050610dfc565b86831015610e3e5784890151610e3a601f891682610d47565b8355505b6001600288020188555050505b505050505050565b60006060820190508181036000830152610e6d81866108d2565b90508181036020830152610e8181856108d2565b90508181036040830152610e9581846108d2565b9050949350505050565b7f50726f647563742043726561746564205375636365737366756c6c7900000000600082015250565b6000610ed5601c83610897565b9150610ee082610e9f565b602082019050919050565b600060c0820190508181036000830152610f0481610ec8565b9050610f13602083018861087d565b610f20604083018761085c565b8181036060830152610f3281866108d2565b90508181036080830152610f4681856108d2565b905081810360a0830152610f5a81846108d2565b9050969550505050505056fea26469706673582212204c17c5d7fee11a8fc0a00133c14925d9ad65b33b237d1f3ecb27819c143de08d64736f6c63430008130033",
  "immutableReferences": {},
  "source": "// SPDX-License-Identifier: MIT\npragma solidity ^0.8.19;\n\nimport \"./UserRegistry.sol\";\n\ncontract Product {\n    UserRegistry public userRegistry;\n\n    struct ProductInfo {\n        bytes32 productId;\n        address factoryWallet;\n        string productName;\n        string productCID;\n        string category;\n    }\n\n    mapping(bytes32 => ProductInfo) public products;\n    bytes32[] public productIds;\n\n    event ProductCreated(\n        bytes32 indexed productId,\n        address indexed factoryWallet,\n        string productName,\n        string productCID,\n        string category\n    );\n\n    event DebugLog(string message, address sender, bytes32 productId, string productName, string productCID, string category);\n\n    //modifier onlyFactory() {\n        //emit DebugLog(\"Checking Factory Role\", msg.sender, bytes32(0), \"\", \"\", \"\");\n        //require(\n            //userRegistry.getUserRole(msg.sender) == UserRegistry.UserRole.Factory,\n            //\"Access denied: Only factories allowed\"\n        //);\n        //emit DebugLog(\"Factory Role Verified\", msg.sender, bytes32(0), \"\", \"\", \"\");\n        //_;\n    //}\n\n    constructor(address _userRegistry) {\n        userRegistry = UserRegistry(_userRegistry);\n    }\n\n    function createProduct(\n        bytes32 _productId,\n        string memory _productName,\n        string memory _productCID,\n        string memory _category\n    ) public {\n        emit DebugLog(\"Before Checks\", msg.sender, _productId, _productName, _productCID, _category);\n\n        //require(products[_productId].productId == bytes32(0), \"Error: Product ID already exists\");\n        //emit DebugLog(\"Passed Product ID Check\", msg.sender, _productId, _productName, _productCID, _category);\n\n        //require(bytes(_category).length > 0, \"Error: Category cannot be empty\");\n        //emit DebugLog(\"Passed Category Check\", msg.sender, _productId, _productName, _productCID, _category);\n\n        emit DebugLog(\"Proceeding to Create Product\", msg.sender, _productId, _productName, _productCID, _category);\n\n        products[_productId] = ProductInfo({\n            productId: _productId,\n            factoryWallet: msg.sender,\n            productName: _productName,\n            productCID: _productCID,\n            category: _category\n        });\n\n        productIds.push(_productId);\n\n        emit ProductCreated(_productId, msg.sender, _productName, _productCID, _category);\n        emit DebugLog(\"Product Created Successfully\", msg.sender, _productId, _productName, _productCID, _category);\n    }\n}\n",
  "sourcePath": "/home/kmitl-ivo/Documents/Back/Backend/solidity/contracts/Product.sol",
  "compiler": {
    "name": "solc",
    "version": "0.8.19+commit.7dd6d404.Emscripten.clang"
  },
  "schemaVersion": "3.4.16",
  "updatedAt": "2025-03-09T13:32:28.790Z",
  "networkType": "ethereum",
  "devdoc": {
    "kind": "dev",
    "methods": {},
    "version": 1
  },
  "userdoc": {
    "kind": "user",
    "methods": {},
    "version": 1
  }
}