{
  "contractName": "ProductLot",
  "abi": [
    {
      "inputs": [
        {
          "internalType": "address",
          "name": "_userRegistry",
          "type": "address"
        },
        {
          "internalType": "address",
          "name": "_rawMilkContract",
          "type": "address"
        },
        {
          "internalType": "address",
          "name": "_productContract",
          "type": "address"
        }
      ],
      "stateMutability": "nonpayable",
      "type": "constructor"
    },
    {
      "anonymous": false,
      "inputs": [
        {
          "indexed": true,
          "internalType": "bytes32",
          "name": "lotId",
          "type": "bytes32"
        },
        {
          "indexed": true,
          "internalType": "bytes32",
          "name": "productId",
          "type": "bytes32"
        },
        {
          "indexed": true,
          "internalType": "address",
          "name": "factory",
          "type": "address"
        },
        {
          "indexed": false,
          "internalType": "string",
          "name": "inspector",
          "type": "string"
        },
        {
          "indexed": false,
          "internalType": "uint256",
          "name": "inspectionDate",
          "type": "uint256"
        },
        {
          "indexed": false,
          "internalType": "bool",
          "name": "grade",
          "type": "bool"
        },
        {
          "indexed": false,
          "internalType": "string",
          "name": "qualityAndNutritionCID",
          "type": "string"
        },
        {
          "indexed": false,
          "internalType": "bytes32[]",
          "name": "milkTankIds",
          "type": "bytes32[]"
        }
      ],
      "name": "ProductLotCreated",
      "type": "event"
    },
    {
      "anonymous": false,
      "inputs": [
        {
          "indexed": true,
          "internalType": "bytes32",
          "name": "lotId",
          "type": "bytes32"
        },
        {
          "indexed": false,
          "internalType": "enum ProductLot.ProductLotStatus",
          "name": "newStatus",
          "type": "uint8"
        }
      ],
      "name": "ProductLotStatusUpdated",
      "type": "event"
    },
    {
      "inputs": [],
      "name": "productContract",
      "outputs": [
        {
          "internalType": "contract Product",
          "name": "",
          "type": "address"
        }
      ],
      "stateMutability": "view",
      "type": "function",
      "constant": true
    },
    {
      "inputs": [
        {
          "internalType": "uint256",
          "name": "",
          "type": "uint256"
        }
      ],
      "name": "productLotIds",
      "outputs": [
        {
          "internalType": "bytes32",
          "name": "",
          "type": "bytes32"
        }
      ],
      "stateMutability": "view",
      "type": "function",
      "constant": true
    },
    {
      "inputs": [
        {
          "internalType": "bytes32",
          "name": "",
          "type": "bytes32"
        }
      ],
      "name": "productLots",
      "outputs": [
        {
          "internalType": "bytes32",
          "name": "lotId",
          "type": "bytes32"
        },
        {
          "internalType": "bytes32",
          "name": "productId",
          "type": "bytes32"
        },
        {
          "internalType": "address",
          "name": "factory",
          "type": "address"
        },
        {
          "internalType": "string",
          "name": "inspector",
          "type": "string"
        },
        {
          "internalType": "uint256",
          "name": "inspectionDate",
          "type": "uint256"
        },
        {
          "internalType": "bool",
          "name": "grade",
          "type": "bool"
        },
        {
          "internalType": "string",
          "name": "qualityAndNutritionCID",
          "type": "string"
        },
        {
          "internalType": "enum ProductLot.ProductLotStatus",
          "name": "status",
          "type": "uint8"
        }
      ],
      "stateMutability": "view",
      "type": "function",
      "constant": true
    },
    {
      "inputs": [],
      "name": "rawMilkContract",
      "outputs": [
        {
          "internalType": "contract RawMilk",
          "name": "",
          "type": "address"
        }
      ],
      "stateMutability": "view",
      "type": "function",
      "constant": true
    },
    {
      "inputs": [],
      "name": "trackingContract",
      "outputs": [
        {
          "internalType": "contract Tracking",
          "name": "",
          "type": "address"
        }
      ],
      "stateMutability": "view",
      "type": "function",
      "constant": true
    },
    {
      "inputs": [],
      "name": "userRegistry",
      "outputs": [
        {
          "internalType": "contract UserRegistry",
          "name": "",
          "type": "address"
        }
      ],
      "stateMutability": "view",
      "type": "function",
      "constant": true
    },
    {
      "inputs": [
        {
          "internalType": "bytes32",
          "name": "_lotId",
          "type": "bytes32"
        },
        {
          "internalType": "bytes32",
          "name": "_productId",
          "type": "bytes32"
        },
        {
          "internalType": "string",
          "name": "_inspector",
          "type": "string"
        },
        {
          "internalType": "bool",
          "name": "_grade",
          "type": "bool"
        },
        {
          "internalType": "string",
          "name": "_qualityAndNutritionCID",
          "type": "string"
        },
        {
          "internalType": "bytes32[]",
          "name": "_milkTankIds",
          "type": "bytes32[]"
        }
      ],
      "name": "createProductLot",
      "outputs": [],
      "stateMutability": "nonpayable",
      "type": "function"
    },
    {
      "inputs": [
        {
          "internalType": "bytes32",
          "name": "_lotId",
          "type": "bytes32"
        }
      ],
      "name": "getProductLot",
      "outputs": [
        {
          "components": [
            {
              "internalType": "bytes32",
              "name": "lotId",
              "type": "bytes32"
            },
            {
              "internalType": "bytes32",
              "name": "productId",
              "type": "bytes32"
            },
            {
              "internalType": "address",
              "name": "factory",
              "type": "address"
            },
            {
              "internalType": "string",
              "name": "inspector",
              "type": "string"
            },
            {
              "internalType": "uint256",
              "name": "inspectionDate",
              "type": "uint256"
            },
            {
              "internalType": "bool",
              "name": "grade",
              "type": "bool"
            },
            {
              "internalType": "string",
              "name": "qualityAndNutritionCID",
              "type": "string"
            },
            {
              "internalType": "bytes32[]",
              "name": "milkTankIds",
              "type": "bytes32[]"
            },
            {
              "internalType": "enum ProductLot.ProductLotStatus",
              "name": "status",
              "type": "uint8"
            }
          ],
          "internalType": "struct ProductLot.ProductLotInfo",
          "name": "",
          "type": "tuple"
        }
      ],
      "stateMutability": "view",
      "type": "function",
      "constant": true
    },
    {
      "inputs": [
        {
          "internalType": "bytes32",
          "name": "_lotId",
          "type": "bytes32"
        }
      ],
      "name": "isProductLotExists",
      "outputs": [
        {
          "internalType": "bool",
          "name": "",
          "type": "bool"
        }
      ],
      "stateMutability": "view",
      "type": "function",
      "constant": true
    },
    {
      "inputs": [
        {
          "internalType": "address",
          "name": "_factory",
          "type": "address"
        }
      ],
      "name": "getProductLotsByFactory",
      "outputs": [
        {
          "internalType": "bytes32[]",
          "name": "",
          "type": "bytes32[]"
        }
      ],
      "stateMutability": "view",
      "type": "function",
      "constant": true
    },
    {
      "inputs": [
        {
          "internalType": "bytes32",
          "name": "_lotId",
          "type": "bytes32"
        }
      ],
      "name": "getMilkTanksByProductLot",
      "outputs": [
        {
          "internalType": "bytes32[]",
          "name": "",
          "type": "bytes32[]"
        }
      ],
      "stateMutability": "view",
      "type": "function",
      "constant": true
    },
    {
      "inputs": [
        {
          "internalType": "address",
          "name": "_trackingContract",
          "type": "address"
        }
      ],
      "name": "setTrackingContract",
      "outputs": [],
      "stateMutability": "nonpayable",
      "type": "function"
    },
    {
      "inputs": [
        {
          "internalType": "bytes32",
          "name": "_lotId",
          "type": "bytes32"
        }
      ],
      "name": "updateProductLotStatus",
      "outputs": [],
      "stateMutability": "nonpayable",
      "type": "function"
    },
    {
      "inputs": [
        {
          "internalType": "bytes32",
          "name": "_lotId",
          "type": "bytes32"
        },
        {
          "internalType": "enum ProductLot.ProductLotStatus",
          "name": "_status",
          "type": "uint8"
        }
      ],
      "name": "forceUpdateStatus",
      "outputs": [],
      "stateMutability": "nonpayable",
      "type": "function"
    },
    {
      "inputs": [
        {
          "internalType": "bytes32",
          "name": "_lotId",
          "type": "bytes32"
        }
      ],
      "name": "getProductLotStatus",
      "outputs": [
        {
          "internalType": "enum ProductLot.ProductLotStatus",
          "name": "",
          "type": "uint8"
        }
      ],
      "stateMutability": "view",
      "type": "function",
      "constant": true
    }
  ],
  "bytecode": "0x60806040523480156200001157600080fd5b5060405162003b6a38038062003b6a83398181016040528101906200003791906200016c565b826000806101000a81548173ffffffffffffffffffffffffffffffffffffffff021916908373ffffffffffffffffffffffffffffffffffffffff16021790555081600160006101000a81548173ffffffffffffffffffffffffffffffffffffffff021916908373ffffffffffffffffffffffffffffffffffffffff16021790555080600260006101000a81548173ffffffffffffffffffffffffffffffffffffffff021916908373ffffffffffffffffffffffffffffffffffffffff160217905550505050620001c8565b600080fd5b600073ffffffffffffffffffffffffffffffffffffffff82169050919050565b6000620001348262000107565b9050919050565b620001468162000127565b81146200015257600080fd5b50565b60008151905062000166816200013b565b92915050565b60008060006060848603121562000188576200018762000102565b5b6000620001988682870162000155565b9350506020620001ab8682870162000155565b9250506040620001be8682870162000155565b9150509250925092565b61399280620001d86000396000f3fe608060405234801561001057600080fd5b50600436106100f55760003560e01c80635c7460d611610097578063c8abc9d511610066578063c8abc9d514610286578063d5729549146102a2578063d794e362146102d9578063fa0bff3014610309576100f5565b80635c7460d6146101ea578063718a947c146102085780638c91be9214610238578063a7a8e53e14610256576100f5565b806342dc43b0116100d357806342dc43b01461016657806343f9ad4514610182578063465974cc1461019e57806352df0ee6146101ce576100f5565b806301b2a86f146100fa5780631ce95d301461012a5780632a28d4df14610148575b600080fd5b610114600480360381019061010f9190611a6b565b610339565b6040516101219190611b60565b60405180910390f35b610132610547565b60405161013f9190611be1565b60405180910390f35b61015061056d565b60405161015d9190611c1d565b60405180910390f35b610180600480360381019061017b9190611a6b565b610593565b005b61019c60048036038101906101979190611eaa565b610668565b005b6101b860048036038101906101b39190611f8b565b610cc3565b6040516101c5919061202f565b60405180910390f35b6101e860048036038101906101e39190611f8b565b610d4b565b005b6101f2611180565b6040516101ff919061206b565b60405180910390f35b610222600480360381019061021d9190611f8b565b6111a4565b60405161022f9190611b60565b60405180910390f35b61024061126d565b60405161024d91906120a7565b60405180910390f35b610270600480360381019061026b91906120f8565b611293565b60405161027d9190612134565b60405180910390f35b6102a0600480360381019061029b9190612174565b6112b7565b005b6102bc60048036038101906102b79190611f8b565b61148c565b6040516102d0989796959493929190612260565b60405180910390f35b6102f360048036038101906102ee9190611f8b565b61161e565b60405161030091906124b4565b60405180910390f35b610323600480360381019061031e9190611f8b565b6118ed565b60405161033091906124d6565b60405180910390f35b60606000805b6004805490508110156103f5578373ffffffffffffffffffffffffffffffffffffffff16600360006004848154811061037b5761037a6124f1565b5b9060005260206000200154815260200190815260200160002060020160009054906101000a900473ffffffffffffffffffffffffffffffffffffffff1673ffffffffffffffffffffffffffffffffffffffff16036103e25781806103de9061254f565b9250505b80806103ed9061254f565b91505061033f565b5060008167ffffffffffffffff81111561041257610411611c7f565b5b6040519080825280602002602001820160405280156104405781602001602082028036833780820191505090505b5090506000805b60048054905081101561053b578573ffffffffffffffffffffffffffffffffffffffff166003600060048481548110610483576104826124f1565b5b9060005260206000200154815260200190815260200160002060020160009054906101000a900473ffffffffffffffffffffffffffffffffffffffff1673ffffffffffffffffffffffffffffffffffffffff160361052857600481815481106104ef576104ee6124f1565b5b906000526020600020015483838151811061050d5761050c6124f1565b5b60200260200101818152505081806105249061254f565b9250505b80806105339061254f565b915050610447565b50819350505050919050565b600160009054906101000a900473ffffffffffffffffffffffffffffffffffffffff1681565b600260009054906101000a900473ffffffffffffffffffffffffffffffffffffffff1681565b600073ffffffffffffffffffffffffffffffffffffffff16600560009054906101000a900473ffffffffffffffffffffffffffffffffffffffff1673ffffffffffffffffffffffffffffffffffffffff1614610624576040517f08c379a000000000000000000000000000000000000000000000000000000000815260040161061b906125e3565b60405180910390fd5b80600560006101000a81548173ffffffffffffffffffffffffffffffffffffffff021916908373ffffffffffffffffffffffffffffffffffffffff16021790555050565b6002600481111561067c5761067b611fb8565b5b60008054906101000a900473ffffffffffffffffffffffffffffffffffffffff1673ffffffffffffffffffffffffffffffffffffffff166327820851336040518263ffffffff1660e01b81526004016106d59190612603565b602060405180830381865afa1580156106f2573d6000803e3d6000fd5b505050506040513d601f19601f820116820180604052508101906107169190612643565b600481111561072857610727611fb8565b5b14610768576040517f08c379a000000000000000000000000000000000000000000000000000000000815260040161075f906126e2565b60405180910390fd5b6000801b6003600088815260200190815260200160002060000154146107c3576040517f08c379a00000000000000000000000000000000000000000000000000000000081526004016107ba90612774565b60405180910390fd5b6000801b600260009054906101000a900473ffffffffffffffffffffffffffffffffffffffff1673ffffffffffffffffffffffffffffffffffffffff1663b74d3fb5876040518263ffffffff1660e01b81526004016108229190612134565b600060405180830381865afa15801561083f573d6000803e3d6000fd5b505050506040513d6000823e3d601f19601f820116820180604052508101906108689190612918565b60000151036108ac576040517f08c379a00000000000000000000000000000000000000000000000000000000081526004016108a3906129ad565b60405180910390fd5b60005b81518110156109f057600160038111156108cc576108cb611fb8565b5b600160009054906101000a900473ffffffffffffffffffffffffffffffffffffffff1673ffffffffffffffffffffffffffffffffffffffff16635a03541f84848151811061091d5761091c6124f1565b5b60200260200101516040518263ffffffff1660e01b81526004016109419190612134565b600060405180830381865afa15801561095e573d6000803e3d6000fd5b505050506040513d6000823e3d601f19601f820116820180604052508101906109879190612cd2565b60800151600381111561099d5761099c611fb8565b5b146109dd576040517f08c379a00000000000000000000000000000000000000000000000000000000081526004016109d490612d8d565b60405180910390fd5b80806109e89061254f565b9150506108af565b5060006040518061012001604052808881526020018781526020013373ffffffffffffffffffffffffffffffffffffffff1681526020018681526020014281526020018515158152602001848152602001838152602001826002811115610a5a57610a59611fb8565b5b81525060036000898152602001908152602001600020600082015181600001556020820151816001015560408201518160020160006101000a81548173ffffffffffffffffffffffffffffffffffffffff021916908373ffffffffffffffffffffffffffffffffffffffff1602179055506060820151816003019081610ae09190612faf565b506080820151816004015560a08201518160050160006101000a81548160ff02191690831515021790555060c0820151816006019081610b209190612faf565b5060e0820151816007019080519060200190610b3d929190611913565b506101008201518160080160006101000a81548160ff02191690836002811115610b6a57610b69611fb8565b5b0217905550905050600487908060018154018082558091505060019003906000526020600020016000909190919091505560005b8251811015610c6157600160009054906101000a900473ffffffffffffffffffffffffffffffffffffffff1673ffffffffffffffffffffffffffffffffffffffff1663fca6bf53848381518110610bf857610bf76124f1565b5b60200260200101516040518263ffffffff1660e01b8152600401610c1c9190612134565b600060405180830381600087803b158015610c3657600080fd5b505af1158015610c4a573d6000803e3d6000fd5b505050508080610c599061254f565b915050610b9e565b503373ffffffffffffffffffffffffffffffffffffffff1686887f23013b10378a942712c02f38e17299de4d74256e5007665263df05dd00827c448842898989604051610cb2959493929190613081565b60405180910390a450505050505050565b60008060001b600360008481526020019081526020016000206000015403610d20576040517f08c379a0000000000000000000000000000000000000000000000000000000008152600401610d179061315b565b60405180910390fd5b6003600083815260200190815260200160002060080160009054906101000a900460ff169050919050565b6000801b600360008381526020019081526020016000206000015403610da6576040517f08c379a0000000000000000000000000000000000000000000000000000000008152600401610d9d9061315b565b60405180910390fd5b600073ffffffffffffffffffffffffffffffffffffffff16600560009054906101000a900473ffffffffffffffffffffffffffffffffffffffff1673ffffffffffffffffffffffffffffffffffffffff1603610e37576040517f08c379a0000000000000000000000000000000000000000000000000000000008152600401610e2e906131c7565b60405180910390fd5b6000600560009054906101000a900473ffffffffffffffffffffffffffffffffffffffff1673ffffffffffffffffffffffffffffffffffffffff166365f0f7d5836040518263ffffffff1660e01b8152600401610e949190612134565b600060405180830381865afa158015610eb1573d6000803e3d6000fd5b505050506040513d6000823e3d601f19601f82011682018060405250810190610eda919061335f565b505090506000815111610f22576040517f08c379a0000000000000000000000000000000000000000000000000000000008152600401610f1990613478565b60405180910390fd5b6000600190506000805b8351811015611073576000600560009054906101000a900473ffffffffffffffffffffffffffffffffffffffff1673ffffffffffffffffffffffffffffffffffffffff1663c93c35eb868481518110610f8857610f876124f1565b5b60200260200101516040518263ffffffff1660e01b8152600401610fac9190612134565b600060405180830381865afa158015610fc9573d6000803e3d6000fd5b505050506040513d6000823e3d601f19601f82011682018060405250810190610ff291906138b5565b505090506001600281111561100a57611009611fb8565b5b8160800151600281111561102157611020611fb8565b5b0361102b57600192505b60028081111561103e5761103d611fb8565b5b8160800151600281111561105557611054611fb8565b5b1461105f57600093505b50808061106b9061254f565b915050610f2c565b5080156110fa5760016003600086815260200190815260200160002060080160006101000a81548160ff021916908360028111156110b4576110b3611fb8565b5b0217905550837f67445c4284ac93b3afc509a165087a97f9b9b3b5d706287650aa21b1e6fc124e60016040516110ea919061202f565b60405180910390a250505061117d565b81156111795760026003600086815260200190815260200160002060080160006101000a81548160ff0219169083600281111561113a57611139611fb8565b5b0217905550837f67445c4284ac93b3afc509a165087a97f9b9b3b5d706287650aa21b1e6fc124e6002604051611170919061202f565b60405180910390a25b5050505b50565b60008054906101000a900473ffffffffffffffffffffffffffffffffffffffff1681565b60606000801b600360008481526020019081526020016000206000015403611201576040517f08c379a00000000000000000000000000000000000000000000000000000000081526004016111f89061315b565b60405180910390fd5b6003600083815260200190815260200160002060070180548060200260200160405190810160405280929190818152602001828054801561126157602002820191906000526020600020905b81548152602001906001019080831161124d575b50505050509050919050565b600560009054906101000a900473ffffffffffffffffffffffffffffffffffffffff1681565b600481815481106112a357600080fd5b906000526020600020016000915090505481565b600260048111156112cb576112ca611fb8565b5b60008054906101000a900473ffffffffffffffffffffffffffffffffffffffff1673ffffffffffffffffffffffffffffffffffffffff166327820851336040518263ffffffff1660e01b81526004016113249190612603565b602060405180830381865afa158015611341573d6000803e3d6000fd5b505050506040513d601f19601f820116820180604052508101906113659190612643565b600481111561137757611376611fb8565b5b146113b7576040517f08c379a00000000000000000000000000000000000000000000000000000000081526004016113ae906126e2565b60405180910390fd5b6000801b600360008481526020019081526020016000206000015403611412576040517f08c379a00000000000000000000000000000000000000000000000000000000081526004016114099061315b565b60405180910390fd5b806003600084815260200190815260200160002060080160006101000a81548160ff0219169083600281111561144b5761144a611fb8565b5b0217905550817f67445c4284ac93b3afc509a165087a97f9b9b3b5d706287650aa21b1e6fc124e82604051611480919061202f565b60405180910390a25050565b60036020528060005260406000206000915090508060000154908060010154908060020160009054906101000a900473ffffffffffffffffffffffffffffffffffffffff16908060030180546114e190612ddc565b80601f016020809104026020016040519081016040528092919081815260200182805461150d90612ddc565b801561155a5780601f1061152f5761010080835404028352916020019161155a565b820191906000526020600020905b81548152906001019060200180831161153d57829003601f168201915b5050505050908060040154908060050160009054906101000a900460ff169080600601805461158890612ddc565b80601f01602080910402602001604051908101604052809291908181526020018280546115b490612ddc565b80156116015780601f106115d657610100808354040283529160200191611601565b820191906000526020600020905b8154815290600101906020018083116115e457829003601f168201915b5050505050908060080160009054906101000a900460ff16905088565b611626611960565b6000801b600360008481526020019081526020016000206000015403611681576040517f08c379a00000000000000000000000000000000000000000000000000000000081526004016116789061315b565b60405180910390fd5b600360008381526020019081526020016000206040518061012001604052908160008201548152602001600182015481526020016002820160009054906101000a900473ffffffffffffffffffffffffffffffffffffffff1673ffffffffffffffffffffffffffffffffffffffff1673ffffffffffffffffffffffffffffffffffffffff16815260200160038201805461171a90612ddc565b80601f016020809104026020016040519081016040528092919081815260200182805461174690612ddc565b80156117935780601f1061176857610100808354040283529160200191611793565b820191906000526020600020905b81548152906001019060200180831161177657829003601f168201915b50505050508152602001600482015481526020016005820160009054906101000a900460ff161515151581526020016006820180546117d190612ddc565b80601f01602080910402602001604051908101604052809291908181526020018280546117fd90612ddc565b801561184a5780601f1061181f5761010080835404028352916020019161184a565b820191906000526020600020905b81548152906001019060200180831161182d57829003601f168201915b50505050508152602001600782018054806020026020016040519081016040528092919081815260200182805480156118a257602002820191906000526020600020905b81548152602001906001019080831161188e575b505050505081526020016008820160009054906101000a900460ff1660028111156118d0576118cf611fb8565b5b60028111156118e2576118e1611fb8565b5b815250509050919050565b60008060001b600360008481526020019081526020016000206000015414159050919050565b82805482825590600052602060002090810192821561194f579160200282015b8281111561194e578251825591602001919060010190611933565b5b50905061195c91906119dc565b5090565b6040518061012001604052806000801916815260200160008019168152602001600073ffffffffffffffffffffffffffffffffffffffff16815260200160608152602001600081526020016000151581526020016060815260200160608152602001600060028111156119d6576119d5611fb8565b5b81525090565b5b808211156119f55760008160009055506001016119dd565b5090565b6000604051905090565b600080fd5b600080fd5b600073ffffffffffffffffffffffffffffffffffffffff82169050919050565b6000611a3882611a0d565b9050919050565b611a4881611a2d565b8114611a5357600080fd5b50565b600081359050611a6581611a3f565b92915050565b600060208284031215611a8157611a80611a03565b5b6000611a8f84828501611a56565b91505092915050565b600081519050919050565b600082825260208201905092915050565b6000819050602082019050919050565b6000819050919050565b611ad781611ac4565b82525050565b6000611ae98383611ace565b60208301905092915050565b6000602082019050919050565b6000611b0d82611a98565b611b178185611aa3565b9350611b2283611ab4565b8060005b83811015611b53578151611b3a8882611add565b9750611b4583611af5565b925050600181019050611b26565b5085935050505092915050565b60006020820190508181036000830152611b7a8184611b02565b905092915050565b6000819050919050565b6000611ba7611ba2611b9d84611a0d565b611b82565b611a0d565b9050919050565b6000611bb982611b8c565b9050919050565b6000611bcb82611bae565b9050919050565b611bdb81611bc0565b82525050565b6000602082019050611bf66000830184611bd2565b92915050565b6000611c0782611bae565b9050919050565b611c1781611bfc565b82525050565b6000602082019050611c326000830184611c0e565b92915050565b611c4181611ac4565b8114611c4c57600080fd5b50565b600081359050611c5e81611c38565b92915050565b600080fd5b600080fd5b6000601f19601f8301169050919050565b7f4e487b7100000000000000000000000000000000000000000000000000000000600052604160045260246000fd5b611cb782611c6e565b810181811067ffffffffffffffff82111715611cd657611cd5611c7f565b5b80604052505050565b6000611ce96119f9565b9050611cf58282611cae565b919050565b600067ffffffffffffffff821115611d1557611d14611c7f565b5b611d1e82611c6e565b9050602081019050919050565b82818337600083830152505050565b6000611d4d611d4884611cfa565b611cdf565b905082815260208101848484011115611d6957611d68611c69565b5b611d74848285611d2b565b509392505050565b600082601f830112611d9157611d90611c64565b5b8135611da1848260208601611d3a565b91505092915050565b60008115159050919050565b611dbf81611daa565b8114611dca57600080fd5b50565b600081359050611ddc81611db6565b92915050565b600067ffffffffffffffff821115611dfd57611dfc611c7f565b5b602082029050602081019050919050565b600080fd5b6000611e26611e2184611de2565b611cdf565b90508083825260208201905060208402830185811115611e4957611e48611e0e565b5b835b81811015611e725780611e5e8882611c4f565b845260208401935050602081019050611e4b565b5050509392505050565b600082601f830112611e9157611e90611c64565b5b8135611ea1848260208601611e13565b91505092915050565b60008060008060008060c08789031215611ec757611ec6611a03565b5b6000611ed589828a01611c4f565b9650506020611ee689828a01611c4f565b955050604087013567ffffffffffffffff811115611f0757611f06611a08565b5b611f1389828a01611d7c565b9450506060611f2489828a01611dcd565b935050608087013567ffffffffffffffff811115611f4557611f44611a08565b5b611f5189828a01611d7c565b92505060a087013567ffffffffffffffff811115611f7257611f71611a08565b5b611f7e89828a01611e7c565b9150509295509295509295565b600060208284031215611fa157611fa0611a03565b5b6000611faf84828501611c4f565b91505092915050565b7f4e487b7100000000000000000000000000000000000000000000000000000000600052602160045260246000fd5b60038110611ff857611ff7611fb8565b5b50565b600081905061200982611fe7565b919050565b600061201982611ffb565b9050919050565b6120298161200e565b82525050565b60006020820190506120446000830184612020565b92915050565b600061205582611bae565b9050919050565b6120658161204a565b82525050565b6000602082019050612080600083018461205c565b92915050565b600061209182611bae565b9050919050565b6120a181612086565b82525050565b60006020820190506120bc6000830184612098565b92915050565b6000819050919050565b6120d5816120c2565b81146120e057600080fd5b50565b6000813590506120f2816120cc565b92915050565b60006020828403121561210e5761210d611a03565b5b600061211c848285016120e3565b91505092915050565b61212e81611ac4565b82525050565b60006020820190506121496000830184612125565b92915050565b6003811061215c57600080fd5b50565b60008135905061216e8161214f565b92915050565b6000806040838503121561218b5761218a611a03565b5b600061219985828601611c4f565b92505060206121aa8582860161215f565b9150509250929050565b6121bd81611a2d565b82525050565b600081519050919050565b600082825260208201905092915050565b60005b838110156121fd5780820151818401526020810190506121e2565b60008484015250505050565b6000612214826121c3565b61221e81856121ce565b935061222e8185602086016121df565b61223781611c6e565b840191505092915050565b61224b816120c2565b82525050565b61225a81611daa565b82525050565b600061010082019050612276600083018b612125565b612283602083018a612125565b61229060408301896121b4565b81810360608301526122a28188612209565b90506122b16080830187612242565b6122be60a0830186612251565b81810360c08301526122d08185612209565b90506122df60e0830184612020565b9998505050505050505050565b6122f581611a2d565b82525050565b600082825260208201905092915050565b6000612317826121c3565b61232181856122fb565b93506123318185602086016121df565b61233a81611c6e565b840191505092915050565b61234e816120c2565b82525050565b61235d81611daa565b82525050565b600082825260208201905092915050565b600061237f82611a98565b6123898185612363565b935061239483611ab4565b8060005b838110156123c55781516123ac8882611add565b97506123b783611af5565b925050600181019050612398565b5085935050505092915050565b6123db8161200e565b82525050565b6000610120830160008301516123fa6000860182611ace565b50602083015161240d6020860182611ace565b50604083015161242060408601826122ec565b5060608301518482036060860152612438828261230c565b915050608083015161244d6080860182612345565b5060a083015161246060a0860182612354565b5060c083015184820360c0860152612478828261230c565b91505060e083015184820360e08601526124928282612374565b9150506101008301516124a96101008601826123d2565b508091505092915050565b600060208201905081810360008301526124ce81846123e1565b905092915050565b60006020820190506124eb6000830184612251565b92915050565b7f4e487b7100000000000000000000000000000000000000000000000000000000600052603260045260246000fd5b7f4e487b7100000000000000000000000000000000000000000000000000000000600052601160045260246000fd5b600061255a826120c2565b91507fffffffffffffffffffffffffffffffffffffffffffffffffffffffffffffffff820361258c5761258b612520565b5b600182019050919050565b7f547261636b696e6720636f6e747261637420616c726561647920736574000000600082015250565b60006125cd601d836121ce565b91506125d882612597565b602082019050919050565b600060208201905081810360008301526125fc816125c0565b9050919050565b600060208201905061261860008301846121b4565b92915050565b6005811061262b57600080fd5b50565b60008151905061263d8161261e565b92915050565b60006020828403121561265957612658611a03565b5b60006126678482850161262e565b91505092915050565b7f4163636573732064656e6965643a204f6e6c7920666163746f7269657320616c60008201527f6c6f776564000000000000000000000000000000000000000000000000000000602082015250565b60006126cc6025836121ce565b91506126d782612670565b604082019050919050565b600060208201905081810360008301526126fb816126bf565b9050919050565b7f4572726f723a2050726f64756374204c6f7420494420616c726561647920657860008201527f6973747300000000000000000000000000000000000000000000000000000000602082015250565b600061275e6024836121ce565b915061276982612702565b604082019050919050565b6000602082019050818103600083015261278d81612751565b9050919050565b600080fd5b600080fd5b6000815190506127ad81611c38565b92915050565b6000815190506127c281611a3f565b92915050565b60006127db6127d684611cfa565b611cdf565b9050828152602081018484840111156127f7576127f6611c69565b5b6128028482856121df565b509392505050565b600082601f83011261281f5761281e611c64565b5b815161282f8482602086016127c8565b91505092915050565b600060a0828403121561284e5761284d612794565b5b61285860a0611cdf565b905060006128688482850161279e565b600083015250602061287c848285016127b3565b602083015250604082015167ffffffffffffffff8111156128a05761289f612799565b5b6128ac8482850161280a565b604083015250606082015167ffffffffffffffff8111156128d0576128cf612799565b5b6128dc8482850161280a565b606083015250608082015167ffffffffffffffff811115612900576128ff612799565b5b61290c8482850161280a565b60808301525092915050565b60006020828403121561292e5761292d611a03565b5b600082015167ffffffffffffffff81111561294c5761294b611a08565b5b61295884828501612838565b91505092915050565b7f4572726f723a2050726f6475637420494420646f6573206e6f74206578697374600082015250565b60006129976020836121ce565b91506129a282612961565b602082019050919050565b600060208201905081810360008301526129c68161298a565b9050919050565b600481106129da57600080fd5b50565b6000815190506129ec816129cd565b92915050565b600067ffffffffffffffff821115612a0d57612a0c611c7f565b5b602082029050602081019050919050565b600081519050612a2d816120cc565b92915050565b600060808284031215612a4957612a48612794565b5b612a536080611cdf565b9050600082015167ffffffffffffffff811115612a7357612a72612799565b5b612a7f8482850161280a565b600083015250602082015167ffffffffffffffff811115612aa357612aa2612799565b5b612aaf8482850161280a565b6020830152506040612ac3848285016129dd565b6040830152506060612ad784828501612a1e565b60608301525092915050565b6000612af6612af1846129f2565b611cdf565b90508083825260208201905060208402830185811115612b1957612b18611e0e565b5b835b81811015612b6057805167ffffffffffffffff811115612b3e57612b3d611c64565b5b808601612b4b8982612a33565b85526020850194505050602081019050612b1b565b5050509392505050565b600082601f830112612b7f57612b7e611c64565b5b8151612b8f848260208601612ae3565b91505092915050565b60006101008284031215612baf57612bae612794565b5b612bba610100611cdf565b90506000612bca8482850161279e565b6000830152506020612bde848285016127b3565b6020830152506040612bf28482850161279e565b604083015250606082015167ffffffffffffffff811115612c1657612c15612799565b5b612c228482850161280a565b6060830152506080612c36848285016129dd565b60808301525060a082015167ffffffffffffffff811115612c5a57612c59612799565b5b612c668482850161280a565b60a08301525060c082015167ffffffffffffffff811115612c8a57612c89612799565b5b612c968482850161280a565b60c08301525060e082015167ffffffffffffffff811115612cba57612cb9612799565b5b612cc684828501612b6a565b60e08301525092915050565b600060208284031215612ce857612ce7611a03565b5b600082015167ffffffffffffffff811115612d0657612d05611a08565b5b612d1284828501612b98565b91505092915050565b7f4572726f723a204d696c6b2054616e6b206d75737420626520617070726f766560008201527f6400000000000000000000000000000000000000000000000000000000000000602082015250565b6000612d776021836121ce565b9150612d8282612d1b565b604082019050919050565b60006020820190508181036000830152612da681612d6a565b9050919050565b7f4e487b7100000000000000000000000000000000000000000000000000000000600052602260045260246000fd5b60006002820490506001821680612df457607f821691505b602082108103612e0757612e06612dad565b5b50919050565b60008190508160005260206000209050919050565b60006020601f8301049050919050565b600082821b905092915050565b600060088302612e6f7fffffffffffffffffffffffffffffffffffffffffffffffffffffffffffffffff82612e32565b612e798683612e32565b95508019841693508086168417925050509392505050565b6000612eac612ea7612ea2846120c2565b611b82565b6120c2565b9050919050565b6000819050919050565b612ec683612e91565b612eda612ed282612eb3565b848454612e3f565b825550505050565b600090565b612eef612ee2565b612efa818484612ebd565b505050565b5b81811015612f1e57612f13600082612ee7565b600181019050612f00565b5050565b601f821115612f6357612f3481612e0d565b612f3d84612e22565b81016020851015612f4c578190505b612f60612f5885612e22565b830182612eff565b50505b505050565b600082821c905092915050565b6000612f8660001984600802612f68565b1980831691505092915050565b6000612f9f8383612f75565b9150826002028217905092915050565b612fb8826121c3565b67ffffffffffffffff811115612fd157612fd0611c7f565b5b612fdb8254612ddc565b612fe6828285612f22565b600060209050601f8311600181146130195760008415613007578287015190505b6130118582612f93565b865550613079565b601f19841661302786612e0d565b60005b8281101561304f5784890151825560018201915060208501945060208101905061302a565b8683101561306c5784890151613068601f891682612f75565b8355505b6001600288020188555050505b505050505050565b600060a082019050818103600083015261309b8188612209565b90506130aa6020830187612242565b6130b76040830186612251565b81810360608301526130c98185612209565b905081810360808301526130dd8184611b02565b90509695505050505050565b7f4572726f723a2050726f64756374204c6f7420646f6573206e6f74206578697360008201527f7400000000000000000000000000000000000000000000000000000000000000602082015250565b60006131456021836121ce565b9150613150826130e9565b604082019050919050565b6000602082019050818103600083015261317481613138565b9050919050565b7f547261636b696e6720636f6e7472616374206e6f742073657400000000000000600082015250565b60006131b16019836121ce565b91506131bc8261317b565b602082019050919050565b600060208201905081810360008301526131e0816131a4565b9050919050565b60006131fa6131f584611de2565b611cdf565b9050808382526020820190506020840283018581111561321d5761321c611e0e565b5b835b818110156132465780613232888261279e565b84526020840193505060208101905061321f565b5050509392505050565b600082601f83011261326557613264611c64565b5b81516132758482602086016131e7565b91505092915050565b600067ffffffffffffffff82111561329957613298611c7f565b5b602082029050602081019050919050565b60006132bd6132b88461327e565b611cdf565b905080838252602082019050602084028301858111156132e0576132df611e0e565b5b835b8181101561332757805167ffffffffffffffff81111561330557613304611c64565b5b808601613312898261280a565b855260208501945050506020810190506132e2565b5050509392505050565b600082601f83011261334657613345611c64565b5b81516133568482602086016132aa565b91505092915050565b60008060006060848603121561337857613377611a03565b5b600084015167ffffffffffffffff81111561339657613395611a08565b5b6133a286828701613250565b935050602084015167ffffffffffffffff8111156133c3576133c2611a08565b5b6133cf86828701613331565b925050604084015167ffffffffffffffff8111156133f0576133ef611a08565b5b6133fc86828701613331565b9150509250925092565b7f4572726f723a204e6f20747261636b696e67206461746120666f756e6420666f60008201527f7220746869732070726f64756374206c6f740000000000000000000000000000602082015250565b60006134626032836121ce565b915061346d82613406565b604082019050919050565b6000602082019050818103600083015261349181613455565b9050919050565b600381106134a557600080fd5b50565b6000815190506134b781613498565b92915050565b600060a082840312156134d3576134d2612794565b5b6134dd60a0611cdf565b905060006134ed8482850161279e565b60008301525060206135018482850161279e565b602083015250604082015167ffffffffffffffff81111561352557613524612799565b5b6135318482850161280a565b604083015250606082015167ffffffffffffffff81111561355557613554612799565b5b6135618482850161280a565b6060830152506080613575848285016134a8565b60808301525092915050565b600067ffffffffffffffff82111561359c5761359b611c7f565b5b602082029050602081019050919050565b6000819050919050565b6135c0816135ad565b81146135cb57600080fd5b50565b6000815190506135dd816135b7565b92915050565b600381106135f057600080fd5b50565b600081519050613602816135e3565b92915050565b6000610120828403121561361f5761361e612794565b5b61362a610120611cdf565b9050600061363a8482850161279e565b600083015250602061364e848285016127b3565b602083015250604061366284828501612a1e565b604083015250606061367684828501612a1e565b606083015250608061368a84828501612a1e565b60808301525060a061369e848285016135ce565b60a08301525060c082015167ffffffffffffffff8111156136c2576136c1612799565b5b6136ce8482850161280a565b60c08301525060e06136e2848285016135f3565b60e08301525061010082015167ffffffffffffffff81111561370757613706612799565b5b6137138482850161280a565b6101008301525092915050565b600061373361372e84613581565b611cdf565b9050808382526020820190506020840283018581111561375657613755611e0e565b5b835b8181101561379d57805167ffffffffffffffff81111561377b5761377a611c64565b5b8086016137888982613608565b85526020850194505050602081019050613758565b5050509392505050565b600082601f8301126137bc576137bb611c64565b5b81516137cc848260208601613720565b91505092915050565b600060a082840312156137eb576137ea612794565b5b6137f560a0611cdf565b905060006138058482850161279e565b600083015250602082015167ffffffffffffffff81111561382957613828612799565b5b6138358482850161280a565b602083015250604061384984828501612a1e565b604083015250606082015167ffffffffffffffff81111561386d5761386c612799565b5b6138798482850161280a565b606083015250608082015167ffffffffffffffff81111561389d5761389c612799565b5b6138a98482850161280a565b60808301525092915050565b6000806000606084860312156138ce576138cd611a03565b5b600084015167ffffffffffffffff8111156138ec576138eb611a08565b5b6138f8868287016134bd565b935050602084015167ffffffffffffffff81111561391957613918611a08565b5b613925868287016137a7565b925050604084015167ffffffffffffffff81111561394657613945611a08565b5b613952868287016137d5565b915050925092509256fea2646970667358221220d5b739ccb40eaab6782e149f448a101106efb4a69232b86e2fbc6fca204c11b964736f6c63430008130033",
  "immutableReferences": {},
  "source": "// SPDX-License-Identifier: MIT\npragma solidity ^0.8.19;\n\nimport \"./UserRegistry.sol\";\nimport \"./RawMilk.sol\";\nimport \"./Product.sol\";\nimport \"./Tracking.sol\"; //  Import Tracking.sol\n\ncontract ProductLot {\n    UserRegistry public userRegistry;\n    RawMilk public rawMilkContract;\n    Product public productContract;\n\n    struct ProductLotInfo {\n    bytes32 lotId;\n    bytes32 productId;\n    address factory;\n    string inspector;\n    uint256 inspectionDate;\n    bool grade;\n    string qualityAndNutritionCID;\n    bytes32[] milkTankIds;\n    ProductLotStatus status; //  \n}\n\n    enum ProductLotStatus { Created, InTransit, Received } //  \n    mapping(bytes32 => ProductLotInfo) public productLots;\n    bytes32[] public productLotIds;\n    event ProductLotStatusUpdated(bytes32 indexed lotId, ProductLotStatus newStatus);\n\n\n    event ProductLotCreated(\n        bytes32 indexed lotId,\n        bytes32 indexed productId,\n        address indexed factory,\n        string inspector,\n        uint256 inspectionDate,\n        bool grade,\n        string qualityAndNutritionCID,\n        bytes32[] milkTankIds\n    );\n\n    modifier onlyFactory() {\n        require(\n            userRegistry.getUserRole(msg.sender) == UserRegistry.UserRole.Factory,\n            \"Access denied: Only factories allowed\"\n        );\n        _;\n    }\n\n    constructor(address _userRegistry, address _rawMilkContract, address _productContract) {\n        userRegistry = UserRegistry(_userRegistry);\n        rawMilkContract = RawMilk(_rawMilkContract);\n        productContract = Product(_productContract);\n    }\n\n    function createProductLot(\n        bytes32 _lotId,\n        bytes32 _productId,\n        string memory _inspector,\n        bool _grade,\n        string memory _qualityAndNutritionCID,\n        bytes32[] memory _milkTankIds\n    ) public onlyFactory {\n        require(productLots[_lotId].lotId == bytes32(0), \"Error: Product Lot ID already exists\");\n        require(productContract.getProductDetails(_productId).productId != bytes32(0), \"Error: Product ID does not exist\");\n\n        for (uint i = 0; i < _milkTankIds.length; i++) {\n            require(\n                rawMilkContract.getMilkTank(_milkTankIds[i]).status == RawMilk.MilkStatus.Approved,\n                \"Error: Milk Tank must be approved\"\n            );\n        }\nProductLotStatus initialStatus = ProductLotStatus.Created; // Default\n        productLots[_lotId] = ProductLotInfo({\n    lotId: _lotId,\n    productId: _productId,\n    factory: msg.sender,\n    inspector: _inspector,\n    inspectionDate: block.timestamp,\n    grade: _grade,\n    qualityAndNutritionCID: _qualityAndNutritionCID,\n    milkTankIds: _milkTankIds,\n    status: initialStatus\n    });\n\n\n        productLotIds.push(_lotId);\n        //  ProductLot \n    for (uint i = 0; i < _milkTankIds.length; i++) {\n        rawMilkContract.markMilkTankAsUsed(_milkTankIds[i]); //  Mark  Used\n    }\n\n        emit ProductLotCreated(_lotId, _productId, msg.sender, _inspector, block.timestamp, _grade, _qualityAndNutritionCID, _milkTankIds);\n    }\n\n    function getProductLot(bytes32 _lotId) public view returns (ProductLotInfo memory) {\n        require(productLots[_lotId].lotId != bytes32(0), \"Error: Product Lot does not exist\");\n        return productLots[_lotId];\n    }\n\n    function isProductLotExists(bytes32 _lotId) public view returns (bool) {\n        return productLots[_lotId].lotId != bytes32(0);\n    }\n\n    function getProductLotsByFactory(address _factory) public view returns (bytes32[] memory) {\n        uint count = 0;\n        for (uint i = 0; i < productLotIds.length; i++) {\n            if (productLots[productLotIds[i]].factory == _factory) {\n                count++;\n            }\n        }\n\n        bytes32[] memory factoryLots = new bytes32[](count);\n        uint index = 0;\n        for (uint i = 0; i < productLotIds.length; i++) {\n            if (productLots[productLotIds[i]].factory == _factory) {\n                factoryLots[index] = productLotIds[i];\n                index++;\n            }\n        }\n\n        return factoryLots;\n    }\n\n    function getMilkTanksByProductLot(bytes32 _lotId) public view returns (bytes32[] memory) {\n        require(productLots[_lotId].lotId != bytes32(0), \"Error: Product Lot does not exist\");\n        return productLots[_lotId].milkTankIds;\n    }\n    Tracking public trackingContract; //  Tracking Contract ()\nfunction setTrackingContract(address _trackingContract) public {\n    require(address(trackingContract) == address(0), \"Tracking contract already set\"); //   Tracking Contract\n    trackingContract = Tracking(_trackingContract);\n}\nfunction updateProductLotStatus(bytes32 _lotId) public {\n    require(productLots[_lotId].lotId != bytes32(0), \"Error: Product Lot does not exist\");\n    require(address(trackingContract) != address(0), \"Tracking contract not set\");\n\n    //   getTrackingByLotId ( trackingIds )\n    (bytes32[] memory trackingIds, , ) = trackingContract.getTrackingByLotId(_lotId);\n    require(trackingIds.length > 0, \"Error: No tracking data found for this product lot\");\n\n    bool allReceived = true;\n    bool hasInTransit = false;\n\n    for (uint i = 0; i < trackingIds.length; i++) {\n        //   getTrackingById ( TrackingEvent )\n        (Tracking.TrackingEvent memory trackingEvent, , ) = trackingContract.getTrackingById(trackingIds[i]);\n\n        if (trackingEvent.status == Tracking.TrackingStatus.InTransit) {\n            hasInTransit = true;\n        }\n        if (trackingEvent.status != Tracking.TrackingStatus.Received) {\n            allReceived = false;\n        }\n    }\n\n    if (hasInTransit) {\n        productLots[_lotId].status = ProductLotStatus.InTransit;\n        emit ProductLotStatusUpdated(_lotId, ProductLotStatus.InTransit);\n        return;\n    }\n\n    if (allReceived) {\n        productLots[_lotId].status = ProductLotStatus.Received;\n        emit ProductLotStatusUpdated(_lotId, ProductLotStatus.Received);\n    }\n}\nfunction forceUpdateStatus(bytes32 _lotId, ProductLotStatus _status) public onlyFactory {\n    require(productLots[_lotId].lotId != bytes32(0), \"Error: Product Lot does not exist\");\n    productLots[_lotId].status = _status;\n    emit ProductLotStatusUpdated(_lotId, _status);\n}\nfunction getProductLotStatus(bytes32 _lotId) public view returns (ProductLotStatus) {\n    require(productLots[_lotId].lotId != bytes32(0), \"Error: Product Lot does not exist\");\n    return productLots[_lotId].status;\n}\n\n\n}\n",
  "sourcePath": "/home/kmitl-ivo/Documents/Back/Backend/solidity/contracts/ProductLot.sol",
  "compiler": {
    "name": "solc",
    "version": "0.8.19+commit.7dd6d404.Emscripten.clang"
  },
  "schemaVersion": "3.4.16",
  "updatedAt": "2025-03-17T17:40:07.356Z",
  "networkType": "ethereum",
  "devdoc": {
    "kind": "dev",
    "methods": {},
    "version": 1
  },
  "userdoc": {
    "kind": "user",
    "methods": {},
    "version": 1
  }
}