{
  "contractName": "ProductLot",
  "abi": [
    {
      "inputs": [
        {
          "internalType": "address",
          "name": "_userRegistry",
          "type": "address"
        },
        {
          "internalType": "address",
          "name": "_rawMilkContract",
          "type": "address"
        },
        {
          "internalType": "address",
          "name": "_productContract",
          "type": "address"
        }
      ],
      "stateMutability": "nonpayable",
      "type": "constructor"
    },
    {
      "anonymous": false,
      "inputs": [
        {
          "indexed": true,
          "internalType": "bytes32",
          "name": "lotId",
          "type": "bytes32"
        },
        {
          "indexed": true,
          "internalType": "bytes32",
          "name": "productId",
          "type": "bytes32"
        },
        {
          "indexed": true,
          "internalType": "address",
          "name": "factory",
          "type": "address"
        },
        {
          "indexed": false,
          "internalType": "string",
          "name": "inspector",
          "type": "string"
        },
        {
          "indexed": false,
          "internalType": "uint256",
          "name": "inspectionDate",
          "type": "uint256"
        },
        {
          "indexed": false,
          "internalType": "bool",
          "name": "grade",
          "type": "bool"
        },
        {
          "indexed": false,
          "internalType": "string",
          "name": "qualityAndNutritionCID",
          "type": "string"
        },
        {
          "indexed": false,
          "internalType": "bytes32[]",
          "name": "milkTankIds",
          "type": "bytes32[]"
        }
      ],
      "name": "ProductLotCreated",
      "type": "event"
    },
    {
      "inputs": [],
      "name": "productContract",
      "outputs": [
        {
          "internalType": "contract Product",
          "name": "",
          "type": "address"
        }
      ],
      "stateMutability": "view",
      "type": "function",
      "constant": true
    },
    {
      "inputs": [
        {
          "internalType": "uint256",
          "name": "",
          "type": "uint256"
        }
      ],
      "name": "productLotIds",
      "outputs": [
        {
          "internalType": "bytes32",
          "name": "",
          "type": "bytes32"
        }
      ],
      "stateMutability": "view",
      "type": "function",
      "constant": true
    },
    {
      "inputs": [
        {
          "internalType": "bytes32",
          "name": "",
          "type": "bytes32"
        }
      ],
      "name": "productLots",
      "outputs": [
        {
          "internalType": "bytes32",
          "name": "lotId",
          "type": "bytes32"
        },
        {
          "internalType": "bytes32",
          "name": "productId",
          "type": "bytes32"
        },
        {
          "internalType": "address",
          "name": "factory",
          "type": "address"
        },
        {
          "internalType": "string",
          "name": "inspector",
          "type": "string"
        },
        {
          "internalType": "uint256",
          "name": "inspectionDate",
          "type": "uint256"
        },
        {
          "internalType": "bool",
          "name": "grade",
          "type": "bool"
        },
        {
          "internalType": "string",
          "name": "qualityAndNutritionCID",
          "type": "string"
        }
      ],
      "stateMutability": "view",
      "type": "function",
      "constant": true
    },
    {
      "inputs": [],
      "name": "rawMilkContract",
      "outputs": [
        {
          "internalType": "contract RawMilk",
          "name": "",
          "type": "address"
        }
      ],
      "stateMutability": "view",
      "type": "function",
      "constant": true
    },
    {
      "inputs": [],
      "name": "userRegistry",
      "outputs": [
        {
          "internalType": "contract UserRegistry",
          "name": "",
          "type": "address"
        }
      ],
      "stateMutability": "view",
      "type": "function",
      "constant": true
    },
    {
      "inputs": [
        {
          "internalType": "bytes32",
          "name": "_lotId",
          "type": "bytes32"
        },
        {
          "internalType": "bytes32",
          "name": "_productId",
          "type": "bytes32"
        },
        {
          "internalType": "string",
          "name": "_inspector",
          "type": "string"
        },
        {
          "internalType": "bool",
          "name": "_grade",
          "type": "bool"
        },
        {
          "internalType": "string",
          "name": "_qualityAndNutritionCID",
          "type": "string"
        },
        {
          "internalType": "bytes32[]",
          "name": "_milkTankIds",
          "type": "bytes32[]"
        }
      ],
      "name": "createProductLot",
      "outputs": [],
      "stateMutability": "nonpayable",
      "type": "function"
    },
    {
      "inputs": [
        {
          "internalType": "bytes32",
          "name": "_lotId",
          "type": "bytes32"
        }
      ],
      "name": "getProductLot",
      "outputs": [
        {
          "components": [
            {
              "internalType": "bytes32",
              "name": "lotId",
              "type": "bytes32"
            },
            {
              "internalType": "bytes32",
              "name": "productId",
              "type": "bytes32"
            },
            {
              "internalType": "address",
              "name": "factory",
              "type": "address"
            },
            {
              "internalType": "string",
              "name": "inspector",
              "type": "string"
            },
            {
              "internalType": "uint256",
              "name": "inspectionDate",
              "type": "uint256"
            },
            {
              "internalType": "bool",
              "name": "grade",
              "type": "bool"
            },
            {
              "internalType": "string",
              "name": "qualityAndNutritionCID",
              "type": "string"
            },
            {
              "internalType": "bytes32[]",
              "name": "milkTankIds",
              "type": "bytes32[]"
            }
          ],
          "internalType": "struct ProductLot.ProductLotInfo",
          "name": "",
          "type": "tuple"
        }
      ],
      "stateMutability": "view",
      "type": "function",
      "constant": true
    },
    {
      "inputs": [
        {
          "internalType": "bytes32",
          "name": "_lotId",
          "type": "bytes32"
        }
      ],
      "name": "isProductLotExists",
      "outputs": [
        {
          "internalType": "bool",
          "name": "",
          "type": "bool"
        }
      ],
      "stateMutability": "view",
      "type": "function",
      "constant": true
    },
    {
      "inputs": [
        {
          "internalType": "address",
          "name": "_factory",
          "type": "address"
        }
      ],
      "name": "getProductLotsByFactory",
      "outputs": [
        {
          "internalType": "bytes32[]",
          "name": "",
          "type": "bytes32[]"
        }
      ],
      "stateMutability": "view",
      "type": "function",
      "constant": true
    },
    {
      "inputs": [
        {
          "internalType": "bytes32",
          "name": "_lotId",
          "type": "bytes32"
        }
      ],
      "name": "getMilkTanksByProductLot",
      "outputs": [
        {
          "internalType": "bytes32[]",
          "name": "",
          "type": "bytes32[]"
        }
      ],
      "stateMutability": "view",
      "type": "function",
      "constant": true
    }
  ],
  "bytecode": "0x60806040523480156200001157600080fd5b50604051620027e5380380620027e583398181016040528101906200003791906200016c565b826000806101000a81548173ffffffffffffffffffffffffffffffffffffffff021916908373ffffffffffffffffffffffffffffffffffffffff16021790555081600160006101000a81548173ffffffffffffffffffffffffffffffffffffffff021916908373ffffffffffffffffffffffffffffffffffffffff16021790555080600260006101000a81548173ffffffffffffffffffffffffffffffffffffffff021916908373ffffffffffffffffffffffffffffffffffffffff160217905550505050620001c8565b600080fd5b600073ffffffffffffffffffffffffffffffffffffffff82169050919050565b6000620001348262000107565b9050919050565b620001468162000127565b81146200015257600080fd5b50565b60008151905062000166816200013b565b92915050565b60008060006060848603121562000188576200018762000102565b5b6000620001988682870162000155565b9350506020620001ab8682870162000155565b9250506040620001be8682870162000155565b9150509250925092565b61260d80620001d86000396000f3fe608060405234801561001057600080fd5b506004361061009e5760003560e01c8063718a947c11610066578063718a947c14610149578063a7a8e53e14610179578063d5729549146101a9578063d794e362146101df578063fa0bff301461020f5761009e565b806301b2a86f146100a35780631ce95d30146100d35780632a28d4df146100f157806343f9ad451461010f5780635c7460d61461012b575b600080fd5b6100bd60048036038101906100b8919061106a565b61023f565b6040516100ca919061115f565b60405180910390f35b6100db61044d565b6040516100e891906111e0565b60405180910390f35b6100f9610473565b604051610106919061121c565b60405180910390f35b610129600480360381019061012491906114a9565b610499565b005b6101336109e1565b60405161014091906115ab565b60405180910390f35b610163600480360381019061015e91906115c6565b610a05565b604051610170919061115f565b60405180910390f35b610193600480360381019061018e9190611629565b610ace565b6040516101a09190611665565b60405180910390f35b6101c360048036038101906101be91906115c6565b610af2565b6040516101d6979695949392919061172c565b60405180910390f35b6101f960048036038101906101f491906115c6565b610c71565b604051610206919061194d565b60405180910390f35b610229600480360381019061022491906115c6565b610f05565b604051610236919061196f565b60405180910390f35b60606000805b6004805490508110156102fb578373ffffffffffffffffffffffffffffffffffffffff1660036000600484815481106102815761028061198a565b5b9060005260206000200154815260200190815260200160002060020160009054906101000a900473ffffffffffffffffffffffffffffffffffffffff1673ffffffffffffffffffffffffffffffffffffffff16036102e85781806102e4906119e8565b9250505b80806102f3906119e8565b915050610245565b5060008167ffffffffffffffff8111156103185761031761127e565b5b6040519080825280602002602001820160405280156103465781602001602082028036833780820191505090505b5090506000805b600480549050811015610441578573ffffffffffffffffffffffffffffffffffffffff1660036000600484815481106103895761038861198a565b5b9060005260206000200154815260200190815260200160002060020160009054906101000a900473ffffffffffffffffffffffffffffffffffffffff1673ffffffffffffffffffffffffffffffffffffffff160361042e57600481815481106103f5576103f461198a565b5b90600052602060002001548383815181106104135761041261198a565b5b602002602001018181525050818061042a906119e8565b9250505b8080610439906119e8565b91505061034d565b50819350505050919050565b600160009054906101000a900473ffffffffffffffffffffffffffffffffffffffff1681565b600260009054906101000a900473ffffffffffffffffffffffffffffffffffffffff1681565b600260048111156104ad576104ac611a30565b5b60008054906101000a900473ffffffffffffffffffffffffffffffffffffffff1673ffffffffffffffffffffffffffffffffffffffff166327820851336040518263ffffffff1660e01b81526004016105069190611a5f565b602060405180830381865afa158015610523573d6000803e3d6000fd5b505050506040513d601f19601f820116820180604052508101906105479190611a9f565b600481111561055957610558611a30565b5b14610599576040517f08c379a000000000000000000000000000000000000000000000000000000000815260040161059090611b3e565b60405180910390fd5b6000801b6003600088815260200190815260200160002060000154146105f4576040517f08c379a00000000000000000000000000000000000000000000000000000000081526004016105eb90611bd0565b60405180910390fd5b6000801b600260009054906101000a900473ffffffffffffffffffffffffffffffffffffffff1673ffffffffffffffffffffffffffffffffffffffff1663b74d3fb5876040518263ffffffff1660e01b81526004016106539190611665565b600060405180830381865afa158015610670573d6000803e3d6000fd5b505050506040513d6000823e3d601f19601f820116820180604052508101906106999190611d74565b60000151036106dd576040517f08c379a00000000000000000000000000000000000000000000000000000000081526004016106d490611e09565b60405180910390fd5b60005b815181101561082157600160028111156106fd576106fc611a30565b5b600160009054906101000a900473ffffffffffffffffffffffffffffffffffffffff1673ffffffffffffffffffffffffffffffffffffffff16635a03541f84848151811061074e5761074d61198a565b5b60200260200101516040518263ffffffff1660e01b81526004016107729190611665565b600060405180830381865afa15801561078f573d6000803e3d6000fd5b505050506040513d6000823e3d601f19601f820116820180604052508101906107b8919061212e565b6080015160028111156107ce576107cd611a30565b5b1461080e576040517f08c379a0000000000000000000000000000000000000000000000000000000008152600401610805906121e9565b60405180910390fd5b8080610819906119e8565b9150506106e0565b506040518061010001604052808781526020018681526020013373ffffffffffffffffffffffffffffffffffffffff16815260200185815260200142815260200184151581526020018381526020018281525060036000888152602001908152602001600020600082015181600001556020820151816001015560408201518160020160006101000a81548173ffffffffffffffffffffffffffffffffffffffff021916908373ffffffffffffffffffffffffffffffffffffffff16021790555060608201518160030190816108f7919061240b565b506080820151816004015560a08201518160050160006101000a81548160ff02191690831515021790555060c0820151816006019081610937919061240b565b5060e0820151816007019080519060200190610954929190610f2b565b5090505060048690806001815401808255809150506001900390600052602060002001600090919091909150553373ffffffffffffffffffffffffffffffffffffffff1685877f23013b10378a942712c02f38e17299de4d74256e5007665263df05dd00827c4487428888886040516109d19594939291906124dd565b60405180910390a4505050505050565b60008054906101000a900473ffffffffffffffffffffffffffffffffffffffff1681565b60606000801b600360008481526020019081526020016000206000015403610a62576040517f08c379a0000000000000000000000000000000000000000000000000000000008152600401610a59906125b7565b60405180910390fd5b60036000838152602001908152602001600020600701805480602002602001604051908101604052809291908181526020018280548015610ac257602002820191906000526020600020905b815481526020019060010190808311610aae575b50505050509050919050565b60048181548110610ade57600080fd5b906000526020600020016000915090505481565b60036020528060005260406000206000915090508060000154908060010154908060020160009054906101000a900473ffffffffffffffffffffffffffffffffffffffff1690806003018054610b4790612238565b80601f0160208091040260200160405190810160405280929190818152602001828054610b7390612238565b8015610bc05780601f10610b9557610100808354040283529160200191610bc0565b820191906000526020600020905b815481529060010190602001808311610ba357829003601f168201915b5050505050908060040154908060050160009054906101000a900460ff1690806006018054610bee90612238565b80601f0160208091040260200160405190810160405280929190818152602001828054610c1a90612238565b8015610c675780601f10610c3c57610100808354040283529160200191610c67565b820191906000526020600020905b815481529060010190602001808311610c4a57829003601f168201915b5050505050905087565b610c79610f78565b6000801b600360008481526020019081526020016000206000015403610cd4576040517f08c379a0000000000000000000000000000000000000000000000000000000008152600401610ccb906125b7565b60405180910390fd5b600360008381526020019081526020016000206040518061010001604052908160008201548152602001600182015481526020016002820160009054906101000a900473ffffffffffffffffffffffffffffffffffffffff1673ffffffffffffffffffffffffffffffffffffffff1673ffffffffffffffffffffffffffffffffffffffff168152602001600382018054610d6d90612238565b80601f0160208091040260200160405190810160405280929190818152602001828054610d9990612238565b8015610de65780601f10610dbb57610100808354040283529160200191610de6565b820191906000526020600020905b815481529060010190602001808311610dc957829003601f168201915b50505050508152602001600482015481526020016005820160009054906101000a900460ff16151515158152602001600682018054610e2490612238565b80601f0160208091040260200160405190810160405280929190818152602001828054610e5090612238565b8015610e9d5780601f10610e7257610100808354040283529160200191610e9d565b820191906000526020600020905b815481529060010190602001808311610e8057829003601f168201915b5050505050815260200160078201805480602002602001604051908101604052809291908181526020018280548015610ef557602002820191906000526020600020905b815481526020019060010190808311610ee1575b5050505050815250509050919050565b60008060001b600360008481526020019081526020016000206000015414159050919050565b828054828255906000526020600020908101928215610f67579160200282015b82811115610f66578251825591602001919060010190610f4b565b5b509050610f749190610fdb565b5090565b6040518061010001604052806000801916815260200160008019168152602001600073ffffffffffffffffffffffffffffffffffffffff168152602001606081526020016000815260200160001515815260200160608152602001606081525090565b5b80821115610ff4576000816000905550600101610fdc565b5090565b6000604051905090565b600080fd5b600080fd5b600073ffffffffffffffffffffffffffffffffffffffff82169050919050565b60006110378261100c565b9050919050565b6110478161102c565b811461105257600080fd5b50565b6000813590506110648161103e565b92915050565b6000602082840312156110805761107f611002565b5b600061108e84828501611055565b91505092915050565b600081519050919050565b600082825260208201905092915050565b6000819050602082019050919050565b6000819050919050565b6110d6816110c3565b82525050565b60006110e883836110cd565b60208301905092915050565b6000602082019050919050565b600061110c82611097565b61111681856110a2565b9350611121836110b3565b8060005b8381101561115257815161113988826110dc565b9750611144836110f4565b925050600181019050611125565b5085935050505092915050565b600060208201905081810360008301526111798184611101565b905092915050565b6000819050919050565b60006111a66111a161119c8461100c565b611181565b61100c565b9050919050565b60006111b88261118b565b9050919050565b60006111ca826111ad565b9050919050565b6111da816111bf565b82525050565b60006020820190506111f560008301846111d1565b92915050565b6000611206826111ad565b9050919050565b611216816111fb565b82525050565b6000602082019050611231600083018461120d565b92915050565b611240816110c3565b811461124b57600080fd5b50565b60008135905061125d81611237565b92915050565b600080fd5b600080fd5b6000601f19601f8301169050919050565b7f4e487b7100000000000000000000000000000000000000000000000000000000600052604160045260246000fd5b6112b68261126d565b810181811067ffffffffffffffff821117156112d5576112d461127e565b5b80604052505050565b60006112e8610ff8565b90506112f482826112ad565b919050565b600067ffffffffffffffff8211156113145761131361127e565b5b61131d8261126d565b9050602081019050919050565b82818337600083830152505050565b600061134c611347846112f9565b6112de565b90508281526020810184848401111561136857611367611268565b5b61137384828561132a565b509392505050565b600082601f8301126113905761138f611263565b5b81356113a0848260208601611339565b91505092915050565b60008115159050919050565b6113be816113a9565b81146113c957600080fd5b50565b6000813590506113db816113b5565b92915050565b600067ffffffffffffffff8211156113fc576113fb61127e565b5b602082029050602081019050919050565b600080fd5b6000611425611420846113e1565b6112de565b905080838252602082019050602084028301858111156114485761144761140d565b5b835b81811015611471578061145d888261124e565b84526020840193505060208101905061144a565b5050509392505050565b600082601f8301126114905761148f611263565b5b81356114a0848260208601611412565b91505092915050565b60008060008060008060c087890312156114c6576114c5611002565b5b60006114d489828a0161124e565b96505060206114e589828a0161124e565b955050604087013567ffffffffffffffff81111561150657611505611007565b5b61151289828a0161137b565b945050606061152389828a016113cc565b935050608087013567ffffffffffffffff81111561154457611543611007565b5b61155089828a0161137b565b92505060a087013567ffffffffffffffff81111561157157611570611007565b5b61157d89828a0161147b565b9150509295509295509295565b6000611595826111ad565b9050919050565b6115a58161158a565b82525050565b60006020820190506115c0600083018461159c565b92915050565b6000602082840312156115dc576115db611002565b5b60006115ea8482850161124e565b91505092915050565b6000819050919050565b611606816115f3565b811461161157600080fd5b50565b600081359050611623816115fd565b92915050565b60006020828403121561163f5761163e611002565b5b600061164d84828501611614565b91505092915050565b61165f816110c3565b82525050565b600060208201905061167a6000830184611656565b92915050565b6116898161102c565b82525050565b600081519050919050565b600082825260208201905092915050565b60005b838110156116c95780820151818401526020810190506116ae565b60008484015250505050565b60006116e08261168f565b6116ea818561169a565b93506116fa8185602086016116ab565b6117038161126d565b840191505092915050565b611717816115f3565b82525050565b611726816113a9565b82525050565b600060e082019050611741600083018a611656565b61174e6020830189611656565b61175b6040830188611680565b818103606083015261176d81876116d5565b905061177c608083018661170e565b61178960a083018561171d565b81810360c083015261179b81846116d5565b905098975050505050505050565b6117b28161102c565b82525050565b600082825260208201905092915050565b60006117d48261168f565b6117de81856117b8565b93506117ee8185602086016116ab565b6117f78161126d565b840191505092915050565b61180b816115f3565b82525050565b61181a816113a9565b82525050565b600082825260208201905092915050565b600061183c82611097565b6118468185611820565b9350611851836110b3565b8060005b8381101561188257815161186988826110dc565b9750611874836110f4565b925050600181019050611855565b5085935050505092915050565b6000610100830160008301516118a860008601826110cd565b5060208301516118bb60208601826110cd565b5060408301516118ce60408601826117a9565b50606083015184820360608601526118e682826117c9565b91505060808301516118fb6080860182611802565b5060a083015161190e60a0860182611811565b5060c083015184820360c086015261192682826117c9565b91505060e083015184820360e08601526119408282611831565b9150508091505092915050565b60006020820190508181036000830152611967818461188f565b905092915050565b6000602082019050611984600083018461171d565b92915050565b7f4e487b7100000000000000000000000000000000000000000000000000000000600052603260045260246000fd5b7f4e487b7100000000000000000000000000000000000000000000000000000000600052601160045260246000fd5b60006119f3826115f3565b91507fffffffffffffffffffffffffffffffffffffffffffffffffffffffffffffffff8203611a2557611a246119b9565b5b600182019050919050565b7f4e487b7100000000000000000000000000000000000000000000000000000000600052602160045260246000fd5b6000602082019050611a746000830184611680565b92915050565b60058110611a8757600080fd5b50565b600081519050611a9981611a7a565b92915050565b600060208284031215611ab557611ab4611002565b5b6000611ac384828501611a8a565b91505092915050565b7f4163636573732064656e6965643a204f6e6c7920666163746f7269657320616c60008201527f6c6f776564000000000000000000000000000000000000000000000000000000602082015250565b6000611b2860258361169a565b9150611b3382611acc565b604082019050919050565b60006020820190508181036000830152611b5781611b1b565b9050919050565b7f4572726f723a2050726f64756374204c6f7420494420616c726561647920657860008201527f6973747300000000000000000000000000000000000000000000000000000000602082015250565b6000611bba60248361169a565b9150611bc582611b5e565b604082019050919050565b60006020820190508181036000830152611be981611bad565b9050919050565b600080fd5b600080fd5b600081519050611c0981611237565b92915050565b600081519050611c1e8161103e565b92915050565b6000611c37611c32846112f9565b6112de565b905082815260208101848484011115611c5357611c52611268565b5b611c5e8482856116ab565b509392505050565b600082601f830112611c7b57611c7a611263565b5b8151611c8b848260208601611c24565b91505092915050565b600060a08284031215611caa57611ca9611bf0565b5b611cb460a06112de565b90506000611cc484828501611bfa565b6000830152506020611cd884828501611c0f565b602083015250604082015167ffffffffffffffff811115611cfc57611cfb611bf5565b5b611d0884828501611c66565b604083015250606082015167ffffffffffffffff811115611d2c57611d2b611bf5565b5b611d3884828501611c66565b606083015250608082015167ffffffffffffffff811115611d5c57611d5b611bf5565b5b611d6884828501611c66565b60808301525092915050565b600060208284031215611d8a57611d89611002565b5b600082015167ffffffffffffffff811115611da857611da7611007565b5b611db484828501611c94565b91505092915050565b7f4572726f723a2050726f6475637420494420646f6573206e6f74206578697374600082015250565b6000611df360208361169a565b9150611dfe82611dbd565b602082019050919050565b60006020820190508181036000830152611e2281611de6565b9050919050565b60038110611e3657600080fd5b50565b600081519050611e4881611e29565b92915050565b600067ffffffffffffffff821115611e6957611e6861127e565b5b602082029050602081019050919050565b600081519050611e89816115fd565b92915050565b600060808284031215611ea557611ea4611bf0565b5b611eaf60806112de565b9050600082015167ffffffffffffffff811115611ecf57611ece611bf5565b5b611edb84828501611c66565b600083015250602082015167ffffffffffffffff811115611eff57611efe611bf5565b5b611f0b84828501611c66565b6020830152506040611f1f84828501611e39565b6040830152506060611f3384828501611e7a565b60608301525092915050565b6000611f52611f4d84611e4e565b6112de565b90508083825260208201905060208402830185811115611f7557611f7461140d565b5b835b81811015611fbc57805167ffffffffffffffff811115611f9a57611f99611263565b5b808601611fa78982611e8f565b85526020850194505050602081019050611f77565b5050509392505050565b600082601f830112611fdb57611fda611263565b5b8151611feb848260208601611f3f565b91505092915050565b6000610100828403121561200b5761200a611bf0565b5b6120166101006112de565b9050600061202684828501611bfa565b600083015250602061203a84828501611c0f565b602083015250604061204e84828501611bfa565b604083015250606082015167ffffffffffffffff81111561207257612071611bf5565b5b61207e84828501611c66565b606083015250608061209284828501611e39565b60808301525060a082015167ffffffffffffffff8111156120b6576120b5611bf5565b5b6120c284828501611c66565b60a08301525060c082015167ffffffffffffffff8111156120e6576120e5611bf5565b5b6120f284828501611c66565b60c08301525060e082015167ffffffffffffffff81111561211657612115611bf5565b5b61212284828501611fc6565b60e08301525092915050565b60006020828403121561214457612143611002565b5b600082015167ffffffffffffffff81111561216257612161611007565b5b61216e84828501611ff4565b91505092915050565b7f4572726f723a204d696c6b2054616e6b206d75737420626520617070726f766560008201527f6400000000000000000000000000000000000000000000000000000000000000602082015250565b60006121d360218361169a565b91506121de82612177565b604082019050919050565b60006020820190508181036000830152612202816121c6565b9050919050565b7f4e487b7100000000000000000000000000000000000000000000000000000000600052602260045260246000fd5b6000600282049050600182168061225057607f821691505b60208210810361226357612262612209565b5b50919050565b60008190508160005260206000209050919050565b60006020601f8301049050919050565b600082821b905092915050565b6000600883026122cb7fffffffffffffffffffffffffffffffffffffffffffffffffffffffffffffffff8261228e565b6122d5868361228e565b95508019841693508086168417925050509392505050565b60006123086123036122fe846115f3565b611181565b6115f3565b9050919050565b6000819050919050565b612322836122ed565b61233661232e8261230f565b84845461229b565b825550505050565b600090565b61234b61233e565b612356818484612319565b505050565b5b8181101561237a5761236f600082612343565b60018101905061235c565b5050565b601f8211156123bf5761239081612269565b6123998461227e565b810160208510156123a8578190505b6123bc6123b48561227e565b83018261235b565b50505b505050565b600082821c905092915050565b60006123e2600019846008026123c4565b1980831691505092915050565b60006123fb83836123d1565b9150826002028217905092915050565b6124148261168f565b67ffffffffffffffff81111561242d5761242c61127e565b5b6124378254612238565b61244282828561237e565b600060209050601f8311600181146124755760008415612463578287015190505b61246d85826123ef565b8655506124d5565b601f19841661248386612269565b60005b828110156124ab57848901518255600182019150602085019450602081019050612486565b868310156124c857848901516124c4601f8916826123d1565b8355505b6001600288020188555050505b505050505050565b600060a08201905081810360008301526124f781886116d5565b9050612506602083018761170e565b612513604083018661171d565b818103606083015261252581856116d5565b905081810360808301526125398184611101565b90509695505050505050565b7f4572726f723a2050726f64756374204c6f7420646f6573206e6f74206578697360008201527f7400000000000000000000000000000000000000000000000000000000000000602082015250565b60006125a160218361169a565b91506125ac82612545565b604082019050919050565b600060208201905081810360008301526125d081612594565b905091905056fea26469706673582212207cb846b84b4d584c9371e7be8130956a3044628ca494fc119549dd2bdaf1e75564736f6c63430008130033",
  "immutableReferences": {},
  "source": "// SPDX-License-Identifier: MIT\npragma solidity ^0.8.19;\n\nimport \"./UserRegistry.sol\";\nimport \"./RawMilk.sol\";\nimport \"./Product.sol\";\n\ncontract ProductLot {\n    UserRegistry public userRegistry;\n    RawMilk public rawMilkContract;\n    Product public productContract;\n\n    struct ProductLotInfo {\n        bytes32 lotId;\n        bytes32 productId;\n        address factory;\n        string inspector;\n        uint256 inspectionDate;\n        bool grade; // true = , false = \n        string qualityAndNutritionCID;\n        bytes32[] milkTankIds;\n    }\n\n    mapping(bytes32 => ProductLotInfo) public productLots;\n    bytes32[] public productLotIds;\n\n    event ProductLotCreated(\n        bytes32 indexed lotId,\n        bytes32 indexed productId,\n        address indexed factory,\n        string inspector,\n        uint256 inspectionDate,\n        bool grade,\n        string qualityAndNutritionCID,\n        bytes32[] milkTankIds\n    );\n\n    modifier onlyFactory() {\n        require(\n            userRegistry.getUserRole(msg.sender) == UserRegistry.UserRole.Factory,\n            \"Access denied: Only factories allowed\"\n        );\n        _;\n    }\n\n    constructor(address _userRegistry, address _rawMilkContract, address _productContract) {\n        userRegistry = UserRegistry(_userRegistry);\n        rawMilkContract = RawMilk(_rawMilkContract);\n        productContract = Product(_productContract);\n    }\n\n    function createProductLot(\n        bytes32 _lotId,\n        bytes32 _productId,\n        string memory _inspector,\n        bool _grade,\n        string memory _qualityAndNutritionCID,\n        bytes32[] memory _milkTankIds\n    ) public onlyFactory {\n        require(productLots[_lotId].lotId == bytes32(0), \"Error: Product Lot ID already exists\");\n        require(productContract.getProductDetails(_productId).productId != bytes32(0), \"Error: Product ID does not exist\");\n\n        for (uint i = 0; i < _milkTankIds.length; i++) {\n            require(\n                rawMilkContract.getMilkTank(_milkTankIds[i]).status == RawMilk.MilkStatus.Approved,\n                \"Error: Milk Tank must be approved\"\n            );\n        }\n\n        productLots[_lotId] = ProductLotInfo({\n            lotId: _lotId,\n            productId: _productId,\n            factory: msg.sender,\n            inspector: _inspector,\n            inspectionDate: block.timestamp,\n            grade: _grade,\n            qualityAndNutritionCID: _qualityAndNutritionCID,\n            milkTankIds: _milkTankIds\n        });\n\n        productLotIds.push(_lotId);\n\n        emit ProductLotCreated(_lotId, _productId, msg.sender, _inspector, block.timestamp, _grade, _qualityAndNutritionCID, _milkTankIds);\n    }\n\n    function getProductLot(bytes32 _lotId) public view returns (ProductLotInfo memory) {\n        require(productLots[_lotId].lotId != bytes32(0), \"Error: Product Lot does not exist\");\n        return productLots[_lotId];\n    }\n\n    function isProductLotExists(bytes32 _lotId) public view returns (bool) {\n        return productLots[_lotId].lotId != bytes32(0);\n    }\n\n    function getProductLotsByFactory(address _factory) public view returns (bytes32[] memory) {\n        uint count = 0;\n        for (uint i = 0; i < productLotIds.length; i++) {\n            if (productLots[productLotIds[i]].factory == _factory) {\n                count++;\n            }\n        }\n\n        bytes32[] memory factoryLots = new bytes32[](count);\n        uint index = 0;\n        for (uint i = 0; i < productLotIds.length; i++) {\n            if (productLots[productLotIds[i]].factory == _factory) {\n                factoryLots[index] = productLotIds[i];\n                index++;\n            }\n        }\n\n        return factoryLots;\n    }\n\n    function getMilkTanksByProductLot(bytes32 _lotId) public view returns (bytes32[] memory) {\n        require(productLots[_lotId].lotId != bytes32(0), \"Error: Product Lot does not exist\");\n        return productLots[_lotId].milkTankIds;\n    }\n}\n",
  "sourcePath": "/home/kmitl-ivo/Documents/Back/Backend/solidity/contracts/ProductLot.sol",
  "compiler": {
    "name": "solc",
    "version": "0.8.19+commit.7dd6d404.Emscripten.clang"
  },
  "schemaVersion": "3.4.16",
  "updatedAt": "2025-03-11T06:58:23.744Z",
  "networkType": "ethereum",
  "devdoc": {
    "kind": "dev",
    "methods": {},
    "version": 1
  },
  "userdoc": {
    "kind": "user",
    "methods": {},
    "version": 1
  }
}