{
  "contractName": "ProductLot",
  "abi": [
    {
      "inputs": [
        {
          "internalType": "address",
          "name": "_userRegistry",
          "type": "address"
        },
        {
          "internalType": "address",
          "name": "_rawMilkContract",
          "type": "address"
        },
        {
          "internalType": "address",
          "name": "_productContract",
          "type": "address"
        }
      ],
      "stateMutability": "nonpayable",
      "type": "constructor"
    },
    {
      "anonymous": false,
      "inputs": [
        {
          "indexed": true,
          "internalType": "bytes32",
          "name": "lotId",
          "type": "bytes32"
        },
        {
          "indexed": true,
          "internalType": "bytes32",
          "name": "productId",
          "type": "bytes32"
        },
        {
          "indexed": true,
          "internalType": "address",
          "name": "factory",
          "type": "address"
        },
        {
          "indexed": false,
          "internalType": "string",
          "name": "inspector",
          "type": "string"
        },
        {
          "indexed": false,
          "internalType": "uint256",
          "name": "inspectionDate",
          "type": "uint256"
        },
        {
          "indexed": false,
          "internalType": "bool",
          "name": "grade",
          "type": "bool"
        },
        {
          "indexed": false,
          "internalType": "string",
          "name": "qualityAndNutritionCID",
          "type": "string"
        },
        {
          "indexed": false,
          "internalType": "bytes32[]",
          "name": "milkTankIds",
          "type": "bytes32[]"
        }
      ],
      "name": "ProductLotCreated",
      "type": "event"
    },
    {
      "inputs": [],
      "name": "productContract",
      "outputs": [
        {
          "internalType": "contract Product",
          "name": "",
          "type": "address"
        }
      ],
      "stateMutability": "view",
      "type": "function",
      "constant": true
    },
    {
      "inputs": [
        {
          "internalType": "uint256",
          "name": "",
          "type": "uint256"
        }
      ],
      "name": "productLotIds",
      "outputs": [
        {
          "internalType": "bytes32",
          "name": "",
          "type": "bytes32"
        }
      ],
      "stateMutability": "view",
      "type": "function",
      "constant": true
    },
    {
      "inputs": [
        {
          "internalType": "bytes32",
          "name": "",
          "type": "bytes32"
        }
      ],
      "name": "productLots",
      "outputs": [
        {
          "internalType": "bytes32",
          "name": "lotId",
          "type": "bytes32"
        },
        {
          "internalType": "bytes32",
          "name": "productId",
          "type": "bytes32"
        },
        {
          "internalType": "address",
          "name": "factory",
          "type": "address"
        },
        {
          "internalType": "string",
          "name": "inspector",
          "type": "string"
        },
        {
          "internalType": "uint256",
          "name": "inspectionDate",
          "type": "uint256"
        },
        {
          "internalType": "bool",
          "name": "grade",
          "type": "bool"
        },
        {
          "internalType": "string",
          "name": "qualityAndNutritionCID",
          "type": "string"
        },
        {
          "internalType": "enum ProductLot.ProductLotStatus",
          "name": "status",
          "type": "uint8"
        }
      ],
      "stateMutability": "view",
      "type": "function",
      "constant": true
    },
    {
      "inputs": [],
      "name": "rawMilkContract",
      "outputs": [
        {
          "internalType": "contract RawMilk",
          "name": "",
          "type": "address"
        }
      ],
      "stateMutability": "view",
      "type": "function",
      "constant": true
    },
    {
      "inputs": [],
      "name": "trackingContract",
      "outputs": [
        {
          "internalType": "contract Tracking",
          "name": "",
          "type": "address"
        }
      ],
      "stateMutability": "view",
      "type": "function",
      "constant": true
    },
    {
      "inputs": [],
      "name": "userRegistry",
      "outputs": [
        {
          "internalType": "contract UserRegistry",
          "name": "",
          "type": "address"
        }
      ],
      "stateMutability": "view",
      "type": "function",
      "constant": true
    },
    {
      "inputs": [
        {
          "internalType": "bytes32",
          "name": "_lotId",
          "type": "bytes32"
        },
        {
          "internalType": "bytes32",
          "name": "_productId",
          "type": "bytes32"
        },
        {
          "internalType": "string",
          "name": "_inspector",
          "type": "string"
        },
        {
          "internalType": "bool",
          "name": "_grade",
          "type": "bool"
        },
        {
          "internalType": "string",
          "name": "_qualityAndNutritionCID",
          "type": "string"
        },
        {
          "internalType": "bytes32[]",
          "name": "_milkTankIds",
          "type": "bytes32[]"
        }
      ],
      "name": "createProductLot",
      "outputs": [],
      "stateMutability": "nonpayable",
      "type": "function"
    },
    {
      "inputs": [
        {
          "internalType": "bytes32",
          "name": "_lotId",
          "type": "bytes32"
        }
      ],
      "name": "getProductLot",
      "outputs": [
        {
          "components": [
            {
              "internalType": "bytes32",
              "name": "lotId",
              "type": "bytes32"
            },
            {
              "internalType": "bytes32",
              "name": "productId",
              "type": "bytes32"
            },
            {
              "internalType": "address",
              "name": "factory",
              "type": "address"
            },
            {
              "internalType": "string",
              "name": "inspector",
              "type": "string"
            },
            {
              "internalType": "uint256",
              "name": "inspectionDate",
              "type": "uint256"
            },
            {
              "internalType": "bool",
              "name": "grade",
              "type": "bool"
            },
            {
              "internalType": "string",
              "name": "qualityAndNutritionCID",
              "type": "string"
            },
            {
              "internalType": "bytes32[]",
              "name": "milkTankIds",
              "type": "bytes32[]"
            },
            {
              "internalType": "enum ProductLot.ProductLotStatus",
              "name": "status",
              "type": "uint8"
            }
          ],
          "internalType": "struct ProductLot.ProductLotInfo",
          "name": "",
          "type": "tuple"
        }
      ],
      "stateMutability": "view",
      "type": "function",
      "constant": true
    },
    {
      "inputs": [
        {
          "internalType": "bytes32",
          "name": "_lotId",
          "type": "bytes32"
        }
      ],
      "name": "isProductLotExists",
      "outputs": [
        {
          "internalType": "bool",
          "name": "",
          "type": "bool"
        }
      ],
      "stateMutability": "view",
      "type": "function",
      "constant": true
    },
    {
      "inputs": [
        {
          "internalType": "address",
          "name": "_factory",
          "type": "address"
        }
      ],
      "name": "getProductLotsByFactory",
      "outputs": [
        {
          "internalType": "bytes32[]",
          "name": "",
          "type": "bytes32[]"
        }
      ],
      "stateMutability": "view",
      "type": "function",
      "constant": true
    },
    {
      "inputs": [
        {
          "internalType": "bytes32",
          "name": "_lotId",
          "type": "bytes32"
        }
      ],
      "name": "getMilkTanksByProductLot",
      "outputs": [
        {
          "internalType": "bytes32[]",
          "name": "",
          "type": "bytes32[]"
        }
      ],
      "stateMutability": "view",
      "type": "function",
      "constant": true
    },
    {
      "inputs": [
        {
          "internalType": "address",
          "name": "_trackingContract",
          "type": "address"
        }
      ],
      "name": "setTrackingContract",
      "outputs": [],
      "stateMutability": "nonpayable",
      "type": "function"
    },
    {
      "inputs": [
        {
          "internalType": "bytes32",
          "name": "_lotId",
          "type": "bytes32"
        }
      ],
      "name": "updateProductLotStatus",
      "outputs": [],
      "stateMutability": "nonpayable",
      "type": "function"
    }
  ],
  "bytecode": "0x60806040523480156200001157600080fd5b50604051620036e0380380620036e083398181016040528101906200003791906200016c565b826000806101000a81548173ffffffffffffffffffffffffffffffffffffffff021916908373ffffffffffffffffffffffffffffffffffffffff16021790555081600160006101000a81548173ffffffffffffffffffffffffffffffffffffffff021916908373ffffffffffffffffffffffffffffffffffffffff16021790555080600260006101000a81548173ffffffffffffffffffffffffffffffffffffffff021916908373ffffffffffffffffffffffffffffffffffffffff160217905550505050620001c8565b600080fd5b600073ffffffffffffffffffffffffffffffffffffffff82169050919050565b6000620001348262000107565b9050919050565b620001468162000127565b81146200015257600080fd5b50565b60008151905062000166816200013b565b92915050565b60008060006060848603121562000188576200018762000102565b5b6000620001988682870162000155565b9350506020620001ab8682870162000155565b9250506040620001be8682870162000155565b9150509250925092565b61350880620001d86000396000f3fe608060405234801561001057600080fd5b50600436106100cf5760003560e01c80635c7460d61161008c578063a7a8e53e11610066578063a7a8e53e14610200578063d572954914610230578063d794e36214610267578063fa0bff3014610297576100cf565b80635c7460d614610194578063718a947c146101b25780638c91be92146101e2576100cf565b806301b2a86f146100d45780631ce95d30146101045780632a28d4df1461012257806342dc43b01461014057806343f9ad451461015c57806352df0ee614610178575b600080fd5b6100ee60048036038101906100e99190611661565b6102c7565b6040516100fb9190611756565b60405180910390f35b61010c6104d5565b60405161011991906117d7565b60405180910390f35b61012a6104fb565b6040516101379190611813565b60405180910390f35b61015a60048036038101906101559190611661565b610521565b005b61017660048036038101906101719190611aa0565b6105f6565b005b610192600480360381019061018d9190611b81565b610b88565b005b61019c610f4b565b6040516101a99190611bcf565b60405180910390f35b6101cc60048036038101906101c79190611b81565b610f6f565b6040516101d99190611756565b60405180910390f35b6101ea611038565b6040516101f79190611c0b565b60405180910390f35b61021a60048036038101906102159190611c5c565b61105e565b6040516102279190611c98565b60405180910390f35b61024a60048036038101906102459190611b81565b611082565b60405161025e989796959493929190611dd6565b60405180910390f35b610281600480360381019061027c9190611b81565b611214565b60405161028e919061202a565b60405180910390f35b6102b160048036038101906102ac9190611b81565b6114e3565b6040516102be919061204c565b60405180910390f35b60606000805b600480549050811015610383578373ffffffffffffffffffffffffffffffffffffffff16600360006004848154811061030957610308612067565b5b9060005260206000200154815260200190815260200160002060020160009054906101000a900473ffffffffffffffffffffffffffffffffffffffff1673ffffffffffffffffffffffffffffffffffffffff160361037057818061036c906120c5565b9250505b808061037b906120c5565b9150506102cd565b5060008167ffffffffffffffff8111156103a05761039f611875565b5b6040519080825280602002602001820160405280156103ce5781602001602082028036833780820191505090505b5090506000805b6004805490508110156104c9578573ffffffffffffffffffffffffffffffffffffffff16600360006004848154811061041157610410612067565b5b9060005260206000200154815260200190815260200160002060020160009054906101000a900473ffffffffffffffffffffffffffffffffffffffff1673ffffffffffffffffffffffffffffffffffffffff16036104b6576004818154811061047d5761047c612067565b5b906000526020600020015483838151811061049b5761049a612067565b5b60200260200101818152505081806104b2906120c5565b9250505b80806104c1906120c5565b9150506103d5565b50819350505050919050565b600160009054906101000a900473ffffffffffffffffffffffffffffffffffffffff1681565b600260009054906101000a900473ffffffffffffffffffffffffffffffffffffffff1681565b600073ffffffffffffffffffffffffffffffffffffffff16600560009054906101000a900473ffffffffffffffffffffffffffffffffffffffff1673ffffffffffffffffffffffffffffffffffffffff16146105b2576040517f08c379a00000000000000000000000000000000000000000000000000000000081526004016105a990612159565b60405180910390fd5b80600560006101000a81548173ffffffffffffffffffffffffffffffffffffffff021916908373ffffffffffffffffffffffffffffffffffffffff16021790555050565b6002600481111561060a57610609611d5f565b5b60008054906101000a900473ffffffffffffffffffffffffffffffffffffffff1673ffffffffffffffffffffffffffffffffffffffff166327820851336040518263ffffffff1660e01b81526004016106639190612179565b602060405180830381865afa158015610680573d6000803e3d6000fd5b505050506040513d601f19601f820116820180604052508101906106a491906121b9565b60048111156106b6576106b5611d5f565b5b146106f6576040517f08c379a00000000000000000000000000000000000000000000000000000000081526004016106ed90612258565b60405180910390fd5b6000801b600360008881526020019081526020016000206000015414610751576040517f08c379a0000000000000000000000000000000000000000000000000000000008152600401610748906122ea565b60405180910390fd5b6000801b600260009054906101000a900473ffffffffffffffffffffffffffffffffffffffff1673ffffffffffffffffffffffffffffffffffffffff1663b74d3fb5876040518263ffffffff1660e01b81526004016107b09190611c98565b600060405180830381865afa1580156107cd573d6000803e3d6000fd5b505050506040513d6000823e3d601f19601f820116820180604052508101906107f6919061248e565b600001510361083a576040517f08c379a000000000000000000000000000000000000000000000000000000000815260040161083190612523565b60405180910390fd5b60005b815181101561097e576001600281111561085a57610859611d5f565b5b600160009054906101000a900473ffffffffffffffffffffffffffffffffffffffff1673ffffffffffffffffffffffffffffffffffffffff16635a03541f8484815181106108ab576108aa612067565b5b60200260200101516040518263ffffffff1660e01b81526004016108cf9190611c98565b600060405180830381865afa1580156108ec573d6000803e3d6000fd5b505050506040513d6000823e3d601f19601f820116820180604052508101906109159190612848565b60800151600281111561092b5761092a611d5f565b5b1461096b576040517f08c379a000000000000000000000000000000000000000000000000000000000815260040161096290612903565b60405180910390fd5b8080610976906120c5565b91505061083d565b506040518061012001604052808781526020018681526020013373ffffffffffffffffffffffffffffffffffffffff1681526020018581526020014281526020018415158152602001838152602001828152602001600060028111156109e7576109e6611d5f565b5b81525060036000888152602001908152602001600020600082015181600001556020820151816001015560408201518160020160006101000a81548173ffffffffffffffffffffffffffffffffffffffff021916908373ffffffffffffffffffffffffffffffffffffffff1602179055506060820151816003019081610a6d9190612b25565b506080820151816004015560a08201518160050160006101000a81548160ff02191690831515021790555060c0820151816006019081610aad9190612b25565b5060e0820151816007019080519060200190610aca929190611509565b506101008201518160080160006101000a81548160ff02191690836002811115610af757610af6611d5f565b5b021790555090505060048690806001815401808255809150506001900390600052602060002001600090919091909150553373ffffffffffffffffffffffffffffffffffffffff1685877f23013b10378a942712c02f38e17299de4d74256e5007665263df05dd00827c448742888888604051610b78959493929190612bf7565b60405180910390a4505050505050565b6000801b600360008381526020019081526020016000206000015403610be3576040517f08c379a0000000000000000000000000000000000000000000000000000000008152600401610bda90612cd1565b60405180910390fd5b600073ffffffffffffffffffffffffffffffffffffffff16600560009054906101000a900473ffffffffffffffffffffffffffffffffffffffff1673ffffffffffffffffffffffffffffffffffffffff1603610c74576040517f08c379a0000000000000000000000000000000000000000000000000000000008152600401610c6b90612d3d565b60405180910390fd5b6000600560009054906101000a900473ffffffffffffffffffffffffffffffffffffffff1673ffffffffffffffffffffffffffffffffffffffff166365f0f7d5836040518263ffffffff1660e01b8152600401610cd19190611c98565b600060405180830381865afa158015610cee573d6000803e3d6000fd5b505050506040513d6000823e3d601f19601f82011682018060405250810190610d179190612ed5565b505090506000815111610d5f576040517f08c379a0000000000000000000000000000000000000000000000000000000008152600401610d5690612fee565b60405180910390fd5b6000600190506000805b8351811015610eb0576000600560009054906101000a900473ffffffffffffffffffffffffffffffffffffffff1673ffffffffffffffffffffffffffffffffffffffff1663c93c35eb868481518110610dc557610dc4612067565b5b60200260200101516040518263ffffffff1660e01b8152600401610de99190611c98565b600060405180830381865afa158015610e06573d6000803e3d6000fd5b505050506040513d6000823e3d601f19601f82011682018060405250810190610e2f919061342b565b5050905060016002811115610e4757610e46611d5f565b5b81608001516002811115610e5e57610e5d611d5f565b5b03610e6857600192505b600280811115610e7b57610e7a611d5f565b5b81608001516002811115610e9257610e91611d5f565b5b14610e9c57600093505b508080610ea8906120c5565b915050610d69565b508015610efe5760016003600086815260200190815260200160002060080160006101000a81548160ff02191690836002811115610ef157610ef0611d5f565b5b0217905550505050610f48565b8115610f445760026003600086815260200190815260200160002060080160006101000a81548160ff02191690836002811115610f3e57610f3d611d5f565b5b02179055505b5050505b50565b60008054906101000a900473ffffffffffffffffffffffffffffffffffffffff1681565b60606000801b600360008481526020019081526020016000206000015403610fcc576040517f08c379a0000000000000000000000000000000000000000000000000000000008152600401610fc390612cd1565b60405180910390fd5b6003600083815260200190815260200160002060070180548060200260200160405190810160405280929190818152602001828054801561102c57602002820191906000526020600020905b815481526020019060010190808311611018575b50505050509050919050565b600560009054906101000a900473ffffffffffffffffffffffffffffffffffffffff1681565b6004818154811061106e57600080fd5b906000526020600020016000915090505481565b60036020528060005260406000206000915090508060000154908060010154908060020160009054906101000a900473ffffffffffffffffffffffffffffffffffffffff16908060030180546110d790612952565b80601f016020809104026020016040519081016040528092919081815260200182805461110390612952565b80156111505780601f1061112557610100808354040283529160200191611150565b820191906000526020600020905b81548152906001019060200180831161113357829003601f168201915b5050505050908060040154908060050160009054906101000a900460ff169080600601805461117e90612952565b80601f01602080910402602001604051908101604052809291908181526020018280546111aa90612952565b80156111f75780601f106111cc576101008083540402835291602001916111f7565b820191906000526020600020905b8154815290600101906020018083116111da57829003601f168201915b5050505050908060080160009054906101000a900460ff16905088565b61121c611556565b6000801b600360008481526020019081526020016000206000015403611277576040517f08c379a000000000000000000000000000000000000000000000000000000000815260040161126e90612cd1565b60405180910390fd5b600360008381526020019081526020016000206040518061012001604052908160008201548152602001600182015481526020016002820160009054906101000a900473ffffffffffffffffffffffffffffffffffffffff1673ffffffffffffffffffffffffffffffffffffffff1673ffffffffffffffffffffffffffffffffffffffff16815260200160038201805461131090612952565b80601f016020809104026020016040519081016040528092919081815260200182805461133c90612952565b80156113895780601f1061135e57610100808354040283529160200191611389565b820191906000526020600020905b81548152906001019060200180831161136c57829003601f168201915b50505050508152602001600482015481526020016005820160009054906101000a900460ff161515151581526020016006820180546113c790612952565b80601f01602080910402602001604051908101604052809291908181526020018280546113f390612952565b80156114405780601f1061141557610100808354040283529160200191611440565b820191906000526020600020905b81548152906001019060200180831161142357829003601f168201915b505050505081526020016007820180548060200260200160405190810160405280929190818152602001828054801561149857602002820191906000526020600020905b815481526020019060010190808311611484575b505050505081526020016008820160009054906101000a900460ff1660028111156114c6576114c5611d5f565b5b60028111156114d8576114d7611d5f565b5b815250509050919050565b60008060001b600360008481526020019081526020016000206000015414159050919050565b828054828255906000526020600020908101928215611545579160200282015b82811115611544578251825591602001919060010190611529565b5b50905061155291906115d2565b5090565b6040518061012001604052806000801916815260200160008019168152602001600073ffffffffffffffffffffffffffffffffffffffff16815260200160608152602001600081526020016000151581526020016060815260200160608152602001600060028111156115cc576115cb611d5f565b5b81525090565b5b808211156115eb5760008160009055506001016115d3565b5090565b6000604051905090565b600080fd5b600080fd5b600073ffffffffffffffffffffffffffffffffffffffff82169050919050565b600061162e82611603565b9050919050565b61163e81611623565b811461164957600080fd5b50565b60008135905061165b81611635565b92915050565b600060208284031215611677576116766115f9565b5b60006116858482850161164c565b91505092915050565b600081519050919050565b600082825260208201905092915050565b6000819050602082019050919050565b6000819050919050565b6116cd816116ba565b82525050565b60006116df83836116c4565b60208301905092915050565b6000602082019050919050565b60006117038261168e565b61170d8185611699565b9350611718836116aa565b8060005b8381101561174957815161173088826116d3565b975061173b836116eb565b92505060018101905061171c565b5085935050505092915050565b6000602082019050818103600083015261177081846116f8565b905092915050565b6000819050919050565b600061179d61179861179384611603565b611778565b611603565b9050919050565b60006117af82611782565b9050919050565b60006117c1826117a4565b9050919050565b6117d1816117b6565b82525050565b60006020820190506117ec60008301846117c8565b92915050565b60006117fd826117a4565b9050919050565b61180d816117f2565b82525050565b60006020820190506118286000830184611804565b92915050565b611837816116ba565b811461184257600080fd5b50565b6000813590506118548161182e565b92915050565b600080fd5b600080fd5b6000601f19601f8301169050919050565b7f4e487b7100000000000000000000000000000000000000000000000000000000600052604160045260246000fd5b6118ad82611864565b810181811067ffffffffffffffff821117156118cc576118cb611875565b5b80604052505050565b60006118df6115ef565b90506118eb82826118a4565b919050565b600067ffffffffffffffff82111561190b5761190a611875565b5b61191482611864565b9050602081019050919050565b82818337600083830152505050565b600061194361193e846118f0565b6118d5565b90508281526020810184848401111561195f5761195e61185f565b5b61196a848285611921565b509392505050565b600082601f8301126119875761198661185a565b5b8135611997848260208601611930565b91505092915050565b60008115159050919050565b6119b5816119a0565b81146119c057600080fd5b50565b6000813590506119d2816119ac565b92915050565b600067ffffffffffffffff8211156119f3576119f2611875565b5b602082029050602081019050919050565b600080fd5b6000611a1c611a17846119d8565b6118d5565b90508083825260208201905060208402830185811115611a3f57611a3e611a04565b5b835b81811015611a685780611a548882611845565b845260208401935050602081019050611a41565b5050509392505050565b600082601f830112611a8757611a8661185a565b5b8135611a97848260208601611a09565b91505092915050565b60008060008060008060c08789031215611abd57611abc6115f9565b5b6000611acb89828a01611845565b9650506020611adc89828a01611845565b955050604087013567ffffffffffffffff811115611afd57611afc6115fe565b5b611b0989828a01611972565b9450506060611b1a89828a016119c3565b935050608087013567ffffffffffffffff811115611b3b57611b3a6115fe565b5b611b4789828a01611972565b92505060a087013567ffffffffffffffff811115611b6857611b676115fe565b5b611b7489828a01611a72565b9150509295509295509295565b600060208284031215611b9757611b966115f9565b5b6000611ba584828501611845565b91505092915050565b6000611bb9826117a4565b9050919050565b611bc981611bae565b82525050565b6000602082019050611be46000830184611bc0565b92915050565b6000611bf5826117a4565b9050919050565b611c0581611bea565b82525050565b6000602082019050611c206000830184611bfc565b92915050565b6000819050919050565b611c3981611c26565b8114611c4457600080fd5b50565b600081359050611c5681611c30565b92915050565b600060208284031215611c7257611c716115f9565b5b6000611c8084828501611c47565b91505092915050565b611c92816116ba565b82525050565b6000602082019050611cad6000830184611c89565b92915050565b611cbc81611623565b82525050565b600081519050919050565b600082825260208201905092915050565b60005b83811015611cfc578082015181840152602081019050611ce1565b60008484015250505050565b6000611d1382611cc2565b611d1d8185611ccd565b9350611d2d818560208601611cde565b611d3681611864565b840191505092915050565b611d4a81611c26565b82525050565b611d59816119a0565b82525050565b7f4e487b7100000000000000000000000000000000000000000000000000000000600052602160045260246000fd5b60038110611d9f57611d9e611d5f565b5b50565b6000819050611db082611d8e565b919050565b6000611dc082611da2565b9050919050565b611dd081611db5565b82525050565b600061010082019050611dec600083018b611c89565b611df9602083018a611c89565b611e066040830189611cb3565b8181036060830152611e188188611d08565b9050611e276080830187611d41565b611e3460a0830186611d50565b81810360c0830152611e468185611d08565b9050611e5560e0830184611dc7565b9998505050505050505050565b611e6b81611623565b82525050565b600082825260208201905092915050565b6000611e8d82611cc2565b611e978185611e71565b9350611ea7818560208601611cde565b611eb081611864565b840191505092915050565b611ec481611c26565b82525050565b611ed3816119a0565b82525050565b600082825260208201905092915050565b6000611ef58261168e565b611eff8185611ed9565b9350611f0a836116aa565b8060005b83811015611f3b578151611f2288826116d3565b9750611f2d836116eb565b925050600181019050611f0e565b5085935050505092915050565b611f5181611db5565b82525050565b600061012083016000830151611f7060008601826116c4565b506020830151611f8360208601826116c4565b506040830151611f966040860182611e62565b5060608301518482036060860152611fae8282611e82565b9150506080830151611fc36080860182611ebb565b5060a0830151611fd660a0860182611eca565b5060c083015184820360c0860152611fee8282611e82565b91505060e083015184820360e08601526120088282611eea565b91505061010083015161201f610100860182611f48565b508091505092915050565b600060208201905081810360008301526120448184611f57565b905092915050565b60006020820190506120616000830184611d50565b92915050565b7f4e487b7100000000000000000000000000000000000000000000000000000000600052603260045260246000fd5b7f4e487b7100000000000000000000000000000000000000000000000000000000600052601160045260246000fd5b60006120d082611c26565b91507fffffffffffffffffffffffffffffffffffffffffffffffffffffffffffffffff820361210257612101612096565b5b600182019050919050565b7f547261636b696e6720636f6e747261637420616c726561647920736574000000600082015250565b6000612143601d83611ccd565b915061214e8261210d565b602082019050919050565b6000602082019050818103600083015261217281612136565b9050919050565b600060208201905061218e6000830184611cb3565b92915050565b600581106121a157600080fd5b50565b6000815190506121b381612194565b92915050565b6000602082840312156121cf576121ce6115f9565b5b60006121dd848285016121a4565b91505092915050565b7f4163636573732064656e6965643a204f6e6c7920666163746f7269657320616c60008201527f6c6f776564000000000000000000000000000000000000000000000000000000602082015250565b6000612242602583611ccd565b915061224d826121e6565b604082019050919050565b6000602082019050818103600083015261227181612235565b9050919050565b7f4572726f723a2050726f64756374204c6f7420494420616c726561647920657860008201527f6973747300000000000000000000000000000000000000000000000000000000602082015250565b60006122d4602483611ccd565b91506122df82612278565b604082019050919050565b60006020820190508181036000830152612303816122c7565b9050919050565b600080fd5b600080fd5b6000815190506123238161182e565b92915050565b60008151905061233881611635565b92915050565b600061235161234c846118f0565b6118d5565b90508281526020810184848401111561236d5761236c61185f565b5b612378848285611cde565b509392505050565b600082601f8301126123955761239461185a565b5b81516123a584826020860161233e565b91505092915050565b600060a082840312156123c4576123c361230a565b5b6123ce60a06118d5565b905060006123de84828501612314565b60008301525060206123f284828501612329565b602083015250604082015167ffffffffffffffff8111156124165761241561230f565b5b61242284828501612380565b604083015250606082015167ffffffffffffffff8111156124465761244561230f565b5b61245284828501612380565b606083015250608082015167ffffffffffffffff8111156124765761247561230f565b5b61248284828501612380565b60808301525092915050565b6000602082840312156124a4576124a36115f9565b5b600082015167ffffffffffffffff8111156124c2576124c16115fe565b5b6124ce848285016123ae565b91505092915050565b7f4572726f723a2050726f6475637420494420646f6573206e6f74206578697374600082015250565b600061250d602083611ccd565b9150612518826124d7565b602082019050919050565b6000602082019050818103600083015261253c81612500565b9050919050565b6003811061255057600080fd5b50565b60008151905061256281612543565b92915050565b600067ffffffffffffffff82111561258357612582611875565b5b602082029050602081019050919050565b6000815190506125a381611c30565b92915050565b6000608082840312156125bf576125be61230a565b5b6125c960806118d5565b9050600082015167ffffffffffffffff8111156125e9576125e861230f565b5b6125f584828501612380565b600083015250602082015167ffffffffffffffff8111156126195761261861230f565b5b61262584828501612380565b602083015250604061263984828501612553565b604083015250606061264d84828501612594565b60608301525092915050565b600061266c61266784612568565b6118d5565b9050808382526020820190506020840283018581111561268f5761268e611a04565b5b835b818110156126d657805167ffffffffffffffff8111156126b4576126b361185a565b5b8086016126c189826125a9565b85526020850194505050602081019050612691565b5050509392505050565b600082601f8301126126f5576126f461185a565b5b8151612705848260208601612659565b91505092915050565b600061010082840312156127255761272461230a565b5b6127306101006118d5565b9050600061274084828501612314565b600083015250602061275484828501612329565b602083015250604061276884828501612314565b604083015250606082015167ffffffffffffffff81111561278c5761278b61230f565b5b61279884828501612380565b60608301525060806127ac84828501612553565b60808301525060a082015167ffffffffffffffff8111156127d0576127cf61230f565b5b6127dc84828501612380565b60a08301525060c082015167ffffffffffffffff811115612800576127ff61230f565b5b61280c84828501612380565b60c08301525060e082015167ffffffffffffffff8111156128305761282f61230f565b5b61283c848285016126e0565b60e08301525092915050565b60006020828403121561285e5761285d6115f9565b5b600082015167ffffffffffffffff81111561287c5761287b6115fe565b5b6128888482850161270e565b91505092915050565b7f4572726f723a204d696c6b2054616e6b206d75737420626520617070726f766560008201527f6400000000000000000000000000000000000000000000000000000000000000602082015250565b60006128ed602183611ccd565b91506128f882612891565b604082019050919050565b6000602082019050818103600083015261291c816128e0565b9050919050565b7f4e487b7100000000000000000000000000000000000000000000000000000000600052602260045260246000fd5b6000600282049050600182168061296a57607f821691505b60208210810361297d5761297c612923565b5b50919050565b60008190508160005260206000209050919050565b60006020601f8301049050919050565b600082821b905092915050565b6000600883026129e57fffffffffffffffffffffffffffffffffffffffffffffffffffffffffffffffff826129a8565b6129ef86836129a8565b95508019841693508086168417925050509392505050565b6000612a22612a1d612a1884611c26565b611778565b611c26565b9050919050565b6000819050919050565b612a3c83612a07565b612a50612a4882612a29565b8484546129b5565b825550505050565b600090565b612a65612a58565b612a70818484612a33565b505050565b5b81811015612a9457612a89600082612a5d565b600181019050612a76565b5050565b601f821115612ad957612aaa81612983565b612ab384612998565b81016020851015612ac2578190505b612ad6612ace85612998565b830182612a75565b50505b505050565b600082821c905092915050565b6000612afc60001984600802612ade565b1980831691505092915050565b6000612b158383612aeb565b9150826002028217905092915050565b612b2e82611cc2565b67ffffffffffffffff811115612b4757612b46611875565b5b612b518254612952565b612b5c828285612a98565b600060209050601f831160018114612b8f5760008415612b7d578287015190505b612b878582612b09565b865550612bef565b601f198416612b9d86612983565b60005b82811015612bc557848901518255600182019150602085019450602081019050612ba0565b86831015612be25784890151612bde601f891682612aeb565b8355505b6001600288020188555050505b505050505050565b600060a0820190508181036000830152612c118188611d08565b9050612c206020830187611d41565b612c2d6040830186611d50565b8181036060830152612c3f8185611d08565b90508181036080830152612c5381846116f8565b90509695505050505050565b7f4572726f723a2050726f64756374204c6f7420646f6573206e6f74206578697360008201527f7400000000000000000000000000000000000000000000000000000000000000602082015250565b6000612cbb602183611ccd565b9150612cc682612c5f565b604082019050919050565b60006020820190508181036000830152612cea81612cae565b9050919050565b7f547261636b696e6720636f6e7472616374206e6f742073657400000000000000600082015250565b6000612d27601983611ccd565b9150612d3282612cf1565b602082019050919050565b60006020820190508181036000830152612d5681612d1a565b9050919050565b6000612d70612d6b846119d8565b6118d5565b90508083825260208201905060208402830185811115612d9357612d92611a04565b5b835b81811015612dbc5780612da88882612314565b845260208401935050602081019050612d95565b5050509392505050565b600082601f830112612ddb57612dda61185a565b5b8151612deb848260208601612d5d565b91505092915050565b600067ffffffffffffffff821115612e0f57612e0e611875565b5b602082029050602081019050919050565b6000612e33612e2e84612df4565b6118d5565b90508083825260208201905060208402830185811115612e5657612e55611a04565b5b835b81811015612e9d57805167ffffffffffffffff811115612e7b57612e7a61185a565b5b808601612e888982612380565b85526020850194505050602081019050612e58565b5050509392505050565b600082601f830112612ebc57612ebb61185a565b5b8151612ecc848260208601612e20565b91505092915050565b600080600060608486031215612eee57612eed6115f9565b5b600084015167ffffffffffffffff811115612f0c57612f0b6115fe565b5b612f1886828701612dc6565b935050602084015167ffffffffffffffff811115612f3957612f386115fe565b5b612f4586828701612ea7565b925050604084015167ffffffffffffffff811115612f6657612f656115fe565b5b612f7286828701612ea7565b9150509250925092565b7f4572726f723a204e6f20747261636b696e67206461746120666f756e6420666f60008201527f7220746869732070726f64756374206c6f740000000000000000000000000000602082015250565b6000612fd8603283611ccd565b9150612fe382612f7c565b604082019050919050565b6000602082019050818103600083015261300781612fcb565b9050919050565b6003811061301b57600080fd5b50565b60008151905061302d8161300e565b92915050565b600060a082840312156130495761304861230a565b5b61305360a06118d5565b9050600061306384828501612314565b600083015250602061307784828501612314565b602083015250604082015167ffffffffffffffff81111561309b5761309a61230f565b5b6130a784828501612380565b604083015250606082015167ffffffffffffffff8111156130cb576130ca61230f565b5b6130d784828501612380565b60608301525060806130eb8482850161301e565b60808301525092915050565b600067ffffffffffffffff82111561311257613111611875565b5b602082029050602081019050919050565b6000819050919050565b61313681613123565b811461314157600080fd5b50565b6000815190506131538161312d565b92915050565b6003811061316657600080fd5b50565b60008151905061317881613159565b92915050565b600061012082840312156131955761319461230a565b5b6131a06101206118d5565b905060006131b084828501612314565b60008301525060206131c484828501612329565b60208301525060406131d884828501612594565b60408301525060606131ec84828501612594565b606083015250608061320084828501612594565b60808301525060a061321484828501613144565b60a08301525060c082015167ffffffffffffffff8111156132385761323761230f565b5b61324484828501612380565b60c08301525060e061325884828501613169565b60e08301525061010082015167ffffffffffffffff81111561327d5761327c61230f565b5b61328984828501612380565b6101008301525092915050565b60006132a96132a4846130f7565b6118d5565b905080838252602082019050602084028301858111156132cc576132cb611a04565b5b835b8181101561331357805167ffffffffffffffff8111156132f1576132f061185a565b5b8086016132fe898261317e565b855260208501945050506020810190506132ce565b5050509392505050565b600082601f8301126133325761333161185a565b5b8151613342848260208601613296565b91505092915050565b600060a082840312156133615761336061230a565b5b61336b60a06118d5565b9050600061337b84828501612314565b600083015250602082015167ffffffffffffffff81111561339f5761339e61230f565b5b6133ab84828501612380565b60208301525060406133bf84828501612594565b604083015250606082015167ffffffffffffffff8111156133e3576133e261230f565b5b6133ef84828501612380565b606083015250608082015167ffffffffffffffff8111156134135761341261230f565b5b61341f84828501612380565b60808301525092915050565b600080600060608486031215613444576134436115f9565b5b600084015167ffffffffffffffff811115613462576134616115fe565b5b61346e86828701613033565b935050602084015167ffffffffffffffff81111561348f5761348e6115fe565b5b61349b8682870161331d565b925050604084015167ffffffffffffffff8111156134bc576134bb6115fe565b5b6134c88682870161334b565b915050925092509256fea264697066735822122063f4b8f8f13105452ffc9c03c3b3e6a6c81f8aa423fd333e43938a2167ed150164736f6c63430008130033",
  "immutableReferences": {},
  "source": "// SPDX-License-Identifier: MIT\npragma solidity ^0.8.19;\n\nimport \"./UserRegistry.sol\";\nimport \"./RawMilk.sol\";\nimport \"./Product.sol\";\nimport \"./Tracking.sol\"; //  Import Tracking.sol\n\ncontract ProductLot {\n    UserRegistry public userRegistry;\n    RawMilk public rawMilkContract;\n    Product public productContract;\n\n    struct ProductLotInfo {\n    bytes32 lotId;\n    bytes32 productId;\n    address factory;\n    string inspector;\n    uint256 inspectionDate;\n    bool grade;\n    string qualityAndNutritionCID;\n    bytes32[] milkTankIds;\n    ProductLotStatus status; //  \n}\n\n    enum ProductLotStatus { Created, InTransit, Received } //  \n    mapping(bytes32 => ProductLotInfo) public productLots;\n    bytes32[] public productLotIds;\n\n    event ProductLotCreated(\n        bytes32 indexed lotId,\n        bytes32 indexed productId,\n        address indexed factory,\n        string inspector,\n        uint256 inspectionDate,\n        bool grade,\n        string qualityAndNutritionCID,\n        bytes32[] milkTankIds\n    );\n\n    modifier onlyFactory() {\n        require(\n            userRegistry.getUserRole(msg.sender) == UserRegistry.UserRole.Factory,\n            \"Access denied: Only factories allowed\"\n        );\n        _;\n    }\n\n    constructor(address _userRegistry, address _rawMilkContract, address _productContract) {\n        userRegistry = UserRegistry(_userRegistry);\n        rawMilkContract = RawMilk(_rawMilkContract);\n        productContract = Product(_productContract);\n    }\n\n    function createProductLot(\n        bytes32 _lotId,\n        bytes32 _productId,\n        string memory _inspector,\n        bool _grade,\n        string memory _qualityAndNutritionCID,\n        bytes32[] memory _milkTankIds\n    ) public onlyFactory {\n        require(productLots[_lotId].lotId == bytes32(0), \"Error: Product Lot ID already exists\");\n        require(productContract.getProductDetails(_productId).productId != bytes32(0), \"Error: Product ID does not exist\");\n\n        for (uint i = 0; i < _milkTankIds.length; i++) {\n            require(\n                rawMilkContract.getMilkTank(_milkTankIds[i]).status == RawMilk.MilkStatus.Approved,\n                \"Error: Milk Tank must be approved\"\n            );\n        }\n\n        productLots[_lotId] = ProductLotInfo({\n    lotId: _lotId,\n    productId: _productId,\n    factory: msg.sender,\n    inspector: _inspector,\n    inspectionDate: block.timestamp,\n    grade: _grade,\n    qualityAndNutritionCID: _qualityAndNutritionCID,\n    milkTankIds: _milkTankIds,\n    status: ProductLotStatus.Created //   Created\n});\n\n\n        productLotIds.push(_lotId);\n\n        emit ProductLotCreated(_lotId, _productId, msg.sender, _inspector, block.timestamp, _grade, _qualityAndNutritionCID, _milkTankIds);\n    }\n\n    function getProductLot(bytes32 _lotId) public view returns (ProductLotInfo memory) {\n        require(productLots[_lotId].lotId != bytes32(0), \"Error: Product Lot does not exist\");\n        return productLots[_lotId];\n    }\n\n    function isProductLotExists(bytes32 _lotId) public view returns (bool) {\n        return productLots[_lotId].lotId != bytes32(0);\n    }\n\n    function getProductLotsByFactory(address _factory) public view returns (bytes32[] memory) {\n        uint count = 0;\n        for (uint i = 0; i < productLotIds.length; i++) {\n            if (productLots[productLotIds[i]].factory == _factory) {\n                count++;\n            }\n        }\n\n        bytes32[] memory factoryLots = new bytes32[](count);\n        uint index = 0;\n        for (uint i = 0; i < productLotIds.length; i++) {\n            if (productLots[productLotIds[i]].factory == _factory) {\n                factoryLots[index] = productLotIds[i];\n                index++;\n            }\n        }\n\n        return factoryLots;\n    }\n\n    function getMilkTanksByProductLot(bytes32 _lotId) public view returns (bytes32[] memory) {\n        require(productLots[_lotId].lotId != bytes32(0), \"Error: Product Lot does not exist\");\n        return productLots[_lotId].milkTankIds;\n    }\n    Tracking public trackingContract; //  Tracking Contract ()\nfunction setTrackingContract(address _trackingContract) public {\n    require(address(trackingContract) == address(0), \"Tracking contract already set\"); //   Tracking Contract\n    trackingContract = Tracking(_trackingContract);\n}\nfunction updateProductLotStatus(bytes32 _lotId) public {\n    require(productLots[_lotId].lotId != bytes32(0), \"Error: Product Lot does not exist\");\n    require(address(trackingContract) != address(0), \"Tracking contract not set\");\n\n    //   getTrackingByLotId ( trackingIds )\n    (bytes32[] memory trackingIds, , ) = trackingContract.getTrackingByLotId(_lotId);\n    require(trackingIds.length > 0, \"Error: No tracking data found for this product lot\");\n\n    bool allReceived = true;\n    bool hasInTransit = false;\n\n    for (uint i = 0; i < trackingIds.length; i++) {\n        //   getTrackingById ( TrackingEvent )\n        (Tracking.TrackingEvent memory trackingEvent, , ) = trackingContract.getTrackingById(trackingIds[i]);\n\n        if (trackingEvent.status == Tracking.TrackingStatus.InTransit) {\n            hasInTransit = true;\n        }\n        if (trackingEvent.status != Tracking.TrackingStatus.Received) {\n            allReceived = false;\n        }\n    }\n\n    if (hasInTransit) {\n        productLots[_lotId].status = ProductLotStatus.InTransit;\n        return;\n    }\n\n    if (allReceived) {\n        productLots[_lotId].status = ProductLotStatus.Received;\n    }\n}\n\n\n}\n",
  "sourcePath": "/home/apiwat/Documents/Backend/Backend/solidity/contracts/ProductLot.sol",
  "compiler": {
    "name": "solc",
    "version": "0.8.19+commit.7dd6d404.Emscripten.clang"
  },
  "schemaVersion": "3.4.16",
  "updatedAt": "2025-03-15T18:31:46.014Z",
  "networkType": "ethereum",
  "devdoc": {
    "kind": "dev",
    "methods": {},
    "version": 1
  },
  "userdoc": {
    "kind": "user",
    "methods": {},
    "version": 1
  }
}