{
  "contractName": "Product",
  "abi": [
    {
      "inputs": [
        {
          "internalType": "address",
          "name": "_userRegistry",
          "type": "address"
        }
      ],
      "stateMutability": "nonpayable",
      "type": "constructor"
    },
    {
      "anonymous": false,
      "inputs": [
        {
          "indexed": false,
          "internalType": "string",
          "name": "message",
          "type": "string"
        },
        {
          "indexed": false,
          "internalType": "address",
          "name": "sender",
          "type": "address"
        },
        {
          "indexed": false,
          "internalType": "bytes32",
          "name": "productId",
          "type": "bytes32"
        },
        {
          "indexed": false,
          "internalType": "string",
          "name": "productName",
          "type": "string"
        },
        {
          "indexed": false,
          "internalType": "string",
          "name": "productCID",
          "type": "string"
        },
        {
          "indexed": false,
          "internalType": "string",
          "name": "category",
          "type": "string"
        }
      ],
      "name": "DebugLog",
      "type": "event"
    },
    {
      "anonymous": false,
      "inputs": [
        {
          "indexed": true,
          "internalType": "bytes32",
          "name": "productId",
          "type": "bytes32"
        },
        {
          "indexed": true,
          "internalType": "address",
          "name": "factoryWallet",
          "type": "address"
        },
        {
          "indexed": false,
          "internalType": "string",
          "name": "productName",
          "type": "string"
        },
        {
          "indexed": false,
          "internalType": "string",
          "name": "productCID",
          "type": "string"
        },
        {
          "indexed": false,
          "internalType": "string",
          "name": "category",
          "type": "string"
        }
      ],
      "name": "ProductCreated",
      "type": "event"
    },
    {
      "inputs": [
        {
          "internalType": "uint256",
          "name": "",
          "type": "uint256"
        }
      ],
      "name": "productIds",
      "outputs": [
        {
          "internalType": "bytes32",
          "name": "",
          "type": "bytes32"
        }
      ],
      "stateMutability": "view",
      "type": "function",
      "constant": true
    },
    {
      "inputs": [
        {
          "internalType": "bytes32",
          "name": "",
          "type": "bytes32"
        }
      ],
      "name": "products",
      "outputs": [
        {
          "internalType": "bytes32",
          "name": "productId",
          "type": "bytes32"
        },
        {
          "internalType": "address",
          "name": "factoryWallet",
          "type": "address"
        },
        {
          "internalType": "string",
          "name": "productName",
          "type": "string"
        },
        {
          "internalType": "string",
          "name": "productCID",
          "type": "string"
        },
        {
          "internalType": "string",
          "name": "category",
          "type": "string"
        }
      ],
      "stateMutability": "view",
      "type": "function",
      "constant": true
    },
    {
      "inputs": [],
      "name": "userRegistry",
      "outputs": [
        {
          "internalType": "contract UserRegistry",
          "name": "",
          "type": "address"
        }
      ],
      "stateMutability": "view",
      "type": "function",
      "constant": true
    },
    {
      "inputs": [
        {
          "internalType": "bytes32",
          "name": "_productId",
          "type": "bytes32"
        },
        {
          "internalType": "string",
          "name": "_productName",
          "type": "string"
        },
        {
          "internalType": "string",
          "name": "_productCID",
          "type": "string"
        },
        {
          "internalType": "string",
          "name": "_category",
          "type": "string"
        }
      ],
      "name": "createProduct",
      "outputs": [],
      "stateMutability": "nonpayable",
      "type": "function"
    },
    {
      "inputs": [],
      "name": "getProductsByFactory",
      "outputs": [
        {
          "internalType": "bytes32[]",
          "name": "",
          "type": "bytes32[]"
        },
        {
          "internalType": "string[]",
          "name": "",
          "type": "string[]"
        },
        {
          "internalType": "string[]",
          "name": "",
          "type": "string[]"
        }
      ],
      "stateMutability": "view",
      "type": "function",
      "constant": true
    },
    {
      "inputs": [
        {
          "internalType": "bytes32",
          "name": "_productId",
          "type": "bytes32"
        }
      ],
      "name": "getProductDetails",
      "outputs": [
        {
          "components": [
            {
              "internalType": "bytes32",
              "name": "productId",
              "type": "bytes32"
            },
            {
              "internalType": "address",
              "name": "factoryWallet",
              "type": "address"
            },
            {
              "internalType": "string",
              "name": "productName",
              "type": "string"
            },
            {
              "internalType": "string",
              "name": "productCID",
              "type": "string"
            },
            {
              "internalType": "string",
              "name": "category",
              "type": "string"
            }
          ],
          "internalType": "struct Product.ProductInfo",
          "name": "",
          "type": "tuple"
        }
      ],
      "stateMutability": "view",
      "type": "function",
      "constant": true
    }
  ],
  "bytecode": "0x60806040523480156200001157600080fd5b5060405162002539380380620025398339818101604052810190620000379190620000e8565b806000806101000a81548173ffffffffffffffffffffffffffffffffffffffff021916908373ffffffffffffffffffffffffffffffffffffffff160217905550506200011a565b600080fd5b600073ffffffffffffffffffffffffffffffffffffffff82169050919050565b6000620000b08262000083565b9050919050565b620000c281620000a3565b8114620000ce57600080fd5b50565b600081519050620000e281620000b7565b92915050565b6000602082840312156200010157620001006200007e565b5b60006200011184828501620000d1565b91505092915050565b61240f806200012a6000396000f3fe608060405234801561001057600080fd5b50600436106100625760003560e01c8063290344c7146100675780635c7460d61461008357806379054391146100a1578063b74d3fb5146100d5578063cb51bba914610105578063d37797e914610135575b600080fd5b610081600480360381019061007c919061116d565b610155565b005b61008b61064e565b60405161009891906112a7565b60405180910390f35b6100bb60048036038101906100b691906112c2565b610672565b6040516100cc95949392919061139e565b60405180910390f35b6100ef60048036038101906100ea91906112c2565b610860565b6040516100fc91906114f2565b60405180910390f35b61011f600480360381019061011a919061154a565b610afe565b60405161012c9190611577565b60405180910390f35b61013d610b22565b60405161014c93929190611703565b60405180910390f35b7f693e39e19b42d1b5ad69fada9680c72cb82a8e4a0102c9548839d6fc7e95d70c336000801b6040516101899291906117c1565b60405180910390a1600260048111156101a5576101a4611836565b5b60008054906101000a900473ffffffffffffffffffffffffffffffffffffffff1673ffffffffffffffffffffffffffffffffffffffff166327820851336040518263ffffffff1660e01b81526004016101fe9190611865565b602060405180830381865afa15801561021b573d6000803e3d6000fd5b505050506040513d601f19601f8201168201806040525081019061023f91906118a5565b600481111561025157610250611836565b5b14610291576040517f08c379a000000000000000000000000000000000000000000000000000000000815260040161028890611944565b60405180910390fd5b7f693e39e19b42d1b5ad69fada9680c72cb82a8e4a0102c9548839d6fc7e95d70c336000801b6040516102c59291906119b0565b60405180910390a17f693e39e19b42d1b5ad69fada9680c72cb82a8e4a0102c9548839d6fc7e95d70c3385858585604051610304959493929190611a71565b60405180910390a17f693e39e19b42d1b5ad69fada9680c72cb82a8e4a0102c9548839d6fc7e95d70c3385858585604051610343959493929190611b38565b60405180910390a16000801b6001600086815260200190815260200160002060000154146103a6576040517f08c379a000000000000000000000000000000000000000000000000000000000815260040161039d90611bff565b60405180910390fd5b7f693e39e19b42d1b5ad69fada9680c72cb82a8e4a0102c9548839d6fc7e95d70c33858585856040516103dd959493929190611c6b565b60405180910390a16000815111610429576040517f08c379a000000000000000000000000000000000000000000000000000000000815260040161042090611d32565b60405180910390fd5b7f693e39e19b42d1b5ad69fada9680c72cb82a8e4a0102c9548839d6fc7e95d70c3385858585604051610460959493929190611d9e565b60405180910390a17f693e39e19b42d1b5ad69fada9680c72cb82a8e4a0102c9548839d6fc7e95d70c338585858560405161049f959493929190611e65565b60405180910390a16040518060a001604052808581526020013373ffffffffffffffffffffffffffffffffffffffff16815260200184815260200183815260200182815250600160008681526020019081526020016000206000820151816000015560208201518160010160006101000a81548173ffffffffffffffffffffffffffffffffffffffff021916908373ffffffffffffffffffffffffffffffffffffffff160217905550604082015181600201908161055d91906120e2565b50606082015181600301908161057391906120e2565b50608082015181600401908161058991906120e2565b5090505060028490806001815401808255809150506001900390600052602060002001600090919091909150553373ffffffffffffffffffffffffffffffffffffffff16847fce36d41273b724ef277b938c439afb2342a6d7a476a905409f0b300fbbadcc72858585604051610601939291906121b4565b60405180910390a37f693e39e19b42d1b5ad69fada9680c72cb82a8e4a0102c9548839d6fc7e95d70c338585858560405161064095949392919061224c565b60405180910390a150505050565b60008054906101000a900473ffffffffffffffffffffffffffffffffffffffff1681565b60016020528060005260406000206000915090508060000154908060010160009054906101000a900473ffffffffffffffffffffffffffffffffffffffff16908060020180546106c190611f0f565b80601f01602080910402602001604051908101604052809291908181526020018280546106ed90611f0f565b801561073a5780601f1061070f5761010080835404028352916020019161073a565b820191906000526020600020905b81548152906001019060200180831161071d57829003601f168201915b50505050509080600301805461074f90611f0f565b80601f016020809104026020016040519081016040528092919081815260200182805461077b90611f0f565b80156107c85780601f1061079d576101008083540402835291602001916107c8565b820191906000526020600020905b8154815290600101906020018083116107ab57829003601f168201915b5050505050908060040180546107dd90611f0f565b80601f016020809104026020016040519081016040528092919081815260200182805461080990611f0f565b80156108565780601f1061082b57610100808354040283529160200191610856565b820191906000526020600020905b81548152906001019060200180831161083957829003601f168201915b5050505050905085565b610868610f95565b6000801b6001600084815260200190815260200160002060000154036108c3576040517f08c379a00000000000000000000000000000000000000000000000000000000081526004016108ba90612313565b60405180910390fd5b600160008381526020019081526020016000206040518060a0016040529081600082015481526020016001820160009054906101000a900473ffffffffffffffffffffffffffffffffffffffff1673ffffffffffffffffffffffffffffffffffffffff1673ffffffffffffffffffffffffffffffffffffffff16815260200160028201805461095190611f0f565b80601f016020809104026020016040519081016040528092919081815260200182805461097d90611f0f565b80156109ca5780601f1061099f576101008083540402835291602001916109ca565b820191906000526020600020905b8154815290600101906020018083116109ad57829003601f168201915b505050505081526020016003820180546109e390611f0f565b80601f0160208091040260200160405190810160405280929190818152602001828054610a0f90611f0f565b8015610a5c5780601f10610a3157610100808354040283529160200191610a5c565b820191906000526020600020905b815481529060010190602001808311610a3f57829003601f168201915b50505050508152602001600482018054610a7590611f0f565b80601f0160208091040260200160405190810160405280929190818152602001828054610aa190611f0f565b8015610aee5780601f10610ac357610100808354040283529160200191610aee565b820191906000526020600020905b815481529060010190602001808311610ad157829003601f168201915b5050505050815250509050919050565b60028181548110610b0e57600080fd5b906000526020600020016000915090505481565b60608060606000805b600280549050811015610be1573373ffffffffffffffffffffffffffffffffffffffff166001600060028481548110610b6757610b66612333565b5b9060005260206000200154815260200190815260200160002060010160009054906101000a900473ffffffffffffffffffffffffffffffffffffffff1673ffffffffffffffffffffffffffffffffffffffff1603610bce578180610bca90612391565b9250505b8080610bd990612391565b915050610b2b565b5060008167ffffffffffffffff811115610bfe57610bfd611042565b5b604051908082528060200260200182016040528015610c2c5781602001602082028036833780820191505090505b50905060008267ffffffffffffffff811115610c4b57610c4a611042565b5b604051908082528060200260200182016040528015610c7e57816020015b6060815260200190600190039081610c695790505b50905060008367ffffffffffffffff811115610c9d57610c9c611042565b5b604051908082528060200260200182016040528015610cd057816020015b6060815260200190600190039081610cbb5790505b5090506000805b600280549050811015610f81573373ffffffffffffffffffffffffffffffffffffffff166001600060028481548110610d1357610d12612333565b5b9060005260206000200154815260200190815260200160002060010160009054906101000a900473ffffffffffffffffffffffffffffffffffffffff1673ffffffffffffffffffffffffffffffffffffffff1603610f6e5760028181548110610d7f57610d7e612333565b5b9060005260206000200154858381518110610d9d57610d9c612333565b5b6020026020010181815250506001600060028381548110610dc157610dc0612333565b5b906000526020600020015481526020019081526020016000206002018054610de890611f0f565b80601f0160208091040260200160405190810160405280929190818152602001828054610e1490611f0f565b8015610e615780601f10610e3657610100808354040283529160200191610e61565b820191906000526020600020905b815481529060010190602001808311610e4457829003601f168201915b5050505050848381518110610e7957610e78612333565b5b60200260200101819052506001600060028381548110610e9c57610e9b612333565b5b906000526020600020015481526020019081526020016000206004018054610ec390611f0f565b80601f0160208091040260200160405190810160405280929190818152602001828054610eef90611f0f565b8015610f3c5780601f10610f1157610100808354040283529160200191610f3c565b820191906000526020600020905b815481529060010190602001808311610f1f57829003601f168201915b5050505050838381518110610f5457610f53612333565b5b60200260200101819052508180610f6a90612391565b9250505b8080610f7990612391565b915050610cd7565b508383839750975097505050505050909192565b6040518060a0016040528060008019168152602001600073ffffffffffffffffffffffffffffffffffffffff1681526020016060815260200160608152602001606081525090565b6000604051905090565b600080fd5b600080fd5b6000819050919050565b61100481610ff1565b811461100f57600080fd5b50565b60008135905061102181610ffb565b92915050565b600080fd5b600080fd5b6000601f19601f8301169050919050565b7f4e487b7100000000000000000000000000000000000000000000000000000000600052604160045260246000fd5b61107a82611031565b810181811067ffffffffffffffff8211171561109957611098611042565b5b80604052505050565b60006110ac610fdd565b90506110b88282611071565b919050565b600067ffffffffffffffff8211156110d8576110d7611042565b5b6110e182611031565b9050602081019050919050565b82818337600083830152505050565b600061111061110b846110bd565b6110a2565b90508281526020810184848401111561112c5761112b61102c565b5b6111378482856110ee565b509392505050565b600082601f83011261115457611153611027565b5b81356111648482602086016110fd565b91505092915050565b6000806000806080858703121561118757611186610fe7565b5b600061119587828801611012565b945050602085013567ffffffffffffffff8111156111b6576111b5610fec565b5b6111c28782880161113f565b935050604085013567ffffffffffffffff8111156111e3576111e2610fec565b5b6111ef8782880161113f565b925050606085013567ffffffffffffffff8111156112105761120f610fec565b5b61121c8782880161113f565b91505092959194509250565b600073ffffffffffffffffffffffffffffffffffffffff82169050919050565b6000819050919050565b600061126d61126861126384611228565b611248565b611228565b9050919050565b600061127f82611252565b9050919050565b600061129182611274565b9050919050565b6112a181611286565b82525050565b60006020820190506112bc6000830184611298565b92915050565b6000602082840312156112d8576112d7610fe7565b5b60006112e684828501611012565b91505092915050565b6112f881610ff1565b82525050565b600061130982611228565b9050919050565b611319816112fe565b82525050565b600081519050919050565b600082825260208201905092915050565b60005b8381101561135957808201518184015260208101905061133e565b60008484015250505050565b60006113708261131f565b61137a818561132a565b935061138a81856020860161133b565b61139381611031565b840191505092915050565b600060a0820190506113b360008301886112ef565b6113c06020830187611310565b81810360408301526113d28186611365565b905081810360608301526113e68185611365565b905081810360808301526113fa8184611365565b90509695505050505050565b61140f81610ff1565b82525050565b61141e816112fe565b82525050565b600082825260208201905092915050565b60006114408261131f565b61144a8185611424565b935061145a81856020860161133b565b61146381611031565b840191505092915050565b600060a0830160008301516114866000860182611406565b5060208301516114996020860182611415565b50604083015184820360408601526114b18282611435565b915050606083015184820360608601526114cb8282611435565b915050608083015184820360808601526114e58282611435565b9150508091505092915050565b6000602082019050818103600083015261150c818461146e565b905092915050565b6000819050919050565b61152781611514565b811461153257600080fd5b50565b6000813590506115448161151e565b92915050565b6000602082840312156115605761155f610fe7565b5b600061156e84828501611535565b91505092915050565b600060208201905061158c60008301846112ef565b92915050565b600081519050919050565b600082825260208201905092915050565b6000819050602082019050919050565b60006115ca8383611406565b60208301905092915050565b6000602082019050919050565b60006115ee82611592565b6115f8818561159d565b9350611603836115ae565b8060005b8381101561163457815161161b88826115be565b9750611626836115d6565b925050600181019050611607565b5085935050505092915050565b600081519050919050565b600082825260208201905092915050565b6000819050602082019050919050565b60006116798383611435565b905092915050565b6000602082019050919050565b600061169982611641565b6116a3818561164c565b9350836020820285016116b58561165d565b8060005b858110156116f157848403895281516116d2858261166d565b94506116dd83611681565b925060208a019950506001810190506116b9565b50829750879550505050505092915050565b6000606082019050818103600083015261171d81866115e3565b90508181036020830152611731818561168e565b90508181036040830152611745818461168e565b9050949350505050565b7f436865636b696e6720466163746f727920526f6c650000000000000000000000600082015250565b600061178560158361132a565b91506117908261174f565b602082019050919050565b50565b60006117ab60008361132a565b91506117b68261179b565b600082019050919050565b600060c08201905081810360008301526117da81611778565b90506117e96020830185611310565b6117f660408301846112ef565b81810360608301526118078161179e565b9050818103608083015261181a8161179e565b905081810360a083015261182d8161179e565b90509392505050565b7f4e487b7100000000000000000000000000000000000000000000000000000000600052602160045260246000fd5b600060208201905061187a6000830184611310565b92915050565b6005811061188d57600080fd5b50565b60008151905061189f81611880565b92915050565b6000602082840312156118bb576118ba610fe7565b5b60006118c984828501611890565b91505092915050565b7f4163636573732064656e6965643a204f6e6c7920666163746f7269657320616c60008201527f6c6f776564000000000000000000000000000000000000000000000000000000602082015250565b600061192e60258361132a565b9150611939826118d2565b604082019050919050565b6000602082019050818103600083015261195d81611921565b9050919050565b7f466163746f727920526f6c652056657269666965640000000000000000000000600082015250565b600061199a60158361132a565b91506119a582611964565b602082019050919050565b600060c08201905081810360008301526119c98161198d565b90506119d86020830185611310565b6119e560408301846112ef565b81810360608301526119f68161179e565b90508181036080830152611a098161179e565b905081810360a0830152611a1c8161179e565b90509392505050565b7f4265666f726520436865636b7300000000000000000000000000000000000000600082015250565b6000611a5b600d8361132a565b9150611a6682611a25565b602082019050919050565b600060c0820190508181036000830152611a8a81611a4e565b9050611a996020830188611310565b611aa660408301876112ef565b8181036060830152611ab88186611365565b90508181036080830152611acc8185611365565b905081810360a0830152611ae08184611365565b90509695505050505050565b7f436865636b696e67204578697374696e672050726f6475637420494400000000600082015250565b6000611b22601c8361132a565b9150611b2d82611aec565b602082019050919050565b600060c0820190508181036000830152611b5181611b15565b9050611b606020830188611310565b611b6d60408301876112ef565b8181036060830152611b7f8186611365565b90508181036080830152611b938185611365565b905081810360a0830152611ba78184611365565b90509695505050505050565b7f4572726f723a2050726f6475637420494420616c726561647920657869737473600082015250565b6000611be960208361132a565b9150611bf482611bb3565b602082019050919050565b60006020820190508181036000830152611c1881611bdc565b9050919050565b7f5061737365642050726f6475637420494420436865636b000000000000000000600082015250565b6000611c5560178361132a565b9150611c6082611c1f565b602082019050919050565b600060c0820190508181036000830152611c8481611c48565b9050611c936020830188611310565b611ca060408301876112ef565b8181036060830152611cb28186611365565b90508181036080830152611cc68185611365565b905081810360a0830152611cda8184611365565b90509695505050505050565b7f4572726f723a2043617465676f72792063616e6e6f7420626520656d70747900600082015250565b6000611d1c601f8361132a565b9150611d2782611ce6565b602082019050919050565b60006020820190508181036000830152611d4b81611d0f565b9050919050565b7f5061737365642043617465676f727920436865636b0000000000000000000000600082015250565b6000611d8860158361132a565b9150611d9382611d52565b602082019050919050565b600060c0820190508181036000830152611db781611d7b565b9050611dc66020830188611310565b611dd360408301876112ef565b8181036060830152611de58186611365565b90508181036080830152611df98185611365565b905081810360a0830152611e0d8184611365565b90509695505050505050565b7f50726f63656564696e6720746f204372656174652050726f6475637400000000600082015250565b6000611e4f601c8361132a565b9150611e5a82611e19565b602082019050919050565b600060c0820190508181036000830152611e7e81611e42565b9050611e8d6020830188611310565b611e9a60408301876112ef565b8181036060830152611eac8186611365565b90508181036080830152611ec08185611365565b905081810360a0830152611ed48184611365565b90509695505050505050565b7f4e487b7100000000000000000000000000000000000000000000000000000000600052602260045260246000fd5b60006002820490506001821680611f2757607f821691505b602082108103611f3a57611f39611ee0565b5b50919050565b60008190508160005260206000209050919050565b60006020601f8301049050919050565b600082821b905092915050565b600060088302611fa27fffffffffffffffffffffffffffffffffffffffffffffffffffffffffffffffff82611f65565b611fac8683611f65565b95508019841693508086168417925050509392505050565b6000611fdf611fda611fd584611514565b611248565b611514565b9050919050565b6000819050919050565b611ff983611fc4565b61200d61200582611fe6565b848454611f72565b825550505050565b600090565b612022612015565b61202d818484611ff0565b505050565b5b818110156120515761204660008261201a565b600181019050612033565b5050565b601f8211156120965761206781611f40565b61207084611f55565b8101602085101561207f578190505b61209361208b85611f55565b830182612032565b50505b505050565b600082821c905092915050565b60006120b96000198460080261209b565b1980831691505092915050565b60006120d283836120a8565b9150826002028217905092915050565b6120eb8261131f565b67ffffffffffffffff81111561210457612103611042565b5b61210e8254611f0f565b612119828285612055565b600060209050601f83116001811461214c576000841561213a578287015190505b61214485826120c6565b8655506121ac565b601f19841661215a86611f40565b60005b828110156121825784890151825560018201915060208501945060208101905061215d565b8683101561219f578489015161219b601f8916826120a8565b8355505b6001600288020188555050505b505050505050565b600060608201905081810360008301526121ce8186611365565b905081810360208301526121e28185611365565b905081810360408301526121f68184611365565b9050949350505050565b7f50726f647563742043726561746564205375636365737366756c6c7900000000600082015250565b6000612236601c8361132a565b915061224182612200565b602082019050919050565b600060c082019050818103600083015261226581612229565b90506122746020830188611310565b61228160408301876112ef565b81810360608301526122938186611365565b905081810360808301526122a78185611365565b905081810360a08301526122bb8184611365565b90509695505050505050565b7f50726f6475637420646f6573206e6f7420657869737400000000000000000000600082015250565b60006122fd60168361132a565b9150612308826122c7565b602082019050919050565b6000602082019050818103600083015261232c816122f0565b9050919050565b7f4e487b7100000000000000000000000000000000000000000000000000000000600052603260045260246000fd5b7f4e487b7100000000000000000000000000000000000000000000000000000000600052601160045260246000fd5b600061239c82611514565b91507fffffffffffffffffffffffffffffffffffffffffffffffffffffffffffffffff82036123ce576123cd612362565b5b60018201905091905056fea264697066735822122075a6adf23df0a71d51596a3b8c90b5c7a53ced7af0ece7db831a725c410ae07264736f6c63430008130033",
  "immutableReferences": {},
  "source": "// SPDX-License-Identifier: MIT\npragma solidity ^0.8.19;\n\nimport \"./UserRegistry.sol\";\n\ncontract Product {\n    UserRegistry public userRegistry;\n\n    struct ProductInfo {\n        bytes32 productId;\n        address factoryWallet;\n        string productName;\n        string productCID;\n        string category;\n    }\n\n    mapping(bytes32 => ProductInfo) public products;\n    bytes32[] public productIds;\n\n    event ProductCreated(\n        bytes32 indexed productId,\n        address indexed factoryWallet,\n        string productName,\n        string productCID,\n        string category\n    );\n\n    event DebugLog(string message, address sender, bytes32 productId, string productName, string productCID, string category);\n\n    modifier onlyFactory() {\n        emit DebugLog(\"Checking Factory Role\", msg.sender, bytes32(0), \"\", \"\", \"\");\n        require(\n            userRegistry.getUserRole(msg.sender) == UserRegistry.UserRole.Factory,\n            \"Access denied: Only factories allowed\"\n        );\n        emit DebugLog(\"Factory Role Verified\", msg.sender, bytes32(0), \"\", \"\", \"\");\n        _;\n    }\n\n    constructor(address _userRegistry) {\n        userRegistry = UserRegistry(_userRegistry);\n    }\n\n    function createProduct(\n        bytes32 _productId,\n        string memory _productName,\n        string memory _productCID,\n        string memory _category\n    ) public onlyFactory {\n        emit DebugLog(\"Before Checks\", msg.sender, _productId, _productName, _productCID, _category);\n\n        //   `productId` \n        emit DebugLog(\"Checking Existing Product ID\", msg.sender, _productId, _productName, _productCID, _category);\n        require(products[_productId].productId == bytes32(0), \"Error: Product ID already exists\");\n        emit DebugLog(\"Passed Product ID Check\", msg.sender, _productId, _productName, _productCID, _category);\n\n        //   `category` \n        require(bytes(_category).length > 0, \"Error: Category cannot be empty\");\n        emit DebugLog(\"Passed Category Check\", msg.sender, _productId, _productName, _productCID, _category);\n\n        //   Product\n        emit DebugLog(\"Proceeding to Create Product\", msg.sender, _productId, _productName, _productCID, _category);\n\n        products[_productId] = ProductInfo({\n            productId: _productId,\n            factoryWallet: msg.sender,\n            productName: _productName,\n            productCID: _productCID,\n            category: _category\n        });\n\n        productIds.push(_productId);\n\n        emit ProductCreated(_productId, msg.sender, _productName, _productCID, _category);\n        emit DebugLog(\"Product Created Successfully\", msg.sender, _productId, _productName, _productCID, _category);\n    }\n//   Factory  (, Category, ID)\nfunction getProductsByFactory() public view returns (\n    bytes32[] memory,\n    string[] memory,\n    string[] memory\n) {\n    uint count = 0;\n    for (uint i = 0; i < productIds.length; i++) {\n        if (products[productIds[i]].factoryWallet == msg.sender) {\n            count++;\n        }\n    }\n\n    bytes32[] memory ids = new bytes32[](count);\n    string[] memory names = new string[](count);\n    string[] memory categories = new string[](count);\n    \n    uint index = 0;\n    for (uint i = 0; i < productIds.length; i++) {\n        if (products[productIds[i]].factoryWallet == msg.sender) {\n            ids[index] = productIds[i];\n            names[index] = products[productIds[i]].productName;\n            categories[index] = products[productIds[i]].category;\n            index++;\n        }\n    }\n\n    return (ids, names, categories);\n}\n\n\n//   Product  productId\nfunction getProductDetails(bytes32 _productId) public view returns (ProductInfo memory) {\n    require(products[_productId].productId != bytes32(0), \"Product does not exist\");\n    return products[_productId];\n}\n\n\n}\n",
  "sourcePath": "/home/kmitl-ivo/Documents/Back/Backend/solidity/contracts/Product.sol",
  "compiler": {
    "name": "solc",
    "version": "0.8.19+commit.7dd6d404.Emscripten.clang"
  },
  "schemaVersion": "3.4.16",
  "updatedAt": "2025-03-18T10:11:07.685Z",
  "networkType": "ethereum",
  "devdoc": {
    "kind": "dev",
    "methods": {},
    "version": 1
  },
  "userdoc": {
    "kind": "user",
    "methods": {},
    "version": 1
  }
}