{
  "contractName": "RawMilk",
  "abi": [
    {
      "inputs": [
        {
          "internalType": "address",
          "name": "_userRegistry",
          "type": "address"
        }
      ],
      "stateMutability": "nonpayable",
      "type": "constructor"
    },
    {
      "anonymous": false,
      "inputs": [
        {
          "indexed": false,
          "internalType": "string",
          "name": "message",
          "type": "string"
        },
        {
          "indexed": false,
          "internalType": "address",
          "name": "sender",
          "type": "address"
        },
        {
          "indexed": false,
          "internalType": "bytes32",
          "name": "tankId",
          "type": "bytes32"
        },
        {
          "indexed": false,
          "internalType": "bytes32",
          "name": "factoryId",
          "type": "bytes32"
        }
      ],
      "name": "DebugLog",
      "type": "event"
    },
    {
      "anonymous": false,
      "inputs": [
        {
          "indexed": true,
          "internalType": "bytes32",
          "name": "tankId",
          "type": "bytes32"
        },
        {
          "indexed": false,
          "internalType": "string",
          "name": "oldQualityReportCID",
          "type": "string"
        },
        {
          "indexed": false,
          "internalType": "string",
          "name": "newQualityReportCID",
          "type": "string"
        },
        {
          "indexed": false,
          "internalType": "string",
          "name": "oldPersonInCharge",
          "type": "string"
        },
        {
          "indexed": false,
          "internalType": "string",
          "name": "newPersonInCharge",
          "type": "string"
        },
        {
          "indexed": false,
          "internalType": "enum RawMilk.MilkStatus",
          "name": "status",
          "type": "uint8"
        }
      ],
      "name": "MilkQualityUpdated",
      "type": "event"
    },
    {
      "anonymous": false,
      "inputs": [
        {
          "indexed": true,
          "internalType": "bytes32",
          "name": "tankId",
          "type": "bytes32"
        },
        {
          "indexed": false,
          "internalType": "enum RawMilk.MilkStatus",
          "name": "status",
          "type": "uint8"
        },
        {
          "indexed": false,
          "internalType": "string",
          "name": "qualityReportCID",
          "type": "string"
        }
      ],
      "name": "MilkQualityVerified",
      "type": "event"
    },
    {
      "anonymous": false,
      "inputs": [
        {
          "indexed": true,
          "internalType": "bytes32",
          "name": "tankId",
          "type": "bytes32"
        },
        {
          "indexed": true,
          "internalType": "address",
          "name": "farmer",
          "type": "address"
        },
        {
          "indexed": true,
          "internalType": "bytes32",
          "name": "factoryId",
          "type": "bytes32"
        },
        {
          "indexed": false,
          "internalType": "string",
          "name": "personInCharge",
          "type": "string"
        },
        {
          "indexed": false,
          "internalType": "string",
          "name": "qualityReportCID",
          "type": "string"
        }
      ],
      "name": "MilkTankCreated",
      "type": "event"
    },
    {
      "anonymous": false,
      "inputs": [
        {
          "indexed": true,
          "internalType": "bytes32",
          "name": "tankId",
          "type": "bytes32"
        }
      ],
      "name": "MilkTankUpdated",
      "type": "event"
    },
    {
      "inputs": [
        {
          "internalType": "bytes32",
          "name": "",
          "type": "bytes32"
        },
        {
          "internalType": "uint256",
          "name": "",
          "type": "uint256"
        }
      ],
      "name": "milkHistory",
      "outputs": [
        {
          "internalType": "string",
          "name": "personInCharge",
          "type": "string"
        },
        {
          "internalType": "string",
          "name": "qualityReportCID",
          "type": "string"
        },
        {
          "internalType": "enum RawMilk.MilkStatus",
          "name": "status",
          "type": "uint8"
        },
        {
          "internalType": "uint256",
          "name": "timestamp",
          "type": "uint256"
        }
      ],
      "stateMutability": "view",
      "type": "function",
      "constant": true
    },
    {
      "inputs": [
        {
          "internalType": "bytes32",
          "name": "",
          "type": "bytes32"
        }
      ],
      "name": "milkTanks",
      "outputs": [
        {
          "internalType": "bytes32",
          "name": "tankId",
          "type": "bytes32"
        },
        {
          "internalType": "address",
          "name": "farmer",
          "type": "address"
        },
        {
          "internalType": "bytes32",
          "name": "factoryId",
          "type": "bytes32"
        },
        {
          "internalType": "string",
          "name": "personInCharge",
          "type": "string"
        },
        {
          "internalType": "enum RawMilk.MilkStatus",
          "name": "status",
          "type": "uint8"
        },
        {
          "internalType": "string",
          "name": "qualityReportCID",
          "type": "string"
        },
        {
          "internalType": "string",
          "name": "qrCodeCID",
          "type": "string"
        }
      ],
      "stateMutability": "view",
      "type": "function",
      "constant": true
    },
    {
      "inputs": [
        {
          "internalType": "uint256",
          "name": "",
          "type": "uint256"
        }
      ],
      "name": "tankIds",
      "outputs": [
        {
          "internalType": "bytes32",
          "name": "",
          "type": "bytes32"
        }
      ],
      "stateMutability": "view",
      "type": "function",
      "constant": true
    },
    {
      "inputs": [],
      "name": "userRegistry",
      "outputs": [
        {
          "internalType": "contract UserRegistry",
          "name": "",
          "type": "address"
        }
      ],
      "stateMutability": "view",
      "type": "function",
      "constant": true
    },
    {
      "inputs": [
        {
          "internalType": "bytes32",
          "name": "_tankId",
          "type": "bytes32"
        },
        {
          "internalType": "bytes32",
          "name": "_factoryId",
          "type": "bytes32"
        },
        {
          "internalType": "string",
          "name": "_personInCharge",
          "type": "string"
        },
        {
          "internalType": "string",
          "name": "_qualityReportCID",
          "type": "string"
        },
        {
          "internalType": "string",
          "name": "_qrCodeCID",
          "type": "string"
        }
      ],
      "name": "createMilkTank",
      "outputs": [],
      "stateMutability": "nonpayable",
      "type": "function"
    },
    {
      "inputs": [
        {
          "internalType": "bytes32",
          "name": "_tankId",
          "type": "bytes32"
        },
        {
          "internalType": "bool",
          "name": "_approved",
          "type": "bool"
        },
        {
          "internalType": "string",
          "name": "_qualityReportCID",
          "type": "string"
        },
        {
          "internalType": "string",
          "name": "_personInCharge",
          "type": "string"
        }
      ],
      "name": "verifyMilkQuality",
      "outputs": [],
      "stateMutability": "nonpayable",
      "type": "function"
    },
    {
      "inputs": [
        {
          "internalType": "bytes32",
          "name": "_tankId",
          "type": "bytes32"
        }
      ],
      "name": "getMilkTank",
      "outputs": [
        {
          "internalType": "bytes32",
          "name": "",
          "type": "bytes32"
        },
        {
          "internalType": "address",
          "name": "",
          "type": "address"
        },
        {
          "internalType": "bytes32",
          "name": "",
          "type": "bytes32"
        },
        {
          "internalType": "string",
          "name": "",
          "type": "string"
        },
        {
          "internalType": "enum RawMilk.MilkStatus",
          "name": "",
          "type": "uint8"
        },
        {
          "internalType": "string",
          "name": "",
          "type": "string"
        },
        {
          "internalType": "string",
          "name": "",
          "type": "string"
        },
        {
          "components": [
            {
              "internalType": "string",
              "name": "personInCharge",
              "type": "string"
            },
            {
              "internalType": "string",
              "name": "qualityReportCID",
              "type": "string"
            },
            {
              "internalType": "enum RawMilk.MilkStatus",
              "name": "status",
              "type": "uint8"
            },
            {
              "internalType": "uint256",
              "name": "timestamp",
              "type": "uint256"
            }
          ],
          "internalType": "struct RawMilk.MilkHistory[]",
          "name": "",
          "type": "tuple[]"
        }
      ],
      "stateMutability": "view",
      "type": "function",
      "constant": true
    },
    {
      "inputs": [
        {
          "internalType": "address",
          "name": "_farmer",
          "type": "address"
        }
      ],
      "name": "getMilkTanksByFarmer",
      "outputs": [
        {
          "internalType": "bytes32[]",
          "name": "",
          "type": "bytes32[]"
        },
        {
          "components": [
            {
              "internalType": "string",
              "name": "personInCharge",
              "type": "string"
            },
            {
              "internalType": "string",
              "name": "qualityReportCID",
              "type": "string"
            },
            {
              "internalType": "enum RawMilk.MilkStatus",
              "name": "status",
              "type": "uint8"
            },
            {
              "internalType": "uint256",
              "name": "timestamp",
              "type": "uint256"
            }
          ],
          "internalType": "struct RawMilk.MilkHistory[][]",
          "name": "",
          "type": "tuple[][]"
        }
      ],
      "stateMutability": "view",
      "type": "function",
      "constant": true
    },
    {
      "inputs": [
        {
          "internalType": "bytes32",
          "name": "_factoryId",
          "type": "bytes32"
        }
      ],
      "name": "getMilkTanksByFactory",
      "outputs": [
        {
          "internalType": "bytes32[]",
          "name": "",
          "type": "bytes32[]"
        },
        {
          "components": [
            {
              "internalType": "string",
              "name": "personInCharge",
              "type": "string"
            },
            {
              "internalType": "string",
              "name": "qualityReportCID",
              "type": "string"
            },
            {
              "internalType": "enum RawMilk.MilkStatus",
              "name": "status",
              "type": "uint8"
            },
            {
              "internalType": "uint256",
              "name": "timestamp",
              "type": "uint256"
            }
          ],
          "internalType": "struct RawMilk.MilkHistory[][]",
          "name": "",
          "type": "tuple[][]"
        }
      ],
      "stateMutability": "view",
      "type": "function",
      "constant": true
    }
  ],
  "bytecode": "0x60806040523480156200001157600080fd5b5060405162003340380380620033408339818101604052810190620000379190620000e8565b806000806101000a81548173ffffffffffffffffffffffffffffffffffffffff021916908373ffffffffffffffffffffffffffffffffffffffff160217905550506200011a565b600080fd5b600073ffffffffffffffffffffffffffffffffffffffff82169050919050565b6000620000b08262000083565b9050919050565b620000c281620000a3565b8114620000ce57600080fd5b50565b600081519050620000e281620000b7565b92915050565b6000602082840312156200010157620001006200007e565b5b60006200011184828501620000d1565b91505092915050565b613216806200012a6000396000f3fe608060405234801561001057600080fd5b50600436106100935760003560e01c80635c7460d6116100665780635c7460d61461014c57806370d61bba1461016a578063813946ea1461019b578063a34a7fb9146101ce578063ef993abd1461020457610093565b806349b088ac146100985780634b89e5f6146100c95780635862213c146100f95780635a03541f14610115575b600080fd5b6100b260048036038101906100ad9190611e06565b610220565b6040516100c09291906121ff565b60405180910390f35b6100e360048036038101906100de9190612262565b6105fb565b6040516100f0919061229e565b60405180910390f35b610113600480360381019061010e91906123ee565b61061f565b005b61012f600480360381019061012a9190611e06565b610ad4565b6040516101439897969594939291906125dd565b60405180910390f35b610154610fe9565b60405161016191906126d6565b60405180910390f35b610184600480360381019061017f919061271d565b61100d565b6040516101929291906121ff565b60405180910390f35b6101b560048036038101906101b0919061274a565b611480565b6040516101c59493929190612799565b60405180910390f35b6101e860048036038101906101e39190611e06565b6115ea565b6040516101fb97969594939291906127ec565b60405180910390f35b61021e600480360381019061021991906128a8565b6117f1565b005b6060806000805b6003805490508110156102915784600160006003848154811061024d5761024c612947565b5b90600052602060002001548152602001908152602001600020600201540361027e57818061027a906129a5565b9250505b8080610289906129a5565b915050610227565b5060008167ffffffffffffffff8111156102ae576102ad6122c3565b5b6040519080825280602002602001820160405280156102dc5781602001602082028036833780820191505090505b50905060008267ffffffffffffffff8111156102fb576102fa6122c3565b5b60405190808252806020026020018201604052801561032e57816020015b60608152602001906001900390816103195790505b5090506000805b6003805490508110156105eb5787600160006003848154811061035b5761035a612947565b5b9060005260206000200154815260200190815260200160002060020154036105d8576003818154811061039157610390612947565b5b90600052602060002001548483815181106103af576103ae612947565b5b60200260200101818152505060026000600383815481106103d3576103d2612947565b5b90600052602060002001548152602001908152602001600020805480602002602001604051908101604052809291908181526020016000905b828210156105a7578382906000526020600020906004020160405180608001604052908160008201805461043f90612a1c565b80601f016020809104026020016040519081016040528092919081815260200182805461046b90612a1c565b80156104b85780601f1061048d576101008083540402835291602001916104b8565b820191906000526020600020905b81548152906001019060200180831161049b57829003601f168201915b505050505081526020016001820180546104d190612a1c565b80601f01602080910402602001604051908101604052809291908181526020018280546104fd90612a1c565b801561054a5780601f1061051f5761010080835404028352916020019161054a565b820191906000526020600020905b81548152906001019060200180831161052d57829003601f168201915b505050505081526020016002820160009054906101000a900460ff16600281111561057857610577611fd9565b5b600281111561058a57610589611fd9565b5b81526020016003820154815250508152602001906001019061040c565b505050508383815181106105be576105bd612947565b5b602002602001018190525081806105d4906129a5565b9250505b80806105e3906129a5565b915050610335565b5082829550955050505050915091565b6003818154811061060b57600080fd5b906000526020600020016000915090505481565b7f86f4cac90217ee94700ecefa745858b174e706d4f9d2d6243e768f2e9de8516c3360008060405161065393929190612ae1565b60405180910390a16001600481111561066f5761066e611fd9565b5b60008054906101000a900473ffffffffffffffffffffffffffffffffffffffff1673ffffffffffffffffffffffffffffffffffffffff166327820851336040518263ffffffff1660e01b81526004016106c89190612b2b565b602060405180830381865afa1580156106e5573d6000803e3d6000fd5b505050506040513d601f19601f820116820180604052508101906107099190612b6b565b600481111561071b5761071a611fd9565b5b1461075b576040517f08c379a000000000000000000000000000000000000000000000000000000000815260040161075290612c0a565b60405180910390fd5b7f86f4cac90217ee94700ecefa745858b174e706d4f9d2d6243e768f2e9de8516c33868660405161078e93929190612c76565b60405180910390a1600073ffffffffffffffffffffffffffffffffffffffff166001600087815260200190815260200160002060010160009054906101000a900473ffffffffffffffffffffffffffffffffffffffff1673ffffffffffffffffffffffffffffffffffffffff161461083b576040517f08c379a000000000000000000000000000000000000000000000000000000000815260040161083290612d0c565b60405180910390fd5b6040518060e001604052808681526020013373ffffffffffffffffffffffffffffffffffffffff1681526020018581526020018481526020016000600281111561088857610887611fd9565b5b815260200183815260200182815250600160008781526020019081526020016000206000820151816000015560208201518160010160006101000a81548173ffffffffffffffffffffffffffffffffffffffff021916908373ffffffffffffffffffffffffffffffffffffffff16021790555060408201518160020155606082015181600301908161091a9190612ece565b5060808201518160040160006101000a81548160ff0219169083600281111561094657610945611fd9565b5b021790555060a08201518160050190816109609190612ece565b5060c08201518160060190816109769190612ece565b509050506003859080600181540180825580915050600190039060005260206000200160009091909190915055600260008681526020019081526020016000206040518060800160405280858152602001848152602001600060028111156109e1576109e0611fd9565b5b81526020014281525090806001815401808255809150506001900390600052602060002090600402016000909190919091506000820151816000019081610a289190612ece565b506020820151816001019081610a3e9190612ece565b5060408201518160020160006101000a81548160ff02191690836002811115610a6a57610a69611fd9565b5b0217905550606082015181600301555050833373ffffffffffffffffffffffffffffffffffffffff16867fd2469f8cb85b3922ec520797c7b98587ad997a61cc87c42bf297fddbb478d82c8686604051610ac5929190612fa0565b60405180910390a45050505050565b60008060006060600060608060606000600160008b81526020019081526020016000206040518060e0016040529081600082015481526020016001820160009054906101000a900473ffffffffffffffffffffffffffffffffffffffff1673ffffffffffffffffffffffffffffffffffffffff1673ffffffffffffffffffffffffffffffffffffffff16815260200160028201548152602001600382018054610b7c90612a1c565b80601f0160208091040260200160405190810160405280929190818152602001828054610ba890612a1c565b8015610bf55780601f10610bca57610100808354040283529160200191610bf5565b820191906000526020600020905b815481529060010190602001808311610bd857829003601f168201915b505050505081526020016004820160009054906101000a900460ff166002811115610c2357610c22611fd9565b5b6002811115610c3557610c34611fd9565b5b8152602001600582018054610c4990612a1c565b80601f0160208091040260200160405190810160405280929190818152602001828054610c7590612a1c565b8015610cc25780601f10610c9757610100808354040283529160200191610cc2565b820191906000526020600020905b815481529060010190602001808311610ca557829003601f168201915b50505050508152602001600682018054610cdb90612a1c565b80601f0160208091040260200160405190810160405280929190818152602001828054610d0790612a1c565b8015610d545780601f10610d2957610100808354040283529160200191610d54565b820191906000526020600020905b815481529060010190602001808311610d3757829003601f168201915b5050505050815250509050600073ffffffffffffffffffffffffffffffffffffffff16816020015173ffffffffffffffffffffffffffffffffffffffff1603610dd2576040517f08c379a0000000000000000000000000000000000000000000000000000000008152600401610dc990613023565b60405180910390fd5b6000600260008c8152602001908152602001600020805480602002602001604051908101604052809291908181526020016000905b82821015610fa25783829060005260206000209060040201604051806080016040529081600082018054610e3a90612a1c565b80601f0160208091040260200160405190810160405280929190818152602001828054610e6690612a1c565b8015610eb35780601f10610e8857610100808354040283529160200191610eb3565b820191906000526020600020905b815481529060010190602001808311610e9657829003601f168201915b50505050508152602001600182018054610ecc90612a1c565b80601f0160208091040260200160405190810160405280929190818152602001828054610ef890612a1c565b8015610f455780601f10610f1a57610100808354040283529160200191610f45565b820191906000526020600020905b815481529060010190602001808311610f2857829003601f168201915b505050505081526020016002820160009054906101000a900460ff166002811115610f7357610f72611fd9565b5b6002811115610f8557610f84611fd9565b5b815260200160038201548152505081526020019060010190610e07565b505050509050816000015182602001518360400151846060015185608001518660a001518760c0015187995099509950995099509950995099505050919395975091939597565b60008054906101000a900473ffffffffffffffffffffffffffffffffffffffff1681565b6060806000805b6003805490508110156110ca578473ffffffffffffffffffffffffffffffffffffffff1660016000600384815481106110505761104f612947565b5b9060005260206000200154815260200190815260200160002060010160009054906101000a900473ffffffffffffffffffffffffffffffffffffffff1673ffffffffffffffffffffffffffffffffffffffff16036110b75781806110b3906129a5565b9250505b80806110c2906129a5565b915050611014565b5060008167ffffffffffffffff8111156110e7576110e66122c3565b5b6040519080825280602002602001820160405280156111155781602001602082028036833780820191505090505b50905060008267ffffffffffffffff811115611134576111336122c3565b5b60405190808252806020026020018201604052801561116757816020015b60608152602001906001900390816111525790505b5090506000805b600380549050811015611470578773ffffffffffffffffffffffffffffffffffffffff1660016000600384815481106111aa576111a9612947565b5b9060005260206000200154815260200190815260200160002060010160009054906101000a900473ffffffffffffffffffffffffffffffffffffffff1673ffffffffffffffffffffffffffffffffffffffff160361145d576003818154811061121657611215612947565b5b906000526020600020015484838151811061123457611233612947565b5b602002602001018181525050600260006003838154811061125857611257612947565b5b90600052602060002001548152602001908152602001600020805480602002602001604051908101604052809291908181526020016000905b8282101561142c57838290600052602060002090600402016040518060800160405290816000820180546112c490612a1c565b80601f01602080910402602001604051908101604052809291908181526020018280546112f090612a1c565b801561133d5780601f106113125761010080835404028352916020019161133d565b820191906000526020600020905b81548152906001019060200180831161132057829003601f168201915b5050505050815260200160018201805461135690612a1c565b80601f016020809104026020016040519081016040528092919081815260200182805461138290612a1c565b80156113cf5780601f106113a4576101008083540402835291602001916113cf565b820191906000526020600020905b8154815290600101906020018083116113b257829003601f168201915b505050505081526020016002820160009054906101000a900460ff1660028111156113fd576113fc611fd9565b5b600281111561140f5761140e611fd9565b5b815260200160038201548152505081526020019060010190611291565b5050505083838151811061144357611442612947565b5b60200260200101819052508180611459906129a5565b9250505b8080611468906129a5565b91505061116e565b5082829550955050505050915091565b6002602052816000526040600020818154811061149c57600080fd5b9060005260206000209060040201600091509150508060000180546114c090612a1c565b80601f01602080910402602001604051908101604052809291908181526020018280546114ec90612a1c565b80156115395780601f1061150e57610100808354040283529160200191611539565b820191906000526020600020905b81548152906001019060200180831161151c57829003601f168201915b50505050509080600101805461154e90612a1c565b80601f016020809104026020016040519081016040528092919081815260200182805461157a90612a1c565b80156115c75780601f1061159c576101008083540402835291602001916115c7565b820191906000526020600020905b8154815290600101906020018083116115aa57829003601f168201915b5050505050908060020160009054906101000a900460ff16908060030154905084565b60016020528060005260406000206000915090508060000154908060010160009054906101000a900473ffffffffffffffffffffffffffffffffffffffff169080600201549080600301805461163f90612a1c565b80601f016020809104026020016040519081016040528092919081815260200182805461166b90612a1c565b80156116b85780601f1061168d576101008083540402835291602001916116b8565b820191906000526020600020905b81548152906001019060200180831161169b57829003601f168201915b5050505050908060040160009054906101000a900460ff16908060050180546116e090612a1c565b80601f016020809104026020016040519081016040528092919081815260200182805461170c90612a1c565b80156117595780601f1061172e57610100808354040283529160200191611759565b820191906000526020600020905b81548152906001019060200180831161173c57829003601f168201915b50505050509080600601805461176e90612a1c565b80601f016020809104026020016040519081016040528092919081815260200182805461179a90612a1c565b80156117e75780601f106117bc576101008083540402835291602001916117e7565b820191906000526020600020905b8154815290600101906020018083116117ca57829003601f168201915b5050505050905087565b6002600481111561180557611804611fd9565b5b60008054906101000a900473ffffffffffffffffffffffffffffffffffffffff1673ffffffffffffffffffffffffffffffffffffffff166327820851336040518263ffffffff1660e01b815260040161185e9190612b2b565b602060405180830381865afa15801561187b573d6000803e3d6000fd5b505050506040513d601f19601f8201168201806040525081019061189f9190612b6b565b60048111156118b1576118b0611fd9565b5b146118f1576040517f08c379a00000000000000000000000000000000000000000000000000000000081526004016118e8906130b5565b60405180910390fd5b600073ffffffffffffffffffffffffffffffffffffffff166001600086815260200190815260200160002060010160009054906101000a900473ffffffffffffffffffffffffffffffffffffffff1673ffffffffffffffffffffffffffffffffffffffff1603611996576040517f08c379a000000000000000000000000000000000000000000000000000000000815260040161198d90613023565b60405180910390fd5b600060028111156119aa576119a9611fd9565b5b6001600086815260200190815260200160002060040160009054906101000a900460ff1660028111156119e0576119df611fd9565b5b14611a20576040517f08c379a0000000000000000000000000000000000000000000000000000000008152600401611a1790613121565b60405180910390fd5b6000600160008681526020019081526020016000206003018054611a4390612a1c565b80601f0160208091040260200160405190810160405280929190818152602001828054611a6f90612a1c565b8015611abc5780601f10611a9157610100808354040283529160200191611abc565b820191906000526020600020905b815481529060010190602001808311611a9f57829003601f168201915b505050505090506000600160008781526020019081526020016000206005018054611ae690612a1c565b80601f0160208091040260200160405190810160405280929190818152602001828054611b1290612a1c565b8015611b5f5780601f10611b3457610100808354040283529160200191611b5f565b820191906000526020600020905b815481529060010190602001808311611b4257829003601f168201915b5050505050905084611b72576002611b75565b60015b6001600088815260200190815260200160002060040160006101000a81548160ff02191690836002811115611bad57611bac611fd9565b5b021790555083600160008881526020019081526020016000206005019081611bd59190612ece565b5082600160008881526020019081526020016000206003019081611bf99190612ece565b50600260008781526020019081526020016000206040518060800160405280858152602001868152602001600160008a815260200190815260200160002060040160009054906101000a900460ff166002811115611c5a57611c59611fd9565b5b81526020014281525090806001815401808255809150506001900390600052602060002090600402016000909190919091506000820151816000019081611ca19190612ece565b506020820151816001019081611cb79190612ece565b5060408201518160020160006101000a81548160ff02191690836002811115611ce357611ce2611fd9565b5b0217905550606082015181600301555050857f148e5b78379121774b21414b3e0437c5bb8ec94f5772180c4b541a5f2d5ff8b482868587600160008d815260200190815260200160002060040160009054906101000a900460ff16604051611d4f959493929190613141565b60405180910390a2857ff8e56d2671d841b96def7d6bcc2753dd3030266f946afb9fbe2849d106e3ade76001600089815260200190815260200160002060040160009054906101000a900460ff1686604051611dac9291906131b0565b60405180910390a2505050505050565b6000604051905090565b600080fd5b600080fd5b6000819050919050565b611de381611dd0565b8114611dee57600080fd5b50565b600081359050611e0081611dda565b92915050565b600060208284031215611e1c57611e1b611dc6565b5b6000611e2a84828501611df1565b91505092915050565b600081519050919050565b600082825260208201905092915050565b6000819050602082019050919050565b611e6881611dd0565b82525050565b6000611e7a8383611e5f565b60208301905092915050565b6000602082019050919050565b6000611e9e82611e33565b611ea88185611e3e565b9350611eb383611e4f565b8060005b83811015611ee4578151611ecb8882611e6e565b9750611ed683611e86565b925050600181019050611eb7565b5085935050505092915050565b600081519050919050565b600082825260208201905092915050565b6000819050602082019050919050565b600081519050919050565b600082825260208201905092915050565b6000819050602082019050919050565b600081519050919050565b600082825260208201905092915050565b60005b83811015611f83578082015181840152602081019050611f68565b60008484015250505050565b6000601f19601f8301169050919050565b6000611fab82611f49565b611fb58185611f54565b9350611fc5818560208601611f65565b611fce81611f8f565b840191505092915050565b7f4e487b7100000000000000000000000000000000000000000000000000000000600052602160045260246000fd5b6003811061201957612018611fd9565b5b50565b600081905061202a82612008565b919050565b600061203a8261201c565b9050919050565b61204a8161202f565b82525050565b6000819050919050565b61206381612050565b82525050565b600060808301600083015184820360008601526120868282611fa0565b915050602083015184820360208601526120a08282611fa0565b91505060408301516120b56040860182612041565b5060608301516120c8606086018261205a565b508091505092915050565b60006120df8383612069565b905092915050565b6000602082019050919050565b60006120ff82611f1d565b6121098185611f28565b93508360208202850161211b85611f39565b8060005b85811015612157578484038952815161213885826120d3565b9450612143836120e7565b925060208a0199505060018101905061211f565b50829750879550505050505092915050565b600061217583836120f4565b905092915050565b6000602082019050919050565b600061219582611ef1565b61219f8185611efc565b9350836020820285016121b185611f0d565b8060005b858110156121ed57848403895281516121ce8582612169565b94506121d98361217d565b925060208a019950506001810190506121b5565b50829750879550505050505092915050565b600060408201905081810360008301526122198185611e93565b9050818103602083015261222d818461218a565b90509392505050565b61223f81612050565b811461224a57600080fd5b50565b60008135905061225c81612236565b92915050565b60006020828403121561227857612277611dc6565b5b60006122868482850161224d565b91505092915050565b61229881611dd0565b82525050565b60006020820190506122b3600083018461228f565b92915050565b600080fd5b600080fd5b7f4e487b7100000000000000000000000000000000000000000000000000000000600052604160045260246000fd5b6122fb82611f8f565b810181811067ffffffffffffffff8211171561231a576123196122c3565b5b80604052505050565b600061232d611dbc565b905061233982826122f2565b919050565b600067ffffffffffffffff821115612359576123586122c3565b5b61236282611f8f565b9050602081019050919050565b82818337600083830152505050565b600061239161238c8461233e565b612323565b9050828152602081018484840111156123ad576123ac6122be565b5b6123b884828561236f565b509392505050565b600082601f8301126123d5576123d46122b9565b5b81356123e584826020860161237e565b91505092915050565b600080600080600060a0868803121561240a57612409611dc6565b5b600061241888828901611df1565b955050602061242988828901611df1565b945050604086013567ffffffffffffffff81111561244a57612449611dcb565b5b612456888289016123c0565b935050606086013567ffffffffffffffff81111561247757612476611dcb565b5b612483888289016123c0565b925050608086013567ffffffffffffffff8111156124a4576124a3611dcb565b5b6124b0888289016123c0565b9150509295509295909350565b600073ffffffffffffffffffffffffffffffffffffffff82169050919050565b60006124e8826124bd565b9050919050565b6124f8816124dd565b82525050565b600082825260208201905092915050565b600061251a82611f49565b61252481856124fe565b9350612534818560208601611f65565b61253d81611f8f565b840191505092915050565b6125518161202f565b82525050565b600082825260208201905092915050565b600061257382611f1d565b61257d8185612557565b93508360208202850161258f85611f39565b8060005b858110156125cb57848403895281516125ac85826120d3565b94506125b7836120e7565b925060208a01995050600181019050612593565b50829750879550505050505092915050565b6000610100820190506125f3600083018b61228f565b612600602083018a6124ef565b61260d604083018961228f565b818103606083015261261f818861250f565b905061262e6080830187612548565b81810360a0830152612640818661250f565b905081810360c0830152612654818561250f565b905081810360e08301526126688184612568565b90509998505050505050505050565b6000819050919050565b600061269c612697612692846124bd565b612677565b6124bd565b9050919050565b60006126ae82612681565b9050919050565b60006126c0826126a3565b9050919050565b6126d0816126b5565b82525050565b60006020820190506126eb60008301846126c7565b92915050565b6126fa816124dd565b811461270557600080fd5b50565b600081359050612717816126f1565b92915050565b60006020828403121561273357612732611dc6565b5b600061274184828501612708565b91505092915050565b6000806040838503121561276157612760611dc6565b5b600061276f85828601611df1565b92505060206127808582860161224d565b9150509250929050565b61279381612050565b82525050565b600060808201905081810360008301526127b3818761250f565b905081810360208301526127c7818661250f565b90506127d66040830185612548565b6127e3606083018461278a565b95945050505050565b600060e082019050612801600083018a61228f565b61280e60208301896124ef565b61281b604083018861228f565b818103606083015261282d818761250f565b905061283c6080830186612548565b81810360a083015261284e818561250f565b905081810360c0830152612862818461250f565b905098975050505050505050565b60008115159050919050565b61288581612870565b811461289057600080fd5b50565b6000813590506128a28161287c565b92915050565b600080600080608085870312156128c2576128c1611dc6565b5b60006128d087828801611df1565b94505060206128e187828801612893565b935050604085013567ffffffffffffffff81111561290257612901611dcb565b5b61290e878288016123c0565b925050606085013567ffffffffffffffff81111561292f5761292e611dcb565b5b61293b878288016123c0565b91505092959194509250565b7f4e487b7100000000000000000000000000000000000000000000000000000000600052603260045260246000fd5b7f4e487b7100000000000000000000000000000000000000000000000000000000600052601160045260246000fd5b60006129b082612050565b91507fffffffffffffffffffffffffffffffffffffffffffffffffffffffffffffffff82036129e2576129e1612976565b5b600182019050919050565b7f4e487b7100000000000000000000000000000000000000000000000000000000600052602260045260246000fd5b60006002820490506001821680612a3457607f821691505b602082108103612a4757612a466129ed565b5b50919050565b7f436865636b696e67205573657220526f6c650000000000000000000000000000600082015250565b6000612a836012836124fe565b9150612a8e82612a4d565b602082019050919050565b6000819050919050565b60008160001b9050919050565b6000612acb612ac6612ac184612a99565b612aa3565b611dd0565b9050919050565b612adb81612ab0565b82525050565b60006080820190508181036000830152612afa81612a76565b9050612b0960208301866124ef565b612b166040830185612ad2565b612b236060830184612ad2565b949350505050565b6000602082019050612b4060008301846124ef565b92915050565b60058110612b5357600080fd5b50565b600081519050612b6581612b46565b92915050565b600060208284031215612b8157612b80611dc6565b5b6000612b8f84828501612b56565b91505092915050565b7f4163636573732064656e6965643a204f6e6c79206661726d65727320616c6c6f60008201527f7765640000000000000000000000000000000000000000000000000000000000602082015250565b6000612bf46023836124fe565b9150612bff82612b98565b604082019050919050565b60006020820190508181036000830152612c2381612be7565b9050919050565b7f4372656174696e67204d696c6b2054616e6b0000000000000000000000000000600082015250565b6000612c606012836124fe565b9150612c6b82612c2a565b602082019050919050565b60006080820190508181036000830152612c8f81612c53565b9050612c9e60208301866124ef565b612cab604083018561228f565b612cb8606083018461228f565b949350505050565b7f4572726f723a2054616e6b20494420616c726561647920657869737473000000600082015250565b6000612cf6601d836124fe565b9150612d0182612cc0565b602082019050919050565b60006020820190508181036000830152612d2581612ce9565b9050919050565b60008190508160005260206000209050919050565b60006020601f8301049050919050565b600082821b905092915050565b600060088302612d8e7fffffffffffffffffffffffffffffffffffffffffffffffffffffffffffffffff82612d51565b612d988683612d51565b95508019841693508086168417925050509392505050565b6000612dcb612dc6612dc184612050565b612677565b612050565b9050919050565b6000819050919050565b612de583612db0565b612df9612df182612dd2565b848454612d5e565b825550505050565b600090565b612e0e612e01565b612e19818484612ddc565b505050565b5b81811015612e3d57612e32600082612e06565b600181019050612e1f565b5050565b601f821115612e8257612e5381612d2c565b612e5c84612d41565b81016020851015612e6b578190505b612e7f612e7785612d41565b830182612e1e565b50505b505050565b600082821c905092915050565b6000612ea560001984600802612e87565b1980831691505092915050565b6000612ebe8383612e94565b9150826002028217905092915050565b612ed782611f49565b67ffffffffffffffff811115612ef057612eef6122c3565b5b612efa8254612a1c565b612f05828285612e41565b600060209050601f831160018114612f385760008415612f26578287015190505b612f308582612eb2565b865550612f98565b601f198416612f4686612d2c565b60005b82811015612f6e57848901518255600182019150602085019450602081019050612f49565b86831015612f8b5784890151612f87601f891682612e94565b8355505b6001600288020188555050505b505050505050565b60006040820190508181036000830152612fba818561250f565b90508181036020830152612fce818461250f565b90509392505050565b7f4572726f723a2054616e6b20494420646f6573206e6f74206578697374000000600082015250565b600061300d601d836124fe565b915061301882612fd7565b602082019050919050565b6000602082019050818103600083015261303c81613000565b9050919050565b7f4163636573732064656e6965643a204f6e6c7920666163746f7269657320616c60008201527f6c6f776564000000000000000000000000000000000000000000000000000000602082015250565b600061309f6025836124fe565b91506130aa82613043565b604082019050919050565b600060208201905081810360008301526130ce81613092565b9050919050565b7f4572726f723a204d696c6b20616c726561647920766572696669656400000000600082015250565b600061310b601c836124fe565b9150613116826130d5565b602082019050919050565b6000602082019050818103600083015261313a816130fe565b9050919050565b600060a082019050818103600083015261315b818861250f565b9050818103602083015261316f818761250f565b90508181036040830152613183818661250f565b90508181036060830152613197818561250f565b90506131a66080830184612548565b9695505050505050565b60006040820190506131c56000830185612548565b81810360208301526131d7818461250f565b9050939250505056fea264697066735822122094229ce2839c817e5e7196e51f8f5faf2dc6d380e6bebc6aae5a48da543a1c9464736f6c63430008130033",
  "immutableReferences": {},
  "source": "// SPDX-License-Identifier: MIT\npragma solidity ^0.8.19;\n\nimport \"./UserRegistry.sol\";\n\ncontract RawMilk {\n    enum MilkStatus { Pending, Approved, Rejected }\n\n    struct MilkTank {\n        bytes32 tankId;\n        address farmer;\n        bytes32 factoryId; //  bytes32  FactoryID  String\n        string personInCharge; // \n        MilkStatus status;\n        string qualityReportCID;\n        string qrCodeCID;\n    }\n\n    struct MilkHistory {\n        string personInCharge; // \n        string qualityReportCID;\n        MilkStatus status;\n        uint256 timestamp; // \n    }\n\n    UserRegistry public userRegistry;\n    mapping(bytes32 => MilkTank) public milkTanks;\n    mapping(bytes32 => MilkHistory[]) public milkHistory; // \n    bytes32[] public tankIds;\n\n    // Event \n    event MilkTankCreated(\n        bytes32 indexed tankId,\n        address indexed farmer,\n        bytes32 indexed factoryId,\n        string personInCharge,\n        string qualityReportCID\n    );\n\n    // Event \n    event MilkTankUpdated(bytes32 indexed tankId);\n\n    // Event \n    event MilkQualityUpdated(\n        bytes32 indexed tankId,\n        string oldQualityReportCID,\n        string newQualityReportCID,\n        string oldPersonInCharge,\n        string newPersonInCharge,\n        MilkStatus status\n    );\n\n    // Event \n    event MilkQualityVerified(\n        bytes32 indexed tankId,\n        MilkStatus status,\n        string qualityReportCID\n    );\n\n    event DebugLog(string message, address sender, bytes32 tankId, bytes32 factoryId);\n\n    modifier onlyFarmer() {\n        emit DebugLog(\"Checking User Role\", msg.sender, 0x0, 0x0);\n        require(userRegistry.getUserRole(msg.sender) == UserRegistry.UserRole.Farmer, \"Access denied: Only farmers allowed\");\n        _;\n    }\n\n    modifier onlyFactory() {\n        require(userRegistry.getUserRole(msg.sender) == UserRegistry.UserRole.Factory, \"Access denied: Only factories allowed\");\n        _;\n    }\n\n    constructor(address _userRegistry) {\n        userRegistry = UserRegistry(_userRegistry);\n    }\n\n    // \n    function createMilkTank(\n        bytes32 _tankId,\n        bytes32 _factoryId,\n        string memory _personInCharge,\n        string memory _qualityReportCID,\n        string memory _qrCodeCID\n    ) public onlyFarmer {\n        emit DebugLog(\"Creating Milk Tank\", msg.sender, _tankId, _factoryId);\n\n        require(milkTanks[_tankId].farmer == address(0), \"Error: Tank ID already exists\");\n\n        milkTanks[_tankId] = MilkTank({\n            tankId: _tankId,\n            farmer: msg.sender,\n            factoryId: _factoryId,\n            personInCharge: _personInCharge,\n            status: MilkStatus.Pending,\n            qualityReportCID: _qualityReportCID,\n            qrCodeCID: _qrCodeCID\n        });\n\n        tankIds.push(_tankId);\n\n        // \n        milkHistory[_tankId].push(MilkHistory({\n            personInCharge: _personInCharge,\n            qualityReportCID: _qualityReportCID,\n            status: MilkStatus.Pending, //  Pending\n            timestamp: block.timestamp\n        }));\n\n        // Emit Event \n        emit MilkTankCreated(_tankId, msg.sender, _factoryId, _personInCharge, _qualityReportCID);\n    }\n\n    // \n    function verifyMilkQuality(\n        bytes32 _tankId, \n        bool _approved, \n        string memory _qualityReportCID,\n        string memory _personInCharge\n    ) public onlyFactory {\n        require(milkTanks[_tankId].farmer != address(0), \"Error: Tank ID does not exist\");\n        require(milkTanks[_tankId].status == MilkStatus.Pending, \"Error: Milk already verified\");\n\n        // \n        string memory oldPersonInCharge = milkTanks[_tankId].personInCharge;\n        string memory oldQualityReportCID = milkTanks[_tankId].qualityReportCID;\n\n        // \n        milkTanks[_tankId].status = _approved ? MilkStatus.Approved : MilkStatus.Rejected;\n        milkTanks[_tankId].qualityReportCID = _qualityReportCID;\n        milkTanks[_tankId].personInCharge = _personInCharge;\n\n        // \n        milkHistory[_tankId].push(MilkHistory({\n            personInCharge: _personInCharge,\n            qualityReportCID: _qualityReportCID,\n            status: milkTanks[_tankId].status,\n            timestamp: block.timestamp\n        }));\n\n        // Emit Event \n        emit MilkQualityUpdated(\n            _tankId, \n            oldQualityReportCID, \n            _qualityReportCID, \n            oldPersonInCharge, \n            _personInCharge, \n            milkTanks[_tankId].status\n        );\n\n        // Emit Event \n        emit MilkQualityVerified(_tankId, milkTanks[_tankId].status, _qualityReportCID);\n    }\n\n    function getMilkTank(bytes32 _tankId) public view returns (\n    bytes32,\n    address,\n    bytes32,\n    string memory,\n    MilkStatus,\n    string memory,\n    string memory,\n    MilkHistory[] memory\n) {\n    MilkTank memory tank = milkTanks[_tankId];\n    require(tank.farmer != address(0), \"Error: Tank ID does not exist\");\n\n    //  MilkHistory[] \n    MilkHistory[] memory history = milkHistory[_tankId];\n\n    // \n    return (\n        tank.tankId,\n        tank.farmer,\n        tank.factoryId,\n        tank.personInCharge,\n        tank.status,\n        tank.qualityReportCID,\n        tank.qrCodeCID,\n        history\n    );\n}\n\n\n    // \n    function getMilkTanksByFarmer(address _farmer) public view returns (bytes32[] memory, MilkHistory[][] memory) {\n        uint count = 0;\n        for (uint i = 0; i < tankIds.length; i++) {\n            if (milkTanks[tankIds[i]].farmer == _farmer) {\n                count++;\n            }\n        }\n\n        bytes32[] memory farmerTanks = new bytes32[](count);\n        MilkHistory[][] memory histories = new MilkHistory[][](count);\n        uint index = 0;\n        for (uint i = 0; i < tankIds.length; i++) {\n            if (milkTanks[tankIds[i]].farmer == _farmer) {\n                farmerTanks[index] = tankIds[i];\n                histories[index] = milkHistory[tankIds[i]]; // \n                index++;\n            }\n        }\n        return (farmerTanks, histories);\n    }\n\n    // \n    function getMilkTanksByFactory(bytes32 _factoryId) public view returns (bytes32[] memory, MilkHistory[][] memory) {\n        uint count = 0;\n        for (uint i = 0; i < tankIds.length; i++) {\n            if (milkTanks[tankIds[i]].factoryId == _factoryId) {\n                count++;\n            }\n        }\n\n        bytes32[] memory factoryTanks = new bytes32[](count);\n        MilkHistory[][] memory histories = new MilkHistory[][](count);\n        uint index = 0;\n        for (uint i = 0; i < tankIds.length; i++) {\n            if (milkTanks[tankIds[i]].factoryId == _factoryId) {\n                factoryTanks[index] = tankIds[i];\n                histories[index] = milkHistory[tankIds[i]]; // \n                index++;\n            }\n        }\n        return (factoryTanks, histories);\n    }\n}\n",
  "sourcePath": "/home/kmitl-ivo/Documents/Back/Backend/solidity/contracts/RawMilk.sol",
  "compiler": {
    "name": "solc",
    "version": "0.8.19+commit.7dd6d404.Emscripten.clang"
  },
  "schemaVersion": "3.4.16",
  "updatedAt": "2025-03-07T12:05:46.769Z",
  "networkType": "ethereum",
  "devdoc": {
    "kind": "dev",
    "methods": {},
    "version": 1
  },
  "userdoc": {
    "kind": "user",
    "methods": {},
    "version": 1
  }
}