{
  "contractName": "RawMilk",
  "abi": [
    {
      "inputs": [
        {
          "internalType": "address",
          "name": "_userRegistry",
          "type": "address"
        }
      ],
      "stateMutability": "nonpayable",
      "type": "constructor"
    },
    {
      "anonymous": false,
      "inputs": [
        {
          "indexed": true,
          "internalType": "bytes32",
          "name": "tankId",
          "type": "bytes32"
        },
        {
          "indexed": false,
          "internalType": "enum RawMilk.MilkStatus",
          "name": "status",
          "type": "uint8"
        },
        {
          "indexed": false,
          "internalType": "string",
          "name": "qualityReportCID",
          "type": "string"
        }
      ],
      "name": "MilkQualityVerified",
      "type": "event"
    },
    {
      "anonymous": false,
      "inputs": [
        {
          "indexed": true,
          "internalType": "bytes32",
          "name": "tankId",
          "type": "bytes32"
        },
        {
          "indexed": true,
          "internalType": "address",
          "name": "farmer",
          "type": "address"
        }
      ],
      "name": "MilkTankCreated",
      "type": "event"
    },
    {
      "anonymous": false,
      "inputs": [
        {
          "indexed": true,
          "internalType": "bytes32",
          "name": "tankId",
          "type": "bytes32"
        }
      ],
      "name": "MilkTankUpdated",
      "type": "event"
    },
    {
      "inputs": [
        {
          "internalType": "bytes32",
          "name": "",
          "type": "bytes32"
        }
      ],
      "name": "milkTanks",
      "outputs": [
        {
          "internalType": "bytes32",
          "name": "tankId",
          "type": "bytes32"
        },
        {
          "internalType": "address",
          "name": "farmer",
          "type": "address"
        },
        {
          "internalType": "string",
          "name": "personInCharge",
          "type": "string"
        },
        {
          "internalType": "enum RawMilk.MilkStatus",
          "name": "status",
          "type": "uint8"
        },
        {
          "internalType": "string",
          "name": "qualityReportCID",
          "type": "string"
        },
        {
          "internalType": "string",
          "name": "qrCodeCID",
          "type": "string"
        }
      ],
      "stateMutability": "view",
      "type": "function",
      "constant": true
    },
    {
      "inputs": [
        {
          "internalType": "uint256",
          "name": "",
          "type": "uint256"
        }
      ],
      "name": "tankIds",
      "outputs": [
        {
          "internalType": "bytes32",
          "name": "",
          "type": "bytes32"
        }
      ],
      "stateMutability": "view",
      "type": "function",
      "constant": true
    },
    {
      "inputs": [],
      "name": "userRegistry",
      "outputs": [
        {
          "internalType": "contract UserRegistry",
          "name": "",
          "type": "address"
        }
      ],
      "stateMutability": "view",
      "type": "function",
      "constant": true
    },
    {
      "inputs": [
        {
          "internalType": "uint256",
          "name": "_quantity",
          "type": "uint256"
        },
        {
          "internalType": "uint256",
          "name": "_temperature",
          "type": "uint256"
        },
        {
          "internalType": "uint256",
          "name": "_pH",
          "type": "uint256"
        },
        {
          "internalType": "uint256",
          "name": "_fat",
          "type": "uint256"
        },
        {
          "internalType": "uint256",
          "name": "_protein",
          "type": "uint256"
        },
        {
          "internalType": "bool",
          "name": "_bacteria",
          "type": "bool"
        },
        {
          "internalType": "bool",
          "name": "_contaminants",
          "type": "bool"
        }
      ],
      "name": "validateMilkData",
      "outputs": [
        {
          "internalType": "bool",
          "name": "valid",
          "type": "bool"
        },
        {
          "internalType": "string",
          "name": "message",
          "type": "string"
        }
      ],
      "stateMutability": "pure",
      "type": "function",
      "constant": true
    },
    {
      "inputs": [
        {
          "internalType": "bytes32",
          "name": "_tankId",
          "type": "bytes32"
        },
        {
          "internalType": "string",
          "name": "_personInCharge",
          "type": "string"
        },
        {
          "internalType": "string",
          "name": "_qrCodeCID",
          "type": "string"
        }
      ],
      "name": "createMilkTank",
      "outputs": [],
      "stateMutability": "nonpayable",
      "type": "function"
    },
    {
      "inputs": [
        {
          "internalType": "bytes32",
          "name": "_tankId",
          "type": "bytes32"
        },
        {
          "internalType": "string",
          "name": "_qrCodeCID",
          "type": "string"
        }
      ],
      "name": "updateMilkTank",
      "outputs": [],
      "stateMutability": "nonpayable",
      "type": "function"
    },
    {
      "inputs": [
        {
          "internalType": "bytes32",
          "name": "_tankId",
          "type": "bytes32"
        },
        {
          "internalType": "bool",
          "name": "_approved",
          "type": "bool"
        },
        {
          "internalType": "string",
          "name": "_qualityReportCID",
          "type": "string"
        }
      ],
      "name": "verifyMilkQuality",
      "outputs": [],
      "stateMutability": "nonpayable",
      "type": "function"
    },
    {
      "inputs": [
        {
          "internalType": "bytes32",
          "name": "_tankId",
          "type": "bytes32"
        }
      ],
      "name": "getMilkTank",
      "outputs": [
        {
          "internalType": "bytes32",
          "name": "",
          "type": "bytes32"
        },
        {
          "internalType": "address",
          "name": "",
          "type": "address"
        },
        {
          "internalType": "string",
          "name": "",
          "type": "string"
        },
        {
          "internalType": "enum RawMilk.MilkStatus",
          "name": "",
          "type": "uint8"
        },
        {
          "internalType": "string",
          "name": "",
          "type": "string"
        },
        {
          "internalType": "string",
          "name": "",
          "type": "string"
        }
      ],
      "stateMutability": "view",
      "type": "function",
      "constant": true
    },
    {
      "inputs": [],
      "name": "getAllMilkTanks",
      "outputs": [
        {
          "internalType": "bytes32[]",
          "name": "",
          "type": "bytes32[]"
        }
      ],
      "stateMutability": "view",
      "type": "function",
      "constant": true
    },
    {
      "inputs": [
        {
          "internalType": "address",
          "name": "_farmer",
          "type": "address"
        }
      ],
      "name": "getMilkTanksByFarmer",
      "outputs": [
        {
          "internalType": "bytes32[]",
          "name": "",
          "type": "bytes32[]"
        }
      ],
      "stateMutability": "view",
      "type": "function",
      "constant": true
    }
  ],
  "bytecode": "0x60806040523480156200001157600080fd5b50604051620025bb380380620025bb8339818101604052810190620000379190620000e8565b806000806101000a81548173ffffffffffffffffffffffffffffffffffffffff021916908373ffffffffffffffffffffffffffffffffffffffff160217905550506200011a565b600080fd5b600073ffffffffffffffffffffffffffffffffffffffff82169050919050565b6000620000b08262000083565b9050919050565b620000c281620000a3565b8114620000ce57600080fd5b50565b600081519050620000e281620000b7565b92915050565b6000602082840312156200010157620001006200007e565b5b60006200011184828501620000d1565b91505092915050565b612491806200012a6000396000f3fe608060405234801561001057600080fd5b506004361061009e5760003560e01c8063916b477511610066578063916b477514610187578063a34a7fb9146101a3578063ae2cc61e146101d8578063eec34719146101f6578063ef5d4f37146102125761009e565b8063356f30c6146100a35780634b89e5f6146100d45780635a03541f146101045780635c7460d61461013957806370d61bba14610157575b600080fd5b6100bd60048036038101906100b89190611490565b61022e565b6040516100cb9291906115d1565b60405180910390f35b6100ee60048036038101906100e99190611601565b610362565b6040516100fb9190611647565b60405180910390f35b61011e6004803603810190610119919061168e565b610386565b60405161013096959493929190611773565b60405180910390f35b6101416106aa565b60405161014e9190611848565b60405180910390f35b610171600480360381019061016c919061188f565b6106ce565b60405161017e919061197a565b60405180910390f35b6101a1600480360381019061019c9190611ad1565b6108dc565b005b6101bd60048036038101906101b8919061168e565b610c31565b6040516101cf96959493929190611773565b60405180910390f35b6101e0610e32565b6040516101ed919061197a565b60405180910390f35b610210600480360381019061020b9190611b5c565b610e8a565b005b61022c60048036038101906102279190611bcb565b61118b565b005b6000606060c8881080610242575061025888115b1561026b5760006040518060600160405280602e815260200161242e602e913991509150610356565b61028a87108061027c57506102a887115b156102a55760006040518060600160405280602381526020016123a56023913991509150610356565b61012c8610806102b6575061019086115b156102df5760006040518060600160405280603181526020016123c86031913991509150610356565b61012c8510806102f0575061015e85115b156103195760006040518060600160405280603581526020016123f96035913991509150610356565b60016040518060400160405280601781526020017f56616c696461746564207375636365737366756c6c792e000000000000000000815250915091505b97509795505050505050565b6002818154811061037257600080fd5b906000526020600020016000915090505481565b600080606060006060806000600160008981526020019081526020016000206040518060c0016040529081600082015481526020016001820160009054906101000a900473ffffffffffffffffffffffffffffffffffffffff1673ffffffffffffffffffffffffffffffffffffffff1673ffffffffffffffffffffffffffffffffffffffff16815260200160028201805461042090611c56565b80601f016020809104026020016040519081016040528092919081815260200182805461044c90611c56565b80156104995780601f1061046e57610100808354040283529160200191610499565b820191906000526020600020905b81548152906001019060200180831161047c57829003601f168201915b505050505081526020016003820160009054906101000a900460ff1660028111156104c7576104c66116fc565b5b60028111156104d9576104d86116fc565b5b81526020016004820180546104ed90611c56565b80601f016020809104026020016040519081016040528092919081815260200182805461051990611c56565b80156105665780601f1061053b57610100808354040283529160200191610566565b820191906000526020600020905b81548152906001019060200180831161054957829003601f168201915b5050505050815260200160058201805461057f90611c56565b80601f01602080910402602001604051908101604052809291908181526020018280546105ab90611c56565b80156105f85780601f106105cd576101008083540402835291602001916105f8565b820191906000526020600020905b8154815290600101906020018083116105db57829003601f168201915b5050505050815250509050600073ffffffffffffffffffffffffffffffffffffffff16816020015173ffffffffffffffffffffffffffffffffffffffff1603610676576040517f08c379a000000000000000000000000000000000000000000000000000000000815260040161066d90611cd3565b60405180910390fd5b806000015181602001518260400151836060015184608001518560a001519650965096509650965096505091939550919395565b60008054906101000a900473ffffffffffffffffffffffffffffffffffffffff1681565b60606000805b60028054905081101561078a578373ffffffffffffffffffffffffffffffffffffffff1660016000600284815481106107105761070f611cf3565b5b9060005260206000200154815260200190815260200160002060010160009054906101000a900473ffffffffffffffffffffffffffffffffffffffff1673ffffffffffffffffffffffffffffffffffffffff160361077757818061077390611d51565b9250505b808061078290611d51565b9150506106d4565b5060008167ffffffffffffffff8111156107a7576107a66119a6565b5b6040519080825280602002602001820160405280156107d55781602001602082028036833780820191505090505b5090506000805b6002805490508110156108d0578573ffffffffffffffffffffffffffffffffffffffff16600160006002848154811061081857610817611cf3565b5b9060005260206000200154815260200190815260200160002060010160009054906101000a900473ffffffffffffffffffffffffffffffffffffffff1673ffffffffffffffffffffffffffffffffffffffff16036108bd576002818154811061088457610883611cf3565b5b90600052602060002001548383815181106108a2576108a1611cf3565b5b60200260200101818152505081806108b990611d51565b9250505b80806108c890611d51565b9150506107dc565b50819350505050919050565b600160048111156108f0576108ef6116fc565b5b60008054906101000a900473ffffffffffffffffffffffffffffffffffffffff1673ffffffffffffffffffffffffffffffffffffffff166327820851336040518263ffffffff1660e01b81526004016109499190611d99565b602060405180830381865afa158015610966573d6000803e3d6000fd5b505050506040513d601f19601f8201168201806040525081019061098a9190611dd9565b600481111561099c5761099b6116fc565b5b146109dc576040517f08c379a00000000000000000000000000000000000000000000000000000000081526004016109d390611e78565b60405180910390fd5b600073ffffffffffffffffffffffffffffffffffffffff166001600085815260200190815260200160002060010160009054906101000a900473ffffffffffffffffffffffffffffffffffffffff1673ffffffffffffffffffffffffffffffffffffffff1614610a81576040517f08c379a0000000000000000000000000000000000000000000000000000000008152600401610a7890611ee4565b60405180910390fd5b6040518060c001604052808481526020013373ffffffffffffffffffffffffffffffffffffffff16815260200183815260200160006002811115610ac857610ac76116fc565b5b815260200160405180602001604052806000815250815260200182815250600160008581526020019081526020016000206000820151816000015560208201518160010160006101000a81548173ffffffffffffffffffffffffffffffffffffffff021916908373ffffffffffffffffffffffffffffffffffffffff1602179055506040820151816002019081610b5f91906120a6565b5060608201518160030160006101000a81548160ff02191690836002811115610b8b57610b8a6116fc565b5b02179055506080820151816004019081610ba591906120a6565b5060a0820151816005019081610bbb91906120a6565b5090505060028390806001815401808255809150506001900390600052602060002001600090919091909150553373ffffffffffffffffffffffffffffffffffffffff16837f37b0128d4b624d18911b44dd0342b16405d37240c96673cf8d9b578307c4559960405160405180910390a3505050565b60016020528060005260406000206000915090508060000154908060010160009054906101000a900473ffffffffffffffffffffffffffffffffffffffff1690806002018054610c8090611c56565b80601f0160208091040260200160405190810160405280929190818152602001828054610cac90611c56565b8015610cf95780601f10610cce57610100808354040283529160200191610cf9565b820191906000526020600020905b815481529060010190602001808311610cdc57829003601f168201915b5050505050908060030160009054906101000a900460ff1690806004018054610d2190611c56565b80601f0160208091040260200160405190810160405280929190818152602001828054610d4d90611c56565b8015610d9a5780601f10610d6f57610100808354040283529160200191610d9a565b820191906000526020600020905b815481529060010190602001808311610d7d57829003601f168201915b505050505090806005018054610daf90611c56565b80601f0160208091040260200160405190810160405280929190818152602001828054610ddb90611c56565b8015610e285780601f10610dfd57610100808354040283529160200191610e28565b820191906000526020600020905b815481529060010190602001808311610e0b57829003601f168201915b5050505050905086565b60606002805480602002602001604051908101604052809291908181526020018280548015610e8057602002820191906000526020600020905b815481526020019060010190808311610e6c575b5050505050905090565b60026004811115610e9e57610e9d6116fc565b5b60008054906101000a900473ffffffffffffffffffffffffffffffffffffffff1673ffffffffffffffffffffffffffffffffffffffff166327820851336040518263ffffffff1660e01b8152600401610ef79190611d99565b602060405180830381865afa158015610f14573d6000803e3d6000fd5b505050506040513d601f19601f82011682018060405250810190610f389190611dd9565b6004811115610f4a57610f496116fc565b5b14610f8a576040517f08c379a0000000000000000000000000000000000000000000000000000000008152600401610f81906121ea565b60405180910390fd5b600073ffffffffffffffffffffffffffffffffffffffff166001600085815260200190815260200160002060010160009054906101000a900473ffffffffffffffffffffffffffffffffffffffff1673ffffffffffffffffffffffffffffffffffffffff160361102f576040517f08c379a000000000000000000000000000000000000000000000000000000000815260040161102690611cd3565b60405180910390fd5b60006002811115611043576110426116fc565b5b6001600085815260200190815260200160002060030160009054906101000a900460ff166002811115611079576110786116fc565b5b146110b9576040517f08c379a00000000000000000000000000000000000000000000000000000000081526004016110b090612256565b60405180910390fd5b816110c55760026110c8565b60015b6001600085815260200190815260200160002060030160006101000a81548160ff02191690836002811115611100576110ff6116fc565b5b02179055508060016000858152602001908152602001600020600401908161112891906120a6565b50827ff8e56d2671d841b96def7d6bcc2753dd3030266f946afb9fbe2849d106e3ade76001600086815260200190815260200160002060030160009054906101000a900460ff168360405161117e929190612276565b60405180910390a2505050565b6001600481111561119f5761119e6116fc565b5b60008054906101000a900473ffffffffffffffffffffffffffffffffffffffff1673ffffffffffffffffffffffffffffffffffffffff166327820851336040518263ffffffff1660e01b81526004016111f89190611d99565b602060405180830381865afa158015611215573d6000803e3d6000fd5b505050506040513d601f19601f820116820180604052508101906112399190611dd9565b600481111561124b5761124a6116fc565b5b1461128b576040517f08c379a000000000000000000000000000000000000000000000000000000000815260040161128290611e78565b60405180910390fd5b3373ffffffffffffffffffffffffffffffffffffffff166001600084815260200190815260200160002060010160009054906101000a900473ffffffffffffffffffffffffffffffffffffffff1673ffffffffffffffffffffffffffffffffffffffff161461132f576040517f08c379a0000000000000000000000000000000000000000000000000000000008152600401611326906122f2565b60405180910390fd5b60006002811115611343576113426116fc565b5b6001600084815260200190815260200160002060030160009054906101000a900460ff166002811115611379576113786116fc565b5b146113b9576040517f08c379a00000000000000000000000000000000000000000000000000000000081526004016113b090612384565b60405180910390fd5b806001600084815260200190815260200160002060050190816113dc91906120a6565b50817f8636dbfe7028ccd3c14e5c0a2144b02d540e202d580b12552583f35e25e94ce660405160405180910390a25050565b6000604051905090565b600080fd5b600080fd5b6000819050919050565b61143581611422565b811461144057600080fd5b50565b6000813590506114528161142c565b92915050565b60008115159050919050565b61146d81611458565b811461147857600080fd5b50565b60008135905061148a81611464565b92915050565b600080600080600080600060e0888a0312156114af576114ae611418565b5b60006114bd8a828b01611443565b97505060206114ce8a828b01611443565b96505060406114df8a828b01611443565b95505060606114f08a828b01611443565b94505060806115018a828b01611443565b93505060a06115128a828b0161147b565b92505060c06115238a828b0161147b565b91505092959891949750929550565b61153b81611458565b82525050565b600081519050919050565b600082825260208201905092915050565b60005b8381101561157b578082015181840152602081019050611560565b60008484015250505050565b6000601f19601f8301169050919050565b60006115a382611541565b6115ad818561154c565b93506115bd81856020860161155d565b6115c681611587565b840191505092915050565b60006040820190506115e66000830185611532565b81810360208301526115f88184611598565b90509392505050565b60006020828403121561161757611616611418565b5b600061162584828501611443565b91505092915050565b6000819050919050565b6116418161162e565b82525050565b600060208201905061165c6000830184611638565b92915050565b61166b8161162e565b811461167657600080fd5b50565b60008135905061168881611662565b92915050565b6000602082840312156116a4576116a3611418565b5b60006116b284828501611679565b91505092915050565b600073ffffffffffffffffffffffffffffffffffffffff82169050919050565b60006116e6826116bb565b9050919050565b6116f6816116db565b82525050565b7f4e487b7100000000000000000000000000000000000000000000000000000000600052602160045260246000fd5b6003811061173c5761173b6116fc565b5b50565b600081905061174d8261172b565b919050565b600061175d8261173f565b9050919050565b61176d81611752565b82525050565b600060c0820190506117886000830189611638565b61179560208301886116ed565b81810360408301526117a78187611598565b90506117b66060830186611764565b81810360808301526117c88185611598565b905081810360a08301526117dc8184611598565b9050979650505050505050565b6000819050919050565b600061180e611809611804846116bb565b6117e9565b6116bb565b9050919050565b6000611820826117f3565b9050919050565b600061183282611815565b9050919050565b61184281611827565b82525050565b600060208201905061185d6000830184611839565b92915050565b61186c816116db565b811461187757600080fd5b50565b60008135905061188981611863565b92915050565b6000602082840312156118a5576118a4611418565b5b60006118b38482850161187a565b91505092915050565b600081519050919050565b600082825260208201905092915050565b6000819050602082019050919050565b6118f18161162e565b82525050565b600061190383836118e8565b60208301905092915050565b6000602082019050919050565b6000611927826118bc565b61193181856118c7565b935061193c836118d8565b8060005b8381101561196d57815161195488826118f7565b975061195f8361190f565b925050600181019050611940565b5085935050505092915050565b60006020820190508181036000830152611994818461191c565b905092915050565b600080fd5b600080fd5b7f4e487b7100000000000000000000000000000000000000000000000000000000600052604160045260246000fd5b6119de82611587565b810181811067ffffffffffffffff821117156119fd576119fc6119a6565b5b80604052505050565b6000611a1061140e565b9050611a1c82826119d5565b919050565b600067ffffffffffffffff821115611a3c57611a3b6119a6565b5b611a4582611587565b9050602081019050919050565b82818337600083830152505050565b6000611a74611a6f84611a21565b611a06565b905082815260208101848484011115611a9057611a8f6119a1565b5b611a9b848285611a52565b509392505050565b600082601f830112611ab857611ab761199c565b5b8135611ac8848260208601611a61565b91505092915050565b600080600060608486031215611aea57611ae9611418565b5b6000611af886828701611679565b935050602084013567ffffffffffffffff811115611b1957611b1861141d565b5b611b2586828701611aa3565b925050604084013567ffffffffffffffff811115611b4657611b4561141d565b5b611b5286828701611aa3565b9150509250925092565b600080600060608486031215611b7557611b74611418565b5b6000611b8386828701611679565b9350506020611b948682870161147b565b925050604084013567ffffffffffffffff811115611bb557611bb461141d565b5b611bc186828701611aa3565b9150509250925092565b60008060408385031215611be257611be1611418565b5b6000611bf085828601611679565b925050602083013567ffffffffffffffff811115611c1157611c1061141d565b5b611c1d85828601611aa3565b9150509250929050565b7f4e487b7100000000000000000000000000000000000000000000000000000000600052602260045260246000fd5b60006002820490506001821680611c6e57607f821691505b602082108103611c8157611c80611c27565b5b50919050565b7f4572726f723a2054616e6b20494420646f6573206e6f74206578697374000000600082015250565b6000611cbd601d8361154c565b9150611cc882611c87565b602082019050919050565b60006020820190508181036000830152611cec81611cb0565b9050919050565b7f4e487b7100000000000000000000000000000000000000000000000000000000600052603260045260246000fd5b7f4e487b7100000000000000000000000000000000000000000000000000000000600052601160045260246000fd5b6000611d5c82611422565b91507fffffffffffffffffffffffffffffffffffffffffffffffffffffffffffffffff8203611d8e57611d8d611d22565b5b600182019050919050565b6000602082019050611dae60008301846116ed565b92915050565b60058110611dc157600080fd5b50565b600081519050611dd381611db4565b92915050565b600060208284031215611def57611dee611418565b5b6000611dfd84828501611dc4565b91505092915050565b7f4163636573732064656e6965643a204f6e6c79206661726d65727320616c6c6f60008201527f7765640000000000000000000000000000000000000000000000000000000000602082015250565b6000611e6260238361154c565b9150611e6d82611e06565b604082019050919050565b60006020820190508181036000830152611e9181611e55565b9050919050565b7f4572726f723a2054616e6b20494420616c726561647920657869737473000000600082015250565b6000611ece601d8361154c565b9150611ed982611e98565b602082019050919050565b60006020820190508181036000830152611efd81611ec1565b9050919050565b60008190508160005260206000209050919050565b60006020601f8301049050919050565b600082821b905092915050565b600060088302611f667fffffffffffffffffffffffffffffffffffffffffffffffffffffffffffffffff82611f29565b611f708683611f29565b95508019841693508086168417925050509392505050565b6000611fa3611f9e611f9984611422565b6117e9565b611422565b9050919050565b6000819050919050565b611fbd83611f88565b611fd1611fc982611faa565b848454611f36565b825550505050565b600090565b611fe6611fd9565b611ff1818484611fb4565b505050565b5b818110156120155761200a600082611fde565b600181019050611ff7565b5050565b601f82111561205a5761202b81611f04565b61203484611f19565b81016020851015612043578190505b61205761204f85611f19565b830182611ff6565b50505b505050565b600082821c905092915050565b600061207d6000198460080261205f565b1980831691505092915050565b6000612096838361206c565b9150826002028217905092915050565b6120af82611541565b67ffffffffffffffff8111156120c8576120c76119a6565b5b6120d28254611c56565b6120dd828285612019565b600060209050601f83116001811461211057600084156120fe578287015190505b612108858261208a565b865550612170565b601f19841661211e86611f04565b60005b8281101561214657848901518255600182019150602085019450602081019050612121565b86831015612163578489015161215f601f89168261206c565b8355505b6001600288020188555050505b505050505050565b7f4163636573732064656e6965643a204f6e6c7920666163746f7269657320616c60008201527f6c6f776564000000000000000000000000000000000000000000000000000000602082015250565b60006121d460258361154c565b91506121df82612178565b604082019050919050565b60006020820190508181036000830152612203816121c7565b9050919050565b7f4572726f723a204d696c6b20616c726561647920766572696669656400000000600082015250565b6000612240601c8361154c565b915061224b8261220a565b602082019050919050565b6000602082019050818103600083015261226f81612233565b9050919050565b600060408201905061228b6000830185611764565b818103602083015261229d8184611598565b90509392505050565b7f4572726f723a20556e617574686f72697a656400000000000000000000000000600082015250565b60006122dc60138361154c565b91506122e7826122a6565b602082019050919050565b6000602082019050818103600083015261230b816122cf565b9050919050565b7f4572726f723a2043616e6e6f742075706461746520617070726f7665642f726560008201527f6a6563746564206d696c6b000000000000000000000000000000000000000000602082015250565b600061236e602b8361154c565b915061237982612312565b604082019050919050565b6000602082019050818103600083015261239d81612361565b905091905056fe4572726f723a207048206f7574206f662072616e6765212028362e35202d20362e38294572726f723a204661742070657263656e74616765206f7574206f662072616e6765212028332e3025202d20342e3025294572726f723a2050726f7465696e2070657263656e74616765206f7574206f662072616e6765212028332e3025202d20332e3525294572726f723a2054656d7065726174757265206f7574206f662072616e6765212028322e3043202d20362e304329a2646970667358221220be3826cd640c8a6b9d9eb8cd0face40b8a2c95e87ec3bbe48f68f34ea4e0f09f64736f6c63430008130033",
  "immutableReferences": {},
  "source": "// SPDX-License-Identifier: MIT\npragma solidity ^0.8.19;\n\nimport \"./UserRegistry.sol\";  \n\ncontract RawMilk {\n    enum MilkStatus { Pending, Approved, Rejected }\n\n    struct MilkTank {\n        bytes32 tankId;\n        address farmer;\n        string personInCharge;\n        MilkStatus status;\n        string qualityReportCID; //   bacteriaInfo, contaminantInfo, abnormalType\n        string qrCodeCID;\n    }\n\n    UserRegistry public userRegistry;\n    mapping(bytes32 => MilkTank) public milkTanks; \n    bytes32[] public tankIds; \n\n    event MilkTankCreated(bytes32 indexed tankId, address indexed farmer);\n    event MilkTankUpdated(bytes32 indexed tankId);\n    event MilkQualityVerified(bytes32 indexed tankId, MilkStatus status, string qualityReportCID);\n\n    modifier onlyFarmer() {\n        require(userRegistry.getUserRole(msg.sender) == UserRegistry.UserRole.Farmer, \"Access denied: Only farmers allowed\");\n        _;\n    }\n\n    modifier onlyFactory() {\n        require(userRegistry.getUserRole(msg.sender) == UserRegistry.UserRole.Factory, \"Access denied: Only factories allowed\");\n        _;\n    }\n\n    constructor(address _userRegistry) {\n        userRegistry = UserRegistry(_userRegistry);\n    }\n\n    //   ()\n    function validateMilkData(\n        uint256 _quantity,\n        uint256 _temperature,\n        uint256 _pH,\n        uint256 _fat,\n        uint256 _protein,\n        bool _bacteria,\n        bool _contaminants\n    ) public pure returns (bool valid, string memory message) {\n        if (_temperature < 200 || _temperature > 600) return (false, \"Error: Temperature out of range! (2.0C - 6.0C)\");\n        if (_pH < 650 || _pH > 680) return (false, \"Error: pH out of range! (6.5 - 6.8)\");\n        if (_fat < 300 || _fat > 400) return (false, \"Error: Fat percentage out of range! (3.0% - 4.0%)\");\n        if (_protein < 300 || _protein > 350) return (false, \"Error: Protein percentage out of range! (3.0% - 3.5%)\");\n\n        return (true, \"Validated successfully.\");\n    }\n\n    //   ()\n    function createMilkTank(\n        bytes32 _tankId,\n        string memory _personInCharge,\n        string memory _qrCodeCID\n    ) public onlyFarmer {\n        require(milkTanks[_tankId].farmer == address(0), \"Error: Tank ID already exists\");\n\n        milkTanks[_tankId] = MilkTank({\n            tankId: _tankId,\n            farmer: msg.sender,\n            personInCharge: _personInCharge,\n            status: MilkStatus.Pending,\n            qualityReportCID: \"\",\n            qrCodeCID: _qrCodeCID\n        });\n\n        tankIds.push(_tankId);\n        emit MilkTankCreated(_tankId, msg.sender);\n    }\n\n    //   QR Code  Quality Report CID ()\n    function updateMilkTank(\n        bytes32 _tankId,\n        string memory _qrCodeCID\n    ) public onlyFarmer {\n        require(milkTanks[_tankId].farmer == msg.sender, \"Error: Unauthorized\");\n        require(milkTanks[_tankId].status == MilkStatus.Pending, \"Error: Cannot update approved/rejected milk\");\n\n        milkTanks[_tankId].qrCodeCID = _qrCodeCID;\n\n        emit MilkTankUpdated(_tankId);\n    }\n\n    //   ()\n    function verifyMilkQuality(bytes32 _tankId, bool _approved, string memory _qualityReportCID) public onlyFactory {\n        require(milkTanks[_tankId].farmer != address(0), \"Error: Tank ID does not exist\");\n        require(milkTanks[_tankId].status == MilkStatus.Pending, \"Error: Milk already verified\");\n\n        milkTanks[_tankId].status = _approved ? MilkStatus.Approved : MilkStatus.Rejected;\n        milkTanks[_tankId].qualityReportCID = _qualityReportCID;\n\n        emit MilkQualityVerified(_tankId, milkTanks[_tankId].status, _qualityReportCID);\n    }\n\n    //  \n    function getMilkTank(bytes32 _tankId) public view returns (\n        bytes32,\n        address,\n        string memory,\n        MilkStatus,\n        string memory,\n        string memory\n    ) {\n        MilkTank memory tank = milkTanks[_tankId];\n        require(tank.farmer != address(0), \"Error: Tank ID does not exist\");\n\n        return (\n            tank.tankId,\n            tank.farmer,\n            tank.personInCharge,\n            tank.status,\n            tank.qualityReportCID,\n            tank.qrCodeCID\n        );\n    }\n\n    //  \n    function getAllMilkTanks() public view returns (bytes32[] memory) {\n        return tankIds;\n    }\n\n    //  \n    function getMilkTanksByFarmer(address _farmer) public view returns (bytes32[] memory) {\n        uint count = 0;\n        for (uint i = 0; i < tankIds.length; i++) {\n            if (milkTanks[tankIds[i]].farmer == _farmer) {\n                count++;\n            }\n        }\n\n        bytes32[] memory farmerTanks = new bytes32[](count);\n        uint index = 0;\n        for (uint i = 0; i < tankIds.length; i++) {\n            if (milkTanks[tankIds[i]].farmer == _farmer) {\n                farmerTanks[index] = tankIds[i];\n                index++;\n            }\n        }\n        return farmerTanks;\n    }\n}\n",
  "sourcePath": "/home/kmitl-ivo/Documents/Back/Backend/solidity/contracts/RawMilk.sol",
  "compiler": {
    "name": "solc",
    "version": "0.8.19+commit.7dd6d404.Emscripten.clang"
  },
  "schemaVersion": "3.4.16",
  "updatedAt": "2025-03-05T08:49:55.220Z",
  "networkType": "ethereum",
  "devdoc": {
    "kind": "dev",
    "methods": {},
    "version": 1
  },
  "userdoc": {
    "kind": "user",
    "methods": {},
    "version": 1
  }
}