{
  "contractName": "RawMilk",
  "abi": [
    {
      "inputs": [
        {
          "internalType": "address",
          "name": "_userRegistry",
          "type": "address"
        }
      ],
      "stateMutability": "nonpayable",
      "type": "constructor"
    },
    {
      "anonymous": false,
      "inputs": [
        {
          "indexed": false,
          "internalType": "string",
          "name": "message",
          "type": "string"
        },
        {
          "indexed": false,
          "internalType": "address",
          "name": "sender",
          "type": "address"
        },
        {
          "indexed": false,
          "internalType": "bytes32",
          "name": "tankId",
          "type": "bytes32"
        },
        {
          "indexed": false,
          "internalType": "bytes32",
          "name": "factoryId",
          "type": "bytes32"
        }
      ],
      "name": "DebugLog",
      "type": "event"
    },
    {
      "anonymous": false,
      "inputs": [
        {
          "indexed": true,
          "internalType": "bytes32",
          "name": "tankId",
          "type": "bytes32"
        },
        {
          "indexed": false,
          "internalType": "string",
          "name": "oldQualityReportCID",
          "type": "string"
        },
        {
          "indexed": false,
          "internalType": "string",
          "name": "newQualityReportCID",
          "type": "string"
        },
        {
          "indexed": false,
          "internalType": "string",
          "name": "oldPersonInCharge",
          "type": "string"
        },
        {
          "indexed": false,
          "internalType": "string",
          "name": "newPersonInCharge",
          "type": "string"
        },
        {
          "indexed": false,
          "internalType": "enum RawMilk.MilkStatus",
          "name": "status",
          "type": "uint8"
        }
      ],
      "name": "MilkQualityUpdated",
      "type": "event"
    },
    {
      "anonymous": false,
      "inputs": [
        {
          "indexed": true,
          "internalType": "bytes32",
          "name": "tankId",
          "type": "bytes32"
        },
        {
          "indexed": false,
          "internalType": "enum RawMilk.MilkStatus",
          "name": "status",
          "type": "uint8"
        },
        {
          "indexed": false,
          "internalType": "string",
          "name": "qualityReportCID",
          "type": "string"
        }
      ],
      "name": "MilkQualityVerified",
      "type": "event"
    },
    {
      "anonymous": false,
      "inputs": [
        {
          "indexed": true,
          "internalType": "bytes32",
          "name": "milkTankId",
          "type": "bytes32"
        },
        {
          "indexed": false,
          "internalType": "enum RawMilk.MilkStatus",
          "name": "newStatus",
          "type": "uint8"
        }
      ],
      "name": "MilkStatusUpdated",
      "type": "event"
    },
    {
      "anonymous": false,
      "inputs": [
        {
          "indexed": true,
          "internalType": "bytes32",
          "name": "tankId",
          "type": "bytes32"
        },
        {
          "indexed": true,
          "internalType": "address",
          "name": "farmer",
          "type": "address"
        },
        {
          "indexed": true,
          "internalType": "bytes32",
          "name": "factoryId",
          "type": "bytes32"
        },
        {
          "indexed": false,
          "internalType": "string",
          "name": "personInCharge",
          "type": "string"
        },
        {
          "indexed": false,
          "internalType": "string",
          "name": "qualityReportCID",
          "type": "string"
        },
        {
          "indexed": false,
          "internalType": "enum RawMilk.MilkStatus",
          "name": "status",
          "type": "uint8"
        }
      ],
      "name": "MilkTankCreated",
      "type": "event"
    },
    {
      "anonymous": false,
      "inputs": [
        {
          "indexed": true,
          "internalType": "bytes32",
          "name": "tankId",
          "type": "bytes32"
        }
      ],
      "name": "MilkTankUpdated",
      "type": "event"
    },
    {
      "inputs": [
        {
          "internalType": "bytes32",
          "name": "",
          "type": "bytes32"
        },
        {
          "internalType": "uint256",
          "name": "",
          "type": "uint256"
        }
      ],
      "name": "milkHistory",
      "outputs": [
        {
          "internalType": "string",
          "name": "personInCharge",
          "type": "string"
        },
        {
          "internalType": "string",
          "name": "qualityReportCID",
          "type": "string"
        },
        {
          "internalType": "enum RawMilk.MilkStatus",
          "name": "status",
          "type": "uint8"
        },
        {
          "internalType": "uint256",
          "name": "timestamp",
          "type": "uint256"
        }
      ],
      "stateMutability": "view",
      "type": "function",
      "constant": true
    },
    {
      "inputs": [
        {
          "internalType": "bytes32",
          "name": "",
          "type": "bytes32"
        }
      ],
      "name": "milkTanks",
      "outputs": [
        {
          "internalType": "bytes32",
          "name": "tankId",
          "type": "bytes32"
        },
        {
          "internalType": "address",
          "name": "farmer",
          "type": "address"
        },
        {
          "internalType": "bytes32",
          "name": "factoryId",
          "type": "bytes32"
        },
        {
          "internalType": "string",
          "name": "personInCharge",
          "type": "string"
        },
        {
          "internalType": "enum RawMilk.MilkStatus",
          "name": "status",
          "type": "uint8"
        },
        {
          "internalType": "string",
          "name": "qualityReportCID",
          "type": "string"
        },
        {
          "internalType": "string",
          "name": "qrCodeCID",
          "type": "string"
        }
      ],
      "stateMutability": "view",
      "type": "function",
      "constant": true
    },
    {
      "inputs": [],
      "name": "productLotContract",
      "outputs": [
        {
          "internalType": "address",
          "name": "",
          "type": "address"
        }
      ],
      "stateMutability": "view",
      "type": "function",
      "constant": true
    },
    {
      "inputs": [
        {
          "internalType": "uint256",
          "name": "",
          "type": "uint256"
        }
      ],
      "name": "tankIds",
      "outputs": [
        {
          "internalType": "bytes32",
          "name": "",
          "type": "bytes32"
        }
      ],
      "stateMutability": "view",
      "type": "function",
      "constant": true
    },
    {
      "inputs": [],
      "name": "userRegistry",
      "outputs": [
        {
          "internalType": "contract UserRegistry",
          "name": "",
          "type": "address"
        }
      ],
      "stateMutability": "view",
      "type": "function",
      "constant": true
    },
    {
      "inputs": [
        {
          "internalType": "address",
          "name": "_productLotContract",
          "type": "address"
        }
      ],
      "name": "setProductLotContract",
      "outputs": [],
      "stateMutability": "nonpayable",
      "type": "function"
    },
    {
      "inputs": [
        {
          "internalType": "bytes32",
          "name": "_milkTankId",
          "type": "bytes32"
        }
      ],
      "name": "markMilkTankAsUsed",
      "outputs": [],
      "stateMutability": "nonpayable",
      "type": "function"
    },
    {
      "inputs": [
        {
          "internalType": "bytes32",
          "name": "_tankId",
          "type": "bytes32"
        },
        {
          "internalType": "bytes32",
          "name": "_factoryId",
          "type": "bytes32"
        },
        {
          "internalType": "string",
          "name": "_personInCharge",
          "type": "string"
        },
        {
          "internalType": "string",
          "name": "_qualityReportCID",
          "type": "string"
        },
        {
          "internalType": "string",
          "name": "_qrCodeCID",
          "type": "string"
        }
      ],
      "name": "createMilkTank",
      "outputs": [],
      "stateMutability": "nonpayable",
      "type": "function"
    },
    {
      "inputs": [
        {
          "internalType": "bytes32",
          "name": "_tankId",
          "type": "bytes32"
        },
        {
          "internalType": "bool",
          "name": "_approved",
          "type": "bool"
        },
        {
          "internalType": "string",
          "name": "_qualityReportCID",
          "type": "string"
        },
        {
          "internalType": "string",
          "name": "_personInCharge",
          "type": "string"
        }
      ],
      "name": "verifyMilkQuality",
      "outputs": [],
      "stateMutability": "nonpayable",
      "type": "function"
    },
    {
      "inputs": [
        {
          "internalType": "bytes32",
          "name": "_tankId",
          "type": "bytes32"
        }
      ],
      "name": "getMilkTank",
      "outputs": [
        {
          "components": [
            {
              "internalType": "bytes32",
              "name": "tankId",
              "type": "bytes32"
            },
            {
              "internalType": "address",
              "name": "farmer",
              "type": "address"
            },
            {
              "internalType": "bytes32",
              "name": "factoryId",
              "type": "bytes32"
            },
            {
              "internalType": "string",
              "name": "personInCharge",
              "type": "string"
            },
            {
              "internalType": "enum RawMilk.MilkStatus",
              "name": "status",
              "type": "uint8"
            },
            {
              "internalType": "string",
              "name": "qualityReportCID",
              "type": "string"
            },
            {
              "internalType": "string",
              "name": "qrCodeCID",
              "type": "string"
            },
            {
              "components": [
                {
                  "internalType": "string",
                  "name": "personInCharge",
                  "type": "string"
                },
                {
                  "internalType": "string",
                  "name": "qualityReportCID",
                  "type": "string"
                },
                {
                  "internalType": "enum RawMilk.MilkStatus",
                  "name": "status",
                  "type": "uint8"
                },
                {
                  "internalType": "uint256",
                  "name": "timestamp",
                  "type": "uint256"
                }
              ],
              "internalType": "struct RawMilk.MilkHistory[]",
              "name": "history",
              "type": "tuple[]"
            }
          ],
          "internalType": "struct RawMilk.MilkTankWithHistory",
          "name": "",
          "type": "tuple"
        }
      ],
      "stateMutability": "view",
      "type": "function",
      "constant": true
    },
    {
      "inputs": [
        {
          "internalType": "address",
          "name": "_farmer",
          "type": "address"
        }
      ],
      "name": "getMilkTanksByFarmer",
      "outputs": [
        {
          "internalType": "bytes32[]",
          "name": "",
          "type": "bytes32[]"
        },
        {
          "components": [
            {
              "internalType": "string",
              "name": "personInCharge",
              "type": "string"
            },
            {
              "internalType": "string",
              "name": "qualityReportCID",
              "type": "string"
            },
            {
              "internalType": "enum RawMilk.MilkStatus",
              "name": "status",
              "type": "uint8"
            },
            {
              "internalType": "uint256",
              "name": "timestamp",
              "type": "uint256"
            }
          ],
          "internalType": "struct RawMilk.MilkHistory[][]",
          "name": "",
          "type": "tuple[][]"
        }
      ],
      "stateMutability": "view",
      "type": "function",
      "constant": true
    },
    {
      "inputs": [
        {
          "internalType": "bytes32",
          "name": "_factoryId",
          "type": "bytes32"
        }
      ],
      "name": "getMilkTanksByFactory",
      "outputs": [
        {
          "internalType": "bytes32[]",
          "name": "",
          "type": "bytes32[]"
        },
        {
          "components": [
            {
              "internalType": "string",
              "name": "personInCharge",
              "type": "string"
            },
            {
              "internalType": "string",
              "name": "qualityReportCID",
              "type": "string"
            },
            {
              "internalType": "enum RawMilk.MilkStatus",
              "name": "status",
              "type": "uint8"
            },
            {
              "internalType": "uint256",
              "name": "timestamp",
              "type": "uint256"
            }
          ],
          "internalType": "struct RawMilk.MilkHistory[][]",
          "name": "",
          "type": "tuple[][]"
        }
      ],
      "stateMutability": "view",
      "type": "function",
      "constant": true
    }
  ],
  "bytecode": "0x60806040523480156200001157600080fd5b5060405162003b2a38038062003b2a8339818101604052810190620000379190620000e8565b806000806101000a81548173ffffffffffffffffffffffffffffffffffffffff021916908373ffffffffffffffffffffffffffffffffffffffff160217905550506200011a565b600080fd5b600073ffffffffffffffffffffffffffffffffffffffff82169050919050565b6000620000b08262000083565b9050919050565b620000c281620000a3565b8114620000ce57600080fd5b50565b600081519050620000e281620000b7565b92915050565b6000602082840312156200010157620001006200007e565b5b60006200011184828501620000d1565b91505092915050565b613a00806200012a6000396000f3fe608060405234801561001057600080fd5b50600436106100b45760003560e01c806370d61bba1161007157806370d61bba146101a0578063813946ea146101d1578063a34a7fb914610204578063cc1faf8e1461023a578063ef993abd14610258578063fca6bf5314610274576100b4565b806308f39da8146100b957806349b088ac146100d55780634b89e5f6146101065780635862213c146101365780635a03541f146101525780635c7460d614610182575b600080fd5b6100d360048036038101906100ce9190612443565b610290565b005b6100ef60048036038101906100ea91906124a6565b610365565b6040516100fd92919061289f565b60405180910390f35b610120600480360381019061011b9190612902565b610740565b60405161012d919061293e565b60405180910390f35b610150600480360381019061014b9190612a8e565b610764565b005b61016c600480360381019061016791906124a6565b610c1c565b6040516101799190612c31565b60405180910390f35b61018a611162565b6040516101979190612cb2565b60405180910390f35b6101ba60048036038101906101b59190612443565b611186565b6040516101c892919061289f565b60405180910390f35b6101eb60048036038101906101e69190612ccd565b6115f9565b6040516101fb9493929190612d75565b60405180910390f35b61021e600480360381019061021991906124a6565b611763565b6040516102319796959493929190612dd7565b60405180910390f35b61024261196a565b60405161024f9190612e5b565b60405180910390f35b610272600480360381019061026d9190612eae565b611990565b005b61028e600480360381019061028991906124a6565b611f5b565b005b600073ffffffffffffffffffffffffffffffffffffffff16600460009054906101000a900473ffffffffffffffffffffffffffffffffffffffff1673ffffffffffffffffffffffffffffffffffffffff1614610321576040517f08c379a000000000000000000000000000000000000000000000000000000000815260040161031890612f99565b60405180910390fd5b80600460006101000a81548173ffffffffffffffffffffffffffffffffffffffff021916908373ffffffffffffffffffffffffffffffffffffffff16021790555050565b6060806000805b6003805490508110156103d65784600160006003848154811061039257610391612fb9565b5b9060005260206000200154815260200190815260200160002060020154036103c35781806103bf90613017565b9250505b80806103ce90613017565b91505061036c565b5060008167ffffffffffffffff8111156103f3576103f2612963565b5b6040519080825280602002602001820160405280156104215781602001602082028036833780820191505090505b50905060008267ffffffffffffffff8111156104405761043f612963565b5b60405190808252806020026020018201604052801561047357816020015b606081526020019060019003908161045e5790505b5090506000805b600380549050811015610730578760016000600384815481106104a05761049f612fb9565b5b90600052602060002001548152602001908152602001600020600201540361071d57600381815481106104d6576104d5612fb9565b5b90600052602060002001548483815181106104f4576104f3612fb9565b5b602002602001018181525050600260006003838154811061051857610517612fb9565b5b90600052602060002001548152602001908152602001600020805480602002602001604051908101604052809291908181526020016000905b828210156106ec57838290600052602060002090600402016040518060800160405290816000820180546105849061308e565b80601f01602080910402602001604051908101604052809291908181526020018280546105b09061308e565b80156105fd5780601f106105d2576101008083540402835291602001916105fd565b820191906000526020600020905b8154815290600101906020018083116105e057829003601f168201915b505050505081526020016001820180546106169061308e565b80601f01602080910402602001604051908101604052809291908181526020018280546106429061308e565b801561068f5780601f106106645761010080835404028352916020019161068f565b820191906000526020600020905b81548152906001019060200180831161067257829003601f168201915b505050505081526020016002820160009054906101000a900460ff1660038111156106bd576106bc612679565b5b60038111156106cf576106ce612679565b5b815260200160038201548152505081526020019060010190610551565b5050505083838151811061070357610702612fb9565b5b6020026020010181905250818061071990613017565b9250505b808061072890613017565b91505061047a565b5082829550955050505050915091565b6003818154811061075057600080fd5b906000526020600020016000915090505481565b7f86f4cac90217ee94700ecefa745858b174e706d4f9d2d6243e768f2e9de8516c3360008060405161079893929190613153565b60405180910390a1600160048111156107b4576107b3612679565b5b60008054906101000a900473ffffffffffffffffffffffffffffffffffffffff1673ffffffffffffffffffffffffffffffffffffffff166327820851336040518263ffffffff1660e01b815260040161080d9190612e5b565b602060405180830381865afa15801561082a573d6000803e3d6000fd5b505050506040513d601f19601f8201168201806040525081019061084e91906131c2565b60048111156108605761085f612679565b5b146108a0576040517f08c379a000000000000000000000000000000000000000000000000000000000815260040161089790613261565b60405180910390fd5b7f86f4cac90217ee94700ecefa745858b174e706d4f9d2d6243e768f2e9de8516c3386866040516108d3939291906132cd565b60405180910390a1600073ffffffffffffffffffffffffffffffffffffffff166001600087815260200190815260200160002060010160009054906101000a900473ffffffffffffffffffffffffffffffffffffffff1673ffffffffffffffffffffffffffffffffffffffff1614610980576040517f08c379a000000000000000000000000000000000000000000000000000000000815260040161097790613363565b60405180910390fd5b6040518060e001604052808681526020013373ffffffffffffffffffffffffffffffffffffffff168152602001858152602001848152602001600060038111156109cd576109cc612679565b5b815260200183815260200182815250600160008781526020019081526020016000206000820151816000015560208201518160010160006101000a81548173ffffffffffffffffffffffffffffffffffffffff021916908373ffffffffffffffffffffffffffffffffffffffff160217905550604082015181600201556060820151816003019081610a5f9190613525565b5060808201518160040160006101000a81548160ff02191690836003811115610a8b57610a8a612679565b5b021790555060a0820151816005019081610aa59190613525565b5060c0820151816006019081610abb9190613525565b50905050600385908060018154018082558091505060019003906000526020600020016000909190919091505560026000868152602001908152602001600020604051806080016040528085815260200184815260200160006003811115610b2657610b25612679565b5b81526020014281525090806001815401808255809150506001900390600052602060002090600402016000909190919091506000820151816000019081610b6d9190613525565b506020820151816001019081610b839190613525565b5060408201518160020160006101000a81548160ff02191690836003811115610baf57610bae612679565b5b0217905550606082015181600301555050833373ffffffffffffffffffffffffffffffffffffffff16867f0412e476b8c12bf5775d0ab8bb60f9d773ac47a29447b7b972f92c1e8e81099486866000604051610c0d939291906135f7565b60405180910390a45050505050565b610c2461235e565b600073ffffffffffffffffffffffffffffffffffffffff166001600084815260200190815260200160002060010160009054906101000a900473ffffffffffffffffffffffffffffffffffffffff1673ffffffffffffffffffffffffffffffffffffffff1603610cc9576040517f08c379a0000000000000000000000000000000000000000000000000000000008152600401610cc090613688565b60405180910390fd5b604051806101000160405280600160008581526020019081526020016000206000015481526020016001600085815260200190815260200160002060010160009054906101000a900473ffffffffffffffffffffffffffffffffffffffff1673ffffffffffffffffffffffffffffffffffffffff16815260200160016000858152602001908152602001600020600201548152602001600160008581526020019081526020016000206003018054610d809061308e565b80601f0160208091040260200160405190810160405280929190818152602001828054610dac9061308e565b8015610df95780601f10610dce57610100808354040283529160200191610df9565b820191906000526020600020905b815481529060010190602001808311610ddc57829003601f168201915b505050505081526020016001600085815260200190815260200160002060040160009054906101000a900460ff166003811115610e3957610e38612679565b5b8152602001600160008581526020019081526020016000206005018054610e5f9061308e565b80601f0160208091040260200160405190810160405280929190818152602001828054610e8b9061308e565b8015610ed85780601f10610ead57610100808354040283529160200191610ed8565b820191906000526020600020905b815481529060010190602001808311610ebb57829003601f168201915b50505050508152602001600160008581526020019081526020016000206006018054610f039061308e565b80601f0160208091040260200160405190810160405280929190818152602001828054610f2f9061308e565b8015610f7c5780601f10610f5157610100808354040283529160200191610f7c565b820191906000526020600020905b815481529060010190602001808311610f5f57829003601f168201915b5050505050815260200160026000858152602001908152602001600020805480602002602001604051908101604052809291908181526020016000905b828210156111545783829060005260206000209060040201604051806080016040529081600082018054610fec9061308e565b80601f01602080910402602001604051908101604052809291908181526020018280546110189061308e565b80156110655780601f1061103a57610100808354040283529160200191611065565b820191906000526020600020905b81548152906001019060200180831161104857829003601f168201915b5050505050815260200160018201805461107e9061308e565b80601f01602080910402602001604051908101604052809291908181526020018280546110aa9061308e565b80156110f75780601f106110cc576101008083540402835291602001916110f7565b820191906000526020600020905b8154815290600101906020018083116110da57829003601f168201915b505050505081526020016002820160009054906101000a900460ff16600381111561112557611124612679565b5b600381111561113757611136612679565b5b815260200160038201548152505081526020019060010190610fb9565b505050508152509050919050565b60008054906101000a900473ffffffffffffffffffffffffffffffffffffffff1681565b6060806000805b600380549050811015611243578473ffffffffffffffffffffffffffffffffffffffff1660016000600384815481106111c9576111c8612fb9565b5b9060005260206000200154815260200190815260200160002060010160009054906101000a900473ffffffffffffffffffffffffffffffffffffffff1673ffffffffffffffffffffffffffffffffffffffff160361123057818061122c90613017565b9250505b808061123b90613017565b91505061118d565b5060008167ffffffffffffffff8111156112605761125f612963565b5b60405190808252806020026020018201604052801561128e5781602001602082028036833780820191505090505b50905060008267ffffffffffffffff8111156112ad576112ac612963565b5b6040519080825280602002602001820160405280156112e057816020015b60608152602001906001900390816112cb5790505b5090506000805b6003805490508110156115e9578773ffffffffffffffffffffffffffffffffffffffff16600160006003848154811061132357611322612fb9565b5b9060005260206000200154815260200190815260200160002060010160009054906101000a900473ffffffffffffffffffffffffffffffffffffffff1673ffffffffffffffffffffffffffffffffffffffff16036115d6576003818154811061138f5761138e612fb9565b5b90600052602060002001548483815181106113ad576113ac612fb9565b5b60200260200101818152505060026000600383815481106113d1576113d0612fb9565b5b90600052602060002001548152602001908152602001600020805480602002602001604051908101604052809291908181526020016000905b828210156115a5578382906000526020600020906004020160405180608001604052908160008201805461143d9061308e565b80601f01602080910402602001604051908101604052809291908181526020018280546114699061308e565b80156114b65780601f1061148b576101008083540402835291602001916114b6565b820191906000526020600020905b81548152906001019060200180831161149957829003601f168201915b505050505081526020016001820180546114cf9061308e565b80601f01602080910402602001604051908101604052809291908181526020018280546114fb9061308e565b80156115485780601f1061151d57610100808354040283529160200191611548565b820191906000526020600020905b81548152906001019060200180831161152b57829003601f168201915b505050505081526020016002820160009054906101000a900460ff16600381111561157657611575612679565b5b600381111561158857611587612679565b5b81526020016003820154815250508152602001906001019061140a565b505050508383815181106115bc576115bb612fb9565b5b602002602001018190525081806115d290613017565b9250505b80806115e190613017565b9150506112e7565b5082829550955050505050915091565b6002602052816000526040600020818154811061161557600080fd5b9060005260206000209060040201600091509150508060000180546116399061308e565b80601f01602080910402602001604051908101604052809291908181526020018280546116659061308e565b80156116b25780601f10611687576101008083540402835291602001916116b2565b820191906000526020600020905b81548152906001019060200180831161169557829003601f168201915b5050505050908060010180546116c79061308e565b80601f01602080910402602001604051908101604052809291908181526020018280546116f39061308e565b80156117405780601f1061171557610100808354040283529160200191611740565b820191906000526020600020905b81548152906001019060200180831161172357829003601f168201915b5050505050908060020160009054906101000a900460ff16908060030154905084565b60016020528060005260406000206000915090508060000154908060010160009054906101000a900473ffffffffffffffffffffffffffffffffffffffff16908060020154908060030180546117b89061308e565b80601f01602080910402602001604051908101604052809291908181526020018280546117e49061308e565b80156118315780601f1061180657610100808354040283529160200191611831565b820191906000526020600020905b81548152906001019060200180831161181457829003601f168201915b5050505050908060040160009054906101000a900460ff16908060050180546118599061308e565b80601f01602080910402602001604051908101604052809291908181526020018280546118859061308e565b80156118d25780601f106118a7576101008083540402835291602001916118d2565b820191906000526020600020905b8154815290600101906020018083116118b557829003601f168201915b5050505050908060060180546118e79061308e565b80601f01602080910402602001604051908101604052809291908181526020018280546119139061308e565b80156119605780601f1061193557610100808354040283529160200191611960565b820191906000526020600020905b81548152906001019060200180831161194357829003601f168201915b5050505050905087565b600460009054906101000a900473ffffffffffffffffffffffffffffffffffffffff1681565b600260048111156119a4576119a3612679565b5b60008054906101000a900473ffffffffffffffffffffffffffffffffffffffff1673ffffffffffffffffffffffffffffffffffffffff166327820851336040518263ffffffff1660e01b81526004016119fd9190612e5b565b602060405180830381865afa158015611a1a573d6000803e3d6000fd5b505050506040513d601f19601f82011682018060405250810190611a3e91906131c2565b6004811115611a5057611a4f612679565b5b14611a90576040517f08c379a0000000000000000000000000000000000000000000000000000000008152600401611a879061371a565b60405180910390fd5b600073ffffffffffffffffffffffffffffffffffffffff166001600086815260200190815260200160002060010160009054906101000a900473ffffffffffffffffffffffffffffffffffffffff1673ffffffffffffffffffffffffffffffffffffffff1603611b35576040517f08c379a0000000000000000000000000000000000000000000000000000000008152600401611b2c90613688565b60405180910390fd5b60006003811115611b4957611b48612679565b5b6001600086815260200190815260200160002060040160009054906101000a900460ff166003811115611b7f57611b7e612679565b5b14611bbf576040517f08c379a0000000000000000000000000000000000000000000000000000000008152600401611bb690613786565b60405180910390fd5b6000600160008681526020019081526020016000206003018054611be29061308e565b80601f0160208091040260200160405190810160405280929190818152602001828054611c0e9061308e565b8015611c5b5780601f10611c3057610100808354040283529160200191611c5b565b820191906000526020600020905b815481529060010190602001808311611c3e57829003601f168201915b505050505090506000600160008781526020019081526020016000206005018054611c859061308e565b80601f0160208091040260200160405190810160405280929190818152602001828054611cb19061308e565b8015611cfe5780601f10611cd357610100808354040283529160200191611cfe565b820191906000526020600020905b815481529060010190602001808311611ce157829003601f168201915b5050505050905084611d11576002611d14565b60015b6001600088815260200190815260200160002060040160006101000a81548160ff02191690836003811115611d4c57611d4b612679565b5b021790555083600160008881526020019081526020016000206005019081611d749190613525565b5082600160008881526020019081526020016000206003019081611d989190613525565b50600260008781526020019081526020016000206040518060800160405280858152602001868152602001600160008a815260200190815260200160002060040160009054906101000a900460ff166003811115611df957611df8612679565b5b81526020014281525090806001815401808255809150506001900390600052602060002090600402016000909190919091506000820151816000019081611e409190613525565b506020820151816001019081611e569190613525565b5060408201518160020160006101000a81548160ff02191690836003811115611e8257611e81612679565b5b0217905550606082015181600301555050857f148e5b78379121774b21414b3e0437c5bb8ec94f5772180c4b541a5f2d5ff8b482868587600160008d815260200190815260200160002060040160009054906101000a900460ff16604051611eee9594939291906137a6565b60405180910390a2857ff8e56d2671d841b96def7d6bcc2753dd3030266f946afb9fbe2849d106e3ade76001600089815260200190815260200160002060040160009054906101000a900460ff1686604051611f4b929190613815565b60405180910390a2505050505050565b600460009054906101000a900473ffffffffffffffffffffffffffffffffffffffff1673ffffffffffffffffffffffffffffffffffffffff163373ffffffffffffffffffffffffffffffffffffffff1614611feb576040517f08c379a0000000000000000000000000000000000000000000000000000000008152600401611fe2906138b7565b60405180910390fd5b6000801b600160008381526020019081526020016000206000015403612046576040517f08c379a000000000000000000000000000000000000000000000000000000000815260040161203d90613923565b60405180910390fd5b6001600381111561205a57612059612679565b5b6001600083815260200190815260200160002060040160009054906101000a900460ff1660038111156120905761208f612679565b5b146120d0576040517f08c379a00000000000000000000000000000000000000000000000000000000081526004016120c79061398f565b60405180910390fd5b60036001600083815260200190815260200160002060040160006101000a81548160ff0219169083600381111561210a57612109612679565b5b021790555060026000828152602001908152602001600020604051806080016040528060016000858152602001908152602001600020600301805461214e9061308e565b80601f016020809104026020016040519081016040528092919081815260200182805461217a9061308e565b80156121c75780601f1061219c576101008083540402835291602001916121c7565b820191906000526020600020905b8154815290600101906020018083116121aa57829003601f168201915b505050505081526020016001600085815260200190815260200160002060050180546121f29061308e565b80601f016020809104026020016040519081016040528092919081815260200182805461221e9061308e565b801561226b5780601f106122405761010080835404028352916020019161226b565b820191906000526020600020905b81548152906001019060200180831161224e57829003601f168201915b5050505050815260200160038081111561228857612287612679565b5b815260200142815250908060018154018082558091505060019003906000526020600020906004020160009091909190915060008201518160000190816122cf9190613525565b5060208201518160010190816122e59190613525565b5060408201518160020160006101000a81548160ff0219169083600381111561231157612310612679565b5b0217905550606082015181600301555050807f5b9950fb49ea9a7cc29c1824c64b36982e9d43dde547c7d8907ca5c463c805c9600360405161235391906139af565b60405180910390a250565b60405180610100016040528060008019168152602001600073ffffffffffffffffffffffffffffffffffffffff1681526020016000801916815260200160608152602001600060038111156123b6576123b5612679565b5b81526020016060815260200160608152602001606081525090565b6000604051905090565b600080fd5b600080fd5b600073ffffffffffffffffffffffffffffffffffffffff82169050919050565b6000612410826123e5565b9050919050565b61242081612405565b811461242b57600080fd5b50565b60008135905061243d81612417565b92915050565b600060208284031215612459576124586123db565b5b60006124678482850161242e565b91505092915050565b6000819050919050565b61248381612470565b811461248e57600080fd5b50565b6000813590506124a08161247a565b92915050565b6000602082840312156124bc576124bb6123db565b5b60006124ca84828501612491565b91505092915050565b600081519050919050565b600082825260208201905092915050565b6000819050602082019050919050565b61250881612470565b82525050565b600061251a83836124ff565b60208301905092915050565b6000602082019050919050565b600061253e826124d3565b61254881856124de565b9350612553836124ef565b8060005b8381101561258457815161256b888261250e565b975061257683612526565b925050600181019050612557565b5085935050505092915050565b600081519050919050565b600082825260208201905092915050565b6000819050602082019050919050565b600081519050919050565b600082825260208201905092915050565b6000819050602082019050919050565b600081519050919050565b600082825260208201905092915050565b60005b83811015612623578082015181840152602081019050612608565b60008484015250505050565b6000601f19601f8301169050919050565b600061264b826125e9565b61265581856125f4565b9350612665818560208601612605565b61266e8161262f565b840191505092915050565b7f4e487b7100000000000000000000000000000000000000000000000000000000600052602160045260246000fd5b600481106126b9576126b8612679565b5b50565b60008190506126ca826126a8565b919050565b60006126da826126bc565b9050919050565b6126ea816126cf565b82525050565b6000819050919050565b612703816126f0565b82525050565b600060808301600083015184820360008601526127268282612640565b915050602083015184820360208601526127408282612640565b915050604083015161275560408601826126e1565b50606083015161276860608601826126fa565b508091505092915050565b600061277f8383612709565b905092915050565b6000602082019050919050565b600061279f826125bd565b6127a981856125c8565b9350836020820285016127bb856125d9565b8060005b858110156127f757848403895281516127d88582612773565b94506127e383612787565b925060208a019950506001810190506127bf565b50829750879550505050505092915050565b60006128158383612794565b905092915050565b6000602082019050919050565b600061283582612591565b61283f818561259c565b935083602082028501612851856125ad565b8060005b8581101561288d578484038952815161286e8582612809565b94506128798361281d565b925060208a01995050600181019050612855565b50829750879550505050505092915050565b600060408201905081810360008301526128b98185612533565b905081810360208301526128cd818461282a565b90509392505050565b6128df816126f0565b81146128ea57600080fd5b50565b6000813590506128fc816128d6565b92915050565b600060208284031215612918576129176123db565b5b6000612926848285016128ed565b91505092915050565b61293881612470565b82525050565b6000602082019050612953600083018461292f565b92915050565b600080fd5b600080fd5b7f4e487b7100000000000000000000000000000000000000000000000000000000600052604160045260246000fd5b61299b8261262f565b810181811067ffffffffffffffff821117156129ba576129b9612963565b5b80604052505050565b60006129cd6123d1565b90506129d98282612992565b919050565b600067ffffffffffffffff8211156129f9576129f8612963565b5b612a028261262f565b9050602081019050919050565b82818337600083830152505050565b6000612a31612a2c846129de565b6129c3565b905082815260208101848484011115612a4d57612a4c61295e565b5b612a58848285612a0f565b509392505050565b600082601f830112612a7557612a74612959565b5b8135612a85848260208601612a1e565b91505092915050565b600080600080600060a08688031215612aaa57612aa96123db565b5b6000612ab888828901612491565b9550506020612ac988828901612491565b945050604086013567ffffffffffffffff811115612aea57612ae96123e0565b5b612af688828901612a60565b935050606086013567ffffffffffffffff811115612b1757612b166123e0565b5b612b2388828901612a60565b925050608086013567ffffffffffffffff811115612b4457612b436123e0565b5b612b5088828901612a60565b9150509295509295909350565b612b6681612405565b82525050565b600061010083016000830151612b8560008601826124ff565b506020830151612b986020860182612b5d565b506040830151612bab60408601826124ff565b5060608301518482036060860152612bc38282612640565b9150506080830151612bd860808601826126e1565b5060a083015184820360a0860152612bf08282612640565b91505060c083015184820360c0860152612c0a8282612640565b91505060e083015184820360e0860152612c248282612794565b9150508091505092915050565b60006020820190508181036000830152612c4b8184612b6c565b905092915050565b6000819050919050565b6000612c78612c73612c6e846123e5565b612c53565b6123e5565b9050919050565b6000612c8a82612c5d565b9050919050565b6000612c9c82612c7f565b9050919050565b612cac81612c91565b82525050565b6000602082019050612cc76000830184612ca3565b92915050565b60008060408385031215612ce457612ce36123db565b5b6000612cf285828601612491565b9250506020612d03858286016128ed565b9150509250929050565b600082825260208201905092915050565b6000612d29826125e9565b612d338185612d0d565b9350612d43818560208601612605565b612d4c8161262f565b840191505092915050565b612d60816126cf565b82525050565b612d6f816126f0565b82525050565b60006080820190508181036000830152612d8f8187612d1e565b90508181036020830152612da38186612d1e565b9050612db26040830185612d57565b612dbf6060830184612d66565b95945050505050565b612dd181612405565b82525050565b600060e082019050612dec600083018a61292f565b612df96020830189612dc8565b612e06604083018861292f565b8181036060830152612e188187612d1e565b9050612e276080830186612d57565b81810360a0830152612e398185612d1e565b905081810360c0830152612e4d8184612d1e565b905098975050505050505050565b6000602082019050612e706000830184612dc8565b92915050565b60008115159050919050565b612e8b81612e76565b8114612e9657600080fd5b50565b600081359050612ea881612e82565b92915050565b60008060008060808587031215612ec857612ec76123db565b5b6000612ed687828801612491565b9450506020612ee787828801612e99565b935050604085013567ffffffffffffffff811115612f0857612f076123e0565b5b612f1487828801612a60565b925050606085013567ffffffffffffffff811115612f3557612f346123e0565b5b612f4187828801612a60565b91505092959194509250565b7f50726f647563744c6f7420436f6e747261637420616c72656164792073657400600082015250565b6000612f83601f83612d0d565b9150612f8e82612f4d565b602082019050919050565b60006020820190508181036000830152612fb281612f76565b9050919050565b7f4e487b7100000000000000000000000000000000000000000000000000000000600052603260045260246000fd5b7f4e487b7100000000000000000000000000000000000000000000000000000000600052601160045260246000fd5b6000613022826126f0565b91507fffffffffffffffffffffffffffffffffffffffffffffffffffffffffffffffff820361305457613053612fe8565b5b600182019050919050565b7f4e487b7100000000000000000000000000000000000000000000000000000000600052602260045260246000fd5b600060028204905060018216806130a657607f821691505b6020821081036130b9576130b861305f565b5b50919050565b7f436865636b696e67205573657220526f6c650000000000000000000000000000600082015250565b60006130f5601283612d0d565b9150613100826130bf565b602082019050919050565b6000819050919050565b60008160001b9050919050565b600061313d6131386131338461310b565b613115565b612470565b9050919050565b61314d81613122565b82525050565b6000608082019050818103600083015261316c816130e8565b905061317b6020830186612dc8565b6131886040830185613144565b6131956060830184613144565b949350505050565b600581106131aa57600080fd5b50565b6000815190506131bc8161319d565b92915050565b6000602082840312156131d8576131d76123db565b5b60006131e6848285016131ad565b91505092915050565b7f4163636573732064656e6965643a204f6e6c79206661726d65727320616c6c6f60008201527f7765640000000000000000000000000000000000000000000000000000000000602082015250565b600061324b602383612d0d565b9150613256826131ef565b604082019050919050565b6000602082019050818103600083015261327a8161323e565b9050919050565b7f4372656174696e67204d696c6b2054616e6b0000000000000000000000000000600082015250565b60006132b7601283612d0d565b91506132c282613281565b602082019050919050565b600060808201905081810360008301526132e6816132aa565b90506132f56020830186612dc8565b613302604083018561292f565b61330f606083018461292f565b949350505050565b7f4572726f723a2054616e6b20494420616c726561647920657869737473000000600082015250565b600061334d601d83612d0d565b915061335882613317565b602082019050919050565b6000602082019050818103600083015261337c81613340565b9050919050565b60008190508160005260206000209050919050565b60006020601f8301049050919050565b600082821b905092915050565b6000600883026133e57fffffffffffffffffffffffffffffffffffffffffffffffffffffffffffffffff826133a8565b6133ef86836133a8565b95508019841693508086168417925050509392505050565b600061342261341d613418846126f0565b612c53565b6126f0565b9050919050565b6000819050919050565b61343c83613407565b61345061344882613429565b8484546133b5565b825550505050565b600090565b613465613458565b613470818484613433565b505050565b5b818110156134945761348960008261345d565b600181019050613476565b5050565b601f8211156134d9576134aa81613383565b6134b384613398565b810160208510156134c2578190505b6134d66134ce85613398565b830182613475565b50505b505050565b600082821c905092915050565b60006134fc600019846008026134de565b1980831691505092915050565b600061351583836134eb565b9150826002028217905092915050565b61352e826125e9565b67ffffffffffffffff81111561354757613546612963565b5b613551825461308e565b61355c828285613498565b600060209050601f83116001811461358f576000841561357d578287015190505b6135878582613509565b8655506135ef565b601f19841661359d86613383565b60005b828110156135c5578489015182556001820191506020850194506020810190506135a0565b868310156135e257848901516135de601f8916826134eb565b8355505b6001600288020188555050505b505050505050565b600060608201905081810360008301526136118186612d1e565b905081810360208301526136258185612d1e565b90506136346040830184612d57565b949350505050565b7f4572726f723a2054616e6b20494420646f6573206e6f74206578697374000000600082015250565b6000613672601d83612d0d565b915061367d8261363c565b602082019050919050565b600060208201905081810360008301526136a181613665565b9050919050565b7f4163636573732064656e6965643a204f6e6c7920666163746f7269657320616c60008201527f6c6f776564000000000000000000000000000000000000000000000000000000602082015250565b6000613704602583612d0d565b915061370f826136a8565b604082019050919050565b60006020820190508181036000830152613733816136f7565b9050919050565b7f4572726f723a204d696c6b20616c726561647920766572696669656400000000600082015250565b6000613770601c83612d0d565b915061377b8261373a565b602082019050919050565b6000602082019050818103600083015261379f81613763565b9050919050565b600060a08201905081810360008301526137c08188612d1e565b905081810360208301526137d48187612d1e565b905081810360408301526137e88186612d1e565b905081810360608301526137fc8185612d1e565b905061380b6080830184612d57565b9695505050505050565b600060408201905061382a6000830185612d57565b818103602083015261383c8184612d1e565b90509392505050565b7f4163636573732064656e6965643a204f6e6c792050726f647563744c6f74204360008201527f6f6e747261637420616c6c6f7765640000000000000000000000000000000000602082015250565b60006138a1602f83612d0d565b91506138ac82613845565b604082019050919050565b600060208201905081810360008301526138d081613894565b9050919050565b7f4d696c6b2074616e6b20646f6573206e6f742065786973740000000000000000600082015250565b600061390d601883612d0d565b9150613918826138d7565b602082019050919050565b6000602082019050818103600083015261393c81613900565b9050919050565b7f4d696c6b2074616e6b206d75737420626520617070726f766564206669727374600082015250565b6000613979602083612d0d565b915061398482613943565b602082019050919050565b600060208201905081810360008301526139a88161396c565b9050919050565b60006020820190506139c46000830184612d57565b9291505056fea2646970667358221220dbae4106c18da8710db7fe08d7b009ece031dd6638fb2da113de24706fb38d8064736f6c63430008130033",
  "immutableReferences": {},
  "source": "// SPDX-License-Identifier: MIT\npragma solidity ^0.8.19;\n\nimport \"./UserRegistry.sol\";  \n\ncontract RawMilk {\nenum MilkStatus { Pending, Approved, Rejected, Used }\n\n    struct MilkTank {\n        bytes32 tankId;\n        address farmer;\n        bytes32 factoryId; //   bytes32  FactoryID  String\n        string personInCharge;\n        MilkStatus status;\n        string qualityReportCID;\n        string qrCodeCID;\n    }\n\n    struct MilkHistory {\n        string personInCharge; // \n        string qualityReportCID;\n        MilkStatus status;\n        uint256 timestamp; // \n    }\n\n    struct MilkTankWithHistory {\n    bytes32 tankId;\n    address farmer;\n    bytes32 factoryId;\n    string personInCharge;\n    MilkStatus status;\n    string qualityReportCID;\n    string qrCodeCID;\n    MilkHistory[] history; //   Array\n}\n\n\n    UserRegistry public userRegistry;\n    mapping(bytes32 => MilkTank) public milkTanks; \n    mapping(bytes32 => MilkHistory[]) public milkHistory; //   mapping \n    bytes32[] public tankIds; \n\n    //  Event \n    event MilkTankCreated(\n        bytes32 indexed tankId, \n        address indexed farmer, \n        bytes32 indexed factoryId, \n        string personInCharge, \n        string qualityReportCID,\n        MilkStatus status //   status \n    );\n\n    //  Event \n    event MilkTankUpdated(bytes32 indexed tankId);\n    event MilkStatusUpdated(bytes32 indexed milkTankId, MilkStatus newStatus);\n\n    //  Event \n    event MilkQualityUpdated(\n        bytes32 indexed tankId,\n        string oldQualityReportCID,\n        string newQualityReportCID,\n        string oldPersonInCharge,\n        string newPersonInCharge,\n        MilkStatus status\n    );\n\n    //  Event \n    event MilkQualityVerified(\n        bytes32 indexed tankId,\n        MilkStatus status,\n        string qualityReportCID\n    );\n\n    event DebugLog(string message, address sender, bytes32 tankId, bytes32 factoryId);\n\n    modifier onlyFarmer() {\n        emit DebugLog(\"Checking User Role\", msg.sender, 0x0, 0x0);\n        require(userRegistry.getUserRole(msg.sender) == UserRegistry.UserRole.Farmer, \"Access denied: Only farmers allowed\");\n        _;\n    }\n\n    modifier onlyFactory() {\n        require(userRegistry.getUserRole(msg.sender) == UserRegistry.UserRole.Factory, \"Access denied: Only factories allowed\");\n        _;\n    }\n\n    constructor(address _userRegistry) {\n        userRegistry = UserRegistry(_userRegistry);\n    }\n\n\naddress public productLotContract; // \n\nfunction setProductLotContract(address _productLotContract) public {\n    require(productLotContract == address(0), \"ProductLot Contract already set\");\n    productLotContract = _productLotContract;\n}\n\nmodifier onlyProductLot() {\n    require(msg.sender == productLotContract, \"Access denied: Only ProductLot Contract allowed\");\n    _;\n}\n\nfunction markMilkTankAsUsed(bytes32 _milkTankId) public onlyProductLot {\n    require(milkTanks[_milkTankId].tankId != bytes32(0), \"Milk tank does not exist\");\n    require(milkTanks[_milkTankId].status == MilkStatus.Approved, \"Milk tank must be approved first\");\n\n    milkTanks[_milkTankId].status = MilkStatus.Used;\n\n    //  \n    milkHistory[_milkTankId].push(MilkHistory({\n        personInCharge: milkTanks[_milkTankId].personInCharge,\n        qualityReportCID: milkTanks[_milkTankId].qualityReportCID,\n        status: MilkStatus.Used,\n        timestamp: block.timestamp\n    }));\n\n    emit MilkStatusUpdated(_milkTankId, MilkStatus.Used);\n}\n\n\n    //  \nfunction createMilkTank(\n    bytes32 _tankId,\n    bytes32 _factoryId, \n    string memory _personInCharge,\n    string memory _qualityReportCID,\n    string memory _qrCodeCID\n) public onlyFarmer {\n    emit DebugLog(\"Creating Milk Tank\", msg.sender, _tankId, _factoryId);\n\n    require(milkTanks[_tankId].farmer == address(0), \"Error: Tank ID already exists\");\n\n    //  \n    milkTanks[_tankId] = MilkTank({\n        tankId: _tankId,\n        farmer: msg.sender,\n        factoryId: _factoryId,\n        personInCharge: _personInCharge,\n        status: MilkStatus.Pending,\n        qualityReportCID: _qualityReportCID,\n        qrCodeCID: _qrCodeCID\n    });\n\n    //  \n    tankIds.push(_tankId);\n\n    //  \n    milkHistory[_tankId].push(MilkHistory({\n        personInCharge: _personInCharge,\n        qualityReportCID: _qualityReportCID,\n        status: MilkStatus.Pending,\n        timestamp: block.timestamp\n    }));\n\n    //  Emit Event \n    emit MilkTankCreated(_tankId, msg.sender, _factoryId, _personInCharge, _qualityReportCID, MilkStatus.Pending);\n}\n\n//  \nfunction verifyMilkQuality(\n    bytes32 _tankId, \n    bool _approved, \n    string memory _qualityReportCID,\n    string memory _personInCharge\n) public onlyFactory {\n    require(milkTanks[_tankId].farmer != address(0), \"Error: Tank ID does not exist\");\n    require(milkTanks[_tankId].status == MilkStatus.Pending, \"Error: Milk already verified\");\n\n    //  \n    string memory oldPersonInCharge = milkTanks[_tankId].personInCharge;\n    string memory oldQualityReportCID = milkTanks[_tankId].qualityReportCID;\n\n    //  \n    milkTanks[_tankId].status = _approved ? MilkStatus.Approved : MilkStatus.Rejected;\n    milkTanks[_tankId].qualityReportCID = _qualityReportCID;\n    milkTanks[_tankId].personInCharge = _personInCharge;\n\n    //  \n    milkHistory[_tankId].push(MilkHistory({\n        personInCharge: _personInCharge,\n        qualityReportCID: _qualityReportCID,\n        status: milkTanks[_tankId].status,\n        timestamp: block.timestamp\n    }));\n\n    //  Emit Event \n    emit MilkQualityUpdated(\n        _tankId, \n        oldQualityReportCID, \n        _qualityReportCID, \n        oldPersonInCharge, \n        _personInCharge, \n        milkTanks[_tankId].status\n    );\n\n    //  Emit Event \n    emit MilkQualityVerified(_tankId, milkTanks[_tankId].status, _qualityReportCID);\n}\n\n    //   ()\n   function getMilkTank(bytes32 _tankId) public view returns (MilkTankWithHistory memory) {\n    require(milkTanks[_tankId].farmer != address(0), \"Error: Tank ID does not exist\");\n\n    return MilkTankWithHistory({\n        tankId: milkTanks[_tankId].tankId,\n        farmer: milkTanks[_tankId].farmer,\n        factoryId: milkTanks[_tankId].factoryId,\n        personInCharge: milkTanks[_tankId].personInCharge,\n        status: milkTanks[_tankId].status,\n        qualityReportCID: milkTanks[_tankId].qualityReportCID,\n        qrCodeCID: milkTanks[_tankId].qrCodeCID,\n        history: milkHistory[_tankId] //  \n    });\n}\n\n\n    //   ()\n    function getMilkTanksByFarmer(address _farmer) public view returns (bytes32[] memory, MilkHistory[][] memory) {\n        uint count = 0;\n        for (uint i = 0; i < tankIds.length; i++) {\n            if (milkTanks[tankIds[i]].farmer == _farmer) {\n                count++;\n            }\n        }\n\n        bytes32[] memory farmerTanks = new bytes32[](count);\n        MilkHistory[][] memory histories = new MilkHistory[][](count);\n        uint index = 0;\n        for (uint i = 0; i < tankIds.length; i++) {\n            if (milkTanks[tankIds[i]].farmer == _farmer) {\n                farmerTanks[index] = tankIds[i];\n                histories[index] = milkHistory[tankIds[i]]; //  \n                index++;\n            }\n        }\n        return (farmerTanks, histories);\n    }\n\n    //   ()\n    function getMilkTanksByFactory(bytes32 _factoryId) public view returns (bytes32[] memory, MilkHistory[][] memory) {\n        uint count = 0;\n        for (uint i = 0; i < tankIds.length; i++) {\n            if (milkTanks[tankIds[i]].factoryId == _factoryId) {\n                count++;\n            }\n        }\n\n        bytes32[] memory factoryTanks = new bytes32[](count);\n        MilkHistory[][] memory histories = new MilkHistory[][](count);\n        uint index = 0;\n        for (uint i = 0; i < tankIds.length; i++) {\n            if (milkTanks[tankIds[i]].factoryId == _factoryId) {\n                factoryTanks[index] = tankIds[i];\n                histories[index] = milkHistory[tankIds[i]]; //  \n                index++;\n            }\n        }\n        return (factoryTanks, histories);\n    }\n\n}",
  "sourcePath": "/home/kmitl-ivo/Documents/Back/Backend/solidity/contracts/RawMilk.sol",
  "compiler": {
    "name": "solc",
    "version": "0.8.19+commit.7dd6d404.Emscripten.clang"
  },
  "schemaVersion": "3.4.16",
  "updatedAt": "2025-03-18T10:11:07.656Z",
  "networkType": "ethereum",
  "devdoc": {
    "kind": "dev",
    "methods": {},
    "version": 1
  },
  "userdoc": {
    "kind": "user",
    "methods": {},
    "version": 1
  }
}