{
  "contractName": "RawMilk",
  "abi": [
    {
      "inputs": [
        {
          "internalType": "address",
          "name": "_userRegistry",
          "type": "address"
        }
      ],
      "stateMutability": "nonpayable",
      "type": "constructor"
    },
    {
      "anonymous": false,
      "inputs": [
        {
          "indexed": false,
          "internalType": "string",
          "name": "message",
          "type": "string"
        },
        {
          "indexed": false,
          "internalType": "address",
          "name": "sender",
          "type": "address"
        },
        {
          "indexed": false,
          "internalType": "bytes32",
          "name": "tankId",
          "type": "bytes32"
        },
        {
          "indexed": false,
          "internalType": "bytes32",
          "name": "factoryId",
          "type": "bytes32"
        }
      ],
      "name": "DebugLog",
      "type": "event"
    },
    {
      "anonymous": false,
      "inputs": [
        {
          "indexed": true,
          "internalType": "bytes32",
          "name": "tankId",
          "type": "bytes32"
        },
        {
          "indexed": false,
          "internalType": "string",
          "name": "oldQualityReportCID",
          "type": "string"
        },
        {
          "indexed": false,
          "internalType": "string",
          "name": "newQualityReportCID",
          "type": "string"
        },
        {
          "indexed": false,
          "internalType": "string",
          "name": "oldPersonInCharge",
          "type": "string"
        },
        {
          "indexed": false,
          "internalType": "string",
          "name": "newPersonInCharge",
          "type": "string"
        },
        {
          "indexed": false,
          "internalType": "enum RawMilk.MilkStatus",
          "name": "status",
          "type": "uint8"
        }
      ],
      "name": "MilkQualityUpdated",
      "type": "event"
    },
    {
      "anonymous": false,
      "inputs": [
        {
          "indexed": true,
          "internalType": "bytes32",
          "name": "tankId",
          "type": "bytes32"
        },
        {
          "indexed": false,
          "internalType": "enum RawMilk.MilkStatus",
          "name": "status",
          "type": "uint8"
        },
        {
          "indexed": false,
          "internalType": "string",
          "name": "qualityReportCID",
          "type": "string"
        }
      ],
      "name": "MilkQualityVerified",
      "type": "event"
    },
    {
      "anonymous": false,
      "inputs": [
        {
          "indexed": true,
          "internalType": "bytes32",
          "name": "milkTankId",
          "type": "bytes32"
        },
        {
          "indexed": false,
          "internalType": "enum RawMilk.MilkStatus",
          "name": "newStatus",
          "type": "uint8"
        }
      ],
      "name": "MilkStatusUpdated",
      "type": "event"
    },
    {
      "anonymous": false,
      "inputs": [
        {
          "indexed": true,
          "internalType": "bytes32",
          "name": "tankId",
          "type": "bytes32"
        },
        {
          "indexed": true,
          "internalType": "address",
          "name": "farmer",
          "type": "address"
        },
        {
          "indexed": true,
          "internalType": "bytes32",
          "name": "factoryId",
          "type": "bytes32"
        },
        {
          "indexed": false,
          "internalType": "string",
          "name": "personInCharge",
          "type": "string"
        },
        {
          "indexed": false,
          "internalType": "string",
          "name": "qualityReportCID",
          "type": "string"
        },
        {
          "indexed": false,
          "internalType": "enum RawMilk.MilkStatus",
          "name": "status",
          "type": "uint8"
        }
      ],
      "name": "MilkTankCreated",
      "type": "event"
    },
    {
      "anonymous": false,
      "inputs": [
        {
          "indexed": true,
          "internalType": "bytes32",
          "name": "tankId",
          "type": "bytes32"
        }
      ],
      "name": "MilkTankUpdated",
      "type": "event"
    },
    {
      "inputs": [
        {
          "internalType": "bytes32",
          "name": "",
          "type": "bytes32"
        },
        {
          "internalType": "uint256",
          "name": "",
          "type": "uint256"
        }
      ],
      "name": "milkHistory",
      "outputs": [
        {
          "internalType": "string",
          "name": "personInCharge",
          "type": "string"
        },
        {
          "internalType": "string",
          "name": "qualityReportCID",
          "type": "string"
        },
        {
          "internalType": "enum RawMilk.MilkStatus",
          "name": "status",
          "type": "uint8"
        },
        {
          "internalType": "uint256",
          "name": "timestamp",
          "type": "uint256"
        }
      ],
      "stateMutability": "view",
      "type": "function",
      "constant": true
    },
    {
      "inputs": [
        {
          "internalType": "bytes32",
          "name": "",
          "type": "bytes32"
        }
      ],
      "name": "milkTanks",
      "outputs": [
        {
          "internalType": "bytes32",
          "name": "tankId",
          "type": "bytes32"
        },
        {
          "internalType": "address",
          "name": "farmer",
          "type": "address"
        },
        {
          "internalType": "bytes32",
          "name": "factoryId",
          "type": "bytes32"
        },
        {
          "internalType": "string",
          "name": "personInCharge",
          "type": "string"
        },
        {
          "internalType": "enum RawMilk.MilkStatus",
          "name": "status",
          "type": "uint8"
        },
        {
          "internalType": "string",
          "name": "qualityReportCID",
          "type": "string"
        },
        {
          "internalType": "string",
          "name": "qrCodeCID",
          "type": "string"
        }
      ],
      "stateMutability": "view",
      "type": "function",
      "constant": true
    },
    {
      "inputs": [
        {
          "internalType": "uint256",
          "name": "",
          "type": "uint256"
        }
      ],
      "name": "tankIds",
      "outputs": [
        {
          "internalType": "bytes32",
          "name": "",
          "type": "bytes32"
        }
      ],
      "stateMutability": "view",
      "type": "function",
      "constant": true
    },
    {
      "inputs": [],
      "name": "userRegistry",
      "outputs": [
        {
          "internalType": "contract UserRegistry",
          "name": "",
          "type": "address"
        }
      ],
      "stateMutability": "view",
      "type": "function",
      "constant": true
    },
    {
      "inputs": [
        {
          "internalType": "bytes32",
          "name": "_milkTankId",
          "type": "bytes32"
        }
      ],
      "name": "markMilkTankAsUsed",
      "outputs": [],
      "stateMutability": "nonpayable",
      "type": "function"
    },
    {
      "inputs": [
        {
          "internalType": "bytes32",
          "name": "_tankId",
          "type": "bytes32"
        },
        {
          "internalType": "bytes32",
          "name": "_factoryId",
          "type": "bytes32"
        },
        {
          "internalType": "string",
          "name": "_personInCharge",
          "type": "string"
        },
        {
          "internalType": "string",
          "name": "_qualityReportCID",
          "type": "string"
        },
        {
          "internalType": "string",
          "name": "_qrCodeCID",
          "type": "string"
        }
      ],
      "name": "createMilkTank",
      "outputs": [],
      "stateMutability": "nonpayable",
      "type": "function"
    },
    {
      "inputs": [
        {
          "internalType": "bytes32",
          "name": "_tankId",
          "type": "bytes32"
        },
        {
          "internalType": "bool",
          "name": "_approved",
          "type": "bool"
        },
        {
          "internalType": "string",
          "name": "_qualityReportCID",
          "type": "string"
        },
        {
          "internalType": "string",
          "name": "_personInCharge",
          "type": "string"
        }
      ],
      "name": "verifyMilkQuality",
      "outputs": [],
      "stateMutability": "nonpayable",
      "type": "function"
    },
    {
      "inputs": [
        {
          "internalType": "bytes32",
          "name": "_tankId",
          "type": "bytes32"
        }
      ],
      "name": "getMilkTank",
      "outputs": [
        {
          "components": [
            {
              "internalType": "bytes32",
              "name": "tankId",
              "type": "bytes32"
            },
            {
              "internalType": "address",
              "name": "farmer",
              "type": "address"
            },
            {
              "internalType": "bytes32",
              "name": "factoryId",
              "type": "bytes32"
            },
            {
              "internalType": "string",
              "name": "personInCharge",
              "type": "string"
            },
            {
              "internalType": "enum RawMilk.MilkStatus",
              "name": "status",
              "type": "uint8"
            },
            {
              "internalType": "string",
              "name": "qualityReportCID",
              "type": "string"
            },
            {
              "internalType": "string",
              "name": "qrCodeCID",
              "type": "string"
            },
            {
              "components": [
                {
                  "internalType": "string",
                  "name": "personInCharge",
                  "type": "string"
                },
                {
                  "internalType": "string",
                  "name": "qualityReportCID",
                  "type": "string"
                },
                {
                  "internalType": "enum RawMilk.MilkStatus",
                  "name": "status",
                  "type": "uint8"
                },
                {
                  "internalType": "uint256",
                  "name": "timestamp",
                  "type": "uint256"
                }
              ],
              "internalType": "struct RawMilk.MilkHistory[]",
              "name": "history",
              "type": "tuple[]"
            }
          ],
          "internalType": "struct RawMilk.MilkTankWithHistory",
          "name": "",
          "type": "tuple"
        }
      ],
      "stateMutability": "view",
      "type": "function",
      "constant": true
    },
    {
      "inputs": [
        {
          "internalType": "address",
          "name": "_farmer",
          "type": "address"
        }
      ],
      "name": "getMilkTanksByFarmer",
      "outputs": [
        {
          "internalType": "bytes32[]",
          "name": "",
          "type": "bytes32[]"
        },
        {
          "components": [
            {
              "internalType": "string",
              "name": "personInCharge",
              "type": "string"
            },
            {
              "internalType": "string",
              "name": "qualityReportCID",
              "type": "string"
            },
            {
              "internalType": "enum RawMilk.MilkStatus",
              "name": "status",
              "type": "uint8"
            },
            {
              "internalType": "uint256",
              "name": "timestamp",
              "type": "uint256"
            }
          ],
          "internalType": "struct RawMilk.MilkHistory[][]",
          "name": "",
          "type": "tuple[][]"
        }
      ],
      "stateMutability": "view",
      "type": "function",
      "constant": true
    },
    {
      "inputs": [
        {
          "internalType": "bytes32",
          "name": "_factoryId",
          "type": "bytes32"
        }
      ],
      "name": "getMilkTanksByFactory",
      "outputs": [
        {
          "internalType": "bytes32[]",
          "name": "",
          "type": "bytes32[]"
        },
        {
          "components": [
            {
              "internalType": "string",
              "name": "personInCharge",
              "type": "string"
            },
            {
              "internalType": "string",
              "name": "qualityReportCID",
              "type": "string"
            },
            {
              "internalType": "enum RawMilk.MilkStatus",
              "name": "status",
              "type": "uint8"
            },
            {
              "internalType": "uint256",
              "name": "timestamp",
              "type": "uint256"
            }
          ],
          "internalType": "struct RawMilk.MilkHistory[][]",
          "name": "",
          "type": "tuple[][]"
        }
      ],
      "stateMutability": "view",
      "type": "function",
      "constant": true
    }
  ],
  "bytecode": "0x60806040523480156200001157600080fd5b506040516200373e3803806200373e8339818101604052810190620000379190620000e8565b806000806101000a81548173ffffffffffffffffffffffffffffffffffffffff021916908373ffffffffffffffffffffffffffffffffffffffff160217905550506200011a565b600080fd5b600073ffffffffffffffffffffffffffffffffffffffff82169050919050565b6000620000b08262000083565b9050919050565b620000c281620000a3565b8114620000ce57600080fd5b50565b600081519050620000e281620000b7565b92915050565b6000602082840312156200010157620001006200007e565b5b60006200011184828501620000d1565b91505092915050565b613614806200012a6000396000f3fe608060405234801561001057600080fd5b506004361061009e5760003560e01c806370d61bba1161006657806370d61bba1461016e578063813946ea1461019f578063a34a7fb9146101d2578063ef993abd14610208578063fca6bf53146102245761009e565b806349b088ac146100a35780634b89e5f6146100d45780635862213c146101045780635a03541f146101205780635c7460d614610150575b600080fd5b6100bd60048036038101906100b8919061212d565b610240565b6040516100cb929190612526565b60405180910390f35b6100ee60048036038101906100e99190612589565b61061b565b6040516100fb91906125c5565b60405180910390f35b61011e60048036038101906101199190612715565b61063f565b005b61013a6004803603810190610135919061212d565b610af7565b60405161014791906128ea565b60405180910390f35b61015861103d565b604051610165919061296b565b60405180910390f35b610188600480360381019061018391906129b2565b611061565b604051610196929190612526565b60405180910390f35b6101b960048036038101906101b491906129df565b6114d4565b6040516101c99493929190612a87565b60405180910390f35b6101ec60048036038101906101e7919061212d565b61163e565b6040516101ff9796959493929190612ae9565b60405180910390f35b610222600480360381019061021d9190612ba5565b611845565b005b61023e6004803603810190610239919061212d565b611e10565b005b6060806000805b6003805490508110156102b15784600160006003848154811061026d5761026c612c44565b5b90600052602060002001548152602001908152602001600020600201540361029e57818061029a90612ca2565b9250505b80806102a990612ca2565b915050610247565b5060008167ffffffffffffffff8111156102ce576102cd6125ea565b5b6040519080825280602002602001820160405280156102fc5781602001602082028036833780820191505090505b50905060008267ffffffffffffffff81111561031b5761031a6125ea565b5b60405190808252806020026020018201604052801561034e57816020015b60608152602001906001900390816103395790505b5090506000805b60038054905081101561060b5787600160006003848154811061037b5761037a612c44565b5b9060005260206000200154815260200190815260200160002060020154036105f857600381815481106103b1576103b0612c44565b5b90600052602060002001548483815181106103cf576103ce612c44565b5b60200260200101818152505060026000600383815481106103f3576103f2612c44565b5b90600052602060002001548152602001908152602001600020805480602002602001604051908101604052809291908181526020016000905b828210156105c7578382906000526020600020906004020160405180608001604052908160008201805461045f90612d19565b80601f016020809104026020016040519081016040528092919081815260200182805461048b90612d19565b80156104d85780601f106104ad576101008083540402835291602001916104d8565b820191906000526020600020905b8154815290600101906020018083116104bb57829003601f168201915b505050505081526020016001820180546104f190612d19565b80601f016020809104026020016040519081016040528092919081815260200182805461051d90612d19565b801561056a5780601f1061053f5761010080835404028352916020019161056a565b820191906000526020600020905b81548152906001019060200180831161054d57829003601f168201915b505050505081526020016002820160009054906101000a900460ff16600381111561059857610597612300565b5b60038111156105aa576105a9612300565b5b81526020016003820154815250508152602001906001019061042c565b505050508383815181106105de576105dd612c44565b5b602002602001018190525081806105f490612ca2565b9250505b808061060390612ca2565b915050610355565b5082829550955050505050915091565b6003818154811061062b57600080fd5b906000526020600020016000915090505481565b7f86f4cac90217ee94700ecefa745858b174e706d4f9d2d6243e768f2e9de8516c3360008060405161067393929190612dde565b60405180910390a16001600481111561068f5761068e612300565b5b60008054906101000a900473ffffffffffffffffffffffffffffffffffffffff1673ffffffffffffffffffffffffffffffffffffffff166327820851336040518263ffffffff1660e01b81526004016106e89190612e28565b602060405180830381865afa158015610705573d6000803e3d6000fd5b505050506040513d601f19601f820116820180604052508101906107299190612e68565b600481111561073b5761073a612300565b5b1461077b576040517f08c379a000000000000000000000000000000000000000000000000000000000815260040161077290612f07565b60405180910390fd5b7f86f4cac90217ee94700ecefa745858b174e706d4f9d2d6243e768f2e9de8516c3386866040516107ae93929190612f73565b60405180910390a1600073ffffffffffffffffffffffffffffffffffffffff166001600087815260200190815260200160002060010160009054906101000a900473ffffffffffffffffffffffffffffffffffffffff1673ffffffffffffffffffffffffffffffffffffffff161461085b576040517f08c379a000000000000000000000000000000000000000000000000000000000815260040161085290613009565b60405180910390fd5b6040518060e001604052808681526020013373ffffffffffffffffffffffffffffffffffffffff168152602001858152602001848152602001600060038111156108a8576108a7612300565b5b815260200183815260200182815250600160008781526020019081526020016000206000820151816000015560208201518160010160006101000a81548173ffffffffffffffffffffffffffffffffffffffff021916908373ffffffffffffffffffffffffffffffffffffffff16021790555060408201518160020155606082015181600301908161093a91906131cb565b5060808201518160040160006101000a81548160ff0219169083600381111561096657610965612300565b5b021790555060a082015181600501908161098091906131cb565b5060c082015181600601908161099691906131cb565b50905050600385908060018154018082558091505060019003906000526020600020016000909190919091505560026000868152602001908152602001600020604051806080016040528085815260200184815260200160006003811115610a0157610a00612300565b5b81526020014281525090806001815401808255809150506001900390600052602060002090600402016000909190919091506000820151816000019081610a4891906131cb565b506020820151816001019081610a5e91906131cb565b5060408201518160020160006101000a81548160ff02191690836003811115610a8a57610a89612300565b5b0217905550606082015181600301555050833373ffffffffffffffffffffffffffffffffffffffff16867f0412e476b8c12bf5775d0ab8bb60f9d773ac47a29447b7b972f92c1e8e81099486866000604051610ae89392919061329d565b60405180910390a45050505050565b610aff612070565b600073ffffffffffffffffffffffffffffffffffffffff166001600084815260200190815260200160002060010160009054906101000a900473ffffffffffffffffffffffffffffffffffffffff1673ffffffffffffffffffffffffffffffffffffffff1603610ba4576040517f08c379a0000000000000000000000000000000000000000000000000000000008152600401610b9b9061332e565b60405180910390fd5b604051806101000160405280600160008581526020019081526020016000206000015481526020016001600085815260200190815260200160002060010160009054906101000a900473ffffffffffffffffffffffffffffffffffffffff1673ffffffffffffffffffffffffffffffffffffffff16815260200160016000858152602001908152602001600020600201548152602001600160008581526020019081526020016000206003018054610c5b90612d19565b80601f0160208091040260200160405190810160405280929190818152602001828054610c8790612d19565b8015610cd45780601f10610ca957610100808354040283529160200191610cd4565b820191906000526020600020905b815481529060010190602001808311610cb757829003601f168201915b505050505081526020016001600085815260200190815260200160002060040160009054906101000a900460ff166003811115610d1457610d13612300565b5b8152602001600160008581526020019081526020016000206005018054610d3a90612d19565b80601f0160208091040260200160405190810160405280929190818152602001828054610d6690612d19565b8015610db35780601f10610d8857610100808354040283529160200191610db3565b820191906000526020600020905b815481529060010190602001808311610d9657829003601f168201915b50505050508152602001600160008581526020019081526020016000206006018054610dde90612d19565b80601f0160208091040260200160405190810160405280929190818152602001828054610e0a90612d19565b8015610e575780601f10610e2c57610100808354040283529160200191610e57565b820191906000526020600020905b815481529060010190602001808311610e3a57829003601f168201915b5050505050815260200160026000858152602001908152602001600020805480602002602001604051908101604052809291908181526020016000905b8282101561102f5783829060005260206000209060040201604051806080016040529081600082018054610ec790612d19565b80601f0160208091040260200160405190810160405280929190818152602001828054610ef390612d19565b8015610f405780601f10610f1557610100808354040283529160200191610f40565b820191906000526020600020905b815481529060010190602001808311610f2357829003601f168201915b50505050508152602001600182018054610f5990612d19565b80601f0160208091040260200160405190810160405280929190818152602001828054610f8590612d19565b8015610fd25780601f10610fa757610100808354040283529160200191610fd2565b820191906000526020600020905b815481529060010190602001808311610fb557829003601f168201915b505050505081526020016002820160009054906101000a900460ff16600381111561100057610fff612300565b5b600381111561101257611011612300565b5b815260200160038201548152505081526020019060010190610e94565b505050508152509050919050565b60008054906101000a900473ffffffffffffffffffffffffffffffffffffffff1681565b6060806000805b60038054905081101561111e578473ffffffffffffffffffffffffffffffffffffffff1660016000600384815481106110a4576110a3612c44565b5b9060005260206000200154815260200190815260200160002060010160009054906101000a900473ffffffffffffffffffffffffffffffffffffffff1673ffffffffffffffffffffffffffffffffffffffff160361110b57818061110790612ca2565b9250505b808061111690612ca2565b915050611068565b5060008167ffffffffffffffff81111561113b5761113a6125ea565b5b6040519080825280602002602001820160405280156111695781602001602082028036833780820191505090505b50905060008267ffffffffffffffff811115611188576111876125ea565b5b6040519080825280602002602001820160405280156111bb57816020015b60608152602001906001900390816111a65790505b5090506000805b6003805490508110156114c4578773ffffffffffffffffffffffffffffffffffffffff1660016000600384815481106111fe576111fd612c44565b5b9060005260206000200154815260200190815260200160002060010160009054906101000a900473ffffffffffffffffffffffffffffffffffffffff1673ffffffffffffffffffffffffffffffffffffffff16036114b1576003818154811061126a57611269612c44565b5b906000526020600020015484838151811061128857611287612c44565b5b60200260200101818152505060026000600383815481106112ac576112ab612c44565b5b90600052602060002001548152602001908152602001600020805480602002602001604051908101604052809291908181526020016000905b82821015611480578382906000526020600020906004020160405180608001604052908160008201805461131890612d19565b80601f016020809104026020016040519081016040528092919081815260200182805461134490612d19565b80156113915780601f1061136657610100808354040283529160200191611391565b820191906000526020600020905b81548152906001019060200180831161137457829003601f168201915b505050505081526020016001820180546113aa90612d19565b80601f01602080910402602001604051908101604052809291908181526020018280546113d690612d19565b80156114235780601f106113f857610100808354040283529160200191611423565b820191906000526020600020905b81548152906001019060200180831161140657829003601f168201915b505050505081526020016002820160009054906101000a900460ff16600381111561145157611450612300565b5b600381111561146357611462612300565b5b8152602001600382015481525050815260200190600101906112e5565b5050505083838151811061149757611496612c44565b5b602002602001018190525081806114ad90612ca2565b9250505b80806114bc90612ca2565b9150506111c2565b5082829550955050505050915091565b600260205281600052604060002081815481106114f057600080fd5b90600052602060002090600402016000915091505080600001805461151490612d19565b80601f016020809104026020016040519081016040528092919081815260200182805461154090612d19565b801561158d5780601f106115625761010080835404028352916020019161158d565b820191906000526020600020905b81548152906001019060200180831161157057829003601f168201915b5050505050908060010180546115a290612d19565b80601f01602080910402602001604051908101604052809291908181526020018280546115ce90612d19565b801561161b5780601f106115f05761010080835404028352916020019161161b565b820191906000526020600020905b8154815290600101906020018083116115fe57829003601f168201915b5050505050908060020160009054906101000a900460ff16908060030154905084565b60016020528060005260406000206000915090508060000154908060010160009054906101000a900473ffffffffffffffffffffffffffffffffffffffff169080600201549080600301805461169390612d19565b80601f01602080910402602001604051908101604052809291908181526020018280546116bf90612d19565b801561170c5780601f106116e15761010080835404028352916020019161170c565b820191906000526020600020905b8154815290600101906020018083116116ef57829003601f168201915b5050505050908060040160009054906101000a900460ff169080600501805461173490612d19565b80601f016020809104026020016040519081016040528092919081815260200182805461176090612d19565b80156117ad5780601f10611782576101008083540402835291602001916117ad565b820191906000526020600020905b81548152906001019060200180831161179057829003601f168201915b5050505050908060060180546117c290612d19565b80601f01602080910402602001604051908101604052809291908181526020018280546117ee90612d19565b801561183b5780601f106118105761010080835404028352916020019161183b565b820191906000526020600020905b81548152906001019060200180831161181e57829003601f168201915b5050505050905087565b6002600481111561185957611858612300565b5b60008054906101000a900473ffffffffffffffffffffffffffffffffffffffff1673ffffffffffffffffffffffffffffffffffffffff166327820851336040518263ffffffff1660e01b81526004016118b29190612e28565b602060405180830381865afa1580156118cf573d6000803e3d6000fd5b505050506040513d601f19601f820116820180604052508101906118f39190612e68565b600481111561190557611904612300565b5b14611945576040517f08c379a000000000000000000000000000000000000000000000000000000000815260040161193c906133c0565b60405180910390fd5b600073ffffffffffffffffffffffffffffffffffffffff166001600086815260200190815260200160002060010160009054906101000a900473ffffffffffffffffffffffffffffffffffffffff1673ffffffffffffffffffffffffffffffffffffffff16036119ea576040517f08c379a00000000000000000000000000000000000000000000000000000000081526004016119e19061332e565b60405180910390fd5b600060038111156119fe576119fd612300565b5b6001600086815260200190815260200160002060040160009054906101000a900460ff166003811115611a3457611a33612300565b5b14611a74576040517f08c379a0000000000000000000000000000000000000000000000000000000008152600401611a6b9061342c565b60405180910390fd5b6000600160008681526020019081526020016000206003018054611a9790612d19565b80601f0160208091040260200160405190810160405280929190818152602001828054611ac390612d19565b8015611b105780601f10611ae557610100808354040283529160200191611b10565b820191906000526020600020905b815481529060010190602001808311611af357829003601f168201915b505050505090506000600160008781526020019081526020016000206005018054611b3a90612d19565b80601f0160208091040260200160405190810160405280929190818152602001828054611b6690612d19565b8015611bb35780601f10611b8857610100808354040283529160200191611bb3565b820191906000526020600020905b815481529060010190602001808311611b9657829003601f168201915b5050505050905084611bc6576002611bc9565b60015b6001600088815260200190815260200160002060040160006101000a81548160ff02191690836003811115611c0157611c00612300565b5b021790555083600160008881526020019081526020016000206005019081611c2991906131cb565b5082600160008881526020019081526020016000206003019081611c4d91906131cb565b50600260008781526020019081526020016000206040518060800160405280858152602001868152602001600160008a815260200190815260200160002060040160009054906101000a900460ff166003811115611cae57611cad612300565b5b81526020014281525090806001815401808255809150506001900390600052602060002090600402016000909190919091506000820151816000019081611cf591906131cb565b506020820151816001019081611d0b91906131cb565b5060408201518160020160006101000a81548160ff02191690836003811115611d3757611d36612300565b5b0217905550606082015181600301555050857f148e5b78379121774b21414b3e0437c5bb8ec94f5772180c4b541a5f2d5ff8b482868587600160008d815260200190815260200160002060040160009054906101000a900460ff16604051611da395949392919061344c565b60405180910390a2857ff8e56d2671d841b96def7d6bcc2753dd3030266f946afb9fbe2849d106e3ade76001600089815260200190815260200160002060040160009054906101000a900460ff1686604051611e009291906134bb565b60405180910390a2505050505050565b60026004811115611e2457611e23612300565b5b60008054906101000a900473ffffffffffffffffffffffffffffffffffffffff1673ffffffffffffffffffffffffffffffffffffffff166327820851336040518263ffffffff1660e01b8152600401611e7d9190612e28565b602060405180830381865afa158015611e9a573d6000803e3d6000fd5b505050506040513d601f19601f82011682018060405250810190611ebe9190612e68565b6004811115611ed057611ecf612300565b5b14611f10576040517f08c379a0000000000000000000000000000000000000000000000000000000008152600401611f07906133c0565b60405180910390fd5b6000801b600160008381526020019081526020016000206000015403611f6b576040517f08c379a0000000000000000000000000000000000000000000000000000000008152600401611f6290613537565b60405180910390fd5b60016003811115611f7f57611f7e612300565b5b6001600083815260200190815260200160002060040160009054906101000a900460ff166003811115611fb557611fb4612300565b5b14611ff5576040517f08c379a0000000000000000000000000000000000000000000000000000000008152600401611fec906135a3565b60405180910390fd5b60036001600083815260200190815260200160002060040160006101000a81548160ff0219169083600381111561202f5761202e612300565b5b0217905550807f5b9950fb49ea9a7cc29c1824c64b36982e9d43dde547c7d8907ca5c463c805c9600360405161206591906135c3565b60405180910390a250565b60405180610100016040528060008019168152602001600073ffffffffffffffffffffffffffffffffffffffff1681526020016000801916815260200160608152602001600060038111156120c8576120c7612300565b5b81526020016060815260200160608152602001606081525090565b6000604051905090565b600080fd5b600080fd5b6000819050919050565b61210a816120f7565b811461211557600080fd5b50565b60008135905061212781612101565b92915050565b600060208284031215612143576121426120ed565b5b600061215184828501612118565b91505092915050565b600081519050919050565b600082825260208201905092915050565b6000819050602082019050919050565b61218f816120f7565b82525050565b60006121a18383612186565b60208301905092915050565b6000602082019050919050565b60006121c58261215a565b6121cf8185612165565b93506121da83612176565b8060005b8381101561220b5781516121f28882612195565b97506121fd836121ad565b9250506001810190506121de565b5085935050505092915050565b600081519050919050565b600082825260208201905092915050565b6000819050602082019050919050565b600081519050919050565b600082825260208201905092915050565b6000819050602082019050919050565b600081519050919050565b600082825260208201905092915050565b60005b838110156122aa57808201518184015260208101905061228f565b60008484015250505050565b6000601f19601f8301169050919050565b60006122d282612270565b6122dc818561227b565b93506122ec81856020860161228c565b6122f5816122b6565b840191505092915050565b7f4e487b7100000000000000000000000000000000000000000000000000000000600052602160045260246000fd5b600481106123405761233f612300565b5b50565b60008190506123518261232f565b919050565b600061236182612343565b9050919050565b61237181612356565b82525050565b6000819050919050565b61238a81612377565b82525050565b600060808301600083015184820360008601526123ad82826122c7565b915050602083015184820360208601526123c782826122c7565b91505060408301516123dc6040860182612368565b5060608301516123ef6060860182612381565b508091505092915050565b60006124068383612390565b905092915050565b6000602082019050919050565b600061242682612244565b612430818561224f565b93508360208202850161244285612260565b8060005b8581101561247e578484038952815161245f85826123fa565b945061246a8361240e565b925060208a01995050600181019050612446565b50829750879550505050505092915050565b600061249c838361241b565b905092915050565b6000602082019050919050565b60006124bc82612218565b6124c68185612223565b9350836020820285016124d885612234565b8060005b8581101561251457848403895281516124f58582612490565b9450612500836124a4565b925060208a019950506001810190506124dc565b50829750879550505050505092915050565b6000604082019050818103600083015261254081856121ba565b9050818103602083015261255481846124b1565b90509392505050565b61256681612377565b811461257157600080fd5b50565b6000813590506125838161255d565b92915050565b60006020828403121561259f5761259e6120ed565b5b60006125ad84828501612574565b91505092915050565b6125bf816120f7565b82525050565b60006020820190506125da60008301846125b6565b92915050565b600080fd5b600080fd5b7f4e487b7100000000000000000000000000000000000000000000000000000000600052604160045260246000fd5b612622826122b6565b810181811067ffffffffffffffff82111715612641576126406125ea565b5b80604052505050565b60006126546120e3565b90506126608282612619565b919050565b600067ffffffffffffffff8211156126805761267f6125ea565b5b612689826122b6565b9050602081019050919050565b82818337600083830152505050565b60006126b86126b384612665565b61264a565b9050828152602081018484840111156126d4576126d36125e5565b5b6126df848285612696565b509392505050565b600082601f8301126126fc576126fb6125e0565b5b813561270c8482602086016126a5565b91505092915050565b600080600080600060a08688031215612731576127306120ed565b5b600061273f88828901612118565b955050602061275088828901612118565b945050604086013567ffffffffffffffff811115612771576127706120f2565b5b61277d888289016126e7565b935050606086013567ffffffffffffffff81111561279e5761279d6120f2565b5b6127aa888289016126e7565b925050608086013567ffffffffffffffff8111156127cb576127ca6120f2565b5b6127d7888289016126e7565b9150509295509295909350565b600073ffffffffffffffffffffffffffffffffffffffff82169050919050565b600061280f826127e4565b9050919050565b61281f81612804565b82525050565b60006101008301600083015161283e6000860182612186565b5060208301516128516020860182612816565b5060408301516128646040860182612186565b506060830151848203606086015261287c82826122c7565b91505060808301516128916080860182612368565b5060a083015184820360a08601526128a982826122c7565b91505060c083015184820360c08601526128c382826122c7565b91505060e083015184820360e08601526128dd828261241b565b9150508091505092915050565b600060208201905081810360008301526129048184612825565b905092915050565b6000819050919050565b600061293161292c612927846127e4565b61290c565b6127e4565b9050919050565b600061294382612916565b9050919050565b600061295582612938565b9050919050565b6129658161294a565b82525050565b6000602082019050612980600083018461295c565b92915050565b61298f81612804565b811461299a57600080fd5b50565b6000813590506129ac81612986565b92915050565b6000602082840312156129c8576129c76120ed565b5b60006129d68482850161299d565b91505092915050565b600080604083850312156129f6576129f56120ed565b5b6000612a0485828601612118565b9250506020612a1585828601612574565b9150509250929050565b600082825260208201905092915050565b6000612a3b82612270565b612a458185612a1f565b9350612a5581856020860161228c565b612a5e816122b6565b840191505092915050565b612a7281612356565b82525050565b612a8181612377565b82525050565b60006080820190508181036000830152612aa18187612a30565b90508181036020830152612ab58186612a30565b9050612ac46040830185612a69565b612ad16060830184612a78565b95945050505050565b612ae381612804565b82525050565b600060e082019050612afe600083018a6125b6565b612b0b6020830189612ada565b612b1860408301886125b6565b8181036060830152612b2a8187612a30565b9050612b396080830186612a69565b81810360a0830152612b4b8185612a30565b905081810360c0830152612b5f8184612a30565b905098975050505050505050565b60008115159050919050565b612b8281612b6d565b8114612b8d57600080fd5b50565b600081359050612b9f81612b79565b92915050565b60008060008060808587031215612bbf57612bbe6120ed565b5b6000612bcd87828801612118565b9450506020612bde87828801612b90565b935050604085013567ffffffffffffffff811115612bff57612bfe6120f2565b5b612c0b878288016126e7565b925050606085013567ffffffffffffffff811115612c2c57612c2b6120f2565b5b612c38878288016126e7565b91505092959194509250565b7f4e487b7100000000000000000000000000000000000000000000000000000000600052603260045260246000fd5b7f4e487b7100000000000000000000000000000000000000000000000000000000600052601160045260246000fd5b6000612cad82612377565b91507fffffffffffffffffffffffffffffffffffffffffffffffffffffffffffffffff8203612cdf57612cde612c73565b5b600182019050919050565b7f4e487b7100000000000000000000000000000000000000000000000000000000600052602260045260246000fd5b60006002820490506001821680612d3157607f821691505b602082108103612d4457612d43612cea565b5b50919050565b7f436865636b696e67205573657220526f6c650000000000000000000000000000600082015250565b6000612d80601283612a1f565b9150612d8b82612d4a565b602082019050919050565b6000819050919050565b60008160001b9050919050565b6000612dc8612dc3612dbe84612d96565b612da0565b6120f7565b9050919050565b612dd881612dad565b82525050565b60006080820190508181036000830152612df781612d73565b9050612e066020830186612ada565b612e136040830185612dcf565b612e206060830184612dcf565b949350505050565b6000602082019050612e3d6000830184612ada565b92915050565b60058110612e5057600080fd5b50565b600081519050612e6281612e43565b92915050565b600060208284031215612e7e57612e7d6120ed565b5b6000612e8c84828501612e53565b91505092915050565b7f4163636573732064656e6965643a204f6e6c79206661726d65727320616c6c6f60008201527f7765640000000000000000000000000000000000000000000000000000000000602082015250565b6000612ef1602383612a1f565b9150612efc82612e95565b604082019050919050565b60006020820190508181036000830152612f2081612ee4565b9050919050565b7f4372656174696e67204d696c6b2054616e6b0000000000000000000000000000600082015250565b6000612f5d601283612a1f565b9150612f6882612f27565b602082019050919050565b60006080820190508181036000830152612f8c81612f50565b9050612f9b6020830186612ada565b612fa860408301856125b6565b612fb560608301846125b6565b949350505050565b7f4572726f723a2054616e6b20494420616c726561647920657869737473000000600082015250565b6000612ff3601d83612a1f565b9150612ffe82612fbd565b602082019050919050565b6000602082019050818103600083015261302281612fe6565b9050919050565b60008190508160005260206000209050919050565b60006020601f8301049050919050565b600082821b905092915050565b60006008830261308b7fffffffffffffffffffffffffffffffffffffffffffffffffffffffffffffffff8261304e565b613095868361304e565b95508019841693508086168417925050509392505050565b60006130c86130c36130be84612377565b61290c565b612377565b9050919050565b6000819050919050565b6130e2836130ad565b6130f66130ee826130cf565b84845461305b565b825550505050565b600090565b61310b6130fe565b6131168184846130d9565b505050565b5b8181101561313a5761312f600082613103565b60018101905061311c565b5050565b601f82111561317f5761315081613029565b6131598461303e565b81016020851015613168578190505b61317c6131748561303e565b83018261311b565b50505b505050565b600082821c905092915050565b60006131a260001984600802613184565b1980831691505092915050565b60006131bb8383613191565b9150826002028217905092915050565b6131d482612270565b67ffffffffffffffff8111156131ed576131ec6125ea565b5b6131f78254612d19565b61320282828561313e565b600060209050601f8311600181146132355760008415613223578287015190505b61322d85826131af565b865550613295565b601f19841661324386613029565b60005b8281101561326b57848901518255600182019150602085019450602081019050613246565b868310156132885784890151613284601f891682613191565b8355505b6001600288020188555050505b505050505050565b600060608201905081810360008301526132b78186612a30565b905081810360208301526132cb8185612a30565b90506132da6040830184612a69565b949350505050565b7f4572726f723a2054616e6b20494420646f6573206e6f74206578697374000000600082015250565b6000613318601d83612a1f565b9150613323826132e2565b602082019050919050565b600060208201905081810360008301526133478161330b565b9050919050565b7f4163636573732064656e6965643a204f6e6c7920666163746f7269657320616c60008201527f6c6f776564000000000000000000000000000000000000000000000000000000602082015250565b60006133aa602583612a1f565b91506133b58261334e565b604082019050919050565b600060208201905081810360008301526133d98161339d565b9050919050565b7f4572726f723a204d696c6b20616c726561647920766572696669656400000000600082015250565b6000613416601c83612a1f565b9150613421826133e0565b602082019050919050565b6000602082019050818103600083015261344581613409565b9050919050565b600060a08201905081810360008301526134668188612a30565b9050818103602083015261347a8187612a30565b9050818103604083015261348e8186612a30565b905081810360608301526134a28185612a30565b90506134b16080830184612a69565b9695505050505050565b60006040820190506134d06000830185612a69565b81810360208301526134e28184612a30565b90509392505050565b7f4d696c6b2074616e6b20646f6573206e6f742065786973740000000000000000600082015250565b6000613521601883612a1f565b915061352c826134eb565b602082019050919050565b6000602082019050818103600083015261355081613514565b9050919050565b7f4d696c6b2074616e6b206d75737420626520617070726f766564206669727374600082015250565b600061358d602083612a1f565b915061359882613557565b602082019050919050565b600060208201905081810360008301526135bc81613580565b9050919050565b60006020820190506135d86000830184612a69565b9291505056fea2646970667358221220e6bc4550dae258d0da74d4a46049ca9e857166d8b58249cdbd3bd84d2460712c64736f6c63430008130033",
  "immutableReferences": {},
  "source": "// SPDX-License-Identifier: MIT\npragma solidity ^0.8.19;\n\nimport \"./UserRegistry.sol\";  \n\ncontract RawMilk {\nenum MilkStatus { Pending, Approved, Rejected, Used }\n\n    struct MilkTank {\n        bytes32 tankId;\n        address farmer;\n        bytes32 factoryId; //   bytes32  FactoryID  String\n        string personInCharge;\n        MilkStatus status;\n        string qualityReportCID;\n        string qrCodeCID;\n    }\n\n    struct MilkHistory {\n        string personInCharge; // \n        string qualityReportCID;\n        MilkStatus status;\n        uint256 timestamp; // \n    }\n\n    struct MilkTankWithHistory {\n    bytes32 tankId;\n    address farmer;\n    bytes32 factoryId;\n    string personInCharge;\n    MilkStatus status;\n    string qualityReportCID;\n    string qrCodeCID;\n    MilkHistory[] history; //   Array\n}\n\n\n    UserRegistry public userRegistry;\n    mapping(bytes32 => MilkTank) public milkTanks; \n    mapping(bytes32 => MilkHistory[]) public milkHistory; //   mapping \n    bytes32[] public tankIds; \n\n    //  Event \n    event MilkTankCreated(\n        bytes32 indexed tankId, \n        address indexed farmer, \n        bytes32 indexed factoryId, \n        string personInCharge, \n        string qualityReportCID,\n        MilkStatus status //   status \n    );\n\n    //  Event \n    event MilkTankUpdated(bytes32 indexed tankId);\n    event MilkStatusUpdated(bytes32 indexed milkTankId, MilkStatus newStatus);\n\n    //  Event \n    event MilkQualityUpdated(\n        bytes32 indexed tankId,\n        string oldQualityReportCID,\n        string newQualityReportCID,\n        string oldPersonInCharge,\n        string newPersonInCharge,\n        MilkStatus status\n    );\n\n    //  Event \n    event MilkQualityVerified(\n        bytes32 indexed tankId,\n        MilkStatus status,\n        string qualityReportCID\n    );\n\n    event DebugLog(string message, address sender, bytes32 tankId, bytes32 factoryId);\n\n    modifier onlyFarmer() {\n        emit DebugLog(\"Checking User Role\", msg.sender, 0x0, 0x0);\n        require(userRegistry.getUserRole(msg.sender) == UserRegistry.UserRole.Farmer, \"Access denied: Only farmers allowed\");\n        _;\n    }\n\n    modifier onlyFactory() {\n        require(userRegistry.getUserRole(msg.sender) == UserRegistry.UserRole.Factory, \"Access denied: Only factories allowed\");\n        _;\n    }\n\n    constructor(address _userRegistry) {\n        userRegistry = UserRegistry(_userRegistry);\n    }\n\nfunction markMilkTankAsUsed(bytes32 _milkTankId) public onlyFactory {\n    require(milkTanks[_milkTankId].tankId != bytes32(0), \"Milk tank does not exist\");\n    require(milkTanks[_milkTankId].status == MilkStatus.Approved, \"Milk tank must be approved first\");\n\n    milkTanks[_milkTankId].status = MilkStatus.Used;\n\n    emit MilkStatusUpdated(_milkTankId, MilkStatus.Used);\n}\n\n    //  \nfunction createMilkTank(\n    bytes32 _tankId,\n    bytes32 _factoryId, \n    string memory _personInCharge,\n    string memory _qualityReportCID,\n    string memory _qrCodeCID\n) public onlyFarmer {\n    emit DebugLog(\"Creating Milk Tank\", msg.sender, _tankId, _factoryId);\n\n    require(milkTanks[_tankId].farmer == address(0), \"Error: Tank ID already exists\");\n\n    //  \n    milkTanks[_tankId] = MilkTank({\n        tankId: _tankId,\n        farmer: msg.sender,\n        factoryId: _factoryId,\n        personInCharge: _personInCharge,\n        status: MilkStatus.Pending,\n        qualityReportCID: _qualityReportCID,\n        qrCodeCID: _qrCodeCID\n    });\n\n    //  \n    tankIds.push(_tankId);\n\n    //  \n    milkHistory[_tankId].push(MilkHistory({\n        personInCharge: _personInCharge,\n        qualityReportCID: _qualityReportCID,\n        status: MilkStatus.Pending,\n        timestamp: block.timestamp\n    }));\n\n    //  Emit Event \n    emit MilkTankCreated(_tankId, msg.sender, _factoryId, _personInCharge, _qualityReportCID, MilkStatus.Pending);\n}\n\n//  \nfunction verifyMilkQuality(\n    bytes32 _tankId, \n    bool _approved, \n    string memory _qualityReportCID,\n    string memory _personInCharge\n) public onlyFactory {\n    require(milkTanks[_tankId].farmer != address(0), \"Error: Tank ID does not exist\");\n    require(milkTanks[_tankId].status == MilkStatus.Pending, \"Error: Milk already verified\");\n\n    //  \n    string memory oldPersonInCharge = milkTanks[_tankId].personInCharge;\n    string memory oldQualityReportCID = milkTanks[_tankId].qualityReportCID;\n\n    //  \n    milkTanks[_tankId].status = _approved ? MilkStatus.Approved : MilkStatus.Rejected;\n    milkTanks[_tankId].qualityReportCID = _qualityReportCID;\n    milkTanks[_tankId].personInCharge = _personInCharge;\n\n    //  \n    milkHistory[_tankId].push(MilkHistory({\n        personInCharge: _personInCharge,\n        qualityReportCID: _qualityReportCID,\n        status: milkTanks[_tankId].status,\n        timestamp: block.timestamp\n    }));\n\n    //  Emit Event \n    emit MilkQualityUpdated(\n        _tankId, \n        oldQualityReportCID, \n        _qualityReportCID, \n        oldPersonInCharge, \n        _personInCharge, \n        milkTanks[_tankId].status\n    );\n\n    //  Emit Event \n    emit MilkQualityVerified(_tankId, milkTanks[_tankId].status, _qualityReportCID);\n}\n\n    //   ()\n   function getMilkTank(bytes32 _tankId) public view returns (MilkTankWithHistory memory) {\n    require(milkTanks[_tankId].farmer != address(0), \"Error: Tank ID does not exist\");\n\n    return MilkTankWithHistory({\n        tankId: milkTanks[_tankId].tankId,\n        farmer: milkTanks[_tankId].farmer,\n        factoryId: milkTanks[_tankId].factoryId,\n        personInCharge: milkTanks[_tankId].personInCharge,\n        status: milkTanks[_tankId].status,\n        qualityReportCID: milkTanks[_tankId].qualityReportCID,\n        qrCodeCID: milkTanks[_tankId].qrCodeCID,\n        history: milkHistory[_tankId] //  \n    });\n}\n\n\n    //   ()\n    function getMilkTanksByFarmer(address _farmer) public view returns (bytes32[] memory, MilkHistory[][] memory) {\n        uint count = 0;\n        for (uint i = 0; i < tankIds.length; i++) {\n            if (milkTanks[tankIds[i]].farmer == _farmer) {\n                count++;\n            }\n        }\n\n        bytes32[] memory farmerTanks = new bytes32[](count);\n        MilkHistory[][] memory histories = new MilkHistory[][](count);\n        uint index = 0;\n        for (uint i = 0; i < tankIds.length; i++) {\n            if (milkTanks[tankIds[i]].farmer == _farmer) {\n                farmerTanks[index] = tankIds[i];\n                histories[index] = milkHistory[tankIds[i]]; //  \n                index++;\n            }\n        }\n        return (farmerTanks, histories);\n    }\n\n    //   ()\n    function getMilkTanksByFactory(bytes32 _factoryId) public view returns (bytes32[] memory, MilkHistory[][] memory) {\n        uint count = 0;\n        for (uint i = 0; i < tankIds.length; i++) {\n            if (milkTanks[tankIds[i]].factoryId == _factoryId) {\n                count++;\n            }\n        }\n\n        bytes32[] memory factoryTanks = new bytes32[](count);\n        MilkHistory[][] memory histories = new MilkHistory[][](count);\n        uint index = 0;\n        for (uint i = 0; i < tankIds.length; i++) {\n            if (milkTanks[tankIds[i]].factoryId == _factoryId) {\n                factoryTanks[index] = tankIds[i];\n                histories[index] = milkHistory[tankIds[i]]; //  \n                index++;\n            }\n        }\n        return (factoryTanks, histories);\n    }\n\n}",
  "sourcePath": "/home/kmitl-ivo/Documents/Back/Backend/solidity/contracts/RawMilk.sol",
  "compiler": {
    "name": "solc",
    "version": "0.8.19+commit.7dd6d404.Emscripten.clang"
  },
  "schemaVersion": "3.4.16",
  "updatedAt": "2025-03-17T17:40:07.320Z",
  "networkType": "ethereum",
  "devdoc": {
    "kind": "dev",
    "methods": {},
    "version": 1
  },
  "userdoc": {
    "kind": "user",
    "methods": {},
    "version": 1
  }
}