{
  "contractName": "RawMilk",
  "abi": [
    {
      "inputs": [
        {
          "internalType": "address",
          "name": "_userRegistry",
          "type": "address"
        }
      ],
      "stateMutability": "nonpayable",
      "type": "constructor"
    },
    {
      "anonymous": false,
      "inputs": [
        {
          "indexed": false,
          "internalType": "string",
          "name": "message",
          "type": "string"
        },
        {
          "indexed": false,
          "internalType": "address",
          "name": "sender",
          "type": "address"
        },
        {
          "indexed": false,
          "internalType": "bytes32",
          "name": "tankId",
          "type": "bytes32"
        },
        {
          "indexed": false,
          "internalType": "bytes32",
          "name": "factoryId",
          "type": "bytes32"
        }
      ],
      "name": "DebugLog",
      "type": "event"
    },
    {
      "anonymous": false,
      "inputs": [
        {
          "indexed": true,
          "internalType": "bytes32",
          "name": "tankId",
          "type": "bytes32"
        },
        {
          "indexed": false,
          "internalType": "string",
          "name": "oldQualityReportCID",
          "type": "string"
        },
        {
          "indexed": false,
          "internalType": "string",
          "name": "newQualityReportCID",
          "type": "string"
        },
        {
          "indexed": false,
          "internalType": "string",
          "name": "oldPersonInCharge",
          "type": "string"
        },
        {
          "indexed": false,
          "internalType": "string",
          "name": "newPersonInCharge",
          "type": "string"
        },
        {
          "indexed": false,
          "internalType": "enum RawMilk.MilkStatus",
          "name": "status",
          "type": "uint8"
        }
      ],
      "name": "MilkQualityUpdated",
      "type": "event"
    },
    {
      "anonymous": false,
      "inputs": [
        {
          "indexed": true,
          "internalType": "bytes32",
          "name": "tankId",
          "type": "bytes32"
        },
        {
          "indexed": false,
          "internalType": "enum RawMilk.MilkStatus",
          "name": "status",
          "type": "uint8"
        },
        {
          "indexed": false,
          "internalType": "string",
          "name": "qualityReportCID",
          "type": "string"
        }
      ],
      "name": "MilkQualityVerified",
      "type": "event"
    },
    {
      "anonymous": false,
      "inputs": [
        {
          "indexed": true,
          "internalType": "bytes32",
          "name": "tankId",
          "type": "bytes32"
        },
        {
          "indexed": true,
          "internalType": "address",
          "name": "farmer",
          "type": "address"
        },
        {
          "indexed": true,
          "internalType": "bytes32",
          "name": "factoryId",
          "type": "bytes32"
        },
        {
          "indexed": false,
          "internalType": "string",
          "name": "personInCharge",
          "type": "string"
        },
        {
          "indexed": false,
          "internalType": "string",
          "name": "qualityReportCID",
          "type": "string"
        },
        {
          "indexed": false,
          "internalType": "enum RawMilk.MilkStatus",
          "name": "status",
          "type": "uint8"
        }
      ],
      "name": "MilkTankCreated",
      "type": "event"
    },
    {
      "anonymous": false,
      "inputs": [
        {
          "indexed": true,
          "internalType": "bytes32",
          "name": "tankId",
          "type": "bytes32"
        }
      ],
      "name": "MilkTankUpdated",
      "type": "event"
    },
    {
      "inputs": [
        {
          "internalType": "bytes32",
          "name": "",
          "type": "bytes32"
        },
        {
          "internalType": "uint256",
          "name": "",
          "type": "uint256"
        }
      ],
      "name": "milkHistory",
      "outputs": [
        {
          "internalType": "string",
          "name": "personInCharge",
          "type": "string"
        },
        {
          "internalType": "string",
          "name": "qualityReportCID",
          "type": "string"
        },
        {
          "internalType": "enum RawMilk.MilkStatus",
          "name": "status",
          "type": "uint8"
        },
        {
          "internalType": "uint256",
          "name": "timestamp",
          "type": "uint256"
        }
      ],
      "stateMutability": "view",
      "type": "function",
      "constant": true
    },
    {
      "inputs": [
        {
          "internalType": "bytes32",
          "name": "",
          "type": "bytes32"
        }
      ],
      "name": "milkTanks",
      "outputs": [
        {
          "internalType": "bytes32",
          "name": "tankId",
          "type": "bytes32"
        },
        {
          "internalType": "address",
          "name": "farmer",
          "type": "address"
        },
        {
          "internalType": "bytes32",
          "name": "factoryId",
          "type": "bytes32"
        },
        {
          "internalType": "string",
          "name": "personInCharge",
          "type": "string"
        },
        {
          "internalType": "enum RawMilk.MilkStatus",
          "name": "status",
          "type": "uint8"
        },
        {
          "internalType": "string",
          "name": "qualityReportCID",
          "type": "string"
        },
        {
          "internalType": "string",
          "name": "qrCodeCID",
          "type": "string"
        }
      ],
      "stateMutability": "view",
      "type": "function",
      "constant": true
    },
    {
      "inputs": [
        {
          "internalType": "uint256",
          "name": "",
          "type": "uint256"
        }
      ],
      "name": "tankIds",
      "outputs": [
        {
          "internalType": "bytes32",
          "name": "",
          "type": "bytes32"
        }
      ],
      "stateMutability": "view",
      "type": "function",
      "constant": true
    },
    {
      "inputs": [],
      "name": "userRegistry",
      "outputs": [
        {
          "internalType": "contract UserRegistry",
          "name": "",
          "type": "address"
        }
      ],
      "stateMutability": "view",
      "type": "function",
      "constant": true
    },
    {
      "inputs": [
        {
          "internalType": "bytes32",
          "name": "_tankId",
          "type": "bytes32"
        },
        {
          "internalType": "bytes32",
          "name": "_factoryId",
          "type": "bytes32"
        },
        {
          "internalType": "string",
          "name": "_personInCharge",
          "type": "string"
        },
        {
          "internalType": "string",
          "name": "_qualityReportCID",
          "type": "string"
        },
        {
          "internalType": "string",
          "name": "_qrCodeCID",
          "type": "string"
        }
      ],
      "name": "createMilkTank",
      "outputs": [],
      "stateMutability": "nonpayable",
      "type": "function"
    },
    {
      "inputs": [
        {
          "internalType": "bytes32",
          "name": "_tankId",
          "type": "bytes32"
        },
        {
          "internalType": "bool",
          "name": "_approved",
          "type": "bool"
        },
        {
          "internalType": "string",
          "name": "_qualityReportCID",
          "type": "string"
        },
        {
          "internalType": "string",
          "name": "_personInCharge",
          "type": "string"
        }
      ],
      "name": "verifyMilkQuality",
      "outputs": [],
      "stateMutability": "nonpayable",
      "type": "function"
    },
    {
      "inputs": [
        {
          "internalType": "bytes32",
          "name": "_tankId",
          "type": "bytes32"
        }
      ],
      "name": "getMilkTank",
      "outputs": [
        {
          "components": [
            {
              "internalType": "bytes32",
              "name": "tankId",
              "type": "bytes32"
            },
            {
              "internalType": "address",
              "name": "farmer",
              "type": "address"
            },
            {
              "internalType": "bytes32",
              "name": "factoryId",
              "type": "bytes32"
            },
            {
              "internalType": "string",
              "name": "personInCharge",
              "type": "string"
            },
            {
              "internalType": "enum RawMilk.MilkStatus",
              "name": "status",
              "type": "uint8"
            },
            {
              "internalType": "string",
              "name": "qualityReportCID",
              "type": "string"
            },
            {
              "internalType": "string",
              "name": "qrCodeCID",
              "type": "string"
            },
            {
              "components": [
                {
                  "internalType": "string",
                  "name": "personInCharge",
                  "type": "string"
                },
                {
                  "internalType": "string",
                  "name": "qualityReportCID",
                  "type": "string"
                },
                {
                  "internalType": "enum RawMilk.MilkStatus",
                  "name": "status",
                  "type": "uint8"
                },
                {
                  "internalType": "uint256",
                  "name": "timestamp",
                  "type": "uint256"
                }
              ],
              "internalType": "struct RawMilk.MilkHistory[]",
              "name": "history",
              "type": "tuple[]"
            }
          ],
          "internalType": "struct RawMilk.MilkTankWithHistory",
          "name": "",
          "type": "tuple"
        }
      ],
      "stateMutability": "view",
      "type": "function",
      "constant": true
    },
    {
      "inputs": [
        {
          "internalType": "address",
          "name": "_farmer",
          "type": "address"
        }
      ],
      "name": "getMilkTanksByFarmer",
      "outputs": [
        {
          "internalType": "bytes32[]",
          "name": "",
          "type": "bytes32[]"
        },
        {
          "components": [
            {
              "internalType": "string",
              "name": "personInCharge",
              "type": "string"
            },
            {
              "internalType": "string",
              "name": "qualityReportCID",
              "type": "string"
            },
            {
              "internalType": "enum RawMilk.MilkStatus",
              "name": "status",
              "type": "uint8"
            },
            {
              "internalType": "uint256",
              "name": "timestamp",
              "type": "uint256"
            }
          ],
          "internalType": "struct RawMilk.MilkHistory[][]",
          "name": "",
          "type": "tuple[][]"
        }
      ],
      "stateMutability": "view",
      "type": "function",
      "constant": true
    },
    {
      "inputs": [
        {
          "internalType": "bytes32",
          "name": "_factoryId",
          "type": "bytes32"
        }
      ],
      "name": "getMilkTanksByFactory",
      "outputs": [
        {
          "internalType": "bytes32[]",
          "name": "",
          "type": "bytes32[]"
        },
        {
          "components": [
            {
              "internalType": "string",
              "name": "personInCharge",
              "type": "string"
            },
            {
              "internalType": "string",
              "name": "qualityReportCID",
              "type": "string"
            },
            {
              "internalType": "enum RawMilk.MilkStatus",
              "name": "status",
              "type": "uint8"
            },
            {
              "internalType": "uint256",
              "name": "timestamp",
              "type": "uint256"
            }
          ],
          "internalType": "struct RawMilk.MilkHistory[][]",
          "name": "",
          "type": "tuple[][]"
        }
      ],
      "stateMutability": "view",
      "type": "function",
      "constant": true
    }
  ],
  "bytecode": "0x60806040523480156200001157600080fd5b50604051620033c4380380620033c48339818101604052810190620000379190620000e8565b806000806101000a81548173ffffffffffffffffffffffffffffffffffffffff021916908373ffffffffffffffffffffffffffffffffffffffff160217905550506200011a565b600080fd5b600073ffffffffffffffffffffffffffffffffffffffff82169050919050565b6000620000b08262000083565b9050919050565b620000c281620000a3565b8114620000ce57600080fd5b50565b600081519050620000e281620000b7565b92915050565b6000602082840312156200010157620001006200007e565b5b60006200011184828501620000d1565b91505092915050565b61329a806200012a6000396000f3fe608060405234801561001057600080fd5b50600436106100935760003560e01c80635c7460d6116100665780635c7460d61461014557806370d61bba14610163578063813946ea14610194578063a34a7fb9146101c7578063ef993abd146101fd57610093565b806349b088ac146100985780634b89e5f6146100c95780635862213c146100f95780635a03541f14610115575b600080fd5b6100b260048036038101906100ad9190611ea6565b610219565b6040516100c092919061229f565b60405180910390f35b6100e360048036038101906100de9190612302565b6105f4565b6040516100f0919061233e565b60405180910390f35b610113600480360381019061010e919061248e565b610618565b005b61012f600480360381019061012a9190611ea6565b610ad0565b60405161013c9190612663565b60405180910390f35b61014d611016565b60405161015a91906126e4565b60405180910390f35b61017d6004803603810190610178919061272b565b61103a565b60405161018b92919061229f565b60405180910390f35b6101ae60048036038101906101a99190612758565b6114ad565b6040516101be9493929190612800565b60405180910390f35b6101e160048036038101906101dc9190611ea6565b611617565b6040516101f49796959493929190612862565b60405180910390f35b6102176004803603810190610212919061291e565b61181e565b005b6060806000805b60038054905081101561028a57846001600060038481548110610246576102456129bd565b5b90600052602060002001548152602001908152602001600020600201540361027757818061027390612a1b565b9250505b808061028290612a1b565b915050610220565b5060008167ffffffffffffffff8111156102a7576102a6612363565b5b6040519080825280602002602001820160405280156102d55781602001602082028036833780820191505090505b50905060008267ffffffffffffffff8111156102f4576102f3612363565b5b60405190808252806020026020018201604052801561032757816020015b60608152602001906001900390816103125790505b5090506000805b6003805490508110156105e457876001600060038481548110610354576103536129bd565b5b9060005260206000200154815260200190815260200160002060020154036105d1576003818154811061038a576103896129bd565b5b90600052602060002001548483815181106103a8576103a76129bd565b5b60200260200101818152505060026000600383815481106103cc576103cb6129bd565b5b90600052602060002001548152602001908152602001600020805480602002602001604051908101604052809291908181526020016000905b828210156105a0578382906000526020600020906004020160405180608001604052908160008201805461043890612a92565b80601f016020809104026020016040519081016040528092919081815260200182805461046490612a92565b80156104b15780601f10610486576101008083540402835291602001916104b1565b820191906000526020600020905b81548152906001019060200180831161049457829003601f168201915b505050505081526020016001820180546104ca90612a92565b80601f01602080910402602001604051908101604052809291908181526020018280546104f690612a92565b80156105435780601f1061051857610100808354040283529160200191610543565b820191906000526020600020905b81548152906001019060200180831161052657829003601f168201915b505050505081526020016002820160009054906101000a900460ff16600281111561057157610570612079565b5b600281111561058357610582612079565b5b815260200160038201548152505081526020019060010190610405565b505050508383815181106105b7576105b66129bd565b5b602002602001018190525081806105cd90612a1b565b9250505b80806105dc90612a1b565b91505061032e565b5082829550955050505050915091565b6003818154811061060457600080fd5b906000526020600020016000915090505481565b7f86f4cac90217ee94700ecefa745858b174e706d4f9d2d6243e768f2e9de8516c3360008060405161064c93929190612b57565b60405180910390a16001600481111561066857610667612079565b5b60008054906101000a900473ffffffffffffffffffffffffffffffffffffffff1673ffffffffffffffffffffffffffffffffffffffff166327820851336040518263ffffffff1660e01b81526004016106c19190612ba1565b602060405180830381865afa1580156106de573d6000803e3d6000fd5b505050506040513d601f19601f820116820180604052508101906107029190612be1565b600481111561071457610713612079565b5b14610754576040517f08c379a000000000000000000000000000000000000000000000000000000000815260040161074b90612c80565b60405180910390fd5b7f86f4cac90217ee94700ecefa745858b174e706d4f9d2d6243e768f2e9de8516c33868660405161078793929190612cec565b60405180910390a1600073ffffffffffffffffffffffffffffffffffffffff166001600087815260200190815260200160002060010160009054906101000a900473ffffffffffffffffffffffffffffffffffffffff1673ffffffffffffffffffffffffffffffffffffffff1614610834576040517f08c379a000000000000000000000000000000000000000000000000000000000815260040161082b90612d82565b60405180910390fd5b6040518060e001604052808681526020013373ffffffffffffffffffffffffffffffffffffffff1681526020018581526020018481526020016000600281111561088157610880612079565b5b815260200183815260200182815250600160008781526020019081526020016000206000820151816000015560208201518160010160006101000a81548173ffffffffffffffffffffffffffffffffffffffff021916908373ffffffffffffffffffffffffffffffffffffffff1602179055506040820151816002015560608201518160030190816109139190612f44565b5060808201518160040160006101000a81548160ff0219169083600281111561093f5761093e612079565b5b021790555060a08201518160050190816109599190612f44565b5060c082015181600601908161096f9190612f44565b509050506003859080600181540180825580915050600190039060005260206000200160009091909190915055600260008681526020019081526020016000206040518060800160405280858152602001848152602001600060028111156109da576109d9612079565b5b81526020014281525090806001815401808255809150506001900390600052602060002090600402016000909190919091506000820151816000019081610a219190612f44565b506020820151816001019081610a379190612f44565b5060408201518160020160006101000a81548160ff02191690836002811115610a6357610a62612079565b5b0217905550606082015181600301555050833373ffffffffffffffffffffffffffffffffffffffff16867f0412e476b8c12bf5775d0ab8bb60f9d773ac47a29447b7b972f92c1e8e81099486866000604051610ac193929190613016565b60405180910390a45050505050565b610ad8611de9565b600073ffffffffffffffffffffffffffffffffffffffff166001600084815260200190815260200160002060010160009054906101000a900473ffffffffffffffffffffffffffffffffffffffff1673ffffffffffffffffffffffffffffffffffffffff1603610b7d576040517f08c379a0000000000000000000000000000000000000000000000000000000008152600401610b74906130a7565b60405180910390fd5b604051806101000160405280600160008581526020019081526020016000206000015481526020016001600085815260200190815260200160002060010160009054906101000a900473ffffffffffffffffffffffffffffffffffffffff1673ffffffffffffffffffffffffffffffffffffffff16815260200160016000858152602001908152602001600020600201548152602001600160008581526020019081526020016000206003018054610c3490612a92565b80601f0160208091040260200160405190810160405280929190818152602001828054610c6090612a92565b8015610cad5780601f10610c8257610100808354040283529160200191610cad565b820191906000526020600020905b815481529060010190602001808311610c9057829003601f168201915b505050505081526020016001600085815260200190815260200160002060040160009054906101000a900460ff166002811115610ced57610cec612079565b5b8152602001600160008581526020019081526020016000206005018054610d1390612a92565b80601f0160208091040260200160405190810160405280929190818152602001828054610d3f90612a92565b8015610d8c5780601f10610d6157610100808354040283529160200191610d8c565b820191906000526020600020905b815481529060010190602001808311610d6f57829003601f168201915b50505050508152602001600160008581526020019081526020016000206006018054610db790612a92565b80601f0160208091040260200160405190810160405280929190818152602001828054610de390612a92565b8015610e305780601f10610e0557610100808354040283529160200191610e30565b820191906000526020600020905b815481529060010190602001808311610e1357829003601f168201915b5050505050815260200160026000858152602001908152602001600020805480602002602001604051908101604052809291908181526020016000905b828210156110085783829060005260206000209060040201604051806080016040529081600082018054610ea090612a92565b80601f0160208091040260200160405190810160405280929190818152602001828054610ecc90612a92565b8015610f195780601f10610eee57610100808354040283529160200191610f19565b820191906000526020600020905b815481529060010190602001808311610efc57829003601f168201915b50505050508152602001600182018054610f3290612a92565b80601f0160208091040260200160405190810160405280929190818152602001828054610f5e90612a92565b8015610fab5780601f10610f8057610100808354040283529160200191610fab565b820191906000526020600020905b815481529060010190602001808311610f8e57829003601f168201915b505050505081526020016002820160009054906101000a900460ff166002811115610fd957610fd8612079565b5b6002811115610feb57610fea612079565b5b815260200160038201548152505081526020019060010190610e6d565b505050508152509050919050565b60008054906101000a900473ffffffffffffffffffffffffffffffffffffffff1681565b6060806000805b6003805490508110156110f7578473ffffffffffffffffffffffffffffffffffffffff16600160006003848154811061107d5761107c6129bd565b5b9060005260206000200154815260200190815260200160002060010160009054906101000a900473ffffffffffffffffffffffffffffffffffffffff1673ffffffffffffffffffffffffffffffffffffffff16036110e45781806110e090612a1b565b9250505b80806110ef90612a1b565b915050611041565b5060008167ffffffffffffffff81111561111457611113612363565b5b6040519080825280602002602001820160405280156111425781602001602082028036833780820191505090505b50905060008267ffffffffffffffff81111561116157611160612363565b5b60405190808252806020026020018201604052801561119457816020015b606081526020019060019003908161117f5790505b5090506000805b60038054905081101561149d578773ffffffffffffffffffffffffffffffffffffffff1660016000600384815481106111d7576111d66129bd565b5b9060005260206000200154815260200190815260200160002060010160009054906101000a900473ffffffffffffffffffffffffffffffffffffffff1673ffffffffffffffffffffffffffffffffffffffff160361148a5760038181548110611243576112426129bd565b5b9060005260206000200154848381518110611261576112606129bd565b5b6020026020010181815250506002600060038381548110611285576112846129bd565b5b90600052602060002001548152602001908152602001600020805480602002602001604051908101604052809291908181526020016000905b8282101561145957838290600052602060002090600402016040518060800160405290816000820180546112f190612a92565b80601f016020809104026020016040519081016040528092919081815260200182805461131d90612a92565b801561136a5780601f1061133f5761010080835404028352916020019161136a565b820191906000526020600020905b81548152906001019060200180831161134d57829003601f168201915b5050505050815260200160018201805461138390612a92565b80601f01602080910402602001604051908101604052809291908181526020018280546113af90612a92565b80156113fc5780601f106113d1576101008083540402835291602001916113fc565b820191906000526020600020905b8154815290600101906020018083116113df57829003601f168201915b505050505081526020016002820160009054906101000a900460ff16600281111561142a57611429612079565b5b600281111561143c5761143b612079565b5b8152602001600382015481525050815260200190600101906112be565b505050508383815181106114705761146f6129bd565b5b6020026020010181905250818061148690612a1b565b9250505b808061149590612a1b565b91505061119b565b5082829550955050505050915091565b600260205281600052604060002081815481106114c957600080fd5b9060005260206000209060040201600091509150508060000180546114ed90612a92565b80601f016020809104026020016040519081016040528092919081815260200182805461151990612a92565b80156115665780601f1061153b57610100808354040283529160200191611566565b820191906000526020600020905b81548152906001019060200180831161154957829003601f168201915b50505050509080600101805461157b90612a92565b80601f01602080910402602001604051908101604052809291908181526020018280546115a790612a92565b80156115f45780601f106115c9576101008083540402835291602001916115f4565b820191906000526020600020905b8154815290600101906020018083116115d757829003601f168201915b5050505050908060020160009054906101000a900460ff16908060030154905084565b60016020528060005260406000206000915090508060000154908060010160009054906101000a900473ffffffffffffffffffffffffffffffffffffffff169080600201549080600301805461166c90612a92565b80601f016020809104026020016040519081016040528092919081815260200182805461169890612a92565b80156116e55780601f106116ba576101008083540402835291602001916116e5565b820191906000526020600020905b8154815290600101906020018083116116c857829003601f168201915b5050505050908060040160009054906101000a900460ff169080600501805461170d90612a92565b80601f016020809104026020016040519081016040528092919081815260200182805461173990612a92565b80156117865780601f1061175b57610100808354040283529160200191611786565b820191906000526020600020905b81548152906001019060200180831161176957829003601f168201915b50505050509080600601805461179b90612a92565b80601f01602080910402602001604051908101604052809291908181526020018280546117c790612a92565b80156118145780601f106117e957610100808354040283529160200191611814565b820191906000526020600020905b8154815290600101906020018083116117f757829003601f168201915b5050505050905087565b6002600481111561183257611831612079565b5b60008054906101000a900473ffffffffffffffffffffffffffffffffffffffff1673ffffffffffffffffffffffffffffffffffffffff166327820851336040518263ffffffff1660e01b815260040161188b9190612ba1565b602060405180830381865afa1580156118a8573d6000803e3d6000fd5b505050506040513d601f19601f820116820180604052508101906118cc9190612be1565b60048111156118de576118dd612079565b5b1461191e576040517f08c379a000000000000000000000000000000000000000000000000000000000815260040161191590613139565b60405180910390fd5b600073ffffffffffffffffffffffffffffffffffffffff166001600086815260200190815260200160002060010160009054906101000a900473ffffffffffffffffffffffffffffffffffffffff1673ffffffffffffffffffffffffffffffffffffffff16036119c3576040517f08c379a00000000000000000000000000000000000000000000000000000000081526004016119ba906130a7565b60405180910390fd5b600060028111156119d7576119d6612079565b5b6001600086815260200190815260200160002060040160009054906101000a900460ff166002811115611a0d57611a0c612079565b5b14611a4d576040517f08c379a0000000000000000000000000000000000000000000000000000000008152600401611a44906131a5565b60405180910390fd5b6000600160008681526020019081526020016000206003018054611a7090612a92565b80601f0160208091040260200160405190810160405280929190818152602001828054611a9c90612a92565b8015611ae95780601f10611abe57610100808354040283529160200191611ae9565b820191906000526020600020905b815481529060010190602001808311611acc57829003601f168201915b505050505090506000600160008781526020019081526020016000206005018054611b1390612a92565b80601f0160208091040260200160405190810160405280929190818152602001828054611b3f90612a92565b8015611b8c5780601f10611b6157610100808354040283529160200191611b8c565b820191906000526020600020905b815481529060010190602001808311611b6f57829003601f168201915b5050505050905084611b9f576002611ba2565b60015b6001600088815260200190815260200160002060040160006101000a81548160ff02191690836002811115611bda57611bd9612079565b5b021790555083600160008881526020019081526020016000206005019081611c029190612f44565b5082600160008881526020019081526020016000206003019081611c269190612f44565b50600260008781526020019081526020016000206040518060800160405280858152602001868152602001600160008a815260200190815260200160002060040160009054906101000a900460ff166002811115611c8757611c86612079565b5b81526020014281525090806001815401808255809150506001900390600052602060002090600402016000909190919091506000820151816000019081611cce9190612f44565b506020820151816001019081611ce49190612f44565b5060408201518160020160006101000a81548160ff02191690836002811115611d1057611d0f612079565b5b0217905550606082015181600301555050857f148e5b78379121774b21414b3e0437c5bb8ec94f5772180c4b541a5f2d5ff8b482868587600160008d815260200190815260200160002060040160009054906101000a900460ff16604051611d7c9594939291906131c5565b60405180910390a2857ff8e56d2671d841b96def7d6bcc2753dd3030266f946afb9fbe2849d106e3ade76001600089815260200190815260200160002060040160009054906101000a900460ff1686604051611dd9929190613234565b60405180910390a2505050505050565b60405180610100016040528060008019168152602001600073ffffffffffffffffffffffffffffffffffffffff168152602001600080191681526020016060815260200160006002811115611e4157611e40612079565b5b81526020016060815260200160608152602001606081525090565b6000604051905090565b600080fd5b600080fd5b6000819050919050565b611e8381611e70565b8114611e8e57600080fd5b50565b600081359050611ea081611e7a565b92915050565b600060208284031215611ebc57611ebb611e66565b5b6000611eca84828501611e91565b91505092915050565b600081519050919050565b600082825260208201905092915050565b6000819050602082019050919050565b611f0881611e70565b82525050565b6000611f1a8383611eff565b60208301905092915050565b6000602082019050919050565b6000611f3e82611ed3565b611f488185611ede565b9350611f5383611eef565b8060005b83811015611f84578151611f6b8882611f0e565b9750611f7683611f26565b925050600181019050611f57565b5085935050505092915050565b600081519050919050565b600082825260208201905092915050565b6000819050602082019050919050565b600081519050919050565b600082825260208201905092915050565b6000819050602082019050919050565b600081519050919050565b600082825260208201905092915050565b60005b83811015612023578082015181840152602081019050612008565b60008484015250505050565b6000601f19601f8301169050919050565b600061204b82611fe9565b6120558185611ff4565b9350612065818560208601612005565b61206e8161202f565b840191505092915050565b7f4e487b7100000000000000000000000000000000000000000000000000000000600052602160045260246000fd5b600381106120b9576120b8612079565b5b50565b60008190506120ca826120a8565b919050565b60006120da826120bc565b9050919050565b6120ea816120cf565b82525050565b6000819050919050565b612103816120f0565b82525050565b600060808301600083015184820360008601526121268282612040565b915050602083015184820360208601526121408282612040565b915050604083015161215560408601826120e1565b50606083015161216860608601826120fa565b508091505092915050565b600061217f8383612109565b905092915050565b6000602082019050919050565b600061219f82611fbd565b6121a98185611fc8565b9350836020820285016121bb85611fd9565b8060005b858110156121f757848403895281516121d88582612173565b94506121e383612187565b925060208a019950506001810190506121bf565b50829750879550505050505092915050565b60006122158383612194565b905092915050565b6000602082019050919050565b600061223582611f91565b61223f8185611f9c565b93508360208202850161225185611fad565b8060005b8581101561228d578484038952815161226e8582612209565b94506122798361221d565b925060208a01995050600181019050612255565b50829750879550505050505092915050565b600060408201905081810360008301526122b98185611f33565b905081810360208301526122cd818461222a565b90509392505050565b6122df816120f0565b81146122ea57600080fd5b50565b6000813590506122fc816122d6565b92915050565b60006020828403121561231857612317611e66565b5b6000612326848285016122ed565b91505092915050565b61233881611e70565b82525050565b6000602082019050612353600083018461232f565b92915050565b600080fd5b600080fd5b7f4e487b7100000000000000000000000000000000000000000000000000000000600052604160045260246000fd5b61239b8261202f565b810181811067ffffffffffffffff821117156123ba576123b9612363565b5b80604052505050565b60006123cd611e5c565b90506123d98282612392565b919050565b600067ffffffffffffffff8211156123f9576123f8612363565b5b6124028261202f565b9050602081019050919050565b82818337600083830152505050565b600061243161242c846123de565b6123c3565b90508281526020810184848401111561244d5761244c61235e565b5b61245884828561240f565b509392505050565b600082601f83011261247557612474612359565b5b813561248584826020860161241e565b91505092915050565b600080600080600060a086880312156124aa576124a9611e66565b5b60006124b888828901611e91565b95505060206124c988828901611e91565b945050604086013567ffffffffffffffff8111156124ea576124e9611e6b565b5b6124f688828901612460565b935050606086013567ffffffffffffffff81111561251757612516611e6b565b5b61252388828901612460565b925050608086013567ffffffffffffffff81111561254457612543611e6b565b5b61255088828901612460565b9150509295509295909350565b600073ffffffffffffffffffffffffffffffffffffffff82169050919050565b60006125888261255d565b9050919050565b6125988161257d565b82525050565b6000610100830160008301516125b76000860182611eff565b5060208301516125ca602086018261258f565b5060408301516125dd6040860182611eff565b50606083015184820360608601526125f58282612040565b915050608083015161260a60808601826120e1565b5060a083015184820360a08601526126228282612040565b91505060c083015184820360c086015261263c8282612040565b91505060e083015184820360e08601526126568282612194565b9150508091505092915050565b6000602082019050818103600083015261267d818461259e565b905092915050565b6000819050919050565b60006126aa6126a56126a08461255d565b612685565b61255d565b9050919050565b60006126bc8261268f565b9050919050565b60006126ce826126b1565b9050919050565b6126de816126c3565b82525050565b60006020820190506126f960008301846126d5565b92915050565b6127088161257d565b811461271357600080fd5b50565b600081359050612725816126ff565b92915050565b60006020828403121561274157612740611e66565b5b600061274f84828501612716565b91505092915050565b6000806040838503121561276f5761276e611e66565b5b600061277d85828601611e91565b925050602061278e858286016122ed565b9150509250929050565b600082825260208201905092915050565b60006127b482611fe9565b6127be8185612798565b93506127ce818560208601612005565b6127d78161202f565b840191505092915050565b6127eb816120cf565b82525050565b6127fa816120f0565b82525050565b6000608082019050818103600083015261281a81876127a9565b9050818103602083015261282e81866127a9565b905061283d60408301856127e2565b61284a60608301846127f1565b95945050505050565b61285c8161257d565b82525050565b600060e082019050612877600083018a61232f565b6128846020830189612853565b612891604083018861232f565b81810360608301526128a381876127a9565b90506128b260808301866127e2565b81810360a08301526128c481856127a9565b905081810360c08301526128d881846127a9565b905098975050505050505050565b60008115159050919050565b6128fb816128e6565b811461290657600080fd5b50565b600081359050612918816128f2565b92915050565b6000806000806080858703121561293857612937611e66565b5b600061294687828801611e91565b945050602061295787828801612909565b935050604085013567ffffffffffffffff81111561297857612977611e6b565b5b61298487828801612460565b925050606085013567ffffffffffffffff8111156129a5576129a4611e6b565b5b6129b187828801612460565b91505092959194509250565b7f4e487b7100000000000000000000000000000000000000000000000000000000600052603260045260246000fd5b7f4e487b7100000000000000000000000000000000000000000000000000000000600052601160045260246000fd5b6000612a26826120f0565b91507fffffffffffffffffffffffffffffffffffffffffffffffffffffffffffffffff8203612a5857612a576129ec565b5b600182019050919050565b7f4e487b7100000000000000000000000000000000000000000000000000000000600052602260045260246000fd5b60006002820490506001821680612aaa57607f821691505b602082108103612abd57612abc612a63565b5b50919050565b7f436865636b696e67205573657220526f6c650000000000000000000000000000600082015250565b6000612af9601283612798565b9150612b0482612ac3565b602082019050919050565b6000819050919050565b60008160001b9050919050565b6000612b41612b3c612b3784612b0f565b612b19565b611e70565b9050919050565b612b5181612b26565b82525050565b60006080820190508181036000830152612b7081612aec565b9050612b7f6020830186612853565b612b8c6040830185612b48565b612b996060830184612b48565b949350505050565b6000602082019050612bb66000830184612853565b92915050565b60058110612bc957600080fd5b50565b600081519050612bdb81612bbc565b92915050565b600060208284031215612bf757612bf6611e66565b5b6000612c0584828501612bcc565b91505092915050565b7f4163636573732064656e6965643a204f6e6c79206661726d65727320616c6c6f60008201527f7765640000000000000000000000000000000000000000000000000000000000602082015250565b6000612c6a602383612798565b9150612c7582612c0e565b604082019050919050565b60006020820190508181036000830152612c9981612c5d565b9050919050565b7f4372656174696e67204d696c6b2054616e6b0000000000000000000000000000600082015250565b6000612cd6601283612798565b9150612ce182612ca0565b602082019050919050565b60006080820190508181036000830152612d0581612cc9565b9050612d146020830186612853565b612d21604083018561232f565b612d2e606083018461232f565b949350505050565b7f4572726f723a2054616e6b20494420616c726561647920657869737473000000600082015250565b6000612d6c601d83612798565b9150612d7782612d36565b602082019050919050565b60006020820190508181036000830152612d9b81612d5f565b9050919050565b60008190508160005260206000209050919050565b60006020601f8301049050919050565b600082821b905092915050565b600060088302612e047fffffffffffffffffffffffffffffffffffffffffffffffffffffffffffffffff82612dc7565b612e0e8683612dc7565b95508019841693508086168417925050509392505050565b6000612e41612e3c612e37846120f0565b612685565b6120f0565b9050919050565b6000819050919050565b612e5b83612e26565b612e6f612e6782612e48565b848454612dd4565b825550505050565b600090565b612e84612e77565b612e8f818484612e52565b505050565b5b81811015612eb357612ea8600082612e7c565b600181019050612e95565b5050565b601f821115612ef857612ec981612da2565b612ed284612db7565b81016020851015612ee1578190505b612ef5612eed85612db7565b830182612e94565b50505b505050565b600082821c905092915050565b6000612f1b60001984600802612efd565b1980831691505092915050565b6000612f348383612f0a565b9150826002028217905092915050565b612f4d82611fe9565b67ffffffffffffffff811115612f6657612f65612363565b5b612f708254612a92565b612f7b828285612eb7565b600060209050601f831160018114612fae5760008415612f9c578287015190505b612fa68582612f28565b86555061300e565b601f198416612fbc86612da2565b60005b82811015612fe457848901518255600182019150602085019450602081019050612fbf565b868310156130015784890151612ffd601f891682612f0a565b8355505b6001600288020188555050505b505050505050565b6000606082019050818103600083015261303081866127a9565b9050818103602083015261304481856127a9565b905061305360408301846127e2565b949350505050565b7f4572726f723a2054616e6b20494420646f6573206e6f74206578697374000000600082015250565b6000613091601d83612798565b915061309c8261305b565b602082019050919050565b600060208201905081810360008301526130c081613084565b9050919050565b7f4163636573732064656e6965643a204f6e6c7920666163746f7269657320616c60008201527f6c6f776564000000000000000000000000000000000000000000000000000000602082015250565b6000613123602583612798565b915061312e826130c7565b604082019050919050565b6000602082019050818103600083015261315281613116565b9050919050565b7f4572726f723a204d696c6b20616c726561647920766572696669656400000000600082015250565b600061318f601c83612798565b915061319a82613159565b602082019050919050565b600060208201905081810360008301526131be81613182565b9050919050565b600060a08201905081810360008301526131df81886127a9565b905081810360208301526131f381876127a9565b9050818103604083015261320781866127a9565b9050818103606083015261321b81856127a9565b905061322a60808301846127e2565b9695505050505050565b600060408201905061324960008301856127e2565b818103602083015261325b81846127a9565b9050939250505056fea2646970667358221220771324577768e93782022b4538f343571144ee003d866105f415879164be0c8564736f6c63430008130033",
  "immutableReferences": {},
  "source": "// SPDX-License-Identifier: MIT\npragma solidity ^0.8.19;\n\nimport \"./UserRegistry.sol\";  \n\ncontract RawMilk {\n    enum MilkStatus { Pending, Approved, Rejected }\n\n    struct MilkTank {\n        bytes32 tankId;\n        address farmer;\n        bytes32 factoryId; //   bytes32  FactoryID  String\n        string personInCharge;\n        MilkStatus status;\n        string qualityReportCID;\n        string qrCodeCID;\n    }\n\n    struct MilkHistory {\n        string personInCharge; // \n        string qualityReportCID;\n        MilkStatus status;\n        uint256 timestamp; // \n    }\n\n    struct MilkTankWithHistory {\n    bytes32 tankId;\n    address farmer;\n    bytes32 factoryId;\n    string personInCharge;\n    MilkStatus status;\n    string qualityReportCID;\n    string qrCodeCID;\n    MilkHistory[] history; //   Array\n}\n\n\n    UserRegistry public userRegistry;\n    mapping(bytes32 => MilkTank) public milkTanks; \n    mapping(bytes32 => MilkHistory[]) public milkHistory; //   mapping \n    bytes32[] public tankIds; \n\n    //  Event \n    event MilkTankCreated(\n        bytes32 indexed tankId, \n        address indexed farmer, \n        bytes32 indexed factoryId, \n        string personInCharge, \n        string qualityReportCID,\n        MilkStatus status //   status \n    );\n\n    //  Event \n    event MilkTankUpdated(bytes32 indexed tankId);\n\n    //  Event \n    event MilkQualityUpdated(\n        bytes32 indexed tankId,\n        string oldQualityReportCID,\n        string newQualityReportCID,\n        string oldPersonInCharge,\n        string newPersonInCharge,\n        MilkStatus status\n    );\n\n    //  Event \n    event MilkQualityVerified(\n        bytes32 indexed tankId,\n        MilkStatus status,\n        string qualityReportCID\n    );\n\n    event DebugLog(string message, address sender, bytes32 tankId, bytes32 factoryId);\n\n    modifier onlyFarmer() {\n        emit DebugLog(\"Checking User Role\", msg.sender, 0x0, 0x0);\n        require(userRegistry.getUserRole(msg.sender) == UserRegistry.UserRole.Farmer, \"Access denied: Only farmers allowed\");\n        _;\n    }\n\n    modifier onlyFactory() {\n        require(userRegistry.getUserRole(msg.sender) == UserRegistry.UserRole.Factory, \"Access denied: Only factories allowed\");\n        _;\n    }\n\n    constructor(address _userRegistry) {\n        userRegistry = UserRegistry(_userRegistry);\n    }\n\n\n\n    //  \nfunction createMilkTank(\n    bytes32 _tankId,\n    bytes32 _factoryId, \n    string memory _personInCharge,\n    string memory _qualityReportCID,\n    string memory _qrCodeCID\n) public onlyFarmer {\n    emit DebugLog(\"Creating Milk Tank\", msg.sender, _tankId, _factoryId);\n\n    require(milkTanks[_tankId].farmer == address(0), \"Error: Tank ID already exists\");\n\n    //  \n    milkTanks[_tankId] = MilkTank({\n        tankId: _tankId,\n        farmer: msg.sender,\n        factoryId: _factoryId,\n        personInCharge: _personInCharge,\n        status: MilkStatus.Pending,\n        qualityReportCID: _qualityReportCID,\n        qrCodeCID: _qrCodeCID\n    });\n\n    //  \n    tankIds.push(_tankId);\n\n    //  \n    milkHistory[_tankId].push(MilkHistory({\n        personInCharge: _personInCharge,\n        qualityReportCID: _qualityReportCID,\n        status: MilkStatus.Pending,\n        timestamp: block.timestamp\n    }));\n\n    //  Emit Event \n    emit MilkTankCreated(_tankId, msg.sender, _factoryId, _personInCharge, _qualityReportCID, MilkStatus.Pending);\n}\n\n//  \nfunction verifyMilkQuality(\n    bytes32 _tankId, \n    bool _approved, \n    string memory _qualityReportCID,\n    string memory _personInCharge\n) public onlyFactory {\n    require(milkTanks[_tankId].farmer != address(0), \"Error: Tank ID does not exist\");\n    require(milkTanks[_tankId].status == MilkStatus.Pending, \"Error: Milk already verified\");\n\n    //  \n    string memory oldPersonInCharge = milkTanks[_tankId].personInCharge;\n    string memory oldQualityReportCID = milkTanks[_tankId].qualityReportCID;\n\n    //  \n    milkTanks[_tankId].status = _approved ? MilkStatus.Approved : MilkStatus.Rejected;\n    milkTanks[_tankId].qualityReportCID = _qualityReportCID;\n    milkTanks[_tankId].personInCharge = _personInCharge;\n\n    //  \n    milkHistory[_tankId].push(MilkHistory({\n        personInCharge: _personInCharge,\n        qualityReportCID: _qualityReportCID,\n        status: milkTanks[_tankId].status,\n        timestamp: block.timestamp\n    }));\n\n    //  Emit Event \n    emit MilkQualityUpdated(\n        _tankId, \n        oldQualityReportCID, \n        _qualityReportCID, \n        oldPersonInCharge, \n        _personInCharge, \n        milkTanks[_tankId].status\n    );\n\n    //  Emit Event \n    emit MilkQualityVerified(_tankId, milkTanks[_tankId].status, _qualityReportCID);\n}\n\n    //   ()\n   function getMilkTank(bytes32 _tankId) public view returns (MilkTankWithHistory memory) {\n    require(milkTanks[_tankId].farmer != address(0), \"Error: Tank ID does not exist\");\n\n    return MilkTankWithHistory({\n        tankId: milkTanks[_tankId].tankId,\n        farmer: milkTanks[_tankId].farmer,\n        factoryId: milkTanks[_tankId].factoryId,\n        personInCharge: milkTanks[_tankId].personInCharge,\n        status: milkTanks[_tankId].status,\n        qualityReportCID: milkTanks[_tankId].qualityReportCID,\n        qrCodeCID: milkTanks[_tankId].qrCodeCID,\n        history: milkHistory[_tankId] //  \n    });\n}\n\n\n    //   ()\n    function getMilkTanksByFarmer(address _farmer) public view returns (bytes32[] memory, MilkHistory[][] memory) {\n        uint count = 0;\n        for (uint i = 0; i < tankIds.length; i++) {\n            if (milkTanks[tankIds[i]].farmer == _farmer) {\n                count++;\n            }\n        }\n\n        bytes32[] memory farmerTanks = new bytes32[](count);\n        MilkHistory[][] memory histories = new MilkHistory[][](count);\n        uint index = 0;\n        for (uint i = 0; i < tankIds.length; i++) {\n            if (milkTanks[tankIds[i]].farmer == _farmer) {\n                farmerTanks[index] = tankIds[i];\n                histories[index] = milkHistory[tankIds[i]]; //  \n                index++;\n            }\n        }\n        return (farmerTanks, histories);\n    }\n\n    //   ()\n    function getMilkTanksByFactory(bytes32 _factoryId) public view returns (bytes32[] memory, MilkHistory[][] memory) {\n        uint count = 0;\n        for (uint i = 0; i < tankIds.length; i++) {\n            if (milkTanks[tankIds[i]].factoryId == _factoryId) {\n                count++;\n            }\n        }\n\n        bytes32[] memory factoryTanks = new bytes32[](count);\n        MilkHistory[][] memory histories = new MilkHistory[][](count);\n        uint index = 0;\n        for (uint i = 0; i < tankIds.length; i++) {\n            if (milkTanks[tankIds[i]].factoryId == _factoryId) {\n                factoryTanks[index] = tankIds[i];\n                histories[index] = milkHistory[tankIds[i]]; //  \n                index++;\n            }\n        }\n        return (factoryTanks, histories);\n    }\n\n}",
  "sourcePath": "/home/apiwat/Documents/Backend/Backend/solidity/contracts/RawMilk.sol",
  "compiler": {
    "name": "solc",
    "version": "0.8.19+commit.7dd6d404.Emscripten.clang"
  },
  "schemaVersion": "3.4.16",
  "updatedAt": "2025-03-13T04:43:58.367Z",
  "networkType": "ethereum",
  "devdoc": {
    "kind": "dev",
    "methods": {},
    "version": 1
  },
  "userdoc": {
    "kind": "user",
    "methods": {},
    "version": 1
  }
}