{
  "contractName": "RawMilk",
  "abi": [
    {
      "inputs": [
        {
          "internalType": "address",
          "name": "_userRegistry",
          "type": "address"
        }
      ],
      "stateMutability": "nonpayable",
      "type": "constructor"
    },
    {
      "anonymous": false,
      "inputs": [
        {
          "indexed": false,
          "internalType": "string",
          "name": "message",
          "type": "string"
        },
        {
          "indexed": false,
          "internalType": "address",
          "name": "sender",
          "type": "address"
        },
        {
          "indexed": false,
          "internalType": "bytes32",
          "name": "tankId",
          "type": "bytes32"
        },
        {
          "indexed": false,
          "internalType": "bytes32",
          "name": "factoryId",
          "type": "bytes32"
        }
      ],
      "name": "DebugLog",
      "type": "event"
    },
    {
      "anonymous": false,
      "inputs": [
        {
          "indexed": true,
          "internalType": "bytes32",
          "name": "tankId",
          "type": "bytes32"
        },
        {
          "indexed": false,
          "internalType": "enum RawMilk.MilkStatus",
          "name": "status",
          "type": "uint8"
        },
        {
          "indexed": false,
          "internalType": "string",
          "name": "qualityReportCID",
          "type": "string"
        }
      ],
      "name": "MilkQualityVerified",
      "type": "event"
    },
    {
      "anonymous": false,
      "inputs": [
        {
          "indexed": true,
          "internalType": "bytes32",
          "name": "tankId",
          "type": "bytes32"
        },
        {
          "indexed": true,
          "internalType": "address",
          "name": "farmer",
          "type": "address"
        },
        {
          "indexed": true,
          "internalType": "bytes32",
          "name": "factoryId",
          "type": "bytes32"
        },
        {
          "indexed": false,
          "internalType": "string",
          "name": "personInCharge",
          "type": "string"
        },
        {
          "indexed": false,
          "internalType": "string",
          "name": "qualityReportCID",
          "type": "string"
        }
      ],
      "name": "MilkTankCreated",
      "type": "event"
    },
    {
      "anonymous": false,
      "inputs": [
        {
          "indexed": true,
          "internalType": "bytes32",
          "name": "tankId",
          "type": "bytes32"
        }
      ],
      "name": "MilkTankUpdated",
      "type": "event"
    },
    {
      "inputs": [
        {
          "internalType": "bytes32",
          "name": "",
          "type": "bytes32"
        }
      ],
      "name": "milkTanks",
      "outputs": [
        {
          "internalType": "bytes32",
          "name": "tankId",
          "type": "bytes32"
        },
        {
          "internalType": "address",
          "name": "farmer",
          "type": "address"
        },
        {
          "internalType": "bytes32",
          "name": "factoryId",
          "type": "bytes32"
        },
        {
          "internalType": "string",
          "name": "personInCharge",
          "type": "string"
        },
        {
          "internalType": "enum RawMilk.MilkStatus",
          "name": "status",
          "type": "uint8"
        },
        {
          "internalType": "string",
          "name": "qualityReportCID",
          "type": "string"
        },
        {
          "internalType": "string",
          "name": "qrCodeCID",
          "type": "string"
        }
      ],
      "stateMutability": "view",
      "type": "function",
      "constant": true
    },
    {
      "inputs": [
        {
          "internalType": "uint256",
          "name": "",
          "type": "uint256"
        }
      ],
      "name": "tankIds",
      "outputs": [
        {
          "internalType": "bytes32",
          "name": "",
          "type": "bytes32"
        }
      ],
      "stateMutability": "view",
      "type": "function",
      "constant": true
    },
    {
      "inputs": [],
      "name": "userRegistry",
      "outputs": [
        {
          "internalType": "contract UserRegistry",
          "name": "",
          "type": "address"
        }
      ],
      "stateMutability": "view",
      "type": "function",
      "constant": true
    },
    {
      "inputs": [
        {
          "internalType": "bytes32",
          "name": "_tankId",
          "type": "bytes32"
        },
        {
          "internalType": "bytes32",
          "name": "_factoryId",
          "type": "bytes32"
        },
        {
          "internalType": "string",
          "name": "_personInCharge",
          "type": "string"
        },
        {
          "internalType": "string",
          "name": "_qualityReportCID",
          "type": "string"
        },
        {
          "internalType": "string",
          "name": "_qrCodeCID",
          "type": "string"
        }
      ],
      "name": "createMilkTank",
      "outputs": [],
      "stateMutability": "nonpayable",
      "type": "function"
    },
    {
      "inputs": [
        {
          "internalType": "bytes32",
          "name": "_tankId",
          "type": "bytes32"
        },
        {
          "internalType": "string",
          "name": "_qrCodeCID",
          "type": "string"
        }
      ],
      "name": "updateMilkTank",
      "outputs": [],
      "stateMutability": "nonpayable",
      "type": "function"
    },
    {
      "inputs": [
        {
          "internalType": "bytes32",
          "name": "_tankId",
          "type": "bytes32"
        },
        {
          "internalType": "bool",
          "name": "_approved",
          "type": "bool"
        },
        {
          "internalType": "string",
          "name": "_qualityReportCID",
          "type": "string"
        }
      ],
      "name": "verifyMilkQuality",
      "outputs": [],
      "stateMutability": "nonpayable",
      "type": "function"
    },
    {
      "inputs": [
        {
          "internalType": "bytes32",
          "name": "_tankId",
          "type": "bytes32"
        }
      ],
      "name": "getMilkTank",
      "outputs": [
        {
          "internalType": "bytes32",
          "name": "",
          "type": "bytes32"
        },
        {
          "internalType": "address",
          "name": "",
          "type": "address"
        },
        {
          "internalType": "bytes32",
          "name": "",
          "type": "bytes32"
        },
        {
          "internalType": "string",
          "name": "",
          "type": "string"
        },
        {
          "internalType": "enum RawMilk.MilkStatus",
          "name": "",
          "type": "uint8"
        },
        {
          "internalType": "string",
          "name": "",
          "type": "string"
        },
        {
          "internalType": "string",
          "name": "",
          "type": "string"
        }
      ],
      "stateMutability": "view",
      "type": "function",
      "constant": true
    },
    {
      "inputs": [
        {
          "internalType": "address",
          "name": "_farmer",
          "type": "address"
        }
      ],
      "name": "getMilkTanksByFarmer",
      "outputs": [
        {
          "internalType": "bytes32[]",
          "name": "",
          "type": "bytes32[]"
        }
      ],
      "stateMutability": "view",
      "type": "function",
      "constant": true
    },
    {
      "inputs": [
        {
          "internalType": "bytes32",
          "name": "_factoryId",
          "type": "bytes32"
        }
      ],
      "name": "getMilkTanksByFactory",
      "outputs": [
        {
          "internalType": "bytes32[]",
          "name": "",
          "type": "bytes32[]"
        }
      ],
      "stateMutability": "view",
      "type": "function",
      "constant": true
    }
  ],
  "bytecode": "0x60806040523480156200001157600080fd5b50604051620026c1380380620026c18339818101604052810190620000379190620000e8565b806000806101000a81548173ffffffffffffffffffffffffffffffffffffffff021916908373ffffffffffffffffffffffffffffffffffffffff160217905550506200011a565b600080fd5b600073ffffffffffffffffffffffffffffffffffffffff82169050919050565b6000620000b08262000083565b9050919050565b620000c281620000a3565b8114620000ce57600080fd5b50565b600081519050620000e281620000b7565b92915050565b6000602082840312156200010157620001006200007e565b5b60006200011184828501620000d1565b91505092915050565b612597806200012a6000396000f3fe608060405234801561001057600080fd5b50600436106100935760003560e01c80635c7460d6116100665780635c7460d61461014a57806370d61bba14610168578063a34a7fb914610198578063eec34719146101ce578063ef5d4f37146101ea57610093565b806349b088ac146100985780634b89e5f6146100c85780635862213c146100f85780635a03541f14610114575b600080fd5b6100b260048036038101906100ad91906114f9565b610206565b6040516100bf91906115e4565b60405180910390f35b6100e260048036038101906100dd919061163c565b61037c565b6040516100ef9190611678565b60405180910390f35b610112600480360381019061010d91906117d9565b6103a0565b005b61012e600480360381019061012991906114f9565b61077d565b60405161014197969594939291906119df565b60405180910390f35b610152610ab6565b60405161015f9190611ac2565b60405180910390f35b610182600480360381019061017d9190611b09565b610ada565b60405161018f91906115e4565b60405180910390f35b6101b260048036038101906101ad91906114f9565b610ce8565b6040516101c597969594939291906119df565b60405180910390f35b6101e860048036038101906101e39190611b6e565b610eef565b005b61020460048036038101906101ff9190611bdd565b6111f0565b005b60606000805b6002805490508110156102765783600160006002848154811061023257610231611c39565b5b90600052602060002001548152602001908152602001600020600201540361026357818061025f90611c97565b9250505b808061026e90611c97565b91505061020c565b5060008167ffffffffffffffff811115610293576102926116ae565b5b6040519080825280602002602001820160405280156102c15781602001602082028036833780820191505090505b5090506000805b600280549050811015610370578560016000600284815481106102ee576102ed611c39565b5b90600052602060002001548152602001908152602001600020600201540361035d576002818154811061032457610323611c39565b5b906000526020600020015483838151811061034257610341611c39565b5b602002602001018181525050818061035990611c97565b9250505b808061036890611c97565b9150506102c8565b50819350505050919050565b6002818154811061038c57600080fd5b906000526020600020016000915090505481565b7f86f4cac90217ee94700ecefa745858b174e706d4f9d2d6243e768f2e9de8516c336000806040516103d493929190611d73565b60405180910390a1600160048111156103f0576103ef611968565b5b60008054906101000a900473ffffffffffffffffffffffffffffffffffffffff1673ffffffffffffffffffffffffffffffffffffffff166327820851336040518263ffffffff1660e01b81526004016104499190611dbd565b602060405180830381865afa158015610466573d6000803e3d6000fd5b505050506040513d601f19601f8201168201806040525081019061048a9190611dfd565b600481111561049c5761049b611968565b5b146104dc576040517f08c379a00000000000000000000000000000000000000000000000000000000081526004016104d390611e9c565b60405180910390fd5b7f86f4cac90217ee94700ecefa745858b174e706d4f9d2d6243e768f2e9de8516c33868660405161050f93929190611f08565b60405180910390a1600073ffffffffffffffffffffffffffffffffffffffff166001600087815260200190815260200160002060010160009054906101000a900473ffffffffffffffffffffffffffffffffffffffff1673ffffffffffffffffffffffffffffffffffffffff16146105bc576040517f08c379a00000000000000000000000000000000000000000000000000000000081526004016105b390611f9e565b60405180910390fd5b6040518060e001604052808681526020013373ffffffffffffffffffffffffffffffffffffffff1681526020018581526020018481526020016000600281111561060957610608611968565b5b815260200183815260200182815250600160008781526020019081526020016000206000820151816000015560208201518160010160006101000a81548173ffffffffffffffffffffffffffffffffffffffff021916908373ffffffffffffffffffffffffffffffffffffffff16021790555060408201518160020155606082015181600301908161069b91906121c0565b5060808201518160040160006101000a81548160ff021916908360028111156106c7576106c6611968565b5b021790555060a08201518160050190816106e191906121c0565b5060c08201518160060190816106f791906121c0565b509050506002859080600181540180825580915050600190039060005260206000200160009091909190915055833373ffffffffffffffffffffffffffffffffffffffff16867fd2469f8cb85b3922ec520797c7b98587ad997a61cc87c42bf297fddbb478d82c868660405161076e929190612292565b60405180910390a45050505050565b6000806000606060006060806000600160008a81526020019081526020016000206040518060e0016040529081600082015481526020016001820160009054906101000a900473ffffffffffffffffffffffffffffffffffffffff1673ffffffffffffffffffffffffffffffffffffffff1673ffffffffffffffffffffffffffffffffffffffff1681526020016002820154815260200160038201805461082390611fed565b80601f016020809104026020016040519081016040528092919081815260200182805461084f90611fed565b801561089c5780601f106108715761010080835404028352916020019161089c565b820191906000526020600020905b81548152906001019060200180831161087f57829003601f168201915b505050505081526020016004820160009054906101000a900460ff1660028111156108ca576108c9611968565b5b60028111156108dc576108db611968565b5b81526020016005820180546108f090611fed565b80601f016020809104026020016040519081016040528092919081815260200182805461091c90611fed565b80156109695780601f1061093e57610100808354040283529160200191610969565b820191906000526020600020905b81548152906001019060200180831161094c57829003601f168201915b5050505050815260200160068201805461098290611fed565b80601f01602080910402602001604051908101604052809291908181526020018280546109ae90611fed565b80156109fb5780601f106109d0576101008083540402835291602001916109fb565b820191906000526020600020905b8154815290600101906020018083116109de57829003601f168201915b5050505050815250509050600073ffffffffffffffffffffffffffffffffffffffff16816020015173ffffffffffffffffffffffffffffffffffffffff1603610a79576040517f08c379a0000000000000000000000000000000000000000000000000000000008152600401610a7090612315565b60405180910390fd5b806000015181602001518260400151836060015184608001518560a001518660c00151975097509750975097509750975050919395979092949650565b60008054906101000a900473ffffffffffffffffffffffffffffffffffffffff1681565b60606000805b600280549050811015610b96578373ffffffffffffffffffffffffffffffffffffffff166001600060028481548110610b1c57610b1b611c39565b5b9060005260206000200154815260200190815260200160002060010160009054906101000a900473ffffffffffffffffffffffffffffffffffffffff1673ffffffffffffffffffffffffffffffffffffffff1603610b83578180610b7f90611c97565b9250505b8080610b8e90611c97565b915050610ae0565b5060008167ffffffffffffffff811115610bb357610bb26116ae565b5b604051908082528060200260200182016040528015610be15781602001602082028036833780820191505090505b5090506000805b600280549050811015610cdc578573ffffffffffffffffffffffffffffffffffffffff166001600060028481548110610c2457610c23611c39565b5b9060005260206000200154815260200190815260200160002060010160009054906101000a900473ffffffffffffffffffffffffffffffffffffffff1673ffffffffffffffffffffffffffffffffffffffff1603610cc95760028181548110610c9057610c8f611c39565b5b9060005260206000200154838381518110610cae57610cad611c39565b5b6020026020010181815250508180610cc590611c97565b9250505b8080610cd490611c97565b915050610be8565b50819350505050919050565b60016020528060005260406000206000915090508060000154908060010160009054906101000a900473ffffffffffffffffffffffffffffffffffffffff1690806002015490806003018054610d3d90611fed565b80601f0160208091040260200160405190810160405280929190818152602001828054610d6990611fed565b8015610db65780601f10610d8b57610100808354040283529160200191610db6565b820191906000526020600020905b815481529060010190602001808311610d9957829003601f168201915b5050505050908060040160009054906101000a900460ff1690806005018054610dde90611fed565b80601f0160208091040260200160405190810160405280929190818152602001828054610e0a90611fed565b8015610e575780601f10610e2c57610100808354040283529160200191610e57565b820191906000526020600020905b815481529060010190602001808311610e3a57829003601f168201915b505050505090806006018054610e6c90611fed565b80601f0160208091040260200160405190810160405280929190818152602001828054610e9890611fed565b8015610ee55780601f10610eba57610100808354040283529160200191610ee5565b820191906000526020600020905b815481529060010190602001808311610ec857829003601f168201915b5050505050905087565b60026004811115610f0357610f02611968565b5b60008054906101000a900473ffffffffffffffffffffffffffffffffffffffff1673ffffffffffffffffffffffffffffffffffffffff166327820851336040518263ffffffff1660e01b8152600401610f5c9190611dbd565b602060405180830381865afa158015610f79573d6000803e3d6000fd5b505050506040513d601f19601f82011682018060405250810190610f9d9190611dfd565b6004811115610faf57610fae611968565b5b14610fef576040517f08c379a0000000000000000000000000000000000000000000000000000000008152600401610fe6906123a7565b60405180910390fd5b600073ffffffffffffffffffffffffffffffffffffffff166001600085815260200190815260200160002060010160009054906101000a900473ffffffffffffffffffffffffffffffffffffffff1673ffffffffffffffffffffffffffffffffffffffff1603611094576040517f08c379a000000000000000000000000000000000000000000000000000000000815260040161108b90612315565b60405180910390fd5b600060028111156110a8576110a7611968565b5b6001600085815260200190815260200160002060040160009054906101000a900460ff1660028111156110de576110dd611968565b5b1461111e576040517f08c379a000000000000000000000000000000000000000000000000000000000815260040161111590612413565b60405180910390fd5b8161112a57600261112d565b60015b6001600085815260200190815260200160002060040160006101000a81548160ff0219169083600281111561116557611164611968565b5b02179055508060016000858152602001908152602001600020600501908161118d91906121c0565b50827ff8e56d2671d841b96def7d6bcc2753dd3030266f946afb9fbe2849d106e3ade76001600086815260200190815260200160002060040160009054906101000a900460ff16836040516111e3929190612433565b60405180910390a2505050565b7f86f4cac90217ee94700ecefa745858b174e706d4f9d2d6243e768f2e9de8516c3360008060405161122493929190611d73565b60405180910390a1600160048111156112405761123f611968565b5b60008054906101000a900473ffffffffffffffffffffffffffffffffffffffff1673ffffffffffffffffffffffffffffffffffffffff166327820851336040518263ffffffff1660e01b81526004016112999190611dbd565b602060405180830381865afa1580156112b6573d6000803e3d6000fd5b505050506040513d601f19601f820116820180604052508101906112da9190611dfd565b60048111156112ec576112eb611968565b5b1461132c576040517f08c379a000000000000000000000000000000000000000000000000000000000815260040161132390611e9c565b60405180910390fd5b3373ffffffffffffffffffffffffffffffffffffffff166001600084815260200190815260200160002060010160009054906101000a900473ffffffffffffffffffffffffffffffffffffffff1673ffffffffffffffffffffffffffffffffffffffff16146113d0576040517f08c379a00000000000000000000000000000000000000000000000000000000081526004016113c7906124af565b60405180910390fd5b600060028111156113e4576113e3611968565b5b6001600084815260200190815260200160002060040160009054906101000a900460ff16600281111561141a57611419611968565b5b1461145a576040517f08c379a000000000000000000000000000000000000000000000000000000000815260040161145190612541565b60405180910390fd5b8060016000848152602001908152602001600020600601908161147d91906121c0565b50817f8636dbfe7028ccd3c14e5c0a2144b02d540e202d580b12552583f35e25e94ce660405160405180910390a25050565b6000604051905090565b600080fd5b600080fd5b6000819050919050565b6114d6816114c3565b81146114e157600080fd5b50565b6000813590506114f3816114cd565b92915050565b60006020828403121561150f5761150e6114b9565b5b600061151d848285016114e4565b91505092915050565b600081519050919050565b600082825260208201905092915050565b6000819050602082019050919050565b61155b816114c3565b82525050565b600061156d8383611552565b60208301905092915050565b6000602082019050919050565b600061159182611526565b61159b8185611531565b93506115a683611542565b8060005b838110156115d75781516115be8882611561565b97506115c983611579565b9250506001810190506115aa565b5085935050505092915050565b600060208201905081810360008301526115fe8184611586565b905092915050565b6000819050919050565b61161981611606565b811461162457600080fd5b50565b60008135905061163681611610565b92915050565b600060208284031215611652576116516114b9565b5b600061166084828501611627565b91505092915050565b611672816114c3565b82525050565b600060208201905061168d6000830184611669565b92915050565b600080fd5b600080fd5b6000601f19601f8301169050919050565b7f4e487b7100000000000000000000000000000000000000000000000000000000600052604160045260246000fd5b6116e68261169d565b810181811067ffffffffffffffff82111715611705576117046116ae565b5b80604052505050565b60006117186114af565b905061172482826116dd565b919050565b600067ffffffffffffffff821115611744576117436116ae565b5b61174d8261169d565b9050602081019050919050565b82818337600083830152505050565b600061177c61177784611729565b61170e565b90508281526020810184848401111561179857611797611698565b5b6117a384828561175a565b509392505050565b600082601f8301126117c0576117bf611693565b5b81356117d0848260208601611769565b91505092915050565b600080600080600060a086880312156117f5576117f46114b9565b5b6000611803888289016114e4565b9550506020611814888289016114e4565b945050604086013567ffffffffffffffff811115611835576118346114be565b5b611841888289016117ab565b935050606086013567ffffffffffffffff811115611862576118616114be565b5b61186e888289016117ab565b925050608086013567ffffffffffffffff81111561188f5761188e6114be565b5b61189b888289016117ab565b9150509295509295909350565b600073ffffffffffffffffffffffffffffffffffffffff82169050919050565b60006118d3826118a8565b9050919050565b6118e3816118c8565b82525050565b600081519050919050565b600082825260208201905092915050565b60005b83811015611923578082015181840152602081019050611908565b60008484015250505050565b600061193a826118e9565b61194481856118f4565b9350611954818560208601611905565b61195d8161169d565b840191505092915050565b7f4e487b7100000000000000000000000000000000000000000000000000000000600052602160045260246000fd5b600381106119a8576119a7611968565b5b50565b60008190506119b982611997565b919050565b60006119c9826119ab565b9050919050565b6119d9816119be565b82525050565b600060e0820190506119f4600083018a611669565b611a0160208301896118da565b611a0e6040830188611669565b8181036060830152611a20818761192f565b9050611a2f60808301866119d0565b81810360a0830152611a41818561192f565b905081810360c0830152611a55818461192f565b905098975050505050505050565b6000819050919050565b6000611a88611a83611a7e846118a8565b611a63565b6118a8565b9050919050565b6000611a9a82611a6d565b9050919050565b6000611aac82611a8f565b9050919050565b611abc81611aa1565b82525050565b6000602082019050611ad76000830184611ab3565b92915050565b611ae6816118c8565b8114611af157600080fd5b50565b600081359050611b0381611add565b92915050565b600060208284031215611b1f57611b1e6114b9565b5b6000611b2d84828501611af4565b91505092915050565b60008115159050919050565b611b4b81611b36565b8114611b5657600080fd5b50565b600081359050611b6881611b42565b92915050565b600080600060608486031215611b8757611b866114b9565b5b6000611b95868287016114e4565b9350506020611ba686828701611b59565b925050604084013567ffffffffffffffff811115611bc757611bc66114be565b5b611bd3868287016117ab565b9150509250925092565b60008060408385031215611bf457611bf36114b9565b5b6000611c02858286016114e4565b925050602083013567ffffffffffffffff811115611c2357611c226114be565b5b611c2f858286016117ab565b9150509250929050565b7f4e487b7100000000000000000000000000000000000000000000000000000000600052603260045260246000fd5b7f4e487b7100000000000000000000000000000000000000000000000000000000600052601160045260246000fd5b6000611ca282611606565b91507fffffffffffffffffffffffffffffffffffffffffffffffffffffffffffffffff8203611cd457611cd3611c68565b5b600182019050919050565b7f436865636b696e67205573657220526f6c650000000000000000000000000000600082015250565b6000611d156012836118f4565b9150611d2082611cdf565b602082019050919050565b6000819050919050565b60008160001b9050919050565b6000611d5d611d58611d5384611d2b565b611d35565b6114c3565b9050919050565b611d6d81611d42565b82525050565b60006080820190508181036000830152611d8c81611d08565b9050611d9b60208301866118da565b611da86040830185611d64565b611db56060830184611d64565b949350505050565b6000602082019050611dd260008301846118da565b92915050565b60058110611de557600080fd5b50565b600081519050611df781611dd8565b92915050565b600060208284031215611e1357611e126114b9565b5b6000611e2184828501611de8565b91505092915050565b7f4163636573732064656e6965643a204f6e6c79206661726d65727320616c6c6f60008201527f7765640000000000000000000000000000000000000000000000000000000000602082015250565b6000611e866023836118f4565b9150611e9182611e2a565b604082019050919050565b60006020820190508181036000830152611eb581611e79565b9050919050565b7f4372656174696e67204d696c6b2054616e6b0000000000000000000000000000600082015250565b6000611ef26012836118f4565b9150611efd82611ebc565b602082019050919050565b60006080820190508181036000830152611f2181611ee5565b9050611f3060208301866118da565b611f3d6040830185611669565b611f4a6060830184611669565b949350505050565b7f4572726f723a2054616e6b20494420616c726561647920657869737473000000600082015250565b6000611f88601d836118f4565b9150611f9382611f52565b602082019050919050565b60006020820190508181036000830152611fb781611f7b565b9050919050565b7f4e487b7100000000000000000000000000000000000000000000000000000000600052602260045260246000fd5b6000600282049050600182168061200557607f821691505b60208210810361201857612017611fbe565b5b50919050565b60008190508160005260206000209050919050565b60006020601f8301049050919050565b600082821b905092915050565b6000600883026120807fffffffffffffffffffffffffffffffffffffffffffffffffffffffffffffffff82612043565b61208a8683612043565b95508019841693508086168417925050509392505050565b60006120bd6120b86120b384611606565b611a63565b611606565b9050919050565b6000819050919050565b6120d7836120a2565b6120eb6120e3826120c4565b848454612050565b825550505050565b600090565b6121006120f3565b61210b8184846120ce565b505050565b5b8181101561212f576121246000826120f8565b600181019050612111565b5050565b601f821115612174576121458161201e565b61214e84612033565b8101602085101561215d578190505b61217161216985612033565b830182612110565b50505b505050565b600082821c905092915050565b600061219760001984600802612179565b1980831691505092915050565b60006121b08383612186565b9150826002028217905092915050565b6121c9826118e9565b67ffffffffffffffff8111156121e2576121e16116ae565b5b6121ec8254611fed565b6121f7828285612133565b600060209050601f83116001811461222a5760008415612218578287015190505b61222285826121a4565b86555061228a565b601f1984166122388661201e565b60005b828110156122605784890151825560018201915060208501945060208101905061223b565b8683101561227d5784890151612279601f891682612186565b8355505b6001600288020188555050505b505050505050565b600060408201905081810360008301526122ac818561192f565b905081810360208301526122c0818461192f565b90509392505050565b7f4572726f723a2054616e6b20494420646f6573206e6f74206578697374000000600082015250565b60006122ff601d836118f4565b915061230a826122c9565b602082019050919050565b6000602082019050818103600083015261232e816122f2565b9050919050565b7f4163636573732064656e6965643a204f6e6c7920666163746f7269657320616c60008201527f6c6f776564000000000000000000000000000000000000000000000000000000602082015250565b60006123916025836118f4565b915061239c82612335565b604082019050919050565b600060208201905081810360008301526123c081612384565b9050919050565b7f4572726f723a204d696c6b20616c726561647920766572696669656400000000600082015250565b60006123fd601c836118f4565b9150612408826123c7565b602082019050919050565b6000602082019050818103600083015261242c816123f0565b9050919050565b600060408201905061244860008301856119d0565b818103602083015261245a818461192f565b90509392505050565b7f4572726f723a20556e617574686f72697a656400000000000000000000000000600082015250565b60006124996013836118f4565b91506124a482612463565b602082019050919050565b600060208201905081810360008301526124c88161248c565b9050919050565b7f4572726f723a2043616e6e6f742075706461746520617070726f7665642f726560008201527f6a6563746564206d696c6b000000000000000000000000000000000000000000602082015250565b600061252b602b836118f4565b9150612536826124cf565b604082019050919050565b6000602082019050818103600083015261255a8161251e565b905091905056fea2646970667358221220a7a9acd6abe746f7bb493a93260efbb77d88498c18cabd2d768d3b60a10432ed64736f6c63430008130033",
  "immutableReferences": {},
  "source": "// SPDX-License-Identifier: MIT\npragma solidity ^0.8.19;\n\nimport \"./UserRegistry.sol\";  \n\ncontract RawMilk {\n    enum MilkStatus { Pending, Approved, Rejected }\n\n    struct MilkTank {\n        bytes32 tankId;\n        address farmer;\n        bytes32 factoryId; //   bytes32  FactoryID  String\n        string personInCharge;\n        MilkStatus status;\n        string qualityReportCID;\n        string qrCodeCID;\n    }\n\n    UserRegistry public userRegistry;\n    mapping(bytes32 => MilkTank) public milkTanks; \n    bytes32[] public tankIds; \n\n    event MilkTankCreated(\n        bytes32 indexed tankId, \n        address indexed farmer, \n        bytes32 indexed factoryId, //   factoryId  bytes32\n        string personInCharge, \n        string qualityReportCID\n    );\n\n    event MilkTankUpdated(bytes32 indexed tankId);\n    event MilkQualityVerified(bytes32 indexed tankId, MilkStatus status, string qualityReportCID);\n\n    event DebugLog(string message, address sender, bytes32 tankId, bytes32 factoryId);\n\nmodifier onlyFarmer() {\n    emit DebugLog(\"Checking User Role\", msg.sender, 0x0, 0x0);\n    require(userRegistry.getUserRole(msg.sender) == UserRegistry.UserRole.Farmer, \"Access denied: Only farmers allowed\");\n    _;\n}\n\n    modifier onlyFactory() {\n        require(userRegistry.getUserRole(msg.sender) == UserRegistry.UserRole.Factory, \"Access denied: Only factories allowed\");\n        _;\n    }\n\n    constructor(address _userRegistry) {\n        userRegistry = UserRegistry(_userRegistry);\n    }\n\n    function createMilkTank(\n    bytes32 _tankId,\n    bytes32 _factoryId, //   bytes32 \n    string memory _personInCharge,\n    string memory _qualityReportCID,\n    string memory _qrCodeCID\n) public onlyFarmer {\n    emit DebugLog(\"Creating Milk Tank\", msg.sender, _tankId, _factoryId);\n\n    require(milkTanks[_tankId].farmer == address(0), \"Error: Tank ID already exists\");\n\n    milkTanks[_tankId] = MilkTank({\n        tankId: _tankId,\n        farmer: msg.sender,\n        factoryId: _factoryId, //   Factory ID  `bytes32`\n        personInCharge: _personInCharge,\n        status: MilkStatus.Pending,\n        qualityReportCID: _qualityReportCID,\n        qrCodeCID: _qrCodeCID\n    });\n\n    tankIds.push(_tankId);\n    emit MilkTankCreated(_tankId, msg.sender, _factoryId, _personInCharge, _qualityReportCID);\n}\n\n\n    //   QR Code  Quality Report CID\n    function updateMilkTank(\n        bytes32 _tankId,\n        string memory _qrCodeCID\n    ) public onlyFarmer {\n        require(milkTanks[_tankId].farmer == msg.sender, \"Error: Unauthorized\");\n        require(milkTanks[_tankId].status == MilkStatus.Pending, \"Error: Cannot update approved/rejected milk\");\n\n        milkTanks[_tankId].qrCodeCID = _qrCodeCID;\n\n        emit MilkTankUpdated(_tankId);\n    }\n\n    //  \n    function verifyMilkQuality(\n        bytes32 _tankId, \n        bool _approved, \n        string memory _qualityReportCID\n    ) public onlyFactory {\n        require(milkTanks[_tankId].farmer != address(0), \"Error: Tank ID does not exist\");\n        require(milkTanks[_tankId].status == MilkStatus.Pending, \"Error: Milk already verified\");\n\n        milkTanks[_tankId].status = _approved ? MilkStatus.Approved : MilkStatus.Rejected;\n        milkTanks[_tankId].qualityReportCID = _qualityReportCID;\n\n        emit MilkQualityVerified(_tankId, milkTanks[_tankId].status, _qualityReportCID);\n    }\n\n    //  \n    function getMilkTank(bytes32 _tankId) public view returns (\n        bytes32,\n        address,\n        bytes32,\n        string memory,\n        MilkStatus,\n        string memory,\n        string memory\n    ) {\n        MilkTank memory tank = milkTanks[_tankId];\n        require(tank.farmer != address(0), \"Error: Tank ID does not exist\");\n\n        return (\n            tank.tankId,\n            tank.farmer,\n            tank.factoryId, //   FactoryID (bytes32)\n            tank.personInCharge,\n            tank.status,\n            tank.qualityReportCID,\n            tank.qrCodeCID\n        );\n    }\n\n    //  \n    function getMilkTanksByFarmer(address _farmer) public view returns (bytes32[] memory) {\n        uint count = 0;\n        for (uint i = 0; i < tankIds.length; i++) {\n            if (milkTanks[tankIds[i]].farmer == _farmer) {\n                count++;\n            }\n        }\n\n        bytes32[] memory farmerTanks = new bytes32[](count);\n        uint index = 0;\n        for (uint i = 0; i < tankIds.length; i++) {\n            if (milkTanks[tankIds[i]].farmer == _farmer) {\n                farmerTanks[index] = tankIds[i];\n                index++;\n            }\n        }\n        return farmerTanks;\n    }\n\n    //   ( `bytes32`  `address`)\n    function getMilkTanksByFactory(bytes32 _factoryId) public view returns (bytes32[] memory) {\n        uint count = 0;\n        for (uint i = 0; i < tankIds.length; i++) {\n            if (milkTanks[tankIds[i]].factoryId == _factoryId) {\n                count++;\n            }\n        }\n\n        bytes32[] memory factoryTanks = new bytes32[](count);\n        uint index = 0;\n        for (uint i = 0; i < tankIds.length; i++) {\n            if (milkTanks[tankIds[i]].factoryId == _factoryId) {\n                factoryTanks[index] = tankIds[i];\n                index++;\n            }\n        }\n        return factoryTanks;\n    }\n}\n",
  "sourcePath": "/home/kmitl-ivo/Documents/Back/Backend/solidity/contracts/RawMilk.sol",
  "compiler": {
    "name": "solc",
    "version": "0.8.19+commit.7dd6d404.Emscripten.clang"
  },
  "schemaVersion": "3.4.16",
  "updatedAt": "2025-03-06T09:34:41.718Z",
  "networkType": "ethereum",
  "devdoc": {
    "kind": "dev",
    "methods": {},
    "version": 1
  },
  "userdoc": {
    "kind": "user",
    "methods": {},
    "version": 1
  }
}