{
  "contractName": "RawMilkSupplyChain",
  "abi": [
    {
      "inputs": [],
      "stateMutability": "nonpayable",
      "type": "constructor"
    },
    {
      "anonymous": false,
      "inputs": [
        {
          "indexed": true,
          "internalType": "address",
          "name": "farmWallet",
          "type": "address"
        }
      ],
      "name": "FarmRegistered",
      "type": "event"
    },
    {
      "anonymous": false,
      "inputs": [
        {
          "indexed": true,
          "internalType": "bytes32",
          "name": "rawMilkID",
          "type": "bytes32"
        },
        {
          "indexed": true,
          "internalType": "address",
          "name": "farmWallet",
          "type": "address"
        },
        {
          "indexed": false,
          "internalType": "enum RawMilkSupplyChain.MilkStatus",
          "name": "status",
          "type": "uint8"
        },
        {
          "indexed": false,
          "internalType": "string",
          "name": "ipfsCid",
          "type": "string"
        }
      ],
      "name": "RawMilkAdded",
      "type": "event"
    },
    {
      "anonymous": false,
      "inputs": [
        {
          "indexed": true,
          "internalType": "bytes32",
          "name": "rawMilkID",
          "type": "bytes32"
        },
        {
          "indexed": false,
          "internalType": "enum RawMilkSupplyChain.MilkStatus",
          "name": "newStatus",
          "type": "uint8"
        }
      ],
      "name": "RawMilkStatusUpdated",
      "type": "event"
    },
    {
      "inputs": [
        {
          "internalType": "address",
          "name": "",
          "type": "address"
        }
      ],
      "name": "farms",
      "outputs": [
        {
          "internalType": "bool",
          "name": "",
          "type": "bool"
        }
      ],
      "stateMutability": "view",
      "type": "function"
    },
    {
      "inputs": [],
      "name": "owner",
      "outputs": [
        {
          "internalType": "address",
          "name": "",
          "type": "address"
        }
      ],
      "stateMutability": "view",
      "type": "function"
    },
    {
      "inputs": [
        {
          "internalType": "bytes32",
          "name": "",
          "type": "bytes32"
        }
      ],
      "name": "rawMilkRecords",
      "outputs": [
        {
          "internalType": "bytes32",
          "name": "id",
          "type": "bytes32"
        },
        {
          "internalType": "address",
          "name": "farmWallet",
          "type": "address"
        },
        {
          "internalType": "uint256",
          "name": "temperature",
          "type": "uint256"
        },
        {
          "internalType": "uint256",
          "name": "pH",
          "type": "uint256"
        },
        {
          "internalType": "uint256",
          "name": "fat",
          "type": "uint256"
        },
        {
          "internalType": "uint256",
          "name": "protein",
          "type": "uint256"
        },
        {
          "internalType": "string",
          "name": "ipfsCid",
          "type": "string"
        },
        {
          "internalType": "enum RawMilkSupplyChain.MilkStatus",
          "name": "status",
          "type": "uint8"
        },
        {
          "internalType": "uint256",
          "name": "timestamp",
          "type": "uint256"
        }
      ],
      "stateMutability": "view",
      "type": "function"
    },
    {
      "inputs": [
        {
          "internalType": "address",
          "name": "_farmWallet",
          "type": "address"
        }
      ],
      "name": "registerFarm",
      "outputs": [],
      "stateMutability": "nonpayable",
      "type": "function"
    },
    {
      "inputs": [
        {
          "internalType": "bytes32",
          "name": "_rawMilkID",
          "type": "bytes32"
        },
        {
          "internalType": "uint256",
          "name": "_temperature",
          "type": "uint256"
        },
        {
          "internalType": "uint256",
          "name": "_pH",
          "type": "uint256"
        },
        {
          "internalType": "uint256",
          "name": "_fat",
          "type": "uint256"
        },
        {
          "internalType": "uint256",
          "name": "_protein",
          "type": "uint256"
        },
        {
          "internalType": "string",
          "name": "_ipfsCid",
          "type": "string"
        }
      ],
      "name": "addRawMilk",
      "outputs": [],
      "stateMutability": "nonpayable",
      "type": "function"
    },
    {
      "inputs": [
        {
          "internalType": "bytes32",
          "name": "_rawMilkID",
          "type": "bytes32"
        }
      ],
      "name": "getRawMilk",
      "outputs": [
        {
          "internalType": "address",
          "name": "farmWallet",
          "type": "address"
        },
        {
          "internalType": "uint256",
          "name": "temperature",
          "type": "uint256"
        },
        {
          "internalType": "uint256",
          "name": "pH",
          "type": "uint256"
        },
        {
          "internalType": "uint256",
          "name": "fat",
          "type": "uint256"
        },
        {
          "internalType": "uint256",
          "name": "protein",
          "type": "uint256"
        },
        {
          "internalType": "string",
          "name": "ipfsCid",
          "type": "string"
        },
        {
          "internalType": "enum RawMilkSupplyChain.MilkStatus",
          "name": "status",
          "type": "uint8"
        },
        {
          "internalType": "uint256",
          "name": "timestamp",
          "type": "uint256"
        }
      ],
      "stateMutability": "view",
      "type": "function"
    },
    {
      "inputs": [
        {
          "internalType": "bytes32",
          "name": "_rawMilkID",
          "type": "bytes32"
        },
        {
          "internalType": "enum RawMilkSupplyChain.MilkStatus",
          "name": "_newStatus",
          "type": "uint8"
        }
      ],
      "name": "updateRawMilkStatus",
      "outputs": [],
      "stateMutability": "nonpayable",
      "type": "function"
    }
  ],
  "bytecode": "0x608060405234801561001057600080fd5b50336000806101000a81548173ffffffffffffffffffffffffffffffffffffffff021916908373ffffffffffffffffffffffffffffffffffffffff16021790555061193d806100606000396000f3fe608060405234801561001057600080fd5b506004361061007d5760003560e01c8063b0ae68281161005b578063b0ae6828146100ec578063c90b88a714610123578063dbaee0371461013f578063edcd5d17146101775761007d565b80630fd802c814610082578063421adfa01461009e5780638da5cb5b146100ce575b600080fd5b61009c60048036038101906100979190610ddf565b610193565b005b6100b860048036038101906100b39190610ee6565b6105b2565b6040516100c59190610f2e565b60405180910390f35b6100d66105d2565b6040516100e39190610f58565b60405180910390f35b61010660048036038101906101019190610f73565b6105f6565b60405161011a9897969594939291906110a5565b60405180910390f35b61013d6004803603810190610138919061114f565b61083d565b005b61015960048036038101906101549190610f73565b6109ea565b60405161016e9998979695949392919061119e565b60405180910390f35b610191600480360381019061018c9190610ee6565b610aed565b005b600260003373ffffffffffffffffffffffffffffffffffffffff1673ffffffffffffffffffffffffffffffffffffffff16815260200190815260200160002060009054906101000a900460ff1661021f576040517f08c379a0000000000000000000000000000000000000000000000000000000008152600401610216906112a4565b60405180910390fd5b60c8851015801561023257506102588511155b610271576040517f08c379a000000000000000000000000000000000000000000000000000000000815260040161026890611310565b60405180910390fd5b61028a841015801561028557506102a88411155b6102c4576040517f08c379a00000000000000000000000000000000000000000000000000000000081526004016102bb9061137c565b60405180910390fd5b61012c83101580156102d857506101908311155b610317576040517f08c379a000000000000000000000000000000000000000000000000000000000815260040161030e906113e8565b60405180910390fd5b61012c821015801561032b575061015e8211155b61036a576040517f08c379a000000000000000000000000000000000000000000000000000000000815260040161036190611454565b60405180910390fd5b600073ffffffffffffffffffffffffffffffffffffffff166001600088815260200190815260200160002060010160009054906101000a900473ffffffffffffffffffffffffffffffffffffffff1673ffffffffffffffffffffffffffffffffffffffff161461040f576040517f08c379a0000000000000000000000000000000000000000000000000000000008152600401610406906114c0565b60405180910390fd5b6040518061012001604052808781526020013373ffffffffffffffffffffffffffffffffffffffff1681526020018681526020018581526020018481526020018381526020018281526020016000600281111561046f5761046e61102e565b5b815260200142815250600160008881526020019081526020016000206000820151816000015560208201518160010160006101000a81548173ffffffffffffffffffffffffffffffffffffffff021916908373ffffffffffffffffffffffffffffffffffffffff16021790555060408201518160020155606082015181600301556080820151816004015560a0820151816005015560c082015181600601908161051991906116ec565b5060e08201518160070160006101000a81548160ff021916908360028111156105455761054461102e565b5b021790555061010082015181600801559050503373ffffffffffffffffffffffffffffffffffffffff16867f44bf3f1c16b69967a6b0ba8d8030943e8d61dbf76ac4e0d5970c0172e2c99af26000846040516105a29291906117be565b60405180910390a3505050505050565b60026020528060005260406000206000915054906101000a900460ff1681565b60008054906101000a900473ffffffffffffffffffffffffffffffffffffffff1681565b600080600080600060606000806000600160008b815260200190815260200160002060405180610120016040529081600082015481526020016001820160009054906101000a900473ffffffffffffffffffffffffffffffffffffffff1673ffffffffffffffffffffffffffffffffffffffff1673ffffffffffffffffffffffffffffffffffffffff168152602001600282015481526020016003820154815260200160048201548152602001600582015481526020016006820180546106bc9061150f565b80601f01602080910402602001604051908101604052809291908181526020018280546106e89061150f565b80156107355780601f1061070a57610100808354040283529160200191610735565b820191906000526020600020905b81548152906001019060200180831161071857829003601f168201915b505050505081526020016007820160009054906101000a900460ff1660028111156107635761076261102e565b5b60028111156107755761077461102e565b5b81526020016008820154815250509050600073ffffffffffffffffffffffffffffffffffffffff16816020015173ffffffffffffffffffffffffffffffffffffffff16036107f8576040517f08c379a00000000000000000000000000000000000000000000000000000000081526004016107ef9061183a565b60405180910390fd5b80602001518160400151826060015183608001518460a001518560c001518660e001518761010001519850985098509850985098509850985050919395975091939597565b60008054906101000a900473ffffffffffffffffffffffffffffffffffffffff1673ffffffffffffffffffffffffffffffffffffffff163373ffffffffffffffffffffffffffffffffffffffff16146108cb576040517f08c379a00000000000000000000000000000000000000000000000000000000081526004016108c2906118cc565b60405180910390fd5b600073ffffffffffffffffffffffffffffffffffffffff166001600084815260200190815260200160002060010160009054906101000a900473ffffffffffffffffffffffffffffffffffffffff1673ffffffffffffffffffffffffffffffffffffffff1603610970576040517f08c379a00000000000000000000000000000000000000000000000000000000081526004016109679061183a565b60405180910390fd5b806001600084815260200190815260200160002060070160006101000a81548160ff021916908360028111156109a9576109a861102e565b5b0217905550817ff51f46360a6d2d804a8686b98ecb0ca33aeb53a6f3ff77cb0b25091f96f804fd826040516109de91906118ec565b60405180910390a25050565b60016020528060005260406000206000915090508060000154908060010160009054906101000a900473ffffffffffffffffffffffffffffffffffffffff1690806002015490806003015490806004015490806005015490806006018054610a519061150f565b80601f0160208091040260200160405190810160405280929190818152602001828054610a7d9061150f565b8015610aca5780601f10610a9f57610100808354040283529160200191610aca565b820191906000526020600020905b815481529060010190602001808311610aad57829003601f168201915b5050505050908060070160009054906101000a900460ff16908060080154905089565b60008054906101000a900473ffffffffffffffffffffffffffffffffffffffff1673ffffffffffffffffffffffffffffffffffffffff163373ffffffffffffffffffffffffffffffffffffffff1614610b7b576040517f08c379a0000000000000000000000000000000000000000000000000000000008152600401610b72906118cc565b60405180910390fd5b6001600260008373ffffffffffffffffffffffffffffffffffffffff1673ffffffffffffffffffffffffffffffffffffffff16815260200190815260200160002060006101000a81548160ff0219169083151502179055508073ffffffffffffffffffffffffffffffffffffffff167f34deede75423e085ceb61f47c1ddb4466e42dcf614d55b7dbb1df16e64e9d5d460405160405180910390a250565b6000604051905090565b600080fd5b600080fd5b6000819050919050565b610c4081610c2d565b8114610c4b57600080fd5b50565b600081359050610c5d81610c37565b92915050565b6000819050919050565b610c7681610c63565b8114610c8157600080fd5b50565b600081359050610c9381610c6d565b92915050565b600080fd5b600080fd5b6000601f19601f8301169050919050565b7f4e487b7100000000000000000000000000000000000000000000000000000000600052604160045260246000fd5b610cec82610ca3565b810181811067ffffffffffffffff82111715610d0b57610d0a610cb4565b5b80604052505050565b6000610d1e610c19565b9050610d2a8282610ce3565b919050565b600067ffffffffffffffff821115610d4a57610d49610cb4565b5b610d5382610ca3565b9050602081019050919050565b82818337600083830152505050565b6000610d82610d7d84610d2f565b610d14565b905082815260208101848484011115610d9e57610d9d610c9e565b5b610da9848285610d60565b509392505050565b600082601f830112610dc657610dc5610c99565b5b8135610dd6848260208601610d6f565b91505092915050565b60008060008060008060c08789031215610dfc57610dfb610c23565b5b6000610e0a89828a01610c4e565b9650506020610e1b89828a01610c84565b9550506040610e2c89828a01610c84565b9450506060610e3d89828a01610c84565b9350506080610e4e89828a01610c84565b92505060a087013567ffffffffffffffff811115610e6f57610e6e610c28565b5b610e7b89828a01610db1565b9150509295509295509295565b600073ffffffffffffffffffffffffffffffffffffffff82169050919050565b6000610eb382610e88565b9050919050565b610ec381610ea8565b8114610ece57600080fd5b50565b600081359050610ee081610eba565b92915050565b600060208284031215610efc57610efb610c23565b5b6000610f0a84828501610ed1565b91505092915050565b60008115159050919050565b610f2881610f13565b82525050565b6000602082019050610f436000830184610f1f565b92915050565b610f5281610ea8565b82525050565b6000602082019050610f6d6000830184610f49565b92915050565b600060208284031215610f8957610f88610c23565b5b6000610f9784828501610c4e565b91505092915050565b610fa981610c63565b82525050565b600081519050919050565b600082825260208201905092915050565b60005b83811015610fe9578082015181840152602081019050610fce565b60008484015250505050565b600061100082610faf565b61100a8185610fba565b935061101a818560208601610fcb565b61102381610ca3565b840191505092915050565b7f4e487b7100000000000000000000000000000000000000000000000000000000600052602160045260246000fd5b6003811061106e5761106d61102e565b5b50565b600081905061107f8261105d565b919050565b600061108f82611071565b9050919050565b61109f81611084565b82525050565b6000610100820190506110bb600083018b610f49565b6110c8602083018a610fa0565b6110d56040830189610fa0565b6110e26060830188610fa0565b6110ef6080830187610fa0565b81810360a08301526111018186610ff5565b905061111060c0830185611096565b61111d60e0830184610fa0565b9998505050505050505050565b6003811061113757600080fd5b50565b6000813590506111498161112a565b92915050565b6000806040838503121561116657611165610c23565b5b600061117485828601610c4e565b92505060206111858582860161113a565b9150509250929050565b61119881610c2d565b82525050565b6000610120820190506111b4600083018c61118f565b6111c1602083018b610f49565b6111ce604083018a610fa0565b6111db6060830189610fa0565b6111e86080830188610fa0565b6111f560a0830187610fa0565b81810360c08301526112078186610ff5565b905061121660e0830185611096565b611224610100830184610fa0565b9a9950505050505050505050565b7f4f6e6c792072656769737465726564206661726d732063616e2061646420726160008201527f77206d696c6b0000000000000000000000000000000000000000000000000000602082015250565b600061128e602683610fba565b915061129982611232565b604082019050919050565b600060208201905081810360008301526112bd81611281565b9050919050565b7f54656d7065726174757265206f7574206f662072616e67652100000000000000600082015250565b60006112fa601983610fba565b9150611305826112c4565b602082019050919050565b60006020820190508181036000830152611329816112ed565b9050919050565b7f7048206f7574206f662072616e67652100000000000000000000000000000000600082015250565b6000611366601083610fba565b915061137182611330565b602082019050919050565b6000602082019050818103600083015261139581611359565b9050919050565b7f4661742070657263656e74616765206f7574206f662072616e67652100000000600082015250565b60006113d2601c83610fba565b91506113dd8261139c565b602082019050919050565b60006020820190508181036000830152611401816113c5565b9050919050565b7f50726f7465696e2070657263656e74616765206f7574206f662072616e676521600082015250565b600061143e602083610fba565b915061144982611408565b602082019050919050565b6000602082019050818103600083015261146d81611431565b9050919050565b7f4d696c6b20494420616c72656164792065786973747321000000000000000000600082015250565b60006114aa601783610fba565b91506114b582611474565b602082019050919050565b600060208201905081810360008301526114d98161149d565b9050919050565b7f4e487b7100000000000000000000000000000000000000000000000000000000600052602260045260246000fd5b6000600282049050600182168061152757607f821691505b60208210810361153a576115396114e0565b5b50919050565b60008190508160005260206000209050919050565b60006020601f8301049050919050565b600082821b905092915050565b6000600883026115a27fffffffffffffffffffffffffffffffffffffffffffffffffffffffffffffffff82611565565b6115ac8683611565565b95508019841693508086168417925050509392505050565b6000819050919050565b60006115e96115e46115df84610c63565b6115c4565b610c63565b9050919050565b6000819050919050565b611603836115ce565b61161761160f826115f0565b848454611572565b825550505050565b600090565b61162c61161f565b6116378184846115fa565b505050565b5b8181101561165b57611650600082611624565b60018101905061163d565b5050565b601f8211156116a05761167181611540565b61167a84611555565b81016020851015611689578190505b61169d61169585611555565b83018261163c565b50505b505050565b600082821c905092915050565b60006116c3600019846008026116a5565b1980831691505092915050565b60006116dc83836116b2565b9150826002028217905092915050565b6116f582610faf565b67ffffffffffffffff81111561170e5761170d610cb4565b5b611718825461150f565b61172382828561165f565b600060209050601f8311600181146117565760008415611744578287015190505b61174e85826116d0565b8655506117b6565b601f19841661176486611540565b60005b8281101561178c57848901518255600182019150602085019450602081019050611767565b868310156117a957848901516117a5601f8916826116b2565b8355505b6001600288020188555050505b505050505050565b60006040820190506117d36000830185611096565b81810360208301526117e58184610ff5565b90509392505050565b7f4d696c6b207265636f7264206e6f7420666f756e640000000000000000000000600082015250565b6000611824601583610fba565b915061182f826117ee565b602082019050919050565b6000602082019050818103600083015261185381611817565b9050919050565b7f4f6e6c7920636f6e7472616374206f776e65722063616e2063616c6c2074686960008201527f7300000000000000000000000000000000000000000000000000000000000000602082015250565b60006118b6602183610fba565b91506118c18261185a565b604082019050919050565b600060208201905081810360008301526118e5816118a9565b9050919050565b60006020820190506119016000830184611096565b9291505056fea264697066735822122056e726b35b515a50b63ed4f1501403125cbe88b0ce7640cb10ad75514bf3808264736f6c63430008130033",
  "immutableReferences": {},
  "source": "// SPDX-License-Identifier: MIT\npragma solidity ^0.8.19;\n\ncontract RawMilkSupplyChain {\n    address public owner;\n\n    enum MilkStatus { Pending, Approved, Rejected }\n\n    struct RawMilk {\n        bytes32 id;\n        address farmWallet;\n        uint256 temperature;\n        uint256 pH;       //   x100 (6.5  650)\n        uint256 fat;\n        uint256 protein;  //   x100 (3.5  350)\n        string ipfsCid;\n        MilkStatus status;\n        uint256 timestamp;\n    }\n\n    mapping(bytes32 => RawMilk) public rawMilkRecords;\n    mapping(address => bool) public farms;\n\n    event RawMilkAdded(bytes32 indexed rawMilkID, address indexed farmWallet, MilkStatus status, string ipfsCid);\n    event RawMilkStatusUpdated(bytes32 indexed rawMilkID, MilkStatus newStatus);\n\n    modifier onlyOwner() {\n        require(msg.sender == owner, \"Only contract owner can call this\");\n        _;\n    }\n\n    modifier onlyFarm() {\n        require(farms[msg.sender], \"Only registered farms can add raw milk\");\n        _;\n    }\n\n    constructor() {\n        owner = msg.sender;\n    }\n\n    event FarmRegistered(address indexed farmWallet);\n\nfunction registerFarm(address _farmWallet) external onlyOwner {\n    farms[_farmWallet] = true;\n    emit FarmRegistered(_farmWallet);  //   Event\n}\n\n\nfunction addRawMilk(\n    bytes32 _rawMilkID, //   ID \n    uint256 _temperature,\n    uint256 _pH,\n    uint256 _fat,\n    uint256 _protein,\n    string memory _ipfsCid\n) external onlyFarm {\n    require(_temperature >= 200 && _temperature <= 600, \"Temperature out of range!\");\n    require(_pH >= 650 && _pH <= 680, \"pH out of range!\");\n    require(_fat >= 300 && _fat <= 400, \"Fat percentage out of range!\");\n    require(_protein >= 300 && _protein <= 350, \"Protein percentage out of range!\");\n\n    require(rawMilkRecords[_rawMilkID].farmWallet == address(0), \"Milk ID already exists!\"); //   ID \n\n    rawMilkRecords[_rawMilkID] = RawMilk({\n        id: _rawMilkID,\n        farmWallet: msg.sender,\n        temperature: _temperature,\n        pH: _pH,\n        fat: _fat,\n        protein: _protein,\n        ipfsCid: _ipfsCid,\n        status: MilkStatus.Pending,\n        timestamp: block.timestamp\n    });\n\n    emit RawMilkAdded(_rawMilkID, msg.sender, MilkStatus.Pending, _ipfsCid);\n}\n\n    function getRawMilk(bytes32 _rawMilkID) external view returns (\n        address farmWallet,\n        uint256 temperature,\n        uint256 pH,\n        uint256 fat,\n        uint256 protein,\n        string memory ipfsCid,\n        MilkStatus status,\n        uint256 timestamp\n    ) {\n        RawMilk memory milk = rawMilkRecords[_rawMilkID];\n        require(milk.farmWallet != address(0), \"Milk record not found\");\n\n        return (\n            milk.farmWallet,\n            milk.temperature,\n            milk.pH,\n            milk.fat,\n            milk.protein,\n            milk.ipfsCid,\n            milk.status,\n            milk.timestamp\n        );\n    }\n\n    function updateRawMilkStatus(bytes32 _rawMilkID, MilkStatus _newStatus) external onlyOwner {\n        require(rawMilkRecords[_rawMilkID].farmWallet != address(0), \"Milk record not found\");\n\n        rawMilkRecords[_rawMilkID].status = _newStatus;\n\n        emit RawMilkStatusUpdated(_rawMilkID, _newStatus);\n    }\n}\n",
  "sourcePath": "/home/kmitl-ivo/Documents/Back/Backend/solidity/contracts/RawMilk.sol",
  "compiler": {
    "name": "solc",
    "version": "0.8.19+commit.7dd6d404.Emscripten.clang"
  },
  "schemaVersion": "3.4.16",
  "updatedAt": "2025-03-01T06:14:28.092Z",
  "devdoc": {
    "kind": "dev",
    "methods": {},
    "version": 1
  },
  "userdoc": {
    "kind": "user",
    "methods": {},
    "version": 1
  }
}