{
  "contractName": "Tracking",
  "abi": [
    {
      "inputs": [
        {
          "internalType": "address",
          "name": "_userRegistry",
          "type": "address"
        },
        {
          "internalType": "address",
          "name": "_productLotContract",
          "type": "address"
        }
      ],
      "stateMutability": "nonpayable",
      "type": "constructor"
    },
    {
      "anonymous": false,
      "inputs": [
        {
          "indexed": true,
          "internalType": "bytes32",
          "name": "trackingId",
          "type": "bytes32"
        },
        {
          "indexed": true,
          "internalType": "address",
          "name": "logisticsProvider",
          "type": "address"
        },
        {
          "indexed": false,
          "internalType": "enum Tracking.LogisticsCheckType",
          "name": "checkType",
          "type": "uint8"
        }
      ],
      "name": "LogisticsUpdated",
      "type": "event"
    },
    {
      "anonymous": false,
      "inputs": [
        {
          "indexed": true,
          "internalType": "bytes32",
          "name": "trackingId",
          "type": "bytes32"
        },
        {
          "indexed": true,
          "internalType": "address",
          "name": "retailer",
          "type": "address"
        },
        {
          "indexed": false,
          "internalType": "string",
          "name": "qualityCID",
          "type": "string"
        }
      ],
      "name": "RetailerReceived",
      "type": "event"
    },
    {
      "anonymous": false,
      "inputs": [
        {
          "indexed": true,
          "internalType": "bytes32",
          "name": "trackingId",
          "type": "bytes32"
        },
        {
          "indexed": true,
          "internalType": "bytes32",
          "name": "productLotId",
          "type": "bytes32"
        },
        {
          "indexed": true,
          "internalType": "address",
          "name": "retailer",
          "type": "address"
        },
        {
          "indexed": false,
          "internalType": "string",
          "name": "qrCodeCID",
          "type": "string"
        }
      ],
      "name": "TrackingCreated",
      "type": "event"
    },
    {
      "inputs": [
        {
          "internalType": "bytes32",
          "name": "",
          "type": "bytes32"
        },
        {
          "internalType": "uint256",
          "name": "",
          "type": "uint256"
        }
      ],
      "name": "logisticsCheckpoints",
      "outputs": [
        {
          "internalType": "bytes32",
          "name": "trackingId",
          "type": "bytes32"
        },
        {
          "internalType": "address",
          "name": "logisticsProvider",
          "type": "address"
        },
        {
          "internalType": "uint256",
          "name": "pickupTime",
          "type": "uint256"
        },
        {
          "internalType": "uint256",
          "name": "deliveryTime",
          "type": "uint256"
        },
        {
          "internalType": "uint256",
          "name": "quantity",
          "type": "uint256"
        },
        {
          "internalType": "int256",
          "name": "temperature",
          "type": "int256"
        },
        {
          "internalType": "string",
          "name": "personInCharge",
          "type": "string"
        },
        {
          "internalType": "enum Tracking.LogisticsCheckType",
          "name": "checkType",
          "type": "uint8"
        }
      ],
      "stateMutability": "view",
      "type": "function",
      "constant": true
    },
    {
      "inputs": [],
      "name": "productLotContract",
      "outputs": [
        {
          "internalType": "contract ProductLot",
          "name": "",
          "type": "address"
        }
      ],
      "stateMutability": "view",
      "type": "function",
      "constant": true
    },
    {
      "inputs": [
        {
          "internalType": "bytes32",
          "name": "",
          "type": "bytes32"
        }
      ],
      "name": "retailerConfirmations",
      "outputs": [
        {
          "internalType": "bytes32",
          "name": "trackingId",
          "type": "bytes32"
        },
        {
          "internalType": "address",
          "name": "retailer",
          "type": "address"
        },
        {
          "internalType": "uint256",
          "name": "receivedTime",
          "type": "uint256"
        },
        {
          "internalType": "string",
          "name": "qualityCID",
          "type": "string"
        },
        {
          "internalType": "string",
          "name": "personInCharge",
          "type": "string"
        }
      ],
      "stateMutability": "view",
      "type": "function",
      "constant": true
    },
    {
      "inputs": [
        {
          "internalType": "address",
          "name": "",
          "type": "address"
        },
        {
          "internalType": "uint256",
          "name": "",
          "type": "uint256"
        }
      ],
      "name": "retailerTracking",
      "outputs": [
        {
          "internalType": "bytes32",
          "name": "",
          "type": "bytes32"
        }
      ],
      "stateMutability": "view",
      "type": "function",
      "constant": true
    },
    {
      "inputs": [
        {
          "internalType": "bytes32",
          "name": "",
          "type": "bytes32"
        }
      ],
      "name": "trackingEvents",
      "outputs": [
        {
          "internalType": "bytes32",
          "name": "trackingId",
          "type": "bytes32"
        },
        {
          "internalType": "bytes32",
          "name": "productLotId",
          "type": "bytes32"
        },
        {
          "internalType": "address",
          "name": "retailer",
          "type": "address"
        },
        {
          "internalType": "string",
          "name": "qrCodeCID",
          "type": "string"
        },
        {
          "internalType": "enum Tracking.TrackingStatus",
          "name": "status",
          "type": "uint8"
        }
      ],
      "stateMutability": "view",
      "type": "function",
      "constant": true
    },
    {
      "inputs": [
        {
          "internalType": "uint256",
          "name": "",
          "type": "uint256"
        }
      ],
      "name": "trackingIds",
      "outputs": [
        {
          "internalType": "bytes32",
          "name": "",
          "type": "bytes32"
        }
      ],
      "stateMutability": "view",
      "type": "function",
      "constant": true
    },
    {
      "inputs": [],
      "name": "userRegistry",
      "outputs": [
        {
          "internalType": "contract UserRegistry",
          "name": "",
          "type": "address"
        }
      ],
      "stateMutability": "view",
      "type": "function",
      "constant": true
    },
    {
      "inputs": [
        {
          "internalType": "bytes32",
          "name": "_trackingId",
          "type": "bytes32"
        },
        {
          "internalType": "bytes32",
          "name": "_productLotId",
          "type": "bytes32"
        },
        {
          "internalType": "address",
          "name": "_retailer",
          "type": "address"
        },
        {
          "internalType": "string",
          "name": "_qrCodeCID",
          "type": "string"
        }
      ],
      "name": "createTrackingEvent",
      "outputs": [],
      "stateMutability": "nonpayable",
      "type": "function"
    },
    {
      "inputs": [
        {
          "internalType": "bytes32",
          "name": "_trackingId",
          "type": "bytes32"
        },
        {
          "internalType": "uint256",
          "name": "_pickupTime",
          "type": "uint256"
        },
        {
          "internalType": "uint256",
          "name": "_deliveryTime",
          "type": "uint256"
        },
        {
          "internalType": "uint256",
          "name": "_quantity",
          "type": "uint256"
        },
        {
          "internalType": "int256",
          "name": "_temperature",
          "type": "int256"
        },
        {
          "internalType": "string",
          "name": "_personInCharge",
          "type": "string"
        },
        {
          "internalType": "enum Tracking.LogisticsCheckType",
          "name": "_checkType",
          "type": "uint8"
        }
      ],
      "name": "updateLogisticsCheckpoint",
      "outputs": [],
      "stateMutability": "nonpayable",
      "type": "function"
    },
    {
      "inputs": [
        {
          "internalType": "bytes32",
          "name": "_trackingId",
          "type": "bytes32"
        },
        {
          "internalType": "string",
          "name": "_qualityCID",
          "type": "string"
        },
        {
          "internalType": "string",
          "name": "_personInCharge",
          "type": "string"
        }
      ],
      "name": "retailerReceiveProduct",
      "outputs": [],
      "stateMutability": "nonpayable",
      "type": "function"
    },
    {
      "inputs": [
        {
          "internalType": "bytes32",
          "name": "_trackingId",
          "type": "bytes32"
        }
      ],
      "name": "getTrackingById",
      "outputs": [
        {
          "components": [
            {
              "internalType": "bytes32",
              "name": "trackingId",
              "type": "bytes32"
            },
            {
              "internalType": "bytes32",
              "name": "productLotId",
              "type": "bytes32"
            },
            {
              "internalType": "address",
              "name": "retailer",
              "type": "address"
            },
            {
              "internalType": "string",
              "name": "qrCodeCID",
              "type": "string"
            },
            {
              "internalType": "enum Tracking.TrackingStatus",
              "name": "status",
              "type": "uint8"
            }
          ],
          "internalType": "struct Tracking.TrackingEvent",
          "name": "",
          "type": "tuple"
        },
        {
          "components": [
            {
              "internalType": "bytes32",
              "name": "trackingId",
              "type": "bytes32"
            },
            {
              "internalType": "address",
              "name": "logisticsProvider",
              "type": "address"
            },
            {
              "internalType": "uint256",
              "name": "pickupTime",
              "type": "uint256"
            },
            {
              "internalType": "uint256",
              "name": "deliveryTime",
              "type": "uint256"
            },
            {
              "internalType": "uint256",
              "name": "quantity",
              "type": "uint256"
            },
            {
              "internalType": "int256",
              "name": "temperature",
              "type": "int256"
            },
            {
              "internalType": "string",
              "name": "personInCharge",
              "type": "string"
            },
            {
              "internalType": "enum Tracking.LogisticsCheckType",
              "name": "checkType",
              "type": "uint8"
            }
          ],
          "internalType": "struct Tracking.LogisticsCheckpoint[]",
          "name": "",
          "type": "tuple[]"
        },
        {
          "components": [
            {
              "internalType": "bytes32",
              "name": "trackingId",
              "type": "bytes32"
            },
            {
              "internalType": "address",
              "name": "retailer",
              "type": "address"
            },
            {
              "internalType": "uint256",
              "name": "receivedTime",
              "type": "uint256"
            },
            {
              "internalType": "string",
              "name": "qualityCID",
              "type": "string"
            },
            {
              "internalType": "string",
              "name": "personInCharge",
              "type": "string"
            }
          ],
          "internalType": "struct Tracking.RetailerConfirmation",
          "name": "",
          "type": "tuple"
        }
      ],
      "stateMutability": "view",
      "type": "function",
      "constant": true
    },
    {
      "inputs": [
        {
          "internalType": "address",
          "name": "_retailer",
          "type": "address"
        }
      ],
      "name": "getTrackingByRetailer",
      "outputs": [
        {
          "internalType": "bytes32[]",
          "name": "",
          "type": "bytes32[]"
        }
      ],
      "stateMutability": "view",
      "type": "function",
      "constant": true
    }
  ],
  "bytecode": "0x60806040523480156200001157600080fd5b5060405162002cda38038062002cda83398181016040528101906200003791906200012a565b816000806101000a81548173ffffffffffffffffffffffffffffffffffffffff021916908373ffffffffffffffffffffffffffffffffffffffff16021790555080600160006101000a81548173ffffffffffffffffffffffffffffffffffffffff021916908373ffffffffffffffffffffffffffffffffffffffff160217905550505062000171565b600080fd5b600073ffffffffffffffffffffffffffffffffffffffff82169050919050565b6000620000f282620000c5565b9050919050565b6200010481620000e5565b81146200011057600080fd5b50565b6000815190506200012481620000f9565b92915050565b60008060408385031215620001445762000143620000c0565b5b6000620001548582860162000113565b9250506020620001678582860162000113565b9150509250929050565b612b5980620001816000396000f3fe608060405234801561001057600080fd5b50600436106100b45760003560e01c8063c864789311610071578063c8647893146101a3578063c93c35eb146101d3578063cc1faf8e14610205578063db7e30e814610223578063f16717371461023f578063f30459e314610273576100b4565b80635c7460d6146100b95780636e1b7e56146100d7578063777699cb146100f357806384e3edce1461010f5780639ed6f8ab1461013f578063acae08a214610173575b600080fd5b6100c16102aa565b6040516100ce9190611750565b60405180910390f35b6100f160048036038101906100ec9190611939565b6102ce565b005b61010d60048036038101906101089190611a4d565b6105f0565b005b61012960048036038101906101249190611b0b565b610902565b6040516101369190611b47565b60405180910390f35b61015960048036038101906101549190611b62565b610926565b60405161016a959493929190611c94565b60405180910390f35b61018d60048036038101906101889190611cee565b610a11565b60405161019a9190611dd9565b60405180910390f35b6101bd60048036038101906101b89190611dfb565b610aa8565b6040516101ca9190611b47565b60405180910390f35b6101ed60048036038101906101e89190611b62565b610ad9565b6040516101fc9392919061216e565b60405180910390f35b61020d61101c565b60405161021a91906121db565b60405180910390f35b61023d600480360381019061023891906121f6565b611042565b005b61025960048036038101906102549190611b62565b6113ac565b60405161026a959493929190612290565b60405180910390f35b61028d600480360381019061028891906122f1565b611512565b6040516102a198979695949392919061234f565b60405180910390f35b60008054906101000a900473ffffffffffffffffffffffffffffffffffffffff1681565b600160009054906101000a900473ffffffffffffffffffffffffffffffffffffffff1673ffffffffffffffffffffffffffffffffffffffff1663fa0bff30846040518263ffffffff1660e01b81526004016103299190611b47565b602060405180830381865afa158015610346573d6000803e3d6000fd5b505050506040513d601f19601f8201168201806040525081019061036a919061240c565b6103a9576040517f08c379a00000000000000000000000000000000000000000000000000000000081526004016103a0906124ab565b60405180910390fd5b6000801b600260008681526020019081526020016000206000015414610404576040517f08c379a00000000000000000000000000000000000000000000000000000000081526004016103fb9061253d565b60405180910390fd5b6040518060a001604052808581526020018481526020018373ffffffffffffffffffffffffffffffffffffffff1681526020018281526020016000600281111561045157610450611c1d565b5b81525060026000868152602001908152602001600020600082015181600001556020820151816001015560408201518160020160006101000a81548173ffffffffffffffffffffffffffffffffffffffff021916908373ffffffffffffffffffffffffffffffffffffffff16021790555060608201518160030190816104d7919061275f565b5060808201518160040160006101000a81548160ff0219169083600281111561050357610502611c1d565b5b02179055509050506006849080600181540180825580915050600190039060005260206000200160009091909190915055600560008373ffffffffffffffffffffffffffffffffffffffff1673ffffffffffffffffffffffffffffffffffffffff1681526020019081526020016000208490806001815401808255809150506001900390600052602060002001600090919091909150558173ffffffffffffffffffffffffffffffffffffffff1683857feb0780a05cd8f5b9749963e6ed30cff1baf3b26b82d3cb38d69d55dd1ef84953846040516105e29190612831565b60405180910390a450505050565b6003600481111561060457610603611c1d565b5b60008054906101000a900473ffffffffffffffffffffffffffffffffffffffff1673ffffffffffffffffffffffffffffffffffffffff166327820851336040518263ffffffff1660e01b815260040161065d9190612853565b602060405180830381865afa15801561067a573d6000803e3d6000fd5b505050506040513d601f19601f8201168201806040525081019061069e9190612893565b60048111156106b0576106af611c1d565b5b146106f0576040517f08c379a00000000000000000000000000000000000000000000000000000000081526004016106e790612932565b60405180910390fd5b6000801b60026000898152602001908152602001600020600001540361074b576040517f08c379a0000000000000000000000000000000000000000000000000000000008152600401610742906129c4565b60405180910390fd5b600360008881526020019081526020016000206040518061010001604052808981526020013373ffffffffffffffffffffffffffffffffffffffff1681526020018881526020018781526020018681526020018581526020018481526020018360028111156107bd576107bc611c1d565b5b81525090806001815401808255809150506001900390600052602060002090600802016000909190919091506000820151816000015560208201518160010160006101000a81548173ffffffffffffffffffffffffffffffffffffffff021916908373ffffffffffffffffffffffffffffffffffffffff16021790555060408201518160020155606082015181600301556080820151816004015560a0820151816005015560c0820151816006019081610877919061275f565b5060e08201518160070160006101000a81548160ff021916908360028111156108a3576108a2611c1d565b5b021790555050503373ffffffffffffffffffffffffffffffffffffffff16877ff6035bdd30559a10b699c510827368744d386b193dcba64240507652ba3dd3b5836040516108f191906129e4565b60405180910390a350505050505050565b6006818154811061091257600080fd5b906000526020600020016000915090505481565b60026020528060005260406000206000915090508060000154908060010154908060020160009054906101000a900473ffffffffffffffffffffffffffffffffffffffff169080600301805461097b9061258c565b80601f01602080910402602001604051908101604052809291908181526020018280546109a79061258c565b80156109f45780601f106109c9576101008083540402835291602001916109f4565b820191906000526020600020905b8154815290600101906020018083116109d757829003601f168201915b5050505050908060040160009054906101000a900460ff16905085565b6060600560008373ffffffffffffffffffffffffffffffffffffffff1673ffffffffffffffffffffffffffffffffffffffff168152602001908152602001600020805480602002602001604051908101604052809291908181526020018280548015610a9c57602002820191906000526020600020905b815481526020019060010190808311610a88575b50505050509050919050565b60056020528160005260406000208181548110610ac457600080fd5b90600052602060002001600091509150505481565b610ae161162c565b6060610aeb611689565b6000801b600260008681526020019081526020016000206000015403610b46576040517f08c379a0000000000000000000000000000000000000000000000000000000008152600401610b3d906129c4565b60405180910390fd5b600260008581526020019081526020016000206003600086815260200190815260200160002060046000878152602001908152602001600020826040518060a001604052908160008201548152602001600182015481526020016002820160009054906101000a900473ffffffffffffffffffffffffffffffffffffffff1673ffffffffffffffffffffffffffffffffffffffff1673ffffffffffffffffffffffffffffffffffffffff168152602001600382018054610c059061258c565b80601f0160208091040260200160405190810160405280929190818152602001828054610c319061258c565b8015610c7e5780601f10610c5357610100808354040283529160200191610c7e565b820191906000526020600020905b815481529060010190602001808311610c6157829003601f168201915b505050505081526020016004820160009054906101000a900460ff166002811115610cac57610cab611c1d565b5b6002811115610cbe57610cbd611c1d565b5b81525050925081805480602002602001604051908101604052809291908181526020016000905b82821015610e6d578382906000526020600020906008020160405180610100016040529081600082015481526020016001820160009054906101000a900473ffffffffffffffffffffffffffffffffffffffff1673ffffffffffffffffffffffffffffffffffffffff1673ffffffffffffffffffffffffffffffffffffffff16815260200160028201548152602001600382015481526020016004820154815260200160058201548152602001600682018054610da19061258c565b80601f0160208091040260200160405190810160405280929190818152602001828054610dcd9061258c565b8015610e1a5780601f10610def57610100808354040283529160200191610e1a565b820191906000526020600020905b815481529060010190602001808311610dfd57829003601f168201915b505050505081526020016007820160009054906101000a900460ff166002811115610e4857610e47611c1d565b5b6002811115610e5a57610e59611c1d565b5b8152505081526020019060010190610ce5565b505050509150806040518060a0016040529081600082015481526020016001820160009054906101000a900473ffffffffffffffffffffffffffffffffffffffff1673ffffffffffffffffffffffffffffffffffffffff1673ffffffffffffffffffffffffffffffffffffffff16815260200160028201548152602001600382018054610ef99061258c565b80601f0160208091040260200160405190810160405280929190818152602001828054610f259061258c565b8015610f725780601f10610f4757610100808354040283529160200191610f72565b820191906000526020600020905b815481529060010190602001808311610f5557829003601f168201915b50505050508152602001600482018054610f8b9061258c565b80601f0160208091040260200160405190810160405280929190818152602001828054610fb79061258c565b80156110045780601f10610fd957610100808354040283529160200191611004565b820191906000526020600020905b815481529060010190602001808311610fe757829003601f168201915b50505050508152505090509250925092509193909250565b600160009054906101000a900473ffffffffffffffffffffffffffffffffffffffff1681565b60048081111561105557611054611c1d565b5b60008054906101000a900473ffffffffffffffffffffffffffffffffffffffff1673ffffffffffffffffffffffffffffffffffffffff166327820851336040518263ffffffff1660e01b81526004016110ae9190612853565b602060405180830381865afa1580156110cb573d6000803e3d6000fd5b505050506040513d601f19601f820116820180604052508101906110ef9190612893565b600481111561110157611100611c1d565b5b14611141576040517f08c379a000000000000000000000000000000000000000000000000000000000815260040161113890612a71565b60405180910390fd5b6000801b60026000858152602001908152602001600020600001540361119c576040517f08c379a0000000000000000000000000000000000000000000000000000000008152600401611193906129c4565b60405180910390fd5b3373ffffffffffffffffffffffffffffffffffffffff166002600085815260200190815260200160002060020160009054906101000a900473ffffffffffffffffffffffffffffffffffffffff1673ffffffffffffffffffffffffffffffffffffffff1614611240576040517f08c379a000000000000000000000000000000000000000000000000000000000815260040161123790612b03565b60405180910390fd5b600280600085815260200190815260200160002060040160006101000a81548160ff0219169083600281111561127957611278611c1d565b5b02179055506040518060a001604052808481526020013373ffffffffffffffffffffffffffffffffffffffff16815260200142815260200183815260200182815250600460008581526020019081526020016000206000820151816000015560208201518160010160006101000a81548173ffffffffffffffffffffffffffffffffffffffff021916908373ffffffffffffffffffffffffffffffffffffffff16021790555060408201518160020155606082015181600301908161133e919061275f565b506080820151816004019081611354919061275f565b509050503373ffffffffffffffffffffffffffffffffffffffff16837faa699b029d396bb22dd3ce19a2f3e6720638f5f589b318ffee9095df46e4d43c8460405161139f9190612831565b60405180910390a3505050565b60046020528060005260406000206000915090508060000154908060010160009054906101000a900473ffffffffffffffffffffffffffffffffffffffff16908060020154908060030180546114019061258c565b80601f016020809104026020016040519081016040528092919081815260200182805461142d9061258c565b801561147a5780601f1061144f5761010080835404028352916020019161147a565b820191906000526020600020905b81548152906001019060200180831161145d57829003601f168201915b50505050509080600401805461148f9061258c565b80601f01602080910402602001604051908101604052809291908181526020018280546114bb9061258c565b80156115085780601f106114dd57610100808354040283529160200191611508565b820191906000526020600020905b8154815290600101906020018083116114eb57829003601f168201915b5050505050905085565b6003602052816000526040600020818154811061152e57600080fd5b9060005260206000209060080201600091509150508060000154908060010160009054906101000a900473ffffffffffffffffffffffffffffffffffffffff16908060020154908060030154908060040154908060050154908060060180546115969061258c565b80601f01602080910402602001604051908101604052809291908181526020018280546115c29061258c565b801561160f5780601f106115e45761010080835404028352916020019161160f565b820191906000526020600020905b8154815290600101906020018083116115f257829003601f168201915b5050505050908060070160009054906101000a900460ff16905088565b6040518060a001604052806000801916815260200160008019168152602001600073ffffffffffffffffffffffffffffffffffffffff168152602001606081526020016000600281111561168357611682611c1d565b5b81525090565b6040518060a0016040528060008019168152602001600073ffffffffffffffffffffffffffffffffffffffff1681526020016000815260200160608152602001606081525090565b600073ffffffffffffffffffffffffffffffffffffffff82169050919050565b6000819050919050565b600061171661171161170c846116d1565b6116f1565b6116d1565b9050919050565b6000611728826116fb565b9050919050565b600061173a8261171d565b9050919050565b61174a8161172f565b82525050565b60006020820190506117656000830184611741565b92915050565b6000604051905090565b600080fd5b600080fd5b6000819050919050565b6117928161177f565b811461179d57600080fd5b50565b6000813590506117af81611789565b92915050565b60006117c0826116d1565b9050919050565b6117d0816117b5565b81146117db57600080fd5b50565b6000813590506117ed816117c7565b92915050565b600080fd5b600080fd5b6000601f19601f8301169050919050565b7f4e487b7100000000000000000000000000000000000000000000000000000000600052604160045260246000fd5b611846826117fd565b810181811067ffffffffffffffff821117156118655761186461180e565b5b80604052505050565b600061187861176b565b9050611884828261183d565b919050565b600067ffffffffffffffff8211156118a4576118a361180e565b5b6118ad826117fd565b9050602081019050919050565b82818337600083830152505050565b60006118dc6118d784611889565b61186e565b9050828152602081018484840111156118f8576118f76117f8565b5b6119038482856118ba565b509392505050565b600082601f8301126119205761191f6117f3565b5b81356119308482602086016118c9565b91505092915050565b6000806000806080858703121561195357611952611775565b5b6000611961878288016117a0565b9450506020611972878288016117a0565b9350506040611983878288016117de565b925050606085013567ffffffffffffffff8111156119a4576119a361177a565b5b6119b08782880161190b565b91505092959194509250565b6000819050919050565b6119cf816119bc565b81146119da57600080fd5b50565b6000813590506119ec816119c6565b92915050565b6000819050919050565b611a05816119f2565b8114611a1057600080fd5b50565b600081359050611a22816119fc565b92915050565b60038110611a3557600080fd5b50565b600081359050611a4781611a28565b92915050565b600080600080600080600060e0888a031215611a6c57611a6b611775565b5b6000611a7a8a828b016117a0565b9750506020611a8b8a828b016119dd565b9650506040611a9c8a828b016119dd565b9550506060611aad8a828b016119dd565b9450506080611abe8a828b01611a13565b93505060a088013567ffffffffffffffff811115611adf57611ade61177a565b5b611aeb8a828b0161190b565b92505060c0611afc8a828b01611a38565b91505092959891949750929550565b600060208284031215611b2157611b20611775565b5b6000611b2f848285016119dd565b91505092915050565b611b418161177f565b82525050565b6000602082019050611b5c6000830184611b38565b92915050565b600060208284031215611b7857611b77611775565b5b6000611b86848285016117a0565b91505092915050565b611b98816117b5565b82525050565b600081519050919050565b600082825260208201905092915050565b60005b83811015611bd8578082015181840152602081019050611bbd565b60008484015250505050565b6000611bef82611b9e565b611bf98185611ba9565b9350611c09818560208601611bba565b611c12816117fd565b840191505092915050565b7f4e487b7100000000000000000000000000000000000000000000000000000000600052602160045260246000fd5b60038110611c5d57611c5c611c1d565b5b50565b6000819050611c6e82611c4c565b919050565b6000611c7e82611c60565b9050919050565b611c8e81611c73565b82525050565b600060a082019050611ca96000830188611b38565b611cb66020830187611b38565b611cc36040830186611b8f565b8181036060830152611cd58185611be4565b9050611ce46080830184611c85565b9695505050505050565b600060208284031215611d0457611d03611775565b5b6000611d12848285016117de565b91505092915050565b600081519050919050565b600082825260208201905092915050565b6000819050602082019050919050565b611d508161177f565b82525050565b6000611d628383611d47565b60208301905092915050565b6000602082019050919050565b6000611d8682611d1b565b611d908185611d26565b9350611d9b83611d37565b8060005b83811015611dcc578151611db38882611d56565b9750611dbe83611d6e565b925050600181019050611d9f565b5085935050505092915050565b60006020820190508181036000830152611df38184611d7b565b905092915050565b60008060408385031215611e1257611e11611775565b5b6000611e20858286016117de565b9250506020611e31858286016119dd565b9150509250929050565b611e44816117b5565b82525050565b600082825260208201905092915050565b6000611e6682611b9e565b611e708185611e4a565b9350611e80818560208601611bba565b611e89816117fd565b840191505092915050565b611e9d81611c73565b82525050565b600060a083016000830151611ebb6000860182611d47565b506020830151611ece6020860182611d47565b506040830151611ee16040860182611e3b565b5060608301518482036060860152611ef98282611e5b565b9150506080830151611f0e6080860182611e94565b508091505092915050565b600081519050919050565b600082825260208201905092915050565b6000819050602082019050919050565b611f4e816119bc565b82525050565b611f5d816119f2565b82525050565b60038110611f7457611f73611c1d565b5b50565b6000819050611f8582611f63565b919050565b6000611f9582611f77565b9050919050565b611fa581611f8a565b82525050565b600061010083016000830151611fc46000860182611d47565b506020830151611fd76020860182611e3b565b506040830151611fea6040860182611f45565b506060830151611ffd6060860182611f45565b5060808301516120106080860182611f45565b5060a083015161202360a0860182611f54565b5060c083015184820360c086015261203b8282611e5b565b91505060e083015161205060e0860182611f9c565b508091505092915050565b60006120678383611fab565b905092915050565b6000602082019050919050565b600061208782611f19565b6120918185611f24565b9350836020820285016120a385611f35565b8060005b858110156120df57848403895281516120c0858261205b565b94506120cb8361206f565b925060208a019950506001810190506120a7565b50829750879550505050505092915050565b600060a0830160008301516121096000860182611d47565b50602083015161211c6020860182611e3b565b50604083015161212f6040860182611f45565b50606083015184820360608601526121478282611e5b565b915050608083015184820360808601526121618282611e5b565b9150508091505092915050565b600060608201905081810360008301526121888186611ea3565b9050818103602083015261219c818561207c565b905081810360408301526121b081846120f1565b9050949350505050565b60006121c58261171d565b9050919050565b6121d5816121ba565b82525050565b60006020820190506121f060008301846121cc565b92915050565b60008060006060848603121561220f5761220e611775565b5b600061221d868287016117a0565b935050602084013567ffffffffffffffff81111561223e5761223d61177a565b5b61224a8682870161190b565b925050604084013567ffffffffffffffff81111561226b5761226a61177a565b5b6122778682870161190b565b9150509250925092565b61228a816119bc565b82525050565b600060a0820190506122a56000830188611b38565b6122b26020830187611b8f565b6122bf6040830186612281565b81810360608301526122d18185611be4565b905081810360808301526122e58184611be4565b90509695505050505050565b6000806040838503121561230857612307611775565b5b6000612316858286016117a0565b9250506020612327858286016119dd565b9150509250929050565b61233a816119f2565b82525050565b61234981611f8a565b82525050565b600061010082019050612365600083018b611b38565b612372602083018a611b8f565b61237f6040830189612281565b61238c6060830188612281565b6123996080830187612281565b6123a660a0830186612331565b81810360c08301526123b88185611be4565b90506123c760e0830184612340565b9998505050505050505050565b60008115159050919050565b6123e9816123d4565b81146123f457600080fd5b50565b600081519050612406816123e0565b92915050565b60006020828403121561242257612421611775565b5b6000612430848285016123f7565b91505092915050565b7f4572726f723a2050726f64756374204c6f7420646f6573206e6f74206578697360008201527f7400000000000000000000000000000000000000000000000000000000000000602082015250565b6000612495602183611ba9565b91506124a082612439565b604082019050919050565b600060208201905081810360008301526124c481612488565b9050919050565b7f4572726f723a20547261636b696e6720494420616c726561647920657869737460008201527f7300000000000000000000000000000000000000000000000000000000000000602082015250565b6000612527602183611ba9565b9150612532826124cb565b604082019050919050565b600060208201905081810360008301526125568161251a565b9050919050565b7f4e487b7100000000000000000000000000000000000000000000000000000000600052602260045260246000fd5b600060028204905060018216806125a457607f821691505b6020821081036125b7576125b661255d565b5b50919050565b60008190508160005260206000209050919050565b60006020601f8301049050919050565b600082821b905092915050565b60006008830261261f7fffffffffffffffffffffffffffffffffffffffffffffffffffffffffffffffff826125e2565b61262986836125e2565b95508019841693508086168417925050509392505050565b600061265c612657612652846119bc565b6116f1565b6119bc565b9050919050565b6000819050919050565b61267683612641565b61268a61268282612663565b8484546125ef565b825550505050565b600090565b61269f612692565b6126aa81848461266d565b505050565b5b818110156126ce576126c3600082612697565b6001810190506126b0565b5050565b601f821115612713576126e4816125bd565b6126ed846125d2565b810160208510156126fc578190505b612710612708856125d2565b8301826126af565b50505b505050565b600082821c905092915050565b600061273660001984600802612718565b1980831691505092915050565b600061274f8383612725565b9150826002028217905092915050565b61276882611b9e565b67ffffffffffffffff8111156127815761278061180e565b5b61278b825461258c565b6127968282856126d2565b600060209050601f8311600181146127c957600084156127b7578287015190505b6127c18582612743565b865550612829565b601f1984166127d7866125bd565b60005b828110156127ff578489015182556001820191506020850194506020810190506127da565b8683101561281c5784890151612818601f891682612725565b8355505b6001600288020188555050505b505050505050565b6000602082019050818103600083015261284b8184611be4565b905092915050565b60006020820190506128686000830184611b8f565b92915050565b6005811061287b57600080fd5b50565b60008151905061288d8161286e565b92915050565b6000602082840312156128a9576128a8611775565b5b60006128b78482850161287e565b91505092915050565b7f4163636573732064656e6965643a204f6e6c79206c6f6769737469637320616c60008201527f6c6f776564000000000000000000000000000000000000000000000000000000602082015250565b600061291c602583611ba9565b9150612927826128c0565b604082019050919050565b6000602082019050818103600083015261294b8161290f565b9050919050565b7f4572726f723a20547261636b696e6720494420646f6573206e6f74206578697360008201527f7400000000000000000000000000000000000000000000000000000000000000602082015250565b60006129ae602183611ba9565b91506129b982612952565b604082019050919050565b600060208201905081810360008301526129dd816129a1565b9050919050565b60006020820190506129f96000830184612340565b92915050565b7f4163636573732064656e6965643a204f6e6c792072657461696c65727320616c60008201527f6c6f776564000000000000000000000000000000000000000000000000000000602082015250565b6000612a5b602583611ba9565b9150612a66826129ff565b604082019050919050565b60006020820190508181036000830152612a8a81612a4e565b9050919050565b7f4572726f723a204f6e6c792061737369676e65642072657461696c657220636160008201527f6e20726563656976650000000000000000000000000000000000000000000000602082015250565b6000612aed602983611ba9565b9150612af882612a91565b604082019050919050565b60006020820190508181036000830152612b1c81612ae0565b905091905056fea26469706673582212203d8c49f5210383ee8a20fc25985cff20ee911f373f36e72bb0e34abe8888f37c64736f6c63430008130033",
  "immutableReferences": {},
  "source": "// SPDX-License-Identifier: MIT\npragma solidity ^0.8.19;\n\nimport \"./UserRegistry.sol\";\nimport \"./ProductLot.sol\";\n\ncontract Tracking {\n    UserRegistry public userRegistry;\n    ProductLot public productLotContract;\n\n    enum TrackingStatus { Pending, InTransit, Received }\n    enum LogisticsCheckType { Before, During, After }\n\n    struct TrackingEvent {\n        bytes32 trackingId;\n        bytes32 productLotId;\n        address retailer;\n        string qrCodeCID;\n        TrackingStatus status;\n    }\n\n    struct LogisticsCheckpoint {\n        bytes32 trackingId;\n        address logisticsProvider;\n        uint256 pickupTime;\n        uint256 deliveryTime;\n        uint256 quantity;\n        int256 temperature;\n        string personInCharge;\n        LogisticsCheckType checkType;\n    }\n\n    struct RetailerConfirmation {\n        bytes32 trackingId;\n        address retailer;\n        uint256 receivedTime;\n        string qualityCID;\n        string personInCharge;\n    }\n\n    mapping(bytes32 => TrackingEvent) public trackingEvents;\n    mapping(bytes32 => LogisticsCheckpoint[]) public logisticsCheckpoints;\n    mapping(bytes32 => RetailerConfirmation) public retailerConfirmations;\n    mapping(address => bytes32[]) public retailerTracking;\n    bytes32[] public trackingIds;\n\n    event TrackingCreated(bytes32 indexed trackingId, bytes32 indexed productLotId, address indexed retailer, string qrCodeCID);\n    event LogisticsUpdated(bytes32 indexed trackingId, address indexed logisticsProvider, LogisticsCheckType checkType);\n    event RetailerReceived(bytes32 indexed trackingId, address indexed retailer, string qualityCID);\n\n    modifier onlyLogistics() {\n        require(userRegistry.getUserRole(msg.sender) == UserRegistry.UserRole.Logistics, \"Access denied: Only logistics allowed\");\n        _;\n    }\n\n    modifier onlyRetailer() {\n        require(userRegistry.getUserRole(msg.sender) == UserRegistry.UserRole.Retailer, \"Access denied: Only retailers allowed\");\n        _;\n    }\n\n    constructor(address _userRegistry, address _productLotContract) {\n        userRegistry = UserRegistry(_userRegistry);\n        productLotContract = ProductLot(_productLotContract);\n    }\n\n    function createTrackingEvent(\n        bytes32 _trackingId,\n        bytes32 _productLotId,\n        address _retailer,\n        string memory _qrCodeCID\n    ) public {\n        require(productLotContract.isProductLotExists(_productLotId), \"Error: Product Lot does not exist\");\n        require(trackingEvents[_trackingId].trackingId == bytes32(0), \"Error: Tracking ID already exists\");\n\n        trackingEvents[_trackingId] = TrackingEvent({\n            trackingId: _trackingId,\n            productLotId: _productLotId,\n            retailer: _retailer,\n            qrCodeCID: _qrCodeCID,\n            status: TrackingStatus.Pending\n        });\n\n        trackingIds.push(_trackingId);\n        retailerTracking[_retailer].push(_trackingId);\n        emit TrackingCreated(_trackingId, _productLotId, _retailer, _qrCodeCID);\n    }\n\n    function updateLogisticsCheckpoint(\n        bytes32 _trackingId,\n        uint256 _pickupTime,\n        uint256 _deliveryTime,\n        uint256 _quantity,\n        int256 _temperature,\n        string memory _personInCharge,\n        LogisticsCheckType _checkType\n    ) public onlyLogistics {\n        require(trackingEvents[_trackingId].trackingId != bytes32(0), \"Error: Tracking ID does not exist\");\n        logisticsCheckpoints[_trackingId].push(LogisticsCheckpoint({\n            trackingId: _trackingId,\n            logisticsProvider: msg.sender,\n            pickupTime: _pickupTime,\n            deliveryTime: _deliveryTime,\n            quantity: _quantity,\n            temperature: _temperature,\n            personInCharge: _personInCharge,\n            checkType: _checkType\n        }));\n        emit LogisticsUpdated(_trackingId, msg.sender, _checkType);\n    }\n\n    function retailerReceiveProduct(\n        bytes32 _trackingId,\n        string memory _qualityCID,\n        string memory _personInCharge\n    ) public onlyRetailer {\n        require(trackingEvents[_trackingId].trackingId != bytes32(0), \"Error: Tracking ID does not exist\");\n        require(trackingEvents[_trackingId].retailer == msg.sender, \"Error: Only assigned retailer can receive\");\n\n        trackingEvents[_trackingId].status = TrackingStatus.Received;\n        retailerConfirmations[_trackingId] = RetailerConfirmation({\n            trackingId: _trackingId,\n            retailer: msg.sender,\n            receivedTime: block.timestamp,\n            qualityCID: _qualityCID,\n            personInCharge: _personInCharge\n        });\n        emit RetailerReceived(_trackingId, msg.sender, _qualityCID);\n    }\n\n    function getTrackingById(bytes32 _trackingId) public view returns (TrackingEvent memory, LogisticsCheckpoint[] memory, RetailerConfirmation memory) {\n        require(trackingEvents[_trackingId].trackingId != bytes32(0), \"Error: Tracking ID does not exist\");\n        return (trackingEvents[_trackingId], logisticsCheckpoints[_trackingId], retailerConfirmations[_trackingId]);\n    }\n\n    function getTrackingByRetailer(address _retailer) public view returns (bytes32[] memory) {\n        return retailerTracking[_retailer];\n    }\n}\n",
  "sourcePath": "/home/apiwat/Documents/Backend/Backend/solidity/contracts/Tracking.sol",
  "compiler": {
    "name": "solc",
    "version": "0.8.19+commit.7dd6d404.Emscripten.clang"
  },
  "schemaVersion": "3.4.16",
  "updatedAt": "2025-03-13T04:43:58.396Z",
  "networkType": "ethereum",
  "devdoc": {
    "kind": "dev",
    "methods": {},
    "version": 1
  },
  "userdoc": {
    "kind": "user",
    "methods": {},
    "version": 1
  }
}