{
  "contractName": "Tracking",
  "abi": [
    {
      "inputs": [
        {
          "internalType": "address",
          "name": "_userRegistry",
          "type": "address"
        },
        {
          "internalType": "address",
          "name": "_productLotContract",
          "type": "address"
        }
      ],
      "stateMutability": "nonpayable",
      "type": "constructor"
    },
    {
      "anonymous": false,
      "inputs": [
        {
          "indexed": true,
          "internalType": "bytes32",
          "name": "trackingId",
          "type": "bytes32"
        },
        {
          "indexed": true,
          "internalType": "address",
          "name": "logisticsProvider",
          "type": "address"
        },
        {
          "indexed": false,
          "internalType": "enum Tracking.LogisticsCheckType",
          "name": "checkType",
          "type": "uint8"
        },
        {
          "indexed": false,
          "internalType": "string",
          "name": "receiverCID",
          "type": "string"
        }
      ],
      "name": "LogisticsUpdated",
      "type": "event"
    },
    {
      "anonymous": false,
      "inputs": [
        {
          "indexed": true,
          "internalType": "bytes32",
          "name": "trackingId",
          "type": "bytes32"
        },
        {
          "indexed": false,
          "internalType": "string",
          "name": "retailerId",
          "type": "string"
        },
        {
          "indexed": false,
          "internalType": "string",
          "name": "qualityCID",
          "type": "string"
        }
      ],
      "name": "RetailerReceived",
      "type": "event"
    },
    {
      "anonymous": false,
      "inputs": [
        {
          "indexed": true,
          "internalType": "bytes32",
          "name": "trackingId",
          "type": "bytes32"
        },
        {
          "indexed": true,
          "internalType": "bytes32",
          "name": "productLotId",
          "type": "bytes32"
        },
        {
          "indexed": false,
          "internalType": "string",
          "name": "retailerId",
          "type": "string"
        },
        {
          "indexed": false,
          "internalType": "string",
          "name": "qrCodeCID",
          "type": "string"
        }
      ],
      "name": "TrackingCreated",
      "type": "event"
    },
    {
      "inputs": [
        {
          "internalType": "uint256",
          "name": "",
          "type": "uint256"
        }
      ],
      "name": "allTrackingIds",
      "outputs": [
        {
          "internalType": "bytes32",
          "name": "",
          "type": "bytes32"
        }
      ],
      "stateMutability": "view",
      "type": "function",
      "constant": true
    },
    {
      "inputs": [
        {
          "internalType": "bytes32",
          "name": "",
          "type": "bytes32"
        },
        {
          "internalType": "uint256",
          "name": "",
          "type": "uint256"
        }
      ],
      "name": "logisticsCheckpoints",
      "outputs": [
        {
          "internalType": "bytes32",
          "name": "trackingId",
          "type": "bytes32"
        },
        {
          "internalType": "address",
          "name": "logisticsProvider",
          "type": "address"
        },
        {
          "internalType": "uint256",
          "name": "pickupTime",
          "type": "uint256"
        },
        {
          "internalType": "uint256",
          "name": "deliveryTime",
          "type": "uint256"
        },
        {
          "internalType": "uint256",
          "name": "quantity",
          "type": "uint256"
        },
        {
          "internalType": "int256",
          "name": "temperature",
          "type": "int256"
        },
        {
          "internalType": "string",
          "name": "personInCharge",
          "type": "string"
        },
        {
          "internalType": "enum Tracking.LogisticsCheckType",
          "name": "checkType",
          "type": "uint8"
        },
        {
          "internalType": "string",
          "name": "receiverCID",
          "type": "string"
        }
      ],
      "stateMutability": "view",
      "type": "function",
      "constant": true
    },
    {
      "inputs": [],
      "name": "productLotContract",
      "outputs": [
        {
          "internalType": "contract ProductLot",
          "name": "",
          "type": "address"
        }
      ],
      "stateMutability": "view",
      "type": "function",
      "constant": true
    },
    {
      "inputs": [
        {
          "internalType": "bytes32",
          "name": "",
          "type": "bytes32"
        }
      ],
      "name": "retailerConfirmations",
      "outputs": [
        {
          "internalType": "bytes32",
          "name": "trackingId",
          "type": "bytes32"
        },
        {
          "internalType": "string",
          "name": "retailerId",
          "type": "string"
        },
        {
          "internalType": "uint256",
          "name": "receivedTime",
          "type": "uint256"
        },
        {
          "internalType": "string",
          "name": "qualityCID",
          "type": "string"
        },
        {
          "internalType": "string",
          "name": "personInCharge",
          "type": "string"
        }
      ],
      "stateMutability": "view",
      "type": "function",
      "constant": true
    },
    {
      "inputs": [
        {
          "internalType": "string",
          "name": "",
          "type": "string"
        },
        {
          "internalType": "uint256",
          "name": "",
          "type": "uint256"
        }
      ],
      "name": "retailerTracking",
      "outputs": [
        {
          "internalType": "bytes32",
          "name": "",
          "type": "bytes32"
        }
      ],
      "stateMutability": "view",
      "type": "function",
      "constant": true
    },
    {
      "inputs": [
        {
          "internalType": "bytes32",
          "name": "",
          "type": "bytes32"
        }
      ],
      "name": "trackingEvents",
      "outputs": [
        {
          "internalType": "bytes32",
          "name": "trackingId",
          "type": "bytes32"
        },
        {
          "internalType": "bytes32",
          "name": "productLotId",
          "type": "bytes32"
        },
        {
          "internalType": "string",
          "name": "retailerId",
          "type": "string"
        },
        {
          "internalType": "string",
          "name": "qrCodeCID",
          "type": "string"
        },
        {
          "internalType": "enum Tracking.TrackingStatus",
          "name": "status",
          "type": "uint8"
        }
      ],
      "stateMutability": "view",
      "type": "function",
      "constant": true
    },
    {
      "inputs": [],
      "name": "userRegistry",
      "outputs": [
        {
          "internalType": "contract UserRegistry",
          "name": "",
          "type": "address"
        }
      ],
      "stateMutability": "view",
      "type": "function",
      "constant": true
    },
    {
      "inputs": [
        {
          "internalType": "bytes32",
          "name": "_trackingId",
          "type": "bytes32"
        },
        {
          "internalType": "bytes32",
          "name": "_productLotId",
          "type": "bytes32"
        },
        {
          "internalType": "string",
          "name": "_retailerId",
          "type": "string"
        },
        {
          "internalType": "string",
          "name": "_qrCodeCID",
          "type": "string"
        }
      ],
      "name": "createTrackingEvent",
      "outputs": [],
      "stateMutability": "nonpayable",
      "type": "function"
    },
    {
      "inputs": [
        {
          "internalType": "bytes32",
          "name": "_trackingId",
          "type": "bytes32"
        },
        {
          "internalType": "uint256",
          "name": "_pickupTime",
          "type": "uint256"
        },
        {
          "internalType": "uint256",
          "name": "_deliveryTime",
          "type": "uint256"
        },
        {
          "internalType": "uint256",
          "name": "_quantity",
          "type": "uint256"
        },
        {
          "internalType": "int256",
          "name": "_temperature",
          "type": "int256"
        },
        {
          "internalType": "string",
          "name": "_personInCharge",
          "type": "string"
        },
        {
          "internalType": "enum Tracking.LogisticsCheckType",
          "name": "_checkType",
          "type": "uint8"
        },
        {
          "internalType": "string",
          "name": "_receiverCID",
          "type": "string"
        }
      ],
      "name": "updateLogisticsCheckpoint",
      "outputs": [],
      "stateMutability": "nonpayable",
      "type": "function"
    },
    {
      "inputs": [
        {
          "internalType": "bytes32",
          "name": "_trackingId",
          "type": "bytes32"
        },
        {
          "internalType": "string",
          "name": "_retailerId",
          "type": "string"
        },
        {
          "internalType": "string",
          "name": "_qualityCID",
          "type": "string"
        },
        {
          "internalType": "string",
          "name": "_personInCharge",
          "type": "string"
        }
      ],
      "name": "retailerReceiveProduct",
      "outputs": [],
      "stateMutability": "nonpayable",
      "type": "function"
    },
    {
      "inputs": [
        {
          "internalType": "bytes32",
          "name": "_trackingId",
          "type": "bytes32"
        }
      ],
      "name": "getTrackingById",
      "outputs": [
        {
          "components": [
            {
              "internalType": "bytes32",
              "name": "trackingId",
              "type": "bytes32"
            },
            {
              "internalType": "bytes32",
              "name": "productLotId",
              "type": "bytes32"
            },
            {
              "internalType": "string",
              "name": "retailerId",
              "type": "string"
            },
            {
              "internalType": "string",
              "name": "qrCodeCID",
              "type": "string"
            },
            {
              "internalType": "enum Tracking.TrackingStatus",
              "name": "status",
              "type": "uint8"
            }
          ],
          "internalType": "struct Tracking.TrackingEvent",
          "name": "",
          "type": "tuple"
        },
        {
          "components": [
            {
              "internalType": "bytes32",
              "name": "trackingId",
              "type": "bytes32"
            },
            {
              "internalType": "address",
              "name": "logisticsProvider",
              "type": "address"
            },
            {
              "internalType": "uint256",
              "name": "pickupTime",
              "type": "uint256"
            },
            {
              "internalType": "uint256",
              "name": "deliveryTime",
              "type": "uint256"
            },
            {
              "internalType": "uint256",
              "name": "quantity",
              "type": "uint256"
            },
            {
              "internalType": "int256",
              "name": "temperature",
              "type": "int256"
            },
            {
              "internalType": "string",
              "name": "personInCharge",
              "type": "string"
            },
            {
              "internalType": "enum Tracking.LogisticsCheckType",
              "name": "checkType",
              "type": "uint8"
            },
            {
              "internalType": "string",
              "name": "receiverCID",
              "type": "string"
            }
          ],
          "internalType": "struct Tracking.LogisticsCheckpoint[]",
          "name": "",
          "type": "tuple[]"
        },
        {
          "components": [
            {
              "internalType": "bytes32",
              "name": "trackingId",
              "type": "bytes32"
            },
            {
              "internalType": "string",
              "name": "retailerId",
              "type": "string"
            },
            {
              "internalType": "uint256",
              "name": "receivedTime",
              "type": "uint256"
            },
            {
              "internalType": "string",
              "name": "qualityCID",
              "type": "string"
            },
            {
              "internalType": "string",
              "name": "personInCharge",
              "type": "string"
            }
          ],
          "internalType": "struct Tracking.RetailerConfirmation",
          "name": "",
          "type": "tuple"
        }
      ],
      "stateMutability": "view",
      "type": "function",
      "constant": true
    },
    {
      "inputs": [
        {
          "internalType": "string",
          "name": "_retailerId",
          "type": "string"
        }
      ],
      "name": "getTrackingByRetailer",
      "outputs": [
        {
          "internalType": "bytes32[]",
          "name": "",
          "type": "bytes32[]"
        }
      ],
      "stateMutability": "view",
      "type": "function",
      "constant": true
    },
    {
      "inputs": [
        {
          "internalType": "bytes32",
          "name": "_productLotId",
          "type": "bytes32"
        }
      ],
      "name": "getTrackingByLotId",
      "outputs": [
        {
          "internalType": "bytes32[]",
          "name": "resultTrackingIds",
          "type": "bytes32[]"
        },
        {
          "internalType": "string[]",
          "name": "retailerIds",
          "type": "string[]"
        },
        {
          "internalType": "string[]",
          "name": "qrCodeCIDs",
          "type": "string[]"
        }
      ],
      "stateMutability": "view",
      "type": "function",
      "constant": true
    },
    {
      "inputs": [],
      "name": "getAllTrackingIds",
      "outputs": [
        {
          "internalType": "bytes32[]",
          "name": "",
          "type": "bytes32[]"
        }
      ],
      "stateMutability": "view",
      "type": "function",
      "constant": true
    },
    {
      "inputs": [
        {
          "internalType": "bytes32",
          "name": "_trackingId",
          "type": "bytes32"
        }
      ],
      "name": "getLogisticsCheckpointsByTrackingId",
      "outputs": [
        {
          "components": [
            {
              "internalType": "bytes32",
              "name": "trackingId",
              "type": "bytes32"
            },
            {
              "internalType": "address",
              "name": "logisticsProvider",
              "type": "address"
            },
            {
              "internalType": "uint256",
              "name": "pickupTime",
              "type": "uint256"
            },
            {
              "internalType": "uint256",
              "name": "deliveryTime",
              "type": "uint256"
            },
            {
              "internalType": "uint256",
              "name": "quantity",
              "type": "uint256"
            },
            {
              "internalType": "int256",
              "name": "temperature",
              "type": "int256"
            },
            {
              "internalType": "string",
              "name": "personInCharge",
              "type": "string"
            },
            {
              "internalType": "enum Tracking.LogisticsCheckType",
              "name": "checkType",
              "type": "uint8"
            },
            {
              "internalType": "string",
              "name": "receiverCID",
              "type": "string"
            }
          ],
          "internalType": "struct Tracking.LogisticsCheckpoint[]",
          "name": "beforeCheckpoints",
          "type": "tuple[]"
        },
        {
          "components": [
            {
              "internalType": "bytes32",
              "name": "trackingId",
              "type": "bytes32"
            },
            {
              "internalType": "address",
              "name": "logisticsProvider",
              "type": "address"
            },
            {
              "internalType": "uint256",
              "name": "pickupTime",
              "type": "uint256"
            },
            {
              "internalType": "uint256",
              "name": "deliveryTime",
              "type": "uint256"
            },
            {
              "internalType": "uint256",
              "name": "quantity",
              "type": "uint256"
            },
            {
              "internalType": "int256",
              "name": "temperature",
              "type": "int256"
            },
            {
              "internalType": "string",
              "name": "personInCharge",
              "type": "string"
            },
            {
              "internalType": "enum Tracking.LogisticsCheckType",
              "name": "checkType",
              "type": "uint8"
            },
            {
              "internalType": "string",
              "name": "receiverCID",
              "type": "string"
            }
          ],
          "internalType": "struct Tracking.LogisticsCheckpoint[]",
          "name": "duringCheckpoints",
          "type": "tuple[]"
        },
        {
          "components": [
            {
              "internalType": "bytes32",
              "name": "trackingId",
              "type": "bytes32"
            },
            {
              "internalType": "address",
              "name": "logisticsProvider",
              "type": "address"
            },
            {
              "internalType": "uint256",
              "name": "pickupTime",
              "type": "uint256"
            },
            {
              "internalType": "uint256",
              "name": "deliveryTime",
              "type": "uint256"
            },
            {
              "internalType": "uint256",
              "name": "quantity",
              "type": "uint256"
            },
            {
              "internalType": "int256",
              "name": "temperature",
              "type": "int256"
            },
            {
              "internalType": "string",
              "name": "personInCharge",
              "type": "string"
            },
            {
              "internalType": "enum Tracking.LogisticsCheckType",
              "name": "checkType",
              "type": "uint8"
            },
            {
              "internalType": "string",
              "name": "receiverCID",
              "type": "string"
            }
          ],
          "internalType": "struct Tracking.LogisticsCheckpoint[]",
          "name": "afterCheckpoints",
          "type": "tuple[]"
        }
      ],
      "stateMutability": "view",
      "type": "function",
      "constant": true
    }
  ],
  "bytecode": "0x60806040523480156200001157600080fd5b506040516200441d3803806200441d83398181016040528101906200003791906200012a565b816000806101000a81548173ffffffffffffffffffffffffffffffffffffffff021916908373ffffffffffffffffffffffffffffffffffffffff16021790555080600160006101000a81548173ffffffffffffffffffffffffffffffffffffffff021916908373ffffffffffffffffffffffffffffffffffffffff160217905550505062000171565b600080fd5b600073ffffffffffffffffffffffffffffffffffffffff82169050919050565b6000620000f282620000c5565b9050919050565b6200010481620000e5565b81146200011057600080fd5b50565b6000815190506200012481620000f9565b92915050565b60008060408385031215620001445762000143620000c0565b5b6000620001548582860162000113565b9250506020620001678582860162000113565b9150509250929050565b61429c80620001816000396000f3fe608060405234801561001057600080fd5b50600436106100f55760003560e01c806383fb988911610097578063cc1faf8e11610066578063cc1faf8e146102b4578063f1671737146102d2578063f30459e314610306578063f43dc2bc1461033e576100f5565b806383fb9889146102025780639ed6f8ab14610232578063a7e604b214610266578063c93c35eb14610282576100f5565b806356ef21b4116100d357806356ef21b4146101645780635c7460d61461019657806365f0f7d5146101b45780637ea96547146101e6576100f5565b80631a5c3d0e146100fa578063465b6e731461012a57806354cb24a414610146575b600080fd5b610114600480360381019061010f9190612973565b61036e565b60405161012191906129b9565b60405180910390f35b610144600480360381019061013f9190612b46565b610392565b005b61014e6106bf565b60405161015b9190612ca3565b60405180910390f35b61017e60048036038101906101799190612cc5565b610717565b60405161018d93929190612fdf565b60405180910390f35b61019e6112ca565b6040516101ab919061308a565b60405180910390f35b6101ce60048036038101906101c99190612cc5565b6112ee565b6040516101dd93929190613167565b60405180910390f35b61020060048036038101906101fb91906131b3565b6116b9565b005b61021c6004803603810190610217919061326e565b61190e565b6040516102299190612ca3565b60405180910390f35b61024c60048036038101906102479190612cc5565b611984565b60405161025d959493929190613349565b60405180910390f35b610280600480360381019061027b91906133fb565b611ad7565b005b61029c60048036038101906102979190612cc5565b611e09565b6040516102ab939291906135f9565b60405180910390f35b6102bc612456565b6040516102c99190613666565b60405180910390f35b6102ec60048036038101906102e79190612cc5565b61247c565b6040516102fd959493929190613690565b60405180910390f35b610320600480360381019061031b91906136f8565b61264a565b60405161033599989796959493929190613765565b60405180910390f35b61035860048036038101906103539190613800565b6127f2565b60405161036591906129b9565b60405180910390f35b6006818154811061037e57600080fd5b906000526020600020016000915090505481565b600160009054906101000a900473ffffffffffffffffffffffffffffffffffffffff1673ffffffffffffffffffffffffffffffffffffffff1663fa0bff30846040518263ffffffff1660e01b81526004016103ed91906129b9565b602060405180830381865afa15801561040a573d6000803e3d6000fd5b505050506040513d601f19601f8201168201806040525081019061042e9190613894565b61046d576040517f08c379a000000000000000000000000000000000000000000000000000000000815260040161046490613933565b60405180910390fd5b6000801b6002600086815260200190815260200160002060000154146104c8576040517f08c379a00000000000000000000000000000000000000000000000000000000081526004016104bf906139c5565b60405180910390fd5b600082511161050c576040517f08c379a000000000000000000000000000000000000000000000000000000000815260040161050390613a31565b60405180910390fd5b6000815111610550576040517f08c379a000000000000000000000000000000000000000000000000000000000815260040161054790613ac3565b60405180910390fd5b6040518060a001604052808581526020018481526020018381526020018281526020016000600281111561058757610586612e06565b5b81525060026000868152602001908152602001600020600082015181600001556020820151816001015560408201518160020190816105c69190613ce5565b5060608201518160030190816105dc9190613ce5565b5060808201518160040160006101000a81548160ff0219169083600281111561060857610607612e06565b5b021790555090505060068490806001815401808255809150506001900390600052602060002001600090919091909150556005826040516106499190613df3565b908152602001604051809103902084908060018154018082558091505060019003906000526020600020016000909190919091505582847fa2fc3ade0f3e8f9c31cda358ccb72883469278eb67b094b4d6d90a5cab7d5a5384846040516106b1929190613e0a565b60405180910390a350505050565b6060600680548060200260200160405190810160405280929190818152602001828054801561070d57602002820191906000526020600020905b8154815260200190600101908083116106f9575b5050505050905090565b60608060606000801b600260008681526020019081526020016000206000015403610777576040517f08c379a000000000000000000000000000000000000000000000000000000000815260040161076e90613eb3565b60405180910390fd5b6000806000805b600360008981526020019081526020016000208054905081101561093257600060028111156107b0576107af612e06565b5b600360008a815260200190815260200160002082815481106107d5576107d4613ed3565b5b906000526020600020906009020160070160009054906101000a900460ff16600281111561080657610805612e06565b5b0361081e57838061081690613f31565b94505061091f565b6001600281111561083257610831612e06565b5b600360008a8152602001908152602001600020828154811061085757610856613ed3565b5b906000526020600020906009020160070160009054906101000a900460ff16600281111561088857610887612e06565b5b036108a057828061089890613f31565b93505061091e565b6002808111156108b3576108b2612e06565b5b600360008a815260200190815260200160002082815481106108d8576108d7613ed3565b5b906000526020600020906009020160070160009054906101000a900460ff16600281111561090957610908612e06565b5b0361091d57818061091990613f31565b9250505b5b5b808061092a90613f31565b91505061077e565b508267ffffffffffffffff81111561094d5761094c612a1b565b5b60405190808252806020026020018201604052801561098657816020015b610973612839565b81526020019060019003908161096b5790505b5095508167ffffffffffffffff8111156109a3576109a2612a1b565b5b6040519080825280602002602001820160405280156109dc57816020015b6109c9612839565b8152602001906001900390816109c15790505b5094508067ffffffffffffffff8111156109f9576109f8612a1b565b5b604051908082528060200260200182016040528015610a3257816020015b610a1f612839565b815260200190600190039081610a175790505b5093506000806000805b600360008c8152602001908152602001600020805490508110156112bc5760006002811115610a6e57610a6d612e06565b5b600360008d81526020019081526020016000208281548110610a9357610a92613ed3565b5b906000526020600020906009020160070160009054906101000a900460ff166002811115610ac457610ac3612e06565b5b03610d2057600360008c81526020019081526020016000208181548110610aee57610aed613ed3565b5b906000526020600020906009020160405180610120016040529081600082015481526020016001820160009054906101000a900473ffffffffffffffffffffffffffffffffffffffff1673ffffffffffffffffffffffffffffffffffffffff1673ffffffffffffffffffffffffffffffffffffffff16815260200160028201548152602001600382015481526020016004820154815260200160058201548152602001600682018054610ba090613b12565b80601f0160208091040260200160405190810160405280929190818152602001828054610bcc90613b12565b8015610c195780601f10610bee57610100808354040283529160200191610c19565b820191906000526020600020905b815481529060010190602001808311610bfc57829003601f168201915b505050505081526020016007820160009054906101000a900460ff166002811115610c4757610c46612e06565b5b6002811115610c5957610c58612e06565b5b8152602001600882018054610c6d90613b12565b80601f0160208091040260200160405190810160405280929190818152602001828054610c9990613b12565b8015610ce65780601f10610cbb57610100808354040283529160200191610ce6565b820191906000526020600020905b815481529060010190602001808311610cc957829003601f168201915b5050505050815250508a8581518110610d0257610d01613ed3565b5b60200260200101819052508380610d1890613f31565b9450506112a9565b60016002811115610d3457610d33612e06565b5b600360008d81526020019081526020016000208281548110610d5957610d58613ed3565b5b906000526020600020906009020160070160009054906101000a900460ff166002811115610d8a57610d89612e06565b5b03610fe657600360008c81526020019081526020016000208181548110610db457610db3613ed3565b5b906000526020600020906009020160405180610120016040529081600082015481526020016001820160009054906101000a900473ffffffffffffffffffffffffffffffffffffffff1673ffffffffffffffffffffffffffffffffffffffff1673ffffffffffffffffffffffffffffffffffffffff16815260200160028201548152602001600382015481526020016004820154815260200160058201548152602001600682018054610e6690613b12565b80601f0160208091040260200160405190810160405280929190818152602001828054610e9290613b12565b8015610edf5780601f10610eb457610100808354040283529160200191610edf565b820191906000526020600020905b815481529060010190602001808311610ec257829003601f168201915b505050505081526020016007820160009054906101000a900460ff166002811115610f0d57610f0c612e06565b5b6002811115610f1f57610f1e612e06565b5b8152602001600882018054610f3390613b12565b80601f0160208091040260200160405190810160405280929190818152602001828054610f5f90613b12565b8015610fac5780601f10610f8157610100808354040283529160200191610fac565b820191906000526020600020905b815481529060010190602001808311610f8f57829003601f168201915b505050505081525050898481518110610fc857610fc7613ed3565b5b60200260200101819052508280610fde90613f31565b9350506112a8565b600280811115610ff957610ff8612e06565b5b600360008d8152602001908152602001600020828154811061101e5761101d613ed3565b5b906000526020600020906009020160070160009054906101000a900460ff16600281111561104f5761104e612e06565b5b036112a757600360008c8152602001908152602001600020818154811061107957611078613ed3565b5b906000526020600020906009020160405180610120016040529081600082015481526020016001820160009054906101000a900473ffffffffffffffffffffffffffffffffffffffff1673ffffffffffffffffffffffffffffffffffffffff1673ffffffffffffffffffffffffffffffffffffffff1681526020016002820154815260200160038201548152602001600482015481526020016005820154815260200160068201805461112b90613b12565b80601f016020809104026020016040519081016040528092919081815260200182805461115790613b12565b80156111a45780601f10611179576101008083540402835291602001916111a4565b820191906000526020600020905b81548152906001019060200180831161118757829003601f168201915b505050505081526020016007820160009054906101000a900460ff1660028111156111d2576111d1612e06565b5b60028111156111e4576111e3612e06565b5b81526020016008820180546111f890613b12565b80601f016020809104026020016040519081016040528092919081815260200182805461122490613b12565b80156112715780601f1061124657610100808354040283529160200191611271565b820191906000526020600020905b81548152906001019060200180831161125457829003601f168201915b50505050508152505088838151811061128d5761128c613ed3565b5b602002602001018190525081806112a390613f31565b9250505b5b5b80806112b490613f31565b915050610a3c565b505050505050509193909250565b60008054906101000a900473ffffffffffffffffffffffffffffffffffffffff1681565b60608060606000805b6006805490508110156113615785600260006006848154811061131d5761131c613ed3565b5b90600052602060002001548152602001908152602001600020600101540361134e57818061134a90613f31565b9250505b808061135990613f31565b9150506112f7565b508067ffffffffffffffff81111561137c5761137b612a1b565b5b6040519080825280602002602001820160405280156113aa5781602001602082028036833780820191505090505b5093508067ffffffffffffffff8111156113c7576113c6612a1b565b5b6040519080825280602002602001820160405280156113fa57816020015b60608152602001906001900390816113e55790505b5092508067ffffffffffffffff81111561141757611416612a1b565b5b60405190808252806020026020018201604052801561144a57816020015b60608152602001906001900390816114355790505b5091506000805b6006805490508110156116af5786600260006006848154811061147757611476613ed3565b5b90600052602060002001548152602001908152602001600020600101540361169c57600681815481106114ad576114ac613ed3565b5b90600052602060002001548683815181106114cb576114ca613ed3565b5b60200260200101818152505060026000600683815481106114ef576114ee613ed3565b5b90600052602060002001548152602001908152602001600020600201805461151690613b12565b80601f016020809104026020016040519081016040528092919081815260200182805461154290613b12565b801561158f5780601f106115645761010080835404028352916020019161158f565b820191906000526020600020905b81548152906001019060200180831161157257829003601f168201915b50505050508583815181106115a7576115a6613ed3565b5b602002602001018190525060026000600683815481106115ca576115c9613ed3565b5b9060005260206000200154815260200190815260200160002060030180546115f190613b12565b80601f016020809104026020016040519081016040528092919081815260200182805461161d90613b12565b801561166a5780601f1061163f5761010080835404028352916020019161166a565b820191906000526020600020905b81548152906001019060200180831161164d57829003601f168201915b505050505084838151811061168257611681613ed3565b5b6020026020010181905250818061169890613f31565b9250505b80806116a790613f31565b915050611451565b5050509193909250565b8260008151116116fe576040517f08c379a00000000000000000000000000000000000000000000000000000000081526004016116f590613feb565b60405180910390fd5b6000801b600260008781526020019081526020016000206000015403611759576040517f08c379a000000000000000000000000000000000000000000000000000000000815260040161175090613eb3565b60405180910390fd5b8360405160200161176a9190613df3565b60405160208183030381529060405280519060200120600260008781526020019081526020016000206002016040516020016117a6919061408e565b60405160208183030381529060405280519060200120146117fc576040517f08c379a00000000000000000000000000000000000000000000000000000000081526004016117f390614117565b60405180910390fd5b600280600087815260200190815260200160002060040160006101000a81548160ff0219169083600281111561183557611834612e06565b5b02179055506040518060a0016040528086815260200185815260200142815260200184815260200183815250600460008781526020019081526020016000206000820151816000015560208201518160010190816118939190613ce5565b506040820151816002015560608201518160030190816118b39190613ce5565b5060808201518160040190816118c99190613ce5565b50905050847f6931b58dbc3c7b4d9caec3ed0638b6990770e147b532536809aa388e4fa97b9585856040516118ff929190613e0a565b60405180910390a25050505050565b60606005826040516119209190613df3565b908152602001604051809103902080548060200260200160405190810160405280929190818152602001828054801561197857602002820191906000526020600020905b815481526020019060010190808311611964575b50505050509050919050565b60026020528060005260406000206000915090508060000154908060010154908060020180546119b390613b12565b80601f01602080910402602001604051908101604052809291908181526020018280546119df90613b12565b8015611a2c5780601f10611a0157610100808354040283529160200191611a2c565b820191906000526020600020905b815481529060010190602001808311611a0f57829003601f168201915b505050505090806003018054611a4190613b12565b80601f0160208091040260200160405190810160405280929190818152602001828054611a6d90613b12565b8015611aba5780601f10611a8f57610100808354040283529160200191611aba565b820191906000526020600020905b815481529060010190602001808311611a9d57829003601f168201915b5050505050908060040160009054906101000a900460ff16905085565b60036004811115611aeb57611aea612e06565b5b60008054906101000a900473ffffffffffffffffffffffffffffffffffffffff1673ffffffffffffffffffffffffffffffffffffffff166327820851336040518263ffffffff1660e01b8152600401611b449190614137565b602060405180830381865afa158015611b61573d6000803e3d6000fd5b505050506040513d601f19601f82011682018060405250810190611b859190614177565b6004811115611b9757611b96612e06565b5b14611bd7576040517f08c379a0000000000000000000000000000000000000000000000000000000008152600401611bce90614216565b60405180910390fd5b6000801b600260008a81526020019081526020016000206000015403611c32576040517f08c379a0000000000000000000000000000000000000000000000000000000008152600401611c2990613eb3565b60405180910390fd5b600360008981526020019081526020016000206040518061012001604052808a81526020013373ffffffffffffffffffffffffffffffffffffffff168152602001898152602001888152602001878152602001868152602001858152602001846002811115611ca457611ca3612e06565b5b81526020018381525090806001815401808255809150506001900390600052602060002090600902016000909190919091506000820151816000015560208201518160010160006101000a81548173ffffffffffffffffffffffffffffffffffffffff021916908373ffffffffffffffffffffffffffffffffffffffff16021790555060408201518160020155606082015181600301556080820151816004015560a0820151816005015560c0820151816006019081611d649190613ce5565b5060e08201518160070160006101000a81548160ff02191690836002811115611d9057611d8f612e06565b5b0217905550610100820151816008019081611dab9190613ce5565b5050503373ffffffffffffffffffffffffffffffffffffffff16887f710a10364a49834e8c6e0fafff5354ca1e160f26a1ba1d7b33c7100c80d7ea6d8484604051611df7929190614236565b60405180910390a35050505050505050565b611e116128b0565b6060611e1b6128f7565b6000801b600260008681526020019081526020016000206000015403611e76576040517f08c379a0000000000000000000000000000000000000000000000000000000008152600401611e6d90613eb3565b60405180910390fd5b600260008581526020019081526020016000206003600086815260200190815260200160002060046000878152602001908152602001600020826040518060a00160405290816000820154815260200160018201548152602001600282018054611edf90613b12565b80601f0160208091040260200160405190810160405280929190818152602001828054611f0b90613b12565b8015611f585780601f10611f2d57610100808354040283529160200191611f58565b820191906000526020600020905b815481529060010190602001808311611f3b57829003601f168201915b50505050508152602001600382018054611f7190613b12565b80601f0160208091040260200160405190810160405280929190818152602001828054611f9d90613b12565b8015611fea5780601f10611fbf57610100808354040283529160200191611fea565b820191906000526020600020905b815481529060010190602001808311611fcd57829003601f168201915b505050505081526020016004820160009054906101000a900460ff16600281111561201857612017612e06565b5b600281111561202a57612029612e06565b5b81525050925081805480602002602001604051908101604052809291908181526020016000905b8282101561226b578382906000526020600020906009020160405180610120016040529081600082015481526020016001820160009054906101000a900473ffffffffffffffffffffffffffffffffffffffff1673ffffffffffffffffffffffffffffffffffffffff1673ffffffffffffffffffffffffffffffffffffffff1681526020016002820154815260200160038201548152602001600482015481526020016005820154815260200160068201805461210d90613b12565b80601f016020809104026020016040519081016040528092919081815260200182805461213990613b12565b80156121865780601f1061215b57610100808354040283529160200191612186565b820191906000526020600020905b81548152906001019060200180831161216957829003601f168201915b505050505081526020016007820160009054906101000a900460ff1660028111156121b4576121b3612e06565b5b60028111156121c6576121c5612e06565b5b81526020016008820180546121da90613b12565b80601f016020809104026020016040519081016040528092919081815260200182805461220690613b12565b80156122535780601f1061222857610100808354040283529160200191612253565b820191906000526020600020905b81548152906001019060200180831161223657829003601f168201915b50505050508152505081526020019060010190612051565b505050509150806040518060a00160405290816000820154815260200160018201805461229790613b12565b80601f01602080910402602001604051908101604052809291908181526020018280546122c390613b12565b80156123105780601f106122e557610100808354040283529160200191612310565b820191906000526020600020905b8154815290600101906020018083116122f357829003601f168201915b505050505081526020016002820154815260200160038201805461233390613b12565b80601f016020809104026020016040519081016040528092919081815260200182805461235f90613b12565b80156123ac5780601f10612381576101008083540402835291602001916123ac565b820191906000526020600020905b81548152906001019060200180831161238f57829003601f168201915b505050505081526020016004820180546123c590613b12565b80601f01602080910402602001604051908101604052809291908181526020018280546123f190613b12565b801561243e5780601f106124135761010080835404028352916020019161243e565b820191906000526020600020905b81548152906001019060200180831161242157829003601f168201915b50505050508152505090509250925092509193909250565b600160009054906101000a900473ffffffffffffffffffffffffffffffffffffffff1681565b60046020528060005260406000206000915090508060000154908060010180546124a590613b12565b80601f01602080910402602001604051908101604052809291908181526020018280546124d190613b12565b801561251e5780601f106124f35761010080835404028352916020019161251e565b820191906000526020600020905b81548152906001019060200180831161250157829003601f168201915b50505050509080600201549080600301805461253990613b12565b80601f016020809104026020016040519081016040528092919081815260200182805461256590613b12565b80156125b25780601f10612587576101008083540402835291602001916125b2565b820191906000526020600020905b81548152906001019060200180831161259557829003601f168201915b5050505050908060040180546125c790613b12565b80601f01602080910402602001604051908101604052809291908181526020018280546125f390613b12565b80156126405780601f1061261557610100808354040283529160200191612640565b820191906000526020600020905b81548152906001019060200180831161262357829003601f168201915b5050505050905085565b6003602052816000526040600020818154811061266657600080fd5b9060005260206000209060090201600091509150508060000154908060010160009054906101000a900473ffffffffffffffffffffffffffffffffffffffff16908060020154908060030154908060040154908060050154908060060180546126ce90613b12565b80601f01602080910402602001604051908101604052809291908181526020018280546126fa90613b12565b80156127475780601f1061271c57610100808354040283529160200191612747565b820191906000526020600020905b81548152906001019060200180831161272a57829003601f168201915b5050505050908060070160009054906101000a900460ff169080600801805461276f90613b12565b80601f016020809104026020016040519081016040528092919081815260200182805461279b90613b12565b80156127e85780601f106127bd576101008083540402835291602001916127e8565b820191906000526020600020905b8154815290600101906020018083116127cb57829003601f168201915b5050505050905089565b600582805160208101820180518482526020830160208501208183528095505050505050818154811061282457600080fd5b90600052602060002001600091509150505481565b60405180610120016040528060008019168152602001600073ffffffffffffffffffffffffffffffffffffffff1681526020016000815260200160008152602001600081526020016000815260200160608152602001600060028111156128a3576128a2612e06565b5b8152602001606081525090565b6040518060a0016040528060008019168152602001600080191681526020016060815260200160608152602001600060028111156128f1576128f0612e06565b5b81525090565b6040518060a0016040528060008019168152602001606081526020016000815260200160608152602001606081525090565b6000604051905090565b600080fd5b600080fd5b6000819050919050565b6129508161293d565b811461295b57600080fd5b50565b60008135905061296d81612947565b92915050565b60006020828403121561298957612988612933565b5b60006129978482850161295e565b91505092915050565b6000819050919050565b6129b3816129a0565b82525050565b60006020820190506129ce60008301846129aa565b92915050565b6129dd816129a0565b81146129e857600080fd5b50565b6000813590506129fa816129d4565b92915050565b600080fd5b600080fd5b6000601f19601f8301169050919050565b7f4e487b7100000000000000000000000000000000000000000000000000000000600052604160045260246000fd5b612a5382612a0a565b810181811067ffffffffffffffff82111715612a7257612a71612a1b565b5b80604052505050565b6000612a85612929565b9050612a918282612a4a565b919050565b600067ffffffffffffffff821115612ab157612ab0612a1b565b5b612aba82612a0a565b9050602081019050919050565b82818337600083830152505050565b6000612ae9612ae484612a96565b612a7b565b905082815260208101848484011115612b0557612b04612a05565b5b612b10848285612ac7565b509392505050565b600082601f830112612b2d57612b2c612a00565b5b8135612b3d848260208601612ad6565b91505092915050565b60008060008060808587031215612b6057612b5f612933565b5b6000612b6e878288016129eb565b9450506020612b7f878288016129eb565b935050604085013567ffffffffffffffff811115612ba057612b9f612938565b5b612bac87828801612b18565b925050606085013567ffffffffffffffff811115612bcd57612bcc612938565b5b612bd987828801612b18565b91505092959194509250565b600081519050919050565b600082825260208201905092915050565b6000819050602082019050919050565b612c1a816129a0565b82525050565b6000612c2c8383612c11565b60208301905092915050565b6000602082019050919050565b6000612c5082612be5565b612c5a8185612bf0565b9350612c6583612c01565b8060005b83811015612c96578151612c7d8882612c20565b9750612c8883612c38565b925050600181019050612c69565b5085935050505092915050565b60006020820190508181036000830152612cbd8184612c45565b905092915050565b600060208284031215612cdb57612cda612933565b5b6000612ce9848285016129eb565b91505092915050565b600081519050919050565b600082825260208201905092915050565b6000819050602082019050919050565b600073ffffffffffffffffffffffffffffffffffffffff82169050919050565b6000612d4982612d1e565b9050919050565b612d5981612d3e565b82525050565b612d688161293d565b82525050565b6000819050919050565b612d8181612d6e565b82525050565b600081519050919050565b600082825260208201905092915050565b60005b83811015612dc1578082015181840152602081019050612da6565b60008484015250505050565b6000612dd882612d87565b612de28185612d92565b9350612df2818560208601612da3565b612dfb81612a0a565b840191505092915050565b7f4e487b7100000000000000000000000000000000000000000000000000000000600052602160045260246000fd5b60038110612e4657612e45612e06565b5b50565b6000819050612e5782612e35565b919050565b6000612e6782612e49565b9050919050565b612e7781612e5c565b82525050565b600061012083016000830151612e966000860182612c11565b506020830151612ea96020860182612d50565b506040830151612ebc6040860182612d5f565b506060830151612ecf6060860182612d5f565b506080830151612ee26080860182612d5f565b5060a0830151612ef560a0860182612d78565b5060c083015184820360c0860152612f0d8282612dcd565b91505060e0830151612f2260e0860182612e6e565b50610100830151848203610100860152612f3c8282612dcd565b9150508091505092915050565b6000612f558383612e7d565b905092915050565b6000602082019050919050565b6000612f7582612cf2565b612f7f8185612cfd565b935083602082028501612f9185612d0e565b8060005b85811015612fcd5784840389528151612fae8582612f49565b9450612fb983612f5d565b925060208a01995050600181019050612f95565b50829750879550505050505092915050565b60006060820190508181036000830152612ff98186612f6a565b9050818103602083015261300d8185612f6a565b905081810360408301526130218184612f6a565b9050949350505050565b6000819050919050565b600061305061304b61304684612d1e565b61302b565b612d1e565b9050919050565b600061306282613035565b9050919050565b600061307482613057565b9050919050565b61308481613069565b82525050565b600060208201905061309f600083018461307b565b92915050565b600081519050919050565b600082825260208201905092915050565b6000819050602082019050919050565b60006130dd8383612dcd565b905092915050565b6000602082019050919050565b60006130fd826130a5565b61310781856130b0565b935083602082028501613119856130c1565b8060005b85811015613155578484038952815161313685826130d1565b9450613141836130e5565b925060208a0199505060018101905061311d565b50829750879550505050505092915050565b600060608201905081810360008301526131818186612c45565b9050818103602083015261319581856130f2565b905081810360408301526131a981846130f2565b9050949350505050565b600080600080608085870312156131cd576131cc612933565b5b60006131db878288016129eb565b945050602085013567ffffffffffffffff8111156131fc576131fb612938565b5b61320887828801612b18565b935050604085013567ffffffffffffffff81111561322957613228612938565b5b61323587828801612b18565b925050606085013567ffffffffffffffff81111561325657613255612938565b5b61326287828801612b18565b91505092959194509250565b60006020828403121561328457613283612933565b5b600082013567ffffffffffffffff8111156132a2576132a1612938565b5b6132ae84828501612b18565b91505092915050565b600082825260208201905092915050565b60006132d382612d87565b6132dd81856132b7565b93506132ed818560208601612da3565b6132f681612a0a565b840191505092915050565b6003811061331257613311612e06565b5b50565b600081905061332382613301565b919050565b600061333382613315565b9050919050565b61334381613328565b82525050565b600060a08201905061335e60008301886129aa565b61336b60208301876129aa565b818103604083015261337d81866132c8565b9050818103606083015261339181856132c8565b90506133a0608083018461333a565b9695505050505050565b6133b381612d6e565b81146133be57600080fd5b50565b6000813590506133d0816133aa565b92915050565b600381106133e357600080fd5b50565b6000813590506133f5816133d6565b92915050565b600080600080600080600080610100898b03121561341c5761341b612933565b5b600061342a8b828c016129eb565b985050602061343b8b828c0161295e565b975050604061344c8b828c0161295e565b965050606061345d8b828c0161295e565b955050608061346e8b828c016133c1565b94505060a089013567ffffffffffffffff81111561348f5761348e612938565b5b61349b8b828c01612b18565b93505060c06134ac8b828c016133e6565b92505060e089013567ffffffffffffffff8111156134cd576134cc612938565b5b6134d98b828c01612b18565b9150509295985092959890939650565b6134f281613328565b82525050565b600060a0830160008301516135106000860182612c11565b5060208301516135236020860182612c11565b506040830151848203604086015261353b8282612dcd565b915050606083015184820360608601526135558282612dcd565b915050608083015161356a60808601826134e9565b508091505092915050565b600060a08301600083015161358d6000860182612c11565b50602083015184820360208601526135a58282612dcd565b91505060408301516135ba6040860182612d5f565b50606083015184820360608601526135d28282612dcd565b915050608083015184820360808601526135ec8282612dcd565b9150508091505092915050565b6000606082019050818103600083015261361381866134f8565b905081810360208301526136278185612f6a565b9050818103604083015261363b8184613575565b9050949350505050565b600061365082613057565b9050919050565b61366081613645565b82525050565b600060208201905061367b6000830184613657565b92915050565b61368a8161293d565b82525050565b600060a0820190506136a560008301886129aa565b81810360208301526136b781876132c8565b90506136c66040830186613681565b81810360608301526136d881856132c8565b905081810360808301526136ec81846132c8565b90509695505050505050565b6000806040838503121561370f5761370e612933565b5b600061371d858286016129eb565b925050602061372e8582860161295e565b9150509250929050565b61374181612d3e565b82525050565b61375081612d6e565b82525050565b61375f81612e5c565b82525050565b60006101208201905061377b600083018c6129aa565b613788602083018b613738565b613795604083018a613681565b6137a26060830189613681565b6137af6080830188613681565b6137bc60a0830187613747565b81810360c08301526137ce81866132c8565b90506137dd60e0830185613756565b8181036101008301526137f081846132c8565b90509a9950505050505050505050565b6000806040838503121561381757613816612933565b5b600083013567ffffffffffffffff81111561383557613834612938565b5b61384185828601612b18565b92505060206138528582860161295e565b9150509250929050565b60008115159050919050565b6138718161385c565b811461387c57600080fd5b50565b60008151905061388e81613868565b92915050565b6000602082840312156138aa576138a9612933565b5b60006138b88482850161387f565b91505092915050565b7f4572726f723a2050726f64756374204c6f7420646f6573206e6f74206578697360008201527f7400000000000000000000000000000000000000000000000000000000000000602082015250565b600061391d6021836132b7565b9150613928826138c1565b604082019050919050565b6000602082019050818103600083015261394c81613910565b9050919050565b7f4572726f723a20547261636b696e6720494420616c726561647920657869737460008201527f7300000000000000000000000000000000000000000000000000000000000000602082015250565b60006139af6021836132b7565b91506139ba82613953565b604082019050919050565b600060208201905081810360008301526139de816139a2565b9050919050565b7f4572726f723a20496e76616c69642052657461696c6572204944000000000000600082015250565b6000613a1b601a836132b7565b9150613a26826139e5565b602082019050919050565b60006020820190508181036000830152613a4a81613a0e565b9050919050565b7f4572726f723a20515220436f6465204349442063616e6e6f7420626520656d7060008201527f7479000000000000000000000000000000000000000000000000000000000000602082015250565b6000613aad6022836132b7565b9150613ab882613a51565b604082019050919050565b60006020820190508181036000830152613adc81613aa0565b9050919050565b7f4e487b7100000000000000000000000000000000000000000000000000000000600052602260045260246000fd5b60006002820490506001821680613b2a57607f821691505b602082108103613b3d57613b3c613ae3565b5b50919050565b60008190508160005260206000209050919050565b60006020601f8301049050919050565b600082821b905092915050565b600060088302613ba57fffffffffffffffffffffffffffffffffffffffffffffffffffffffffffffffff82613b68565b613baf8683613b68565b95508019841693508086168417925050509392505050565b6000613be2613bdd613bd88461293d565b61302b565b61293d565b9050919050565b6000819050919050565b613bfc83613bc7565b613c10613c0882613be9565b848454613b75565b825550505050565b600090565b613c25613c18565b613c30818484613bf3565b505050565b5b81811015613c5457613c49600082613c1d565b600181019050613c36565b5050565b601f821115613c9957613c6a81613b43565b613c7384613b58565b81016020851015613c82578190505b613c96613c8e85613b58565b830182613c35565b50505b505050565b600082821c905092915050565b6000613cbc60001984600802613c9e565b1980831691505092915050565b6000613cd58383613cab565b9150826002028217905092915050565b613cee82612d87565b67ffffffffffffffff811115613d0757613d06612a1b565b5b613d118254613b12565b613d1c828285613c58565b600060209050601f831160018114613d4f5760008415613d3d578287015190505b613d478582613cc9565b865550613daf565b601f198416613d5d86613b43565b60005b82811015613d8557848901518255600182019150602085019450602081019050613d60565b86831015613da25784890151613d9e601f891682613cab565b8355505b6001600288020188555050505b505050505050565b600081905092915050565b6000613dcd82612d87565b613dd78185613db7565b9350613de7818560208601612da3565b80840191505092915050565b6000613dff8284613dc2565b915081905092915050565b60006040820190508181036000830152613e2481856132c8565b90508181036020830152613e3881846132c8565b90509392505050565b7f4572726f723a20547261636b696e6720494420646f6573206e6f74206578697360008201527f7400000000000000000000000000000000000000000000000000000000000000602082015250565b6000613e9d6021836132b7565b9150613ea882613e41565b604082019050919050565b60006020820190508181036000830152613ecc81613e90565b9050919050565b7f4e487b7100000000000000000000000000000000000000000000000000000000600052603260045260246000fd5b7f4e487b7100000000000000000000000000000000000000000000000000000000600052601160045260246000fd5b6000613f3c8261293d565b91507fffffffffffffffffffffffffffffffffffffffffffffffffffffffffffffffff8203613f6e57613f6d613f02565b5b600182019050919050565b7f4163636573732064656e6965643a20496e76616c69642072657461696c65722060008201527f4944000000000000000000000000000000000000000000000000000000000000602082015250565b6000613fd56022836132b7565b9150613fe082613f79565b604082019050919050565b6000602082019050818103600083015261400481613fc8565b9050919050565b6000815461401881613b12565b6140228186613db7565b9450600182166000811461403d576001811461405257614085565b60ff1983168652811515820286019350614085565b61405b85613b43565b60005b8381101561407d5781548189015260018201915060208101905061405e565b838801955050505b50505092915050565b600061409a828461400b565b915081905092915050565b7f4572726f723a204f6e6c792061737369676e65642072657461696c657220636160008201527f6e20726563656976650000000000000000000000000000000000000000000000602082015250565b60006141016029836132b7565b915061410c826140a5565b604082019050919050565b60006020820190508181036000830152614130816140f4565b9050919050565b600060208201905061414c6000830184613738565b92915050565b6005811061415f57600080fd5b50565b60008151905061417181614152565b92915050565b60006020828403121561418d5761418c612933565b5b600061419b84828501614162565b91505092915050565b7f4163636573732064656e6965643a204f6e6c79206c6f6769737469637320616c60008201527f6c6f776564000000000000000000000000000000000000000000000000000000602082015250565b60006142006025836132b7565b915061420b826141a4565b604082019050919050565b6000602082019050818103600083015261422f816141f3565b9050919050565b600060408201905061424b6000830185613756565b818103602083015261425d81846132c8565b9050939250505056fea2646970667358221220813a6f06353b2ac397180fae626a33feea106b949fafc7913dfd351069a142c464736f6c63430008130033",
  "immutableReferences": {},
  "source": "// SPDX-License-Identifier: MIT\npragma solidity ^0.8.19;\n\nimport \"./UserRegistry.sol\";\nimport \"./ProductLot.sol\";\n\ncontract Tracking {\n    UserRegistry public userRegistry;\n    ProductLot public productLotContract;\n\n    enum TrackingStatus { Pending, InTransit, Received }\n    enum LogisticsCheckType { Before, During, After }\n\n    struct TrackingEvent {\n        bytes32 trackingId;\n        bytes32 productLotId;\n        string retailerId; //   Address\n        string qrCodeCID;\n        TrackingStatus status;\n    }\n\n    struct LogisticsCheckpoint {\n    bytes32 trackingId;\n    address logisticsProvider;\n    uint256 pickupTime;\n    uint256 deliveryTime;\n    uint256 quantity;\n    int256 temperature;\n    string personInCharge;\n    LogisticsCheckType checkType;\n    string receiverCID; //   (IPFS CID)\n}\n\n    struct RetailerConfirmation {\n        bytes32 trackingId;\n        string retailerId; //   Retailer ID  Address\n        uint256 receivedTime;\n        string qualityCID;\n        string personInCharge;\n    }\n\n    mapping(bytes32 => TrackingEvent) public trackingEvents;\n    mapping(bytes32 => LogisticsCheckpoint[]) public logisticsCheckpoints;\n    mapping(bytes32 => RetailerConfirmation) public retailerConfirmations;\n    mapping(string => bytes32[]) public retailerTracking; //   Retailer ID  key\n   bytes32[] public allTrackingIds; //  \n\n\n\n    event TrackingCreated(bytes32 indexed trackingId, bytes32 indexed productLotId, string retailerId, string qrCodeCID);\n    event LogisticsUpdated(\n    bytes32 indexed trackingId,\n    address indexed logisticsProvider,\n    LogisticsCheckType checkType,\n    string receiverCID //  \n);\n    event RetailerReceived(bytes32 indexed trackingId, string retailerId, string qualityCID);\n\n    modifier onlyLogistics() {\n        require(userRegistry.getUserRole(msg.sender) == UserRegistry.UserRole.Logistics, \"Access denied: Only logistics allowed\");\n        _;\n    }\n\n    modifier onlyRetailer(string memory _retailerId) {\n        require(bytes(_retailerId).length > 0, \"Access denied: Invalid retailer ID\");\n        _;\n    }\n\n    constructor(address _userRegistry, address _productLotContract) {\n        userRegistry = UserRegistry(_userRegistry);\n        productLotContract = ProductLot(_productLotContract);\n    }\n\n    function createTrackingEvent(\n        bytes32 _trackingId,\n        bytes32 _productLotId,\n        string memory _retailerId,\n        string memory _qrCodeCID\n    ) public {\n        require(productLotContract.isProductLotExists(_productLotId), \"Error: Product Lot does not exist\");\n        require(trackingEvents[_trackingId].trackingId == bytes32(0), \"Error: Tracking ID already exists\");\n        require(bytes(_retailerId).length > 0, \"Error: Invalid Retailer ID\");\n        require(bytes(_qrCodeCID).length > 0, \"Error: QR Code CID cannot be empty\");\n\n        trackingEvents[_trackingId] = TrackingEvent({\n            trackingId: _trackingId,\n            productLotId: _productLotId,\n            retailerId: _retailerId,\n            qrCodeCID: _qrCodeCID,\n            status: TrackingStatus.Pending\n        });\n\n        allTrackingIds.push(_trackingId);\n        retailerTracking[_retailerId].push(_trackingId);\n        emit TrackingCreated(_trackingId, _productLotId, _retailerId, _qrCodeCID);\n    }\n\n    function updateLogisticsCheckpoint(\n    bytes32 _trackingId,\n    uint256 _pickupTime,\n    uint256 _deliveryTime,\n    uint256 _quantity,\n    int256 _temperature,\n    string memory _personInCharge,\n    LogisticsCheckType _checkType,\n    string memory _receiverCID //   parameter\n) public onlyLogistics {\n    require(trackingEvents[_trackingId].trackingId != bytes32(0), \"Error: Tracking ID does not exist\");\n\n    logisticsCheckpoints[_trackingId].push(LogisticsCheckpoint({\n        trackingId: _trackingId,\n        logisticsProvider: msg.sender,\n        pickupTime: _pickupTime,\n        deliveryTime: _deliveryTime,\n        quantity: _quantity,\n        temperature: _temperature,\n        personInCharge: _personInCharge,\n        checkType: _checkType,\n        receiverCID: _receiverCID //  \n    }));\n\n    emit LogisticsUpdated(_trackingId, msg.sender, _checkType, _receiverCID);\n}\n\n    function retailerReceiveProduct(\n        bytes32 _trackingId,\n        string memory _retailerId,\n        string memory _qualityCID,\n        string memory _personInCharge\n    ) public onlyRetailer(_retailerId) {\n        require(trackingEvents[_trackingId].trackingId != bytes32(0), \"Error: Tracking ID does not exist\");\n        require(keccak256(abi.encodePacked(trackingEvents[_trackingId].retailerId)) == keccak256(abi.encodePacked(_retailerId)), \"Error: Only assigned retailer can receive\");\n\n        trackingEvents[_trackingId].status = TrackingStatus.Received;\n        retailerConfirmations[_trackingId] = RetailerConfirmation({\n            trackingId: _trackingId,\n            retailerId: _retailerId,\n            receivedTime: block.timestamp,\n            qualityCID: _qualityCID,\n            personInCharge: _personInCharge\n        });\n        emit RetailerReceived(_trackingId, _retailerId, _qualityCID);\n    }\n\n    function getTrackingById(bytes32 _trackingId) public view returns (TrackingEvent memory, LogisticsCheckpoint[] memory, RetailerConfirmation memory) {\n        require(trackingEvents[_trackingId].trackingId != bytes32(0), \"Error: Tracking ID does not exist\");\n        return (trackingEvents[_trackingId], logisticsCheckpoints[_trackingId], retailerConfirmations[_trackingId]);\n    }\n\n    function getTrackingByRetailer(string memory _retailerId) public view returns (bytes32[] memory) {\n        return retailerTracking[_retailerId];\n    }\nfunction getTrackingByLotId(bytes32 _productLotId) \n    public view \n    returns (bytes32[] memory resultTrackingIds, string[] memory retailerIds, string[] memory qrCodeCIDs) \n{\n    uint count = 0;\n\n    //   `allTrackingIds`  Tracking Events\n    for (uint i = 0; i < allTrackingIds.length; i++) {\n        if (trackingEvents[allTrackingIds[i]].productLotId == _productLotId) {\n            count++;\n        }\n    }\n\n    //  \n    resultTrackingIds = new bytes32[](count);\n    retailerIds = new string[](count);\n    qrCodeCIDs = new string[](count);\n\n    uint index = 0;\n    for (uint i = 0; i < allTrackingIds.length; i++) {\n        if (trackingEvents[allTrackingIds[i]].productLotId == _productLotId) {\n            resultTrackingIds[index] = allTrackingIds[i];\n            retailerIds[index] = trackingEvents[allTrackingIds[i]].retailerId;\n            qrCodeCIDs[index] = trackingEvents[allTrackingIds[i]].qrCodeCID;\n            index++;\n        }\n    }\n\n    return (resultTrackingIds, retailerIds, qrCodeCIDs);\n}\nfunction getAllTrackingIds() public view returns (bytes32[] memory) {\n    return allTrackingIds;\n}\nfunction getLogisticsCheckpointsByTrackingId(bytes32 _trackingId) \n    public view \n    returns (\n        LogisticsCheckpoint[] memory beforeCheckpoints, \n        LogisticsCheckpoint[] memory duringCheckpoints, \n        LogisticsCheckpoint[] memory afterCheckpoints\n    ) \n{\n    require(trackingEvents[_trackingId].trackingId != bytes32(0), \"Error: Tracking ID does not exist\");\n\n    uint beforeCount = 0;\n    uint duringCount = 0;\n    uint afterCount = 0;\n\n    //  \n    for (uint i = 0; i < logisticsCheckpoints[_trackingId].length; i++) {\n        if (logisticsCheckpoints[_trackingId][i].checkType == LogisticsCheckType.Before) {\n            beforeCount++;\n        } else if (logisticsCheckpoints[_trackingId][i].checkType == LogisticsCheckType.During) {\n            duringCount++;\n        } else if (logisticsCheckpoints[_trackingId][i].checkType == LogisticsCheckType.After) {\n            afterCount++;\n        }\n    }\n\n    //  \n    beforeCheckpoints = new LogisticsCheckpoint[](beforeCount);\n    duringCheckpoints = new LogisticsCheckpoint[](duringCount);\n    afterCheckpoints = new LogisticsCheckpoint[](afterCount);\n\n    uint beforeIndex = 0;\n    uint duringIndex = 0;\n    uint afterIndex = 0;\n\n    //  \n    for (uint i = 0; i < logisticsCheckpoints[_trackingId].length; i++) {\n        if (logisticsCheckpoints[_trackingId][i].checkType == LogisticsCheckType.Before) {\n            beforeCheckpoints[beforeIndex] = logisticsCheckpoints[_trackingId][i];\n            beforeIndex++;\n        } else if (logisticsCheckpoints[_trackingId][i].checkType == LogisticsCheckType.During) {\n            duringCheckpoints[duringIndex] = logisticsCheckpoints[_trackingId][i];\n            duringIndex++;\n        } else if (logisticsCheckpoints[_trackingId][i].checkType == LogisticsCheckType.After) {\n            afterCheckpoints[afterIndex] = logisticsCheckpoints[_trackingId][i];\n            afterIndex++;\n        }\n    }\n\n    return (beforeCheckpoints, duringCheckpoints, afterCheckpoints);\n}\n\n\n}\n",
  "sourcePath": "/home/apiwat/Documents/Backend/Backend/solidity/contracts/Tracking.sol",
  "compiler": {
    "name": "solc",
    "version": "0.8.19+commit.7dd6d404.Emscripten.clang"
  },
  "schemaVersion": "3.4.16",
  "updatedAt": "2025-03-14T00:55:58.224Z",
  "networkType": "ethereum",
  "devdoc": {
    "kind": "dev",
    "methods": {},
    "version": 1
  },
  "userdoc": {
    "kind": "user",
    "methods": {},
    "version": 1
  }
}