{
  "contractName": "Tracking",
  "abi": [
    {
      "inputs": [
        {
          "internalType": "address",
          "name": "_userRegistry",
          "type": "address"
        },
        {
          "internalType": "address",
          "name": "_productLotContract",
          "type": "address"
        }
      ],
      "stateMutability": "nonpayable",
      "type": "constructor"
    },
    {
      "anonymous": false,
      "inputs": [
        {
          "indexed": true,
          "internalType": "bytes32",
          "name": "trackingId",
          "type": "bytes32"
        },
        {
          "indexed": true,
          "internalType": "address",
          "name": "logisticsProvider",
          "type": "address"
        },
        {
          "indexed": false,
          "internalType": "enum Tracking.LogisticsCheckType",
          "name": "checkType",
          "type": "uint8"
        },
        {
          "indexed": false,
          "internalType": "string",
          "name": "receiverCID",
          "type": "string"
        }
      ],
      "name": "LogisticsUpdated",
      "type": "event"
    },
    {
      "anonymous": false,
      "inputs": [
        {
          "indexed": true,
          "internalType": "bytes32",
          "name": "trackingId",
          "type": "bytes32"
        },
        {
          "indexed": false,
          "internalType": "string",
          "name": "retailerId",
          "type": "string"
        },
        {
          "indexed": false,
          "internalType": "string",
          "name": "qualityCID",
          "type": "string"
        }
      ],
      "name": "RetailerReceived",
      "type": "event"
    },
    {
      "anonymous": false,
      "inputs": [
        {
          "indexed": true,
          "internalType": "bytes32",
          "name": "trackingId",
          "type": "bytes32"
        },
        {
          "indexed": true,
          "internalType": "bytes32",
          "name": "productLotId",
          "type": "bytes32"
        },
        {
          "indexed": false,
          "internalType": "string",
          "name": "retailerId",
          "type": "string"
        },
        {
          "indexed": false,
          "internalType": "string",
          "name": "qrCodeCID",
          "type": "string"
        }
      ],
      "name": "TrackingCreated",
      "type": "event"
    },
    {
      "inputs": [
        {
          "internalType": "uint256",
          "name": "",
          "type": "uint256"
        }
      ],
      "name": "allTrackingIds",
      "outputs": [
        {
          "internalType": "bytes32",
          "name": "",
          "type": "bytes32"
        }
      ],
      "stateMutability": "view",
      "type": "function",
      "constant": true
    },
    {
      "inputs": [
        {
          "internalType": "bytes32",
          "name": "",
          "type": "bytes32"
        },
        {
          "internalType": "uint256",
          "name": "",
          "type": "uint256"
        }
      ],
      "name": "logisticsCheckpoints",
      "outputs": [
        {
          "internalType": "bytes32",
          "name": "trackingId",
          "type": "bytes32"
        },
        {
          "internalType": "address",
          "name": "logisticsProvider",
          "type": "address"
        },
        {
          "internalType": "uint256",
          "name": "pickupTime",
          "type": "uint256"
        },
        {
          "internalType": "uint256",
          "name": "deliveryTime",
          "type": "uint256"
        },
        {
          "internalType": "uint256",
          "name": "quantity",
          "type": "uint256"
        },
        {
          "internalType": "int256",
          "name": "temperature",
          "type": "int256"
        },
        {
          "internalType": "string",
          "name": "personInCharge",
          "type": "string"
        },
        {
          "internalType": "enum Tracking.LogisticsCheckType",
          "name": "checkType",
          "type": "uint8"
        },
        {
          "internalType": "string",
          "name": "receiverCID",
          "type": "string"
        }
      ],
      "stateMutability": "view",
      "type": "function",
      "constant": true
    },
    {
      "inputs": [],
      "name": "productLotContract",
      "outputs": [
        {
          "internalType": "contract ProductLot",
          "name": "",
          "type": "address"
        }
      ],
      "stateMutability": "view",
      "type": "function",
      "constant": true
    },
    {
      "inputs": [
        {
          "internalType": "bytes32",
          "name": "",
          "type": "bytes32"
        }
      ],
      "name": "retailerConfirmations",
      "outputs": [
        {
          "internalType": "bytes32",
          "name": "trackingId",
          "type": "bytes32"
        },
        {
          "internalType": "string",
          "name": "retailerId",
          "type": "string"
        },
        {
          "internalType": "uint256",
          "name": "receivedTime",
          "type": "uint256"
        },
        {
          "internalType": "string",
          "name": "qualityCID",
          "type": "string"
        },
        {
          "internalType": "string",
          "name": "personInCharge",
          "type": "string"
        }
      ],
      "stateMutability": "view",
      "type": "function",
      "constant": true
    },
    {
      "inputs": [
        {
          "internalType": "string",
          "name": "",
          "type": "string"
        },
        {
          "internalType": "uint256",
          "name": "",
          "type": "uint256"
        }
      ],
      "name": "retailerTracking",
      "outputs": [
        {
          "internalType": "bytes32",
          "name": "",
          "type": "bytes32"
        }
      ],
      "stateMutability": "view",
      "type": "function",
      "constant": true
    },
    {
      "inputs": [
        {
          "internalType": "bytes32",
          "name": "",
          "type": "bytes32"
        }
      ],
      "name": "trackingEvents",
      "outputs": [
        {
          "internalType": "bytes32",
          "name": "trackingId",
          "type": "bytes32"
        },
        {
          "internalType": "bytes32",
          "name": "productLotId",
          "type": "bytes32"
        },
        {
          "internalType": "string",
          "name": "retailerId",
          "type": "string"
        },
        {
          "internalType": "string",
          "name": "qrCodeCID",
          "type": "string"
        },
        {
          "internalType": "enum Tracking.TrackingStatus",
          "name": "status",
          "type": "uint8"
        }
      ],
      "stateMutability": "view",
      "type": "function",
      "constant": true
    },
    {
      "inputs": [],
      "name": "userRegistry",
      "outputs": [
        {
          "internalType": "contract UserRegistry",
          "name": "",
          "type": "address"
        }
      ],
      "stateMutability": "view",
      "type": "function",
      "constant": true
    },
    {
      "inputs": [
        {
          "internalType": "bytes32",
          "name": "_trackingId",
          "type": "bytes32"
        },
        {
          "internalType": "bytes32",
          "name": "_productLotId",
          "type": "bytes32"
        },
        {
          "internalType": "string",
          "name": "_retailerId",
          "type": "string"
        },
        {
          "internalType": "string",
          "name": "_qrCodeCID",
          "type": "string"
        }
      ],
      "name": "createTrackingEvent",
      "outputs": [],
      "stateMutability": "nonpayable",
      "type": "function"
    },
    {
      "inputs": [
        {
          "internalType": "bytes32",
          "name": "_trackingId",
          "type": "bytes32"
        },
        {
          "internalType": "uint256",
          "name": "_pickupTime",
          "type": "uint256"
        },
        {
          "internalType": "uint256",
          "name": "_deliveryTime",
          "type": "uint256"
        },
        {
          "internalType": "uint256",
          "name": "_quantity",
          "type": "uint256"
        },
        {
          "internalType": "int256",
          "name": "_temperature",
          "type": "int256"
        },
        {
          "internalType": "string",
          "name": "_personInCharge",
          "type": "string"
        },
        {
          "internalType": "enum Tracking.LogisticsCheckType",
          "name": "_checkType",
          "type": "uint8"
        },
        {
          "internalType": "string",
          "name": "_receiverCID",
          "type": "string"
        }
      ],
      "name": "updateLogisticsCheckpoint",
      "outputs": [],
      "stateMutability": "nonpayable",
      "type": "function"
    },
    {
      "inputs": [
        {
          "internalType": "bytes32",
          "name": "_trackingId",
          "type": "bytes32"
        },
        {
          "internalType": "string",
          "name": "_retailerId",
          "type": "string"
        },
        {
          "internalType": "string",
          "name": "_qualityCID",
          "type": "string"
        },
        {
          "internalType": "string",
          "name": "_personInCharge",
          "type": "string"
        }
      ],
      "name": "retailerReceiveProduct",
      "outputs": [],
      "stateMutability": "nonpayable",
      "type": "function"
    },
    {
      "inputs": [
        {
          "internalType": "bytes32",
          "name": "_trackingId",
          "type": "bytes32"
        }
      ],
      "name": "getTrackingById",
      "outputs": [
        {
          "components": [
            {
              "internalType": "bytes32",
              "name": "trackingId",
              "type": "bytes32"
            },
            {
              "internalType": "bytes32",
              "name": "productLotId",
              "type": "bytes32"
            },
            {
              "internalType": "string",
              "name": "retailerId",
              "type": "string"
            },
            {
              "internalType": "string",
              "name": "qrCodeCID",
              "type": "string"
            },
            {
              "internalType": "enum Tracking.TrackingStatus",
              "name": "status",
              "type": "uint8"
            }
          ],
          "internalType": "struct Tracking.TrackingEvent",
          "name": "",
          "type": "tuple"
        },
        {
          "components": [
            {
              "internalType": "bytes32",
              "name": "trackingId",
              "type": "bytes32"
            },
            {
              "internalType": "address",
              "name": "logisticsProvider",
              "type": "address"
            },
            {
              "internalType": "uint256",
              "name": "pickupTime",
              "type": "uint256"
            },
            {
              "internalType": "uint256",
              "name": "deliveryTime",
              "type": "uint256"
            },
            {
              "internalType": "uint256",
              "name": "quantity",
              "type": "uint256"
            },
            {
              "internalType": "int256",
              "name": "temperature",
              "type": "int256"
            },
            {
              "internalType": "string",
              "name": "personInCharge",
              "type": "string"
            },
            {
              "internalType": "enum Tracking.LogisticsCheckType",
              "name": "checkType",
              "type": "uint8"
            },
            {
              "internalType": "string",
              "name": "receiverCID",
              "type": "string"
            }
          ],
          "internalType": "struct Tracking.LogisticsCheckpoint[]",
          "name": "",
          "type": "tuple[]"
        },
        {
          "components": [
            {
              "internalType": "bytes32",
              "name": "trackingId",
              "type": "bytes32"
            },
            {
              "internalType": "string",
              "name": "retailerId",
              "type": "string"
            },
            {
              "internalType": "uint256",
              "name": "receivedTime",
              "type": "uint256"
            },
            {
              "internalType": "string",
              "name": "qualityCID",
              "type": "string"
            },
            {
              "internalType": "string",
              "name": "personInCharge",
              "type": "string"
            }
          ],
          "internalType": "struct Tracking.RetailerConfirmation",
          "name": "",
          "type": "tuple"
        }
      ],
      "stateMutability": "view",
      "type": "function",
      "constant": true
    },
    {
      "inputs": [
        {
          "internalType": "string",
          "name": "_retailerId",
          "type": "string"
        }
      ],
      "name": "getTrackingByRetailer",
      "outputs": [
        {
          "internalType": "bytes32[]",
          "name": "",
          "type": "bytes32[]"
        }
      ],
      "stateMutability": "view",
      "type": "function",
      "constant": true
    },
    {
      "inputs": [
        {
          "internalType": "bytes32",
          "name": "_productLotId",
          "type": "bytes32"
        }
      ],
      "name": "getTrackingByLotId",
      "outputs": [
        {
          "internalType": "bytes32[]",
          "name": "resultTrackingIds",
          "type": "bytes32[]"
        },
        {
          "internalType": "string[]",
          "name": "retailerIds",
          "type": "string[]"
        },
        {
          "internalType": "string[]",
          "name": "qrCodeCIDs",
          "type": "string[]"
        }
      ],
      "stateMutability": "view",
      "type": "function",
      "constant": true
    },
    {
      "inputs": [],
      "name": "getOngoingShipmentsByLogistics",
      "outputs": [
        {
          "internalType": "bytes32[]",
          "name": "trackingIds",
          "type": "bytes32[]"
        },
        {
          "internalType": "string[]",
          "name": "personInChargeList",
          "type": "string[]"
        }
      ],
      "stateMutability": "view",
      "type": "function",
      "constant": true
    },
    {
      "inputs": [],
      "name": "getAllTrackingIds",
      "outputs": [
        {
          "internalType": "bytes32[]",
          "name": "",
          "type": "bytes32[]"
        }
      ],
      "stateMutability": "view",
      "type": "function",
      "constant": true
    },
    {
      "inputs": [
        {
          "internalType": "bytes32",
          "name": "_trackingId",
          "type": "bytes32"
        }
      ],
      "name": "getLogisticsCheckpointsByTrackingId",
      "outputs": [
        {
          "components": [
            {
              "internalType": "bytes32",
              "name": "trackingId",
              "type": "bytes32"
            },
            {
              "internalType": "address",
              "name": "logisticsProvider",
              "type": "address"
            },
            {
              "internalType": "uint256",
              "name": "pickupTime",
              "type": "uint256"
            },
            {
              "internalType": "uint256",
              "name": "deliveryTime",
              "type": "uint256"
            },
            {
              "internalType": "uint256",
              "name": "quantity",
              "type": "uint256"
            },
            {
              "internalType": "int256",
              "name": "temperature",
              "type": "int256"
            },
            {
              "internalType": "string",
              "name": "personInCharge",
              "type": "string"
            },
            {
              "internalType": "enum Tracking.LogisticsCheckType",
              "name": "checkType",
              "type": "uint8"
            },
            {
              "internalType": "string",
              "name": "receiverCID",
              "type": "string"
            }
          ],
          "internalType": "struct Tracking.LogisticsCheckpoint[]",
          "name": "beforeCheckpoints",
          "type": "tuple[]"
        },
        {
          "components": [
            {
              "internalType": "bytes32",
              "name": "trackingId",
              "type": "bytes32"
            },
            {
              "internalType": "address",
              "name": "logisticsProvider",
              "type": "address"
            },
            {
              "internalType": "uint256",
              "name": "pickupTime",
              "type": "uint256"
            },
            {
              "internalType": "uint256",
              "name": "deliveryTime",
              "type": "uint256"
            },
            {
              "internalType": "uint256",
              "name": "quantity",
              "type": "uint256"
            },
            {
              "internalType": "int256",
              "name": "temperature",
              "type": "int256"
            },
            {
              "internalType": "string",
              "name": "personInCharge",
              "type": "string"
            },
            {
              "internalType": "enum Tracking.LogisticsCheckType",
              "name": "checkType",
              "type": "uint8"
            },
            {
              "internalType": "string",
              "name": "receiverCID",
              "type": "string"
            }
          ],
          "internalType": "struct Tracking.LogisticsCheckpoint[]",
          "name": "duringCheckpoints",
          "type": "tuple[]"
        },
        {
          "components": [
            {
              "internalType": "bytes32",
              "name": "trackingId",
              "type": "bytes32"
            },
            {
              "internalType": "address",
              "name": "logisticsProvider",
              "type": "address"
            },
            {
              "internalType": "uint256",
              "name": "pickupTime",
              "type": "uint256"
            },
            {
              "internalType": "uint256",
              "name": "deliveryTime",
              "type": "uint256"
            },
            {
              "internalType": "uint256",
              "name": "quantity",
              "type": "uint256"
            },
            {
              "internalType": "int256",
              "name": "temperature",
              "type": "int256"
            },
            {
              "internalType": "string",
              "name": "personInCharge",
              "type": "string"
            },
            {
              "internalType": "enum Tracking.LogisticsCheckType",
              "name": "checkType",
              "type": "uint8"
            },
            {
              "internalType": "string",
              "name": "receiverCID",
              "type": "string"
            }
          ],
          "internalType": "struct Tracking.LogisticsCheckpoint[]",
          "name": "afterCheckpoints",
          "type": "tuple[]"
        }
      ],
      "stateMutability": "view",
      "type": "function",
      "constant": true
    }
  ],
  "bytecode": "0x60806040523480156200001157600080fd5b5060405162004c3c38038062004c3c83398181016040528101906200003791906200012a565b816000806101000a81548173ffffffffffffffffffffffffffffffffffffffff021916908373ffffffffffffffffffffffffffffffffffffffff16021790555080600160006101000a81548173ffffffffffffffffffffffffffffffffffffffff021916908373ffffffffffffffffffffffffffffffffffffffff160217905550505062000171565b600080fd5b600073ffffffffffffffffffffffffffffffffffffffff82169050919050565b6000620000f282620000c5565b9050919050565b6200010481620000e5565b81146200011057600080fd5b50565b6000815190506200012481620000f9565b92915050565b60008060408385031215620001445762000143620000c0565b5b6000620001548582860162000113565b9250506020620001678582860162000113565b9150509250929050565b614abb80620001816000396000f3fe608060405234801561001057600080fd5b50600436106101005760003560e01c806383fb988911610097578063cc1faf8e11610066578063cc1faf8e146102de578063f1671737146102fc578063f30459e314610330578063f43dc2bc1461036857610100565b806383fb98891461022c5780639ed6f8ab1461025c578063a7e604b214610290578063c93c35eb146102ac57610100565b80635c7460d6116100d35780635c7460d6146101a157806365f0f7d5146101bf5780637ea96547146101f15780638120b3f71461020d57610100565b80631a5c3d0e14610105578063465b6e731461013557806354cb24a41461015157806356ef21b41461016f575b600080fd5b61011f600480360381019061011a9190613127565b610398565b60405161012c919061316d565b60405180910390f35b61014f600480360381019061014a91906132fa565b6103bc565b005b6101596106e9565b6040516101669190613457565b60405180910390f35b61018960048036038101906101849190613479565b610741565b60405161019893929190613793565b60405180910390f35b6101a96112f4565b6040516101b6919061383e565b60405180910390f35b6101d960048036038101906101d49190613479565b611318565b6040516101e89392919061391b565b60405180910390f35b61020b60048036038101906102069190613967565b6116e3565b005b6102156119db565b604051610223929190613a22565b60405180910390f35b61024660048036038101906102419190613a59565b611f90565b6040516102539190613457565b60405180910390f35b61027660048036038101906102719190613479565b612006565b604051610287959493929190613b34565b60405180910390f35b6102aa60048036038101906102a59190613be6565b612159565b005b6102c660048036038101906102c19190613479565b6125bd565b6040516102d593929190613de4565b60405180910390f35b6102e6612c0a565b6040516102f39190613e51565b60405180910390f35b61031660048036038101906103119190613479565b612c30565b604051610327959493929190613e7b565b60405180910390f35b61034a60048036038101906103459190613ee3565b612dfe565b60405161035f99989796959493929190613f50565b60405180910390f35b610382600480360381019061037d9190613feb565b612fa6565b60405161038f919061316d565b60405180910390f35b600681815481106103a857600080fd5b906000526020600020016000915090505481565b600160009054906101000a900473ffffffffffffffffffffffffffffffffffffffff1673ffffffffffffffffffffffffffffffffffffffff1663fa0bff30846040518263ffffffff1660e01b8152600401610417919061316d565b602060405180830381865afa158015610434573d6000803e3d6000fd5b505050506040513d601f19601f82011682018060405250810190610458919061407f565b610497576040517f08c379a000000000000000000000000000000000000000000000000000000000815260040161048e9061411e565b60405180910390fd5b6000801b6002600086815260200190815260200160002060000154146104f2576040517f08c379a00000000000000000000000000000000000000000000000000000000081526004016104e9906141b0565b60405180910390fd5b6000825111610536576040517f08c379a000000000000000000000000000000000000000000000000000000000815260040161052d9061421c565b60405180910390fd5b600081511161057a576040517f08c379a0000000000000000000000000000000000000000000000000000000008152600401610571906142ae565b60405180910390fd5b6040518060a00160405280858152602001848152602001838152602001828152602001600060028111156105b1576105b06135ba565b5b81525060026000868152602001908152602001600020600082015181600001556020820151816001015560408201518160020190816105f091906144d0565b50606082015181600301908161060691906144d0565b5060808201518160040160006101000a81548160ff02191690836002811115610632576106316135ba565b5b0217905550905050600684908060018154018082558091505060019003906000526020600020016000909190919091505560058260405161067391906145de565b908152602001604051809103902084908060018154018082558091505060019003906000526020600020016000909190919091505582847fa2fc3ade0f3e8f9c31cda358ccb72883469278eb67b094b4d6d90a5cab7d5a5384846040516106db9291906145f5565b60405180910390a350505050565b6060600680548060200260200160405190810160405280929190818152602001828054801561073757602002820191906000526020600020905b815481526020019060010190808311610723575b5050505050905090565b60608060606000801b6002600086815260200190815260200160002060000154036107a1576040517f08c379a00000000000000000000000000000000000000000000000000000000081526004016107989061469e565b60405180910390fd5b6000806000805b600360008981526020019081526020016000208054905081101561095c57600060028111156107da576107d96135ba565b5b600360008a815260200190815260200160002082815481106107ff576107fe6146be565b5b906000526020600020906009020160070160009054906101000a900460ff1660028111156108305761082f6135ba565b5b036108485783806108409061471c565b945050610949565b6001600281111561085c5761085b6135ba565b5b600360008a81526020019081526020016000208281548110610881576108806146be565b5b906000526020600020906009020160070160009054906101000a900460ff1660028111156108b2576108b16135ba565b5b036108ca5782806108c29061471c565b935050610948565b6002808111156108dd576108dc6135ba565b5b600360008a81526020019081526020016000208281548110610902576109016146be565b5b906000526020600020906009020160070160009054906101000a900460ff166002811115610933576109326135ba565b5b036109475781806109439061471c565b9250505b5b5b80806109549061471c565b9150506107a8565b508267ffffffffffffffff811115610977576109766131cf565b5b6040519080825280602002602001820160405280156109b057816020015b61099d612fed565b8152602001906001900390816109955790505b5095508167ffffffffffffffff8111156109cd576109cc6131cf565b5b604051908082528060200260200182016040528015610a0657816020015b6109f3612fed565b8152602001906001900390816109eb5790505b5094508067ffffffffffffffff811115610a2357610a226131cf565b5b604051908082528060200260200182016040528015610a5c57816020015b610a49612fed565b815260200190600190039081610a415790505b5093506000806000805b600360008c8152602001908152602001600020805490508110156112e65760006002811115610a9857610a976135ba565b5b600360008d81526020019081526020016000208281548110610abd57610abc6146be565b5b906000526020600020906009020160070160009054906101000a900460ff166002811115610aee57610aed6135ba565b5b03610d4a57600360008c81526020019081526020016000208181548110610b1857610b176146be565b5b906000526020600020906009020160405180610120016040529081600082015481526020016001820160009054906101000a900473ffffffffffffffffffffffffffffffffffffffff1673ffffffffffffffffffffffffffffffffffffffff1673ffffffffffffffffffffffffffffffffffffffff16815260200160028201548152602001600382015481526020016004820154815260200160058201548152602001600682018054610bca906142fd565b80601f0160208091040260200160405190810160405280929190818152602001828054610bf6906142fd565b8015610c435780601f10610c1857610100808354040283529160200191610c43565b820191906000526020600020905b815481529060010190602001808311610c2657829003601f168201915b505050505081526020016007820160009054906101000a900460ff166002811115610c7157610c706135ba565b5b6002811115610c8357610c826135ba565b5b8152602001600882018054610c97906142fd565b80601f0160208091040260200160405190810160405280929190818152602001828054610cc3906142fd565b8015610d105780601f10610ce557610100808354040283529160200191610d10565b820191906000526020600020905b815481529060010190602001808311610cf357829003601f168201915b5050505050815250508a8581518110610d2c57610d2b6146be565b5b60200260200101819052508380610d429061471c565b9450506112d3565b60016002811115610d5e57610d5d6135ba565b5b600360008d81526020019081526020016000208281548110610d8357610d826146be565b5b906000526020600020906009020160070160009054906101000a900460ff166002811115610db457610db36135ba565b5b0361101057600360008c81526020019081526020016000208181548110610dde57610ddd6146be565b5b906000526020600020906009020160405180610120016040529081600082015481526020016001820160009054906101000a900473ffffffffffffffffffffffffffffffffffffffff1673ffffffffffffffffffffffffffffffffffffffff1673ffffffffffffffffffffffffffffffffffffffff16815260200160028201548152602001600382015481526020016004820154815260200160058201548152602001600682018054610e90906142fd565b80601f0160208091040260200160405190810160405280929190818152602001828054610ebc906142fd565b8015610f095780601f10610ede57610100808354040283529160200191610f09565b820191906000526020600020905b815481529060010190602001808311610eec57829003601f168201915b505050505081526020016007820160009054906101000a900460ff166002811115610f3757610f366135ba565b5b6002811115610f4957610f486135ba565b5b8152602001600882018054610f5d906142fd565b80601f0160208091040260200160405190810160405280929190818152602001828054610f89906142fd565b8015610fd65780601f10610fab57610100808354040283529160200191610fd6565b820191906000526020600020905b815481529060010190602001808311610fb957829003601f168201915b505050505081525050898481518110610ff257610ff16146be565b5b602002602001018190525082806110089061471c565b9350506112d2565b600280811115611023576110226135ba565b5b600360008d81526020019081526020016000208281548110611048576110476146be565b5b906000526020600020906009020160070160009054906101000a900460ff166002811115611079576110786135ba565b5b036112d157600360008c815260200190815260200160002081815481106110a3576110a26146be565b5b906000526020600020906009020160405180610120016040529081600082015481526020016001820160009054906101000a900473ffffffffffffffffffffffffffffffffffffffff1673ffffffffffffffffffffffffffffffffffffffff1673ffffffffffffffffffffffffffffffffffffffff16815260200160028201548152602001600382015481526020016004820154815260200160058201548152602001600682018054611155906142fd565b80601f0160208091040260200160405190810160405280929190818152602001828054611181906142fd565b80156111ce5780601f106111a3576101008083540402835291602001916111ce565b820191906000526020600020905b8154815290600101906020018083116111b157829003601f168201915b505050505081526020016007820160009054906101000a900460ff1660028111156111fc576111fb6135ba565b5b600281111561120e5761120d6135ba565b5b8152602001600882018054611222906142fd565b80601f016020809104026020016040519081016040528092919081815260200182805461124e906142fd565b801561129b5780601f106112705761010080835404028352916020019161129b565b820191906000526020600020905b81548152906001019060200180831161127e57829003601f168201915b5050505050815250508883815181106112b7576112b66146be565b5b602002602001018190525081806112cd9061471c565b9250505b5b5b80806112de9061471c565b915050610a66565b505050505050509193909250565b60008054906101000a900473ffffffffffffffffffffffffffffffffffffffff1681565b60608060606000805b60068054905081101561138b57856002600060068481548110611347576113466146be565b5b9060005260206000200154815260200190815260200160002060010154036113785781806113749061471c565b9250505b80806113839061471c565b915050611321565b508067ffffffffffffffff8111156113a6576113a56131cf565b5b6040519080825280602002602001820160405280156113d45781602001602082028036833780820191505090505b5093508067ffffffffffffffff8111156113f1576113f06131cf565b5b60405190808252806020026020018201604052801561142457816020015b606081526020019060019003908161140f5790505b5092508067ffffffffffffffff811115611441576114406131cf565b5b60405190808252806020026020018201604052801561147457816020015b606081526020019060019003908161145f5790505b5091506000805b6006805490508110156116d9578660026000600684815481106114a1576114a06146be565b5b9060005260206000200154815260200190815260200160002060010154036116c657600681815481106114d7576114d66146be565b5b90600052602060002001548683815181106114f5576114f46146be565b5b6020026020010181815250506002600060068381548110611519576115186146be565b5b906000526020600020015481526020019081526020016000206002018054611540906142fd565b80601f016020809104026020016040519081016040528092919081815260200182805461156c906142fd565b80156115b95780601f1061158e576101008083540402835291602001916115b9565b820191906000526020600020905b81548152906001019060200180831161159c57829003601f168201915b50505050508583815181106115d1576115d06146be565b5b602002602001018190525060026000600683815481106115f4576115f36146be565b5b90600052602060002001548152602001908152602001600020600301805461161b906142fd565b80601f0160208091040260200160405190810160405280929190818152602001828054611647906142fd565b80156116945780601f1061166957610100808354040283529160200191611694565b820191906000526020600020905b81548152906001019060200180831161167757829003601f168201915b50505050508483815181106116ac576116ab6146be565b5b602002602001018190525081806116c29061471c565b9250505b80806116d19061471c565b91505061147b565b5050509193909250565b826000815111611728576040517f08c379a000000000000000000000000000000000000000000000000000000000815260040161171f906147d6565b60405180910390fd5b6000801b600260008781526020019081526020016000206000015403611783576040517f08c379a000000000000000000000000000000000000000000000000000000000815260040161177a9061469e565b60405180910390fd5b8360405160200161179491906145de565b60405160208183030381529060405280519060200120600260008781526020019081526020016000206002016040516020016117d09190614879565b6040516020818303038152906040528051906020012014611826576040517f08c379a000000000000000000000000000000000000000000000000000000000815260040161181d90614902565b60405180910390fd5b600280600087815260200190815260200160002060040160006101000a81548160ff0219169083600281111561185f5761185e6135ba565b5b02179055506040518060a0016040528086815260200185815260200142815260200184815260200183815250600460008781526020019081526020016000206000820151816000015560208201518160010190816118bd91906144d0565b506040820151816002015560608201518160030190816118dd91906144d0565b5060808201518160040190816118f391906144d0565b50905050600160009054906101000a900473ffffffffffffffffffffffffffffffffffffffff1673ffffffffffffffffffffffffffffffffffffffff166352df0ee660026000888152602001908152602001600020600101546040518263ffffffff1660e01b8152600401611968919061316d565b600060405180830381600087803b15801561198257600080fd5b505af1158015611996573d6000803e3d6000fd5b50505050847f6931b58dbc3c7b4d9caec3ed0638b6990770e147b532536809aa388e4fa97b9585856040516119cc9291906145f5565b60405180910390a25050505050565b606080600360048111156119f2576119f16135ba565b5b60008054906101000a900473ffffffffffffffffffffffffffffffffffffffff1673ffffffffffffffffffffffffffffffffffffffff166327820851336040518263ffffffff1660e01b8152600401611a4b9190614922565b602060405180830381865afa158015611a68573d6000803e3d6000fd5b505050506040513d601f19601f82011682018060405250810190611a8c9190614962565b6004811115611a9e57611a9d6135ba565b5b14611ade576040517f08c379a0000000000000000000000000000000000000000000000000000000008152600401611ad590614a01565b60405180910390fd5b6000805b600680549050811015611c5657600060068281548110611b0557611b046146be565b5b9060005260206000200154905060016002811115611b2657611b256135ba565b5b6002600083815260200190815260200160002060040160009054906101000a900460ff166002811115611b5c57611b5b6135ba565b5b148015611b7f575060006003600083815260200190815260200160002080549050115b8015611c2e57503373ffffffffffffffffffffffffffffffffffffffff166003600083815260200190815260200160002060016003600085815260200190815260200160002080549050611bd39190614a21565b81548110611be457611be36146be565b5b906000526020600020906009020160010160009054906101000a900473ffffffffffffffffffffffffffffffffffffffff1673ffffffffffffffffffffffffffffffffffffffff16145b15611c42578280611c3e9061471c565b9350505b508080611c4e9061471c565b915050611ae2565b508067ffffffffffffffff811115611c7157611c706131cf565b5b604051908082528060200260200182016040528015611c9f5781602001602082028036833780820191505090505b5092508067ffffffffffffffff811115611cbc57611cbb6131cf565b5b604051908082528060200260200182016040528015611cef57816020015b6060815260200190600190039081611cda5790505b5091506000805b600680549050811015611f8957600060068281548110611d1957611d186146be565b5b9060005260206000200154905060016002811115611d3a57611d396135ba565b5b6002600083815260200190815260200160002060040160009054906101000a900460ff166002811115611d7057611d6f6135ba565b5b148015611d93575060006003600083815260200190815260200160002080549050115b8015611e4257503373ffffffffffffffffffffffffffffffffffffffff166003600083815260200190815260200160002060016003600085815260200190815260200160002080549050611de79190614a21565b81548110611df857611df76146be565b5b906000526020600020906009020160010160009054906101000a900473ffffffffffffffffffffffffffffffffffffffff1673ffffffffffffffffffffffffffffffffffffffff16145b15611f755780868481518110611e5b57611e5a6146be565b5b6020026020010181815250506003600082815260200190815260200160002060016003600084815260200190815260200160002080549050611e9d9190614a21565b81548110611eae57611ead6146be565b5b90600052602060002090600902016006018054611eca906142fd565b80601f0160208091040260200160405190810160405280929190818152602001828054611ef6906142fd565b8015611f435780601f10611f1857610100808354040283529160200191611f43565b820191906000526020600020905b815481529060010190602001808311611f2657829003601f168201915b5050505050858481518110611f5b57611f5a6146be565b5b60200260200101819052508280611f719061471c565b9350505b508080611f819061471c565b915050611cf6565b5050509091565b6060600582604051611fa291906145de565b9081526020016040518091039020805480602002602001604051908101604052809291908181526020018280548015611ffa57602002820191906000526020600020905b815481526020019060010190808311611fe6575b50505050509050919050565b6002602052806000526040600020600091509050806000015490806001015490806002018054612035906142fd565b80601f0160208091040260200160405190810160405280929190818152602001828054612061906142fd565b80156120ae5780601f10612083576101008083540402835291602001916120ae565b820191906000526020600020905b81548152906001019060200180831161209157829003601f168201915b5050505050908060030180546120c3906142fd565b80601f01602080910402602001604051908101604052809291908181526020018280546120ef906142fd565b801561213c5780601f106121115761010080835404028352916020019161213c565b820191906000526020600020905b81548152906001019060200180831161211f57829003601f168201915b5050505050908060040160009054906101000a900460ff16905085565b6003600481111561216d5761216c6135ba565b5b60008054906101000a900473ffffffffffffffffffffffffffffffffffffffff1673ffffffffffffffffffffffffffffffffffffffff166327820851336040518263ffffffff1660e01b81526004016121c69190614922565b602060405180830381865afa1580156121e3573d6000803e3d6000fd5b505050506040513d601f19601f820116820180604052508101906122079190614962565b6004811115612219576122186135ba565b5b14612259576040517f08c379a000000000000000000000000000000000000000000000000000000000815260040161225090614a01565b60405180910390fd5b6000801b600260008a815260200190815260200160002060000154036122b4576040517f08c379a00000000000000000000000000000000000000000000000000000000081526004016122ab9061469e565b60405180910390fd5b600360008981526020019081526020016000206040518061012001604052808a81526020013373ffffffffffffffffffffffffffffffffffffffff168152602001898152602001888152602001878152602001868152602001858152602001846002811115612326576123256135ba565b5b81526020018381525090806001815401808255809150506001900390600052602060002090600902016000909190919091506000820151816000015560208201518160010160006101000a81548173ffffffffffffffffffffffffffffffffffffffff021916908373ffffffffffffffffffffffffffffffffffffffff16021790555060408201518160020155606082015181600301556080820151816004015560a0820151816005015560c08201518160060190816123e691906144d0565b5060e08201518160070160006101000a81548160ff02191690836002811115612412576124116135ba565b5b021790555061010082015181600801908161242d91906144d0565b50505060006002811115612444576124436135ba565b5b600260008a815260200190815260200160002060040160009054906101000a900460ff16600281111561247a576124796135ba565b5b03612562576001600260008a815260200190815260200160002060040160006101000a81548160ff021916908360028111156124b9576124b86135ba565b5b0217905550600160009054906101000a900473ffffffffffffffffffffffffffffffffffffffff1673ffffffffffffffffffffffffffffffffffffffff166352df0ee6600260008b8152602001908152602001600020600101546040518263ffffffff1660e01b815260040161252f919061316d565b600060405180830381600087803b15801561254957600080fd5b505af115801561255d573d6000803e3d6000fd5b505050505b3373ffffffffffffffffffffffffffffffffffffffff16887f710a10364a49834e8c6e0fafff5354ca1e160f26a1ba1d7b33c7100c80d7ea6d84846040516125ab929190614a55565b60405180910390a35050505050505050565b6125c5613064565b60606125cf6130ab565b6000801b60026000868152602001908152602001600020600001540361262a576040517f08c379a00000000000000000000000000000000000000000000000000000000081526004016126219061469e565b60405180910390fd5b600260008581526020019081526020016000206003600086815260200190815260200160002060046000878152602001908152602001600020826040518060a00160405290816000820154815260200160018201548152602001600282018054612693906142fd565b80601f01602080910402602001604051908101604052809291908181526020018280546126bf906142fd565b801561270c5780601f106126e15761010080835404028352916020019161270c565b820191906000526020600020905b8154815290600101906020018083116126ef57829003601f168201915b50505050508152602001600382018054612725906142fd565b80601f0160208091040260200160405190810160405280929190818152602001828054612751906142fd565b801561279e5780601f106127735761010080835404028352916020019161279e565b820191906000526020600020905b81548152906001019060200180831161278157829003601f168201915b505050505081526020016004820160009054906101000a900460ff1660028111156127cc576127cb6135ba565b5b60028111156127de576127dd6135ba565b5b81525050925081805480602002602001604051908101604052809291908181526020016000905b82821015612a1f578382906000526020600020906009020160405180610120016040529081600082015481526020016001820160009054906101000a900473ffffffffffffffffffffffffffffffffffffffff1673ffffffffffffffffffffffffffffffffffffffff1673ffffffffffffffffffffffffffffffffffffffff168152602001600282015481526020016003820154815260200160048201548152602001600582015481526020016006820180546128c1906142fd565b80601f01602080910402602001604051908101604052809291908181526020018280546128ed906142fd565b801561293a5780601f1061290f5761010080835404028352916020019161293a565b820191906000526020600020905b81548152906001019060200180831161291d57829003601f168201915b505050505081526020016007820160009054906101000a900460ff166002811115612968576129676135ba565b5b600281111561297a576129796135ba565b5b815260200160088201805461298e906142fd565b80601f01602080910402602001604051908101604052809291908181526020018280546129ba906142fd565b8015612a075780601f106129dc57610100808354040283529160200191612a07565b820191906000526020600020905b8154815290600101906020018083116129ea57829003601f168201915b50505050508152505081526020019060010190612805565b505050509150806040518060a001604052908160008201548152602001600182018054612a4b906142fd565b80601f0160208091040260200160405190810160405280929190818152602001828054612a77906142fd565b8015612ac45780601f10612a9957610100808354040283529160200191612ac4565b820191906000526020600020905b815481529060010190602001808311612aa757829003601f168201915b5050505050815260200160028201548152602001600382018054612ae7906142fd565b80601f0160208091040260200160405190810160405280929190818152602001828054612b13906142fd565b8015612b605780601f10612b3557610100808354040283529160200191612b60565b820191906000526020600020905b815481529060010190602001808311612b4357829003601f168201915b50505050508152602001600482018054612b79906142fd565b80601f0160208091040260200160405190810160405280929190818152602001828054612ba5906142fd565b8015612bf25780601f10612bc757610100808354040283529160200191612bf2565b820191906000526020600020905b815481529060010190602001808311612bd557829003601f168201915b50505050508152505090509250925092509193909250565b600160009054906101000a900473ffffffffffffffffffffffffffffffffffffffff1681565b6004602052806000526040600020600091509050806000015490806001018054612c59906142fd565b80601f0160208091040260200160405190810160405280929190818152602001828054612c85906142fd565b8015612cd25780601f10612ca757610100808354040283529160200191612cd2565b820191906000526020600020905b815481529060010190602001808311612cb557829003601f168201915b505050505090806002015490806003018054612ced906142fd565b80601f0160208091040260200160405190810160405280929190818152602001828054612d19906142fd565b8015612d665780601f10612d3b57610100808354040283529160200191612d66565b820191906000526020600020905b815481529060010190602001808311612d4957829003601f168201915b505050505090806004018054612d7b906142fd565b80601f0160208091040260200160405190810160405280929190818152602001828054612da7906142fd565b8015612df45780601f10612dc957610100808354040283529160200191612df4565b820191906000526020600020905b815481529060010190602001808311612dd757829003601f168201915b5050505050905085565b60036020528160005260406000208181548110612e1a57600080fd5b9060005260206000209060090201600091509150508060000154908060010160009054906101000a900473ffffffffffffffffffffffffffffffffffffffff1690806002015490806003015490806004015490806005015490806006018054612e82906142fd565b80601f0160208091040260200160405190810160405280929190818152602001828054612eae906142fd565b8015612efb5780601f10612ed057610100808354040283529160200191612efb565b820191906000526020600020905b815481529060010190602001808311612ede57829003601f168201915b5050505050908060070160009054906101000a900460ff1690806008018054612f23906142fd565b80601f0160208091040260200160405190810160405280929190818152602001828054612f4f906142fd565b8015612f9c5780601f10612f7157610100808354040283529160200191612f9c565b820191906000526020600020905b815481529060010190602001808311612f7f57829003601f168201915b5050505050905089565b6005828051602081018201805184825260208301602085012081835280955050505050508181548110612fd857600080fd5b90600052602060002001600091509150505481565b60405180610120016040528060008019168152602001600073ffffffffffffffffffffffffffffffffffffffff168152602001600081526020016000815260200160008152602001600081526020016060815260200160006002811115613057576130566135ba565b5b8152602001606081525090565b6040518060a0016040528060008019168152602001600080191681526020016060815260200160608152602001600060028111156130a5576130a46135ba565b5b81525090565b6040518060a0016040528060008019168152602001606081526020016000815260200160608152602001606081525090565b6000604051905090565b600080fd5b600080fd5b6000819050919050565b613104816130f1565b811461310f57600080fd5b50565b600081359050613121816130fb565b92915050565b60006020828403121561313d5761313c6130e7565b5b600061314b84828501613112565b91505092915050565b6000819050919050565b61316781613154565b82525050565b6000602082019050613182600083018461315e565b92915050565b61319181613154565b811461319c57600080fd5b50565b6000813590506131ae81613188565b92915050565b600080fd5b600080fd5b6000601f19601f8301169050919050565b7f4e487b7100000000000000000000000000000000000000000000000000000000600052604160045260246000fd5b613207826131be565b810181811067ffffffffffffffff82111715613226576132256131cf565b5b80604052505050565b60006132396130dd565b905061324582826131fe565b919050565b600067ffffffffffffffff821115613265576132646131cf565b5b61326e826131be565b9050602081019050919050565b82818337600083830152505050565b600061329d6132988461324a565b61322f565b9050828152602081018484840111156132b9576132b86131b9565b5b6132c484828561327b565b509392505050565b600082601f8301126132e1576132e06131b4565b5b81356132f184826020860161328a565b91505092915050565b60008060008060808587031215613314576133136130e7565b5b60006133228782880161319f565b94505060206133338782880161319f565b935050604085013567ffffffffffffffff811115613354576133536130ec565b5b613360878288016132cc565b925050606085013567ffffffffffffffff811115613381576133806130ec565b5b61338d878288016132cc565b91505092959194509250565b600081519050919050565b600082825260208201905092915050565b6000819050602082019050919050565b6133ce81613154565b82525050565b60006133e083836133c5565b60208301905092915050565b6000602082019050919050565b600061340482613399565b61340e81856133a4565b9350613419836133b5565b8060005b8381101561344a57815161343188826133d4565b975061343c836133ec565b92505060018101905061341d565b5085935050505092915050565b6000602082019050818103600083015261347181846133f9565b905092915050565b60006020828403121561348f5761348e6130e7565b5b600061349d8482850161319f565b91505092915050565b600081519050919050565b600082825260208201905092915050565b6000819050602082019050919050565b600073ffffffffffffffffffffffffffffffffffffffff82169050919050565b60006134fd826134d2565b9050919050565b61350d816134f2565b82525050565b61351c816130f1565b82525050565b6000819050919050565b61353581613522565b82525050565b600081519050919050565b600082825260208201905092915050565b60005b8381101561357557808201518184015260208101905061355a565b60008484015250505050565b600061358c8261353b565b6135968185613546565b93506135a6818560208601613557565b6135af816131be565b840191505092915050565b7f4e487b7100000000000000000000000000000000000000000000000000000000600052602160045260246000fd5b600381106135fa576135f96135ba565b5b50565b600081905061360b826135e9565b919050565b600061361b826135fd565b9050919050565b61362b81613610565b82525050565b60006101208301600083015161364a60008601826133c5565b50602083015161365d6020860182613504565b5060408301516136706040860182613513565b5060608301516136836060860182613513565b5060808301516136966080860182613513565b5060a08301516136a960a086018261352c565b5060c083015184820360c08601526136c18282613581565b91505060e08301516136d660e0860182613622565b506101008301518482036101008601526136f08282613581565b9150508091505092915050565b60006137098383613631565b905092915050565b6000602082019050919050565b6000613729826134a6565b61373381856134b1565b935083602082028501613745856134c2565b8060005b85811015613781578484038952815161376285826136fd565b945061376d83613711565b925060208a01995050600181019050613749565b50829750879550505050505092915050565b600060608201905081810360008301526137ad818661371e565b905081810360208301526137c1818561371e565b905081810360408301526137d5818461371e565b9050949350505050565b6000819050919050565b60006138046137ff6137fa846134d2565b6137df565b6134d2565b9050919050565b6000613816826137e9565b9050919050565b60006138288261380b565b9050919050565b6138388161381d565b82525050565b6000602082019050613853600083018461382f565b92915050565b600081519050919050565b600082825260208201905092915050565b6000819050602082019050919050565b60006138918383613581565b905092915050565b6000602082019050919050565b60006138b182613859565b6138bb8185613864565b9350836020820285016138cd85613875565b8060005b8581101561390957848403895281516138ea8582613885565b94506138f583613899565b925060208a019950506001810190506138d1565b50829750879550505050505092915050565b6000606082019050818103600083015261393581866133f9565b9050818103602083015261394981856138a6565b9050818103604083015261395d81846138a6565b9050949350505050565b60008060008060808587031215613981576139806130e7565b5b600061398f8782880161319f565b945050602085013567ffffffffffffffff8111156139b0576139af6130ec565b5b6139bc878288016132cc565b935050604085013567ffffffffffffffff8111156139dd576139dc6130ec565b5b6139e9878288016132cc565b925050606085013567ffffffffffffffff811115613a0a57613a096130ec565b5b613a16878288016132cc565b91505092959194509250565b60006040820190508181036000830152613a3c81856133f9565b90508181036020830152613a5081846138a6565b90509392505050565b600060208284031215613a6f57613a6e6130e7565b5b600082013567ffffffffffffffff811115613a8d57613a8c6130ec565b5b613a99848285016132cc565b91505092915050565b600082825260208201905092915050565b6000613abe8261353b565b613ac88185613aa2565b9350613ad8818560208601613557565b613ae1816131be565b840191505092915050565b60038110613afd57613afc6135ba565b5b50565b6000819050613b0e82613aec565b919050565b6000613b1e82613b00565b9050919050565b613b2e81613b13565b82525050565b600060a082019050613b49600083018861315e565b613b56602083018761315e565b8181036040830152613b688186613ab3565b90508181036060830152613b7c8185613ab3565b9050613b8b6080830184613b25565b9695505050505050565b613b9e81613522565b8114613ba957600080fd5b50565b600081359050613bbb81613b95565b92915050565b60038110613bce57600080fd5b50565b600081359050613be081613bc1565b92915050565b600080600080600080600080610100898b031215613c0757613c066130e7565b5b6000613c158b828c0161319f565b9850506020613c268b828c01613112565b9750506040613c378b828c01613112565b9650506060613c488b828c01613112565b9550506080613c598b828c01613bac565b94505060a089013567ffffffffffffffff811115613c7a57613c796130ec565b5b613c868b828c016132cc565b93505060c0613c978b828c01613bd1565b92505060e089013567ffffffffffffffff811115613cb857613cb76130ec565b5b613cc48b828c016132cc565b9150509295985092959890939650565b613cdd81613b13565b82525050565b600060a083016000830151613cfb60008601826133c5565b506020830151613d0e60208601826133c5565b5060408301518482036040860152613d268282613581565b91505060608301518482036060860152613d408282613581565b9150506080830151613d556080860182613cd4565b508091505092915050565b600060a083016000830151613d7860008601826133c5565b5060208301518482036020860152613d908282613581565b9150506040830151613da56040860182613513565b5060608301518482036060860152613dbd8282613581565b91505060808301518482036080860152613dd78282613581565b9150508091505092915050565b60006060820190508181036000830152613dfe8186613ce3565b90508181036020830152613e12818561371e565b90508181036040830152613e268184613d60565b9050949350505050565b6000613e3b8261380b565b9050919050565b613e4b81613e30565b82525050565b6000602082019050613e666000830184613e42565b92915050565b613e75816130f1565b82525050565b600060a082019050613e90600083018861315e565b8181036020830152613ea28187613ab3565b9050613eb16040830186613e6c565b8181036060830152613ec38185613ab3565b90508181036080830152613ed78184613ab3565b90509695505050505050565b60008060408385031215613efa57613ef96130e7565b5b6000613f088582860161319f565b9250506020613f1985828601613112565b9150509250929050565b613f2c816134f2565b82525050565b613f3b81613522565b82525050565b613f4a81613610565b82525050565b600061012082019050613f66600083018c61315e565b613f73602083018b613f23565b613f80604083018a613e6c565b613f8d6060830189613e6c565b613f9a6080830188613e6c565b613fa760a0830187613f32565b81810360c0830152613fb98186613ab3565b9050613fc860e0830185613f41565b818103610100830152613fdb8184613ab3565b90509a9950505050505050505050565b60008060408385031215614002576140016130e7565b5b600083013567ffffffffffffffff8111156140205761401f6130ec565b5b61402c858286016132cc565b925050602061403d85828601613112565b9150509250929050565b60008115159050919050565b61405c81614047565b811461406757600080fd5b50565b60008151905061407981614053565b92915050565b600060208284031215614095576140946130e7565b5b60006140a38482850161406a565b91505092915050565b7f4572726f723a2050726f64756374204c6f7420646f6573206e6f74206578697360008201527f7400000000000000000000000000000000000000000000000000000000000000602082015250565b6000614108602183613aa2565b9150614113826140ac565b604082019050919050565b60006020820190508181036000830152614137816140fb565b9050919050565b7f4572726f723a20547261636b696e6720494420616c726561647920657869737460008201527f7300000000000000000000000000000000000000000000000000000000000000602082015250565b600061419a602183613aa2565b91506141a58261413e565b604082019050919050565b600060208201905081810360008301526141c98161418d565b9050919050565b7f4572726f723a20496e76616c69642052657461696c6572204944000000000000600082015250565b6000614206601a83613aa2565b9150614211826141d0565b602082019050919050565b60006020820190508181036000830152614235816141f9565b9050919050565b7f4572726f723a20515220436f6465204349442063616e6e6f7420626520656d7060008201527f7479000000000000000000000000000000000000000000000000000000000000602082015250565b6000614298602283613aa2565b91506142a38261423c565b604082019050919050565b600060208201905081810360008301526142c78161428b565b9050919050565b7f4e487b7100000000000000000000000000000000000000000000000000000000600052602260045260246000fd5b6000600282049050600182168061431557607f821691505b602082108103614328576143276142ce565b5b50919050565b60008190508160005260206000209050919050565b60006020601f8301049050919050565b600082821b905092915050565b6000600883026143907fffffffffffffffffffffffffffffffffffffffffffffffffffffffffffffffff82614353565b61439a8683614353565b95508019841693508086168417925050509392505050565b60006143cd6143c86143c3846130f1565b6137df565b6130f1565b9050919050565b6000819050919050565b6143e7836143b2565b6143fb6143f3826143d4565b848454614360565b825550505050565b600090565b614410614403565b61441b8184846143de565b505050565b5b8181101561443f57614434600082614408565b600181019050614421565b5050565b601f821115614484576144558161432e565b61445e84614343565b8101602085101561446d578190505b61448161447985614343565b830182614420565b50505b505050565b600082821c905092915050565b60006144a760001984600802614489565b1980831691505092915050565b60006144c08383614496565b9150826002028217905092915050565b6144d98261353b565b67ffffffffffffffff8111156144f2576144f16131cf565b5b6144fc82546142fd565b614507828285614443565b600060209050601f83116001811461453a5760008415614528578287015190505b61453285826144b4565b86555061459a565b601f1984166145488661432e565b60005b828110156145705784890151825560018201915060208501945060208101905061454b565b8683101561458d5784890151614589601f891682614496565b8355505b6001600288020188555050505b505050505050565b600081905092915050565b60006145b88261353b565b6145c281856145a2565b93506145d2818560208601613557565b80840191505092915050565b60006145ea82846145ad565b915081905092915050565b6000604082019050818103600083015261460f8185613ab3565b905081810360208301526146238184613ab3565b90509392505050565b7f4572726f723a20547261636b696e6720494420646f6573206e6f74206578697360008201527f7400000000000000000000000000000000000000000000000000000000000000602082015250565b6000614688602183613aa2565b91506146938261462c565b604082019050919050565b600060208201905081810360008301526146b78161467b565b9050919050565b7f4e487b7100000000000000000000000000000000000000000000000000000000600052603260045260246000fd5b7f4e487b7100000000000000000000000000000000000000000000000000000000600052601160045260246000fd5b6000614727826130f1565b91507fffffffffffffffffffffffffffffffffffffffffffffffffffffffffffffffff8203614759576147586146ed565b5b600182019050919050565b7f4163636573732064656e6965643a20496e76616c69642072657461696c65722060008201527f4944000000000000000000000000000000000000000000000000000000000000602082015250565b60006147c0602283613aa2565b91506147cb82614764565b604082019050919050565b600060208201905081810360008301526147ef816147b3565b9050919050565b60008154614803816142fd565b61480d81866145a2565b94506001821660008114614828576001811461483d57614870565b60ff1983168652811515820286019350614870565b6148468561432e565b60005b8381101561486857815481890152600182019150602081019050614849565b838801955050505b50505092915050565b600061488582846147f6565b915081905092915050565b7f4572726f723a204f6e6c792061737369676e65642072657461696c657220636160008201527f6e20726563656976650000000000000000000000000000000000000000000000602082015250565b60006148ec602983613aa2565b91506148f782614890565b604082019050919050565b6000602082019050818103600083015261491b816148df565b9050919050565b60006020820190506149376000830184613f23565b92915050565b6005811061494a57600080fd5b50565b60008151905061495c8161493d565b92915050565b600060208284031215614978576149776130e7565b5b60006149868482850161494d565b91505092915050565b7f4163636573732064656e6965643a204f6e6c79206c6f6769737469637320616c60008201527f6c6f776564000000000000000000000000000000000000000000000000000000602082015250565b60006149eb602583613aa2565b91506149f68261498f565b604082019050919050565b60006020820190508181036000830152614a1a816149de565b9050919050565b6000614a2c826130f1565b9150614a37836130f1565b9250828203905081811115614a4f57614a4e6146ed565b5b92915050565b6000604082019050614a6a6000830185613f41565b8181036020830152614a7c8184613ab3565b9050939250505056fea26469706673582212204b16741f6bb5ece804b9c69054a449e3c20cbf3dcf8115f31766b8a6fde14e5e64736f6c63430008130033",
  "immutableReferences": {},
  "source": "// SPDX-License-Identifier: MIT\npragma solidity ^0.8.19;\n\nimport \"./UserRegistry.sol\";\nimport \"./ProductLot.sol\";\n\ncontract Tracking {\n    UserRegistry public userRegistry;\n    ProductLot public productLotContract;\n\n    enum TrackingStatus { Pending, InTransit, Received }\n    enum LogisticsCheckType { Before, During, After }\n\n    struct TrackingEvent {\n        bytes32 trackingId;\n        bytes32 productLotId;\n        string retailerId; //   Address\n        string qrCodeCID;\n        TrackingStatus status;\n    }\n\n    struct LogisticsCheckpoint {\n    bytes32 trackingId;\n    address logisticsProvider;\n    uint256 pickupTime;\n    uint256 deliveryTime;\n    uint256 quantity;\n    int256 temperature;\n    string personInCharge;\n    LogisticsCheckType checkType;\n    string receiverCID; //   (IPFS CID)\n}\n\n    struct RetailerConfirmation {\n        bytes32 trackingId;\n        string retailerId; //   Retailer ID  Address\n        uint256 receivedTime;\n        string qualityCID;\n        string personInCharge;\n    }\n\n    mapping(bytes32 => TrackingEvent) public trackingEvents;\n    mapping(bytes32 => LogisticsCheckpoint[]) public logisticsCheckpoints;\n    mapping(bytes32 => RetailerConfirmation) public retailerConfirmations;\n    mapping(string => bytes32[]) public retailerTracking; //   Retailer ID  key\n   bytes32[] public allTrackingIds; //  \n\n\n\n    event TrackingCreated(bytes32 indexed trackingId, bytes32 indexed productLotId, string retailerId, string qrCodeCID);\n    event LogisticsUpdated(\n    bytes32 indexed trackingId,\n    address indexed logisticsProvider,\n    LogisticsCheckType checkType,\n    string receiverCID //  \n);\n    event RetailerReceived(bytes32 indexed trackingId, string retailerId, string qualityCID);\n\n    modifier onlyLogistics() {\n        require(userRegistry.getUserRole(msg.sender) == UserRegistry.UserRole.Logistics, \"Access denied: Only logistics allowed\");\n        _;\n    }\n\n    modifier onlyRetailer(string memory _retailerId) {\n        require(bytes(_retailerId).length > 0, \"Access denied: Invalid retailer ID\");\n        _;\n    }\n\n    constructor(address _userRegistry, address _productLotContract) {\n        userRegistry = UserRegistry(_userRegistry);\n        productLotContract = ProductLot(_productLotContract);\n    }\n\n    function createTrackingEvent(\n        bytes32 _trackingId,\n        bytes32 _productLotId,\n        string memory _retailerId,\n        string memory _qrCodeCID\n    ) public {\n        require(productLotContract.isProductLotExists(_productLotId), \"Error: Product Lot does not exist\");\n        require(trackingEvents[_trackingId].trackingId == bytes32(0), \"Error: Tracking ID already exists\");\n        require(bytes(_retailerId).length > 0, \"Error: Invalid Retailer ID\");\n        require(bytes(_qrCodeCID).length > 0, \"Error: QR Code CID cannot be empty\");\n\n        trackingEvents[_trackingId] = TrackingEvent({\n            trackingId: _trackingId,\n            productLotId: _productLotId,\n            retailerId: _retailerId,\n            qrCodeCID: _qrCodeCID,\n            status: TrackingStatus.Pending\n        });\n\n        allTrackingIds.push(_trackingId);\n        retailerTracking[_retailerId].push(_trackingId);\n        emit TrackingCreated(_trackingId, _productLotId, _retailerId, _qrCodeCID);\n    }\n\n    function updateLogisticsCheckpoint(\n    bytes32 _trackingId,\n    uint256 _pickupTime,\n    uint256 _deliveryTime,\n    uint256 _quantity,\n    int256 _temperature,\n    string memory _personInCharge,\n    LogisticsCheckType _checkType,\n    string memory _receiverCID\n) public onlyLogistics {\n    require(trackingEvents[_trackingId].trackingId != bytes32(0), \"Error: Tracking ID does not exist\");\n\n    logisticsCheckpoints[_trackingId].push(LogisticsCheckpoint({\n        trackingId: _trackingId,\n        logisticsProvider: msg.sender,\n        pickupTime: _pickupTime,\n        deliveryTime: _deliveryTime,\n        quantity: _quantity,\n        temperature: _temperature,\n        personInCharge: _personInCharge,\n        checkType: _checkType,\n        receiverCID: _receiverCID\n    }));\n\n    //   InTransit  Pending\n    if (trackingEvents[_trackingId].status == TrackingStatus.Pending) {\n        trackingEvents[_trackingId].status = TrackingStatus.InTransit;\n        //   Product Lot  InTransit\n        productLotContract.updateProductLotStatus(trackingEvents[_trackingId].productLotId);\n    }\n\n    emit LogisticsUpdated(_trackingId, msg.sender, _checkType, _receiverCID);\n}\n\n\n\n    function retailerReceiveProduct(\n    bytes32 _trackingId,\n    string memory _retailerId,\n    string memory _qualityCID,\n    string memory _personInCharge\n) public onlyRetailer(_retailerId) {\n    require(trackingEvents[_trackingId].trackingId != bytes32(0), \"Error: Tracking ID does not exist\");\n    require(keccak256(abi.encodePacked(trackingEvents[_trackingId].retailerId)) == keccak256(abi.encodePacked(_retailerId)), \"Error: Only assigned retailer can receive\");\n\n    trackingEvents[_trackingId].status = TrackingStatus.Received;\n    retailerConfirmations[_trackingId] = RetailerConfirmation({\n        trackingId: _trackingId,\n        retailerId: _retailerId,\n        receivedTime: block.timestamp,\n        qualityCID: _qualityCID,\n        personInCharge: _personInCharge\n    });\n\n    //   Product Lot  Tracking  \"Received\"\n    productLotContract.updateProductLotStatus(trackingEvents[_trackingId].productLotId);\n\n    emit RetailerReceived(_trackingId, _retailerId, _qualityCID);\n}\n\n\n    function getTrackingById(bytes32 _trackingId) public view returns (TrackingEvent memory, LogisticsCheckpoint[] memory, RetailerConfirmation memory) {\n        require(trackingEvents[_trackingId].trackingId != bytes32(0), \"Error: Tracking ID does not exist\");\n        return (trackingEvents[_trackingId], logisticsCheckpoints[_trackingId], retailerConfirmations[_trackingId]);\n    }\n\n    function getTrackingByRetailer(string memory _retailerId) public view returns (bytes32[] memory) {\n        return retailerTracking[_retailerId];\n    }\nfunction getTrackingByLotId(bytes32 _productLotId) \n    public view \n    returns (bytes32[] memory resultTrackingIds, string[] memory retailerIds, string[] memory qrCodeCIDs) \n{\n    uint count = 0;\n\n    //   `allTrackingIds`  Tracking Events\n    for (uint i = 0; i < allTrackingIds.length; i++) {\n        if (trackingEvents[allTrackingIds[i]].productLotId == _productLotId) {\n            count++;\n        }\n    }\n\n    //  \n    resultTrackingIds = new bytes32[](count);\n    retailerIds = new string[](count);\n    qrCodeCIDs = new string[](count);\n\n    uint index = 0;\n    for (uint i = 0; i < allTrackingIds.length; i++) {\n        if (trackingEvents[allTrackingIds[i]].productLotId == _productLotId) {\n            resultTrackingIds[index] = allTrackingIds[i];\n            retailerIds[index] = trackingEvents[allTrackingIds[i]].retailerId;\n            qrCodeCIDs[index] = trackingEvents[allTrackingIds[i]].qrCodeCID;\n            index++;\n        }\n    }\n\n    return (resultTrackingIds, retailerIds, qrCodeCIDs);\n}\nfunction getOngoingShipmentsByLogistics() \n    public view onlyLogistics \n    returns (bytes32[] memory trackingIds, string[] memory personInChargeList) \n{\n    uint count = 0;\n\n    //   Tracking  InTransit \n    for (uint i = 0; i < allTrackingIds.length; i++) {\n        bytes32 trackingId = allTrackingIds[i];\n\n        if (\n            trackingEvents[trackingId].status == TrackingStatus.InTransit && \n            logisticsCheckpoints[trackingId].length > 0 &&\n            logisticsCheckpoints[trackingId][logisticsCheckpoints[trackingId].length - 1].logisticsProvider == msg.sender\n        ) {\n            count++;\n        }\n    }\n\n    //  \n    trackingIds = new bytes32[](count);\n    personInChargeList = new string[](count);\n    uint index = 0;\n\n    for (uint i = 0; i < allTrackingIds.length; i++) {\n        bytes32 trackingId = allTrackingIds[i];\n\n        if (\n            trackingEvents[trackingId].status == TrackingStatus.InTransit && \n            logisticsCheckpoints[trackingId].length > 0 &&\n            logisticsCheckpoints[trackingId][logisticsCheckpoints[trackingId].length - 1].logisticsProvider == msg.sender\n        ) {\n            trackingIds[index] = trackingId;\n            personInChargeList[index] = logisticsCheckpoints[trackingId][logisticsCheckpoints[trackingId].length - 1].personInCharge;\n            index++;\n        }\n    }\n\n    return (trackingIds, personInChargeList);\n}\n\nfunction getAllTrackingIds() public view returns (bytes32[] memory) {\n    return allTrackingIds;\n}\nfunction getLogisticsCheckpointsByTrackingId(bytes32 _trackingId) \n    public view \n    returns (\n        LogisticsCheckpoint[] memory beforeCheckpoints, \n        LogisticsCheckpoint[] memory duringCheckpoints, \n        LogisticsCheckpoint[] memory afterCheckpoints\n    ) \n{\n    require(trackingEvents[_trackingId].trackingId != bytes32(0), \"Error: Tracking ID does not exist\");\n\n    uint beforeCount = 0;\n    uint duringCount = 0;\n    uint afterCount = 0;\n\n    //  \n    for (uint i = 0; i < logisticsCheckpoints[_trackingId].length; i++) {\n        if (logisticsCheckpoints[_trackingId][i].checkType == LogisticsCheckType.Before) {\n            beforeCount++;\n        } else if (logisticsCheckpoints[_trackingId][i].checkType == LogisticsCheckType.During) {\n            duringCount++;\n        } else if (logisticsCheckpoints[_trackingId][i].checkType == LogisticsCheckType.After) {\n            afterCount++;\n        }\n    }\n\n    //  \n    beforeCheckpoints = new LogisticsCheckpoint[](beforeCount);\n    duringCheckpoints = new LogisticsCheckpoint[](duringCount);\n    afterCheckpoints = new LogisticsCheckpoint[](afterCount);\n\n    uint beforeIndex = 0;\n    uint duringIndex = 0;\n    uint afterIndex = 0;\n\n    //  \n    for (uint i = 0; i < logisticsCheckpoints[_trackingId].length; i++) {\n        if (logisticsCheckpoints[_trackingId][i].checkType == LogisticsCheckType.Before) {\n            beforeCheckpoints[beforeIndex] = logisticsCheckpoints[_trackingId][i];\n            beforeIndex++;\n        } else if (logisticsCheckpoints[_trackingId][i].checkType == LogisticsCheckType.During) {\n            duringCheckpoints[duringIndex] = logisticsCheckpoints[_trackingId][i];\n            duringIndex++;\n        } else if (logisticsCheckpoints[_trackingId][i].checkType == LogisticsCheckType.After) {\n            afterCheckpoints[afterIndex] = logisticsCheckpoints[_trackingId][i];\n            afterIndex++;\n        }\n    }\n\n    return (beforeCheckpoints, duringCheckpoints, afterCheckpoints);\n}\n\n\n}\n",
  "sourcePath": "/home/apiwat/Documents/Backend/Backend/solidity/contracts/Tracking.sol",
  "compiler": {
    "name": "solc",
    "version": "0.8.19+commit.7dd6d404.Emscripten.clang"
  },
  "schemaVersion": "3.4.16",
  "updatedAt": "2025-03-15T18:31:46.048Z",
  "networkType": "ethereum",
  "devdoc": {
    "kind": "dev",
    "methods": {},
    "version": 1
  },
  "userdoc": {
    "kind": "user",
    "methods": {},
    "version": 1
  }
}