{
  "contractName": "Tracking",
  "abi": [
    {
      "inputs": [
        {
          "internalType": "address",
          "name": "_userRegistry",
          "type": "address"
        },
        {
          "internalType": "address",
          "name": "_productLotContract",
          "type": "address"
        }
      ],
      "stateMutability": "nonpayable",
      "type": "constructor"
    },
    {
      "anonymous": false,
      "inputs": [
        {
          "indexed": true,
          "internalType": "bytes32",
          "name": "trackingId",
          "type": "bytes32"
        },
        {
          "indexed": true,
          "internalType": "address",
          "name": "logisticsProvider",
          "type": "address"
        },
        {
          "indexed": false,
          "internalType": "enum Tracking.LogisticsCheckType",
          "name": "checkType",
          "type": "uint8"
        }
      ],
      "name": "LogisticsUpdated",
      "type": "event"
    },
    {
      "anonymous": false,
      "inputs": [
        {
          "indexed": true,
          "internalType": "bytes32",
          "name": "trackingId",
          "type": "bytes32"
        },
        {
          "indexed": false,
          "internalType": "string",
          "name": "retailerId",
          "type": "string"
        },
        {
          "indexed": false,
          "internalType": "string",
          "name": "qualityCID",
          "type": "string"
        }
      ],
      "name": "RetailerReceived",
      "type": "event"
    },
    {
      "anonymous": false,
      "inputs": [
        {
          "indexed": true,
          "internalType": "bytes32",
          "name": "trackingId",
          "type": "bytes32"
        },
        {
          "indexed": true,
          "internalType": "bytes32",
          "name": "productLotId",
          "type": "bytes32"
        },
        {
          "indexed": false,
          "internalType": "string",
          "name": "retailerId",
          "type": "string"
        },
        {
          "indexed": false,
          "internalType": "string",
          "name": "qrCodeCID",
          "type": "string"
        }
      ],
      "name": "TrackingCreated",
      "type": "event"
    },
    {
      "inputs": [
        {
          "internalType": "bytes32",
          "name": "",
          "type": "bytes32"
        },
        {
          "internalType": "uint256",
          "name": "",
          "type": "uint256"
        }
      ],
      "name": "logisticsCheckpoints",
      "outputs": [
        {
          "internalType": "bytes32",
          "name": "trackingId",
          "type": "bytes32"
        },
        {
          "internalType": "address",
          "name": "logisticsProvider",
          "type": "address"
        },
        {
          "internalType": "uint256",
          "name": "pickupTime",
          "type": "uint256"
        },
        {
          "internalType": "uint256",
          "name": "deliveryTime",
          "type": "uint256"
        },
        {
          "internalType": "uint256",
          "name": "quantity",
          "type": "uint256"
        },
        {
          "internalType": "int256",
          "name": "temperature",
          "type": "int256"
        },
        {
          "internalType": "string",
          "name": "personInCharge",
          "type": "string"
        },
        {
          "internalType": "enum Tracking.LogisticsCheckType",
          "name": "checkType",
          "type": "uint8"
        }
      ],
      "stateMutability": "view",
      "type": "function"
    },
    {
      "inputs": [],
      "name": "productLotContract",
      "outputs": [
        {
          "internalType": "contract ProductLot",
          "name": "",
          "type": "address"
        }
      ],
      "stateMutability": "view",
      "type": "function"
    },
    {
      "inputs": [
        {
          "internalType": "bytes32",
          "name": "",
          "type": "bytes32"
        }
      ],
      "name": "retailerConfirmations",
      "outputs": [
        {
          "internalType": "bytes32",
          "name": "trackingId",
          "type": "bytes32"
        },
        {
          "internalType": "string",
          "name": "retailerId",
          "type": "string"
        },
        {
          "internalType": "uint256",
          "name": "receivedTime",
          "type": "uint256"
        },
        {
          "internalType": "string",
          "name": "qualityCID",
          "type": "string"
        },
        {
          "internalType": "string",
          "name": "personInCharge",
          "type": "string"
        }
      ],
      "stateMutability": "view",
      "type": "function"
    },
    {
      "inputs": [
        {
          "internalType": "string",
          "name": "",
          "type": "string"
        },
        {
          "internalType": "uint256",
          "name": "",
          "type": "uint256"
        }
      ],
      "name": "retailerTracking",
      "outputs": [
        {
          "internalType": "bytes32",
          "name": "",
          "type": "bytes32"
        }
      ],
      "stateMutability": "view",
      "type": "function"
    },
    {
      "inputs": [
        {
          "internalType": "bytes32",
          "name": "",
          "type": "bytes32"
        }
      ],
      "name": "trackingEvents",
      "outputs": [
        {
          "internalType": "bytes32",
          "name": "trackingId",
          "type": "bytes32"
        },
        {
          "internalType": "bytes32",
          "name": "productLotId",
          "type": "bytes32"
        },
        {
          "internalType": "string",
          "name": "retailerId",
          "type": "string"
        },
        {
          "internalType": "string",
          "name": "qrCodeCID",
          "type": "string"
        },
        {
          "internalType": "enum Tracking.TrackingStatus",
          "name": "status",
          "type": "uint8"
        }
      ],
      "stateMutability": "view",
      "type": "function"
    },
    {
      "inputs": [
        {
          "internalType": "uint256",
          "name": "",
          "type": "uint256"
        }
      ],
      "name": "trackingIds",
      "outputs": [
        {
          "internalType": "bytes32",
          "name": "",
          "type": "bytes32"
        }
      ],
      "stateMutability": "view",
      "type": "function"
    },
    {
      "inputs": [],
      "name": "userRegistry",
      "outputs": [
        {
          "internalType": "contract UserRegistry",
          "name": "",
          "type": "address"
        }
      ],
      "stateMutability": "view",
      "type": "function"
    },
    {
      "inputs": [
        {
          "internalType": "bytes32",
          "name": "_trackingId",
          "type": "bytes32"
        },
        {
          "internalType": "bytes32",
          "name": "_productLotId",
          "type": "bytes32"
        },
        {
          "internalType": "string",
          "name": "_retailerId",
          "type": "string"
        },
        {
          "internalType": "string",
          "name": "_qrCodeCID",
          "type": "string"
        }
      ],
      "name": "createTrackingEvent",
      "outputs": [],
      "stateMutability": "nonpayable",
      "type": "function"
    },
    {
      "inputs": [
        {
          "internalType": "bytes32",
          "name": "_trackingId",
          "type": "bytes32"
        },
        {
          "internalType": "uint256",
          "name": "_pickupTime",
          "type": "uint256"
        },
        {
          "internalType": "uint256",
          "name": "_deliveryTime",
          "type": "uint256"
        },
        {
          "internalType": "uint256",
          "name": "_quantity",
          "type": "uint256"
        },
        {
          "internalType": "int256",
          "name": "_temperature",
          "type": "int256"
        },
        {
          "internalType": "string",
          "name": "_personInCharge",
          "type": "string"
        },
        {
          "internalType": "enum Tracking.LogisticsCheckType",
          "name": "_checkType",
          "type": "uint8"
        }
      ],
      "name": "updateLogisticsCheckpoint",
      "outputs": [],
      "stateMutability": "nonpayable",
      "type": "function"
    },
    {
      "inputs": [
        {
          "internalType": "bytes32",
          "name": "_trackingId",
          "type": "bytes32"
        },
        {
          "internalType": "string",
          "name": "_retailerId",
          "type": "string"
        },
        {
          "internalType": "string",
          "name": "_qualityCID",
          "type": "string"
        },
        {
          "internalType": "string",
          "name": "_personInCharge",
          "type": "string"
        }
      ],
      "name": "retailerReceiveProduct",
      "outputs": [],
      "stateMutability": "nonpayable",
      "type": "function"
    },
    {
      "inputs": [
        {
          "internalType": "bytes32",
          "name": "_trackingId",
          "type": "bytes32"
        }
      ],
      "name": "getTrackingById",
      "outputs": [
        {
          "components": [
            {
              "internalType": "bytes32",
              "name": "trackingId",
              "type": "bytes32"
            },
            {
              "internalType": "bytes32",
              "name": "productLotId",
              "type": "bytes32"
            },
            {
              "internalType": "string",
              "name": "retailerId",
              "type": "string"
            },
            {
              "internalType": "string",
              "name": "qrCodeCID",
              "type": "string"
            },
            {
              "internalType": "enum Tracking.TrackingStatus",
              "name": "status",
              "type": "uint8"
            }
          ],
          "internalType": "struct Tracking.TrackingEvent",
          "name": "",
          "type": "tuple"
        },
        {
          "components": [
            {
              "internalType": "bytes32",
              "name": "trackingId",
              "type": "bytes32"
            },
            {
              "internalType": "address",
              "name": "logisticsProvider",
              "type": "address"
            },
            {
              "internalType": "uint256",
              "name": "pickupTime",
              "type": "uint256"
            },
            {
              "internalType": "uint256",
              "name": "deliveryTime",
              "type": "uint256"
            },
            {
              "internalType": "uint256",
              "name": "quantity",
              "type": "uint256"
            },
            {
              "internalType": "int256",
              "name": "temperature",
              "type": "int256"
            },
            {
              "internalType": "string",
              "name": "personInCharge",
              "type": "string"
            },
            {
              "internalType": "enum Tracking.LogisticsCheckType",
              "name": "checkType",
              "type": "uint8"
            }
          ],
          "internalType": "struct Tracking.LogisticsCheckpoint[]",
          "name": "",
          "type": "tuple[]"
        },
        {
          "components": [
            {
              "internalType": "bytes32",
              "name": "trackingId",
              "type": "bytes32"
            },
            {
              "internalType": "string",
              "name": "retailerId",
              "type": "string"
            },
            {
              "internalType": "uint256",
              "name": "receivedTime",
              "type": "uint256"
            },
            {
              "internalType": "string",
              "name": "qualityCID",
              "type": "string"
            },
            {
              "internalType": "string",
              "name": "personInCharge",
              "type": "string"
            }
          ],
          "internalType": "struct Tracking.RetailerConfirmation",
          "name": "",
          "type": "tuple"
        }
      ],
      "stateMutability": "view",
      "type": "function"
    },
    {
      "inputs": [
        {
          "internalType": "string",
          "name": "_retailerId",
          "type": "string"
        }
      ],
      "name": "getTrackingByRetailer",
      "outputs": [
        {
          "internalType": "bytes32[]",
          "name": "",
          "type": "bytes32[]"
        }
      ],
      "stateMutability": "view",
      "type": "function"
    }
  ],
  "bytecode": "0x60806040523480156200001157600080fd5b5060405162002f5538038062002f5583398181016040528101906200003791906200012a565b816000806101000a81548173ffffffffffffffffffffffffffffffffffffffff021916908373ffffffffffffffffffffffffffffffffffffffff16021790555080600160006101000a81548173ffffffffffffffffffffffffffffffffffffffff021916908373ffffffffffffffffffffffffffffffffffffffff160217905550505062000171565b600080fd5b600073ffffffffffffffffffffffffffffffffffffffff82169050919050565b6000620000f282620000c5565b9050919050565b6200010481620000e5565b81146200011057600080fd5b50565b6000815190506200012481620000f9565b92915050565b60008060408385031215620001445762000143620000c0565b5b6000620001548582860162000113565b9250506020620001678582860162000113565b9150509250929050565b612dd480620001816000396000f3fe608060405234801561001057600080fd5b50600436106100b45760003560e01c80639ed6f8ab116100715780639ed6f8ab1461018b578063c93c35eb146101bf578063cc1faf8e146101f1578063f16717371461020f578063f30459e314610243578063f43dc2bc1461027a576100b4565b8063465b6e73146100b95780635c7460d6146100d5578063777699cb146100f35780637ea965471461010f57806383fb98891461012b57806384e3edce1461015b575b600080fd5b6100d360048036038101906100ce9190611868565b6102aa565b005b6100dd6105d7565b6040516100ea9190611986565b60405180910390f35b61010d60048036038101906101089190611a32565b6105fb565b005b61012960048036038101906101249190611af0565b61090d565b005b61014560048036038101906101409190611bab565b610b62565b6040516101529190611cb2565b60405180910390f35b61017560048036038101906101709190611cd4565b610bd8565b6040516101829190611d10565b60405180910390f35b6101a560048036038101906101a09190611d2b565b610bfc565b6040516101b6959493929190611e4e565b60405180910390f35b6101d960048036038101906101d49190611d2b565b610d4f565b6040516101e893929190612202565b60405180910390f35b6101f961130a565b604051610206919061226f565b60405180910390f35b61022960048036038101906102249190611d2b565b611330565b60405161023a959493929190612299565b60405180910390f35b61025d60048036038101906102589190612301565b6114fe565b60405161027198979695949392919061236e565b60405180910390f35b610294600480360381019061028f91906123f3565b611618565b6040516102a19190611d10565b60405180910390f35b600160009054906101000a900473ffffffffffffffffffffffffffffffffffffffff1673ffffffffffffffffffffffffffffffffffffffff1663fa0bff30846040518263ffffffff1660e01b81526004016103059190611d10565b602060405180830381865afa158015610322573d6000803e3d6000fd5b505050506040513d601f19601f820116820180604052508101906103469190612487565b610385576040517f08c379a000000000000000000000000000000000000000000000000000000000815260040161037c90612526565b60405180910390fd5b6000801b6002600086815260200190815260200160002060000154146103e0576040517f08c379a00000000000000000000000000000000000000000000000000000000081526004016103d7906125b8565b60405180910390fd5b6000825111610424576040517f08c379a000000000000000000000000000000000000000000000000000000000815260040161041b90612624565b60405180910390fd5b6000815111610468576040517f08c379a000000000000000000000000000000000000000000000000000000000815260040161045f906126b6565b60405180910390fd5b6040518060a001604052808581526020018481526020018381526020018281526020016000600281111561049f5761049e611dd7565b5b81525060026000868152602001908152602001600020600082015181600001556020820151816001015560408201518160020190816104de91906128d8565b5060608201518160030190816104f491906128d8565b5060808201518160040160006101000a81548160ff021916908360028111156105205761051f611dd7565b5b0217905550905050600684908060018154018082558091505060019003906000526020600020016000909190919091505560058260405161056191906129e6565b908152602001604051809103902084908060018154018082558091505060019003906000526020600020016000909190919091505582847fa2fc3ade0f3e8f9c31cda358ccb72883469278eb67b094b4d6d90a5cab7d5a5384846040516105c99291906129fd565b60405180910390a350505050565b60008054906101000a900473ffffffffffffffffffffffffffffffffffffffff1681565b6003600481111561060f5761060e611dd7565b5b60008054906101000a900473ffffffffffffffffffffffffffffffffffffffff1673ffffffffffffffffffffffffffffffffffffffff166327820851336040518263ffffffff1660e01b81526004016106689190612a34565b602060405180830381865afa158015610685573d6000803e3d6000fd5b505050506040513d601f19601f820116820180604052508101906106a99190612a74565b60048111156106bb576106ba611dd7565b5b146106fb576040517f08c379a00000000000000000000000000000000000000000000000000000000081526004016106f290612b13565b60405180910390fd5b6000801b600260008981526020019081526020016000206000015403610756576040517f08c379a000000000000000000000000000000000000000000000000000000000815260040161074d90612ba5565b60405180910390fd5b600360008881526020019081526020016000206040518061010001604052808981526020013373ffffffffffffffffffffffffffffffffffffffff1681526020018881526020018781526020018681526020018581526020018481526020018360028111156107c8576107c7611dd7565b5b81525090806001815401808255809150506001900390600052602060002090600802016000909190919091506000820151816000015560208201518160010160006101000a81548173ffffffffffffffffffffffffffffffffffffffff021916908373ffffffffffffffffffffffffffffffffffffffff16021790555060408201518160020155606082015181600301556080820151816004015560a0820151816005015560c082015181600601908161088291906128d8565b5060e08201518160070160006101000a81548160ff021916908360028111156108ae576108ad611dd7565b5b021790555050503373ffffffffffffffffffffffffffffffffffffffff16877ff6035bdd30559a10b699c510827368744d386b193dcba64240507652ba3dd3b5836040516108fc9190612bc5565b60405180910390a350505050505050565b826000815111610952576040517f08c379a000000000000000000000000000000000000000000000000000000000815260040161094990612c52565b60405180910390fd5b6000801b6002600087815260200190815260200160002060000154036109ad576040517f08c379a00000000000000000000000000000000000000000000000000000000081526004016109a490612ba5565b60405180910390fd5b836040516020016109be91906129e6565b60405160208183030381529060405280519060200120600260008781526020019081526020016000206002016040516020016109fa9190612cf5565b6040516020818303038152906040528051906020012014610a50576040517f08c379a0000000000000000000000000000000000000000000000000000000008152600401610a4790612d7e565b60405180910390fd5b600280600087815260200190815260200160002060040160006101000a81548160ff02191690836002811115610a8957610a88611dd7565b5b02179055506040518060a001604052808681526020018581526020014281526020018481526020018381525060046000878152602001908152602001600020600082015181600001556020820151816001019081610ae791906128d8565b50604082015181600201556060820151816003019081610b0791906128d8565b506080820151816004019081610b1d91906128d8565b50905050847f6931b58dbc3c7b4d9caec3ed0638b6990770e147b532536809aa388e4fa97b958585604051610b539291906129fd565b60405180910390a25050505050565b6060600582604051610b7491906129e6565b9081526020016040518091039020805480602002602001604051908101604052809291908181526020018280548015610bcc57602002820191906000526020600020905b815481526020019060010190808311610bb8575b50505050509050919050565b60068181548110610be857600080fd5b906000526020600020016000915090505481565b6002602052806000526040600020600091509050806000015490806001015490806002018054610c2b90612705565b80601f0160208091040260200160405190810160405280929190818152602001828054610c5790612705565b8015610ca45780601f10610c7957610100808354040283529160200191610ca4565b820191906000526020600020905b815481529060010190602001808311610c8757829003601f168201915b505050505090806003018054610cb990612705565b80601f0160208091040260200160405190810160405280929190818152602001828054610ce590612705565b8015610d325780601f10610d0757610100808354040283529160200191610d32565b820191906000526020600020905b815481529060010190602001808311610d1557829003601f168201915b5050505050908060040160009054906101000a900460ff16905085565b610d5761165f565b6060610d616116a6565b6000801b600260008681526020019081526020016000206000015403610dbc576040517f08c379a0000000000000000000000000000000000000000000000000000000008152600401610db390612ba5565b60405180910390fd5b600260008581526020019081526020016000206003600086815260200190815260200160002060046000878152602001908152602001600020826040518060a00160405290816000820154815260200160018201548152602001600282018054610e2590612705565b80601f0160208091040260200160405190810160405280929190818152602001828054610e5190612705565b8015610e9e5780601f10610e7357610100808354040283529160200191610e9e565b820191906000526020600020905b815481529060010190602001808311610e8157829003601f168201915b50505050508152602001600382018054610eb790612705565b80601f0160208091040260200160405190810160405280929190818152602001828054610ee390612705565b8015610f305780601f10610f0557610100808354040283529160200191610f30565b820191906000526020600020905b815481529060010190602001808311610f1357829003601f168201915b505050505081526020016004820160009054906101000a900460ff166002811115610f5e57610f5d611dd7565b5b6002811115610f7057610f6f611dd7565b5b81525050925081805480602002602001604051908101604052809291908181526020016000905b8282101561111f578382906000526020600020906008020160405180610100016040529081600082015481526020016001820160009054906101000a900473ffffffffffffffffffffffffffffffffffffffff1673ffffffffffffffffffffffffffffffffffffffff1673ffffffffffffffffffffffffffffffffffffffff1681526020016002820154815260200160038201548152602001600482015481526020016005820154815260200160068201805461105390612705565b80601f016020809104026020016040519081016040528092919081815260200182805461107f90612705565b80156110cc5780601f106110a1576101008083540402835291602001916110cc565b820191906000526020600020905b8154815290600101906020018083116110af57829003601f168201915b505050505081526020016007820160009054906101000a900460ff1660028111156110fa576110f9611dd7565b5b600281111561110c5761110b611dd7565b5b8152505081526020019060010190610f97565b505050509150806040518060a00160405290816000820154815260200160018201805461114b90612705565b80601f016020809104026020016040519081016040528092919081815260200182805461117790612705565b80156111c45780601f10611199576101008083540402835291602001916111c4565b820191906000526020600020905b8154815290600101906020018083116111a757829003601f168201915b50505050508152602001600282015481526020016003820180546111e790612705565b80601f016020809104026020016040519081016040528092919081815260200182805461121390612705565b80156112605780601f1061123557610100808354040283529160200191611260565b820191906000526020600020905b81548152906001019060200180831161124357829003601f168201915b5050505050815260200160048201805461127990612705565b80601f01602080910402602001604051908101604052809291908181526020018280546112a590612705565b80156112f25780601f106112c7576101008083540402835291602001916112f2565b820191906000526020600020905b8154815290600101906020018083116112d557829003601f168201915b50505050508152505090509250925092509193909250565b600160009054906101000a900473ffffffffffffffffffffffffffffffffffffffff1681565b600460205280600052604060002060009150905080600001549080600101805461135990612705565b80601f016020809104026020016040519081016040528092919081815260200182805461138590612705565b80156113d25780601f106113a7576101008083540402835291602001916113d2565b820191906000526020600020905b8154815290600101906020018083116113b557829003601f168201915b5050505050908060020154908060030180546113ed90612705565b80601f016020809104026020016040519081016040528092919081815260200182805461141990612705565b80156114665780601f1061143b57610100808354040283529160200191611466565b820191906000526020600020905b81548152906001019060200180831161144957829003601f168201915b50505050509080600401805461147b90612705565b80601f01602080910402602001604051908101604052809291908181526020018280546114a790612705565b80156114f45780601f106114c9576101008083540402835291602001916114f4565b820191906000526020600020905b8154815290600101906020018083116114d757829003601f168201915b5050505050905085565b6003602052816000526040600020818154811061151a57600080fd5b9060005260206000209060080201600091509150508060000154908060010160009054906101000a900473ffffffffffffffffffffffffffffffffffffffff169080600201549080600301549080600401549080600501549080600601805461158290612705565b80601f01602080910402602001604051908101604052809291908181526020018280546115ae90612705565b80156115fb5780601f106115d0576101008083540402835291602001916115fb565b820191906000526020600020905b8154815290600101906020018083116115de57829003601f168201915b5050505050908060070160009054906101000a900460ff16905088565b600582805160208101820180518482526020830160208501208183528095505050505050818154811061164a57600080fd5b90600052602060002001600091509150505481565b6040518060a0016040528060008019168152602001600080191681526020016060815260200160608152602001600060028111156116a05761169f611dd7565b5b81525090565b6040518060a0016040528060008019168152602001606081526020016000815260200160608152602001606081525090565b6000604051905090565b600080fd5b600080fd5b6000819050919050565b6116ff816116ec565b811461170a57600080fd5b50565b60008135905061171c816116f6565b92915050565b600080fd5b600080fd5b6000601f19601f8301169050919050565b7f4e487b7100000000000000000000000000000000000000000000000000000000600052604160045260246000fd5b6117758261172c565b810181811067ffffffffffffffff821117156117945761179361173d565b5b80604052505050565b60006117a76116d8565b90506117b3828261176c565b919050565b600067ffffffffffffffff8211156117d3576117d261173d565b5b6117dc8261172c565b9050602081019050919050565b82818337600083830152505050565b600061180b611806846117b8565b61179d565b90508281526020810184848401111561182757611826611727565b5b6118328482856117e9565b509392505050565b600082601f83011261184f5761184e611722565b5b813561185f8482602086016117f8565b91505092915050565b60008060008060808587031215611882576118816116e2565b5b60006118908782880161170d565b94505060206118a18782880161170d565b935050604085013567ffffffffffffffff8111156118c2576118c16116e7565b5b6118ce8782880161183a565b925050606085013567ffffffffffffffff8111156118ef576118ee6116e7565b5b6118fb8782880161183a565b91505092959194509250565b600073ffffffffffffffffffffffffffffffffffffffff82169050919050565b6000819050919050565b600061194c61194761194284611907565b611927565b611907565b9050919050565b600061195e82611931565b9050919050565b600061197082611953565b9050919050565b61198081611965565b82525050565b600060208201905061199b6000830184611977565b92915050565b6000819050919050565b6119b4816119a1565b81146119bf57600080fd5b50565b6000813590506119d1816119ab565b92915050565b6000819050919050565b6119ea816119d7565b81146119f557600080fd5b50565b600081359050611a07816119e1565b92915050565b60038110611a1a57600080fd5b50565b600081359050611a2c81611a0d565b92915050565b600080600080600080600060e0888a031215611a5157611a506116e2565b5b6000611a5f8a828b0161170d565b9750506020611a708a828b016119c2565b9650506040611a818a828b016119c2565b9550506060611a928a828b016119c2565b9450506080611aa38a828b016119f8565b93505060a088013567ffffffffffffffff811115611ac457611ac36116e7565b5b611ad08a828b0161183a565b92505060c0611ae18a828b01611a1d565b91505092959891949750929550565b60008060008060808587031215611b0a57611b096116e2565b5b6000611b188782880161170d565b945050602085013567ffffffffffffffff811115611b3957611b386116e7565b5b611b458782880161183a565b935050604085013567ffffffffffffffff811115611b6657611b656116e7565b5b611b728782880161183a565b925050606085013567ffffffffffffffff811115611b9357611b926116e7565b5b611b9f8782880161183a565b91505092959194509250565b600060208284031215611bc157611bc06116e2565b5b600082013567ffffffffffffffff811115611bdf57611bde6116e7565b5b611beb8482850161183a565b91505092915050565b600081519050919050565b600082825260208201905092915050565b6000819050602082019050919050565b611c29816116ec565b82525050565b6000611c3b8383611c20565b60208301905092915050565b6000602082019050919050565b6000611c5f82611bf4565b611c698185611bff565b9350611c7483611c10565b8060005b83811015611ca5578151611c8c8882611c2f565b9750611c9783611c47565b925050600181019050611c78565b5085935050505092915050565b60006020820190508181036000830152611ccc8184611c54565b905092915050565b600060208284031215611cea57611ce96116e2565b5b6000611cf8848285016119c2565b91505092915050565b611d0a816116ec565b82525050565b6000602082019050611d256000830184611d01565b92915050565b600060208284031215611d4157611d406116e2565b5b6000611d4f8482850161170d565b91505092915050565b600081519050919050565b600082825260208201905092915050565b60005b83811015611d92578082015181840152602081019050611d77565b60008484015250505050565b6000611da982611d58565b611db38185611d63565b9350611dc3818560208601611d74565b611dcc8161172c565b840191505092915050565b7f4e487b7100000000000000000000000000000000000000000000000000000000600052602160045260246000fd5b60038110611e1757611e16611dd7565b5b50565b6000819050611e2882611e06565b919050565b6000611e3882611e1a565b9050919050565b611e4881611e2d565b82525050565b600060a082019050611e636000830188611d01565b611e706020830187611d01565b8181036040830152611e828186611d9e565b90508181036060830152611e968185611d9e565b9050611ea56080830184611e3f565b9695505050505050565b600082825260208201905092915050565b6000611ecb82611d58565b611ed58185611eaf565b9350611ee5818560208601611d74565b611eee8161172c565b840191505092915050565b611f0281611e2d565b82525050565b600060a083016000830151611f206000860182611c20565b506020830151611f336020860182611c20565b5060408301518482036040860152611f4b8282611ec0565b91505060608301518482036060860152611f658282611ec0565b9150506080830151611f7a6080860182611ef9565b508091505092915050565b600081519050919050565b600082825260208201905092915050565b6000819050602082019050919050565b6000611fbc82611907565b9050919050565b611fcc81611fb1565b82525050565b611fdb816119a1565b82525050565b611fea816119d7565b82525050565b6003811061200157612000611dd7565b5b50565b600081905061201282611ff0565b919050565b600061202282612004565b9050919050565b61203281612017565b82525050565b6000610100830160008301516120516000860182611c20565b5060208301516120646020860182611fc3565b5060408301516120776040860182611fd2565b50606083015161208a6060860182611fd2565b50608083015161209d6080860182611fd2565b5060a08301516120b060a0860182611fe1565b5060c083015184820360c08601526120c88282611ec0565b91505060e08301516120dd60e0860182612029565b508091505092915050565b60006120f48383612038565b905092915050565b6000602082019050919050565b600061211482611f85565b61211e8185611f90565b93508360208202850161213085611fa1565b8060005b8581101561216c578484038952815161214d85826120e8565b9450612158836120fc565b925060208a01995050600181019050612134565b50829750879550505050505092915050565b600060a0830160008301516121966000860182611c20565b50602083015184820360208601526121ae8282611ec0565b91505060408301516121c36040860182611fd2565b50606083015184820360608601526121db8282611ec0565b915050608083015184820360808601526121f58282611ec0565b9150508091505092915050565b6000606082019050818103600083015261221c8186611f08565b905081810360208301526122308185612109565b90508181036040830152612244818461217e565b9050949350505050565b600061225982611953565b9050919050565b6122698161224e565b82525050565b60006020820190506122846000830184612260565b92915050565b612293816119a1565b82525050565b600060a0820190506122ae6000830188611d01565b81810360208301526122c08187611d9e565b90506122cf604083018661228a565b81810360608301526122e18185611d9e565b905081810360808301526122f58184611d9e565b90509695505050505050565b60008060408385031215612318576123176116e2565b5b60006123268582860161170d565b9250506020612337858286016119c2565b9150509250929050565b61234a81611fb1565b82525050565b612359816119d7565b82525050565b61236881612017565b82525050565b600061010082019050612384600083018b611d01565b612391602083018a612341565b61239e604083018961228a565b6123ab606083018861228a565b6123b8608083018761228a565b6123c560a0830186612350565b81810360c08301526123d78185611d9e565b90506123e660e083018461235f565b9998505050505050505050565b6000806040838503121561240a576124096116e2565b5b600083013567ffffffffffffffff811115612428576124276116e7565b5b6124348582860161183a565b9250506020612445858286016119c2565b9150509250929050565b60008115159050919050565b6124648161244f565b811461246f57600080fd5b50565b6000815190506124818161245b565b92915050565b60006020828403121561249d5761249c6116e2565b5b60006124ab84828501612472565b91505092915050565b7f4572726f723a2050726f64756374204c6f7420646f6573206e6f74206578697360008201527f7400000000000000000000000000000000000000000000000000000000000000602082015250565b6000612510602183611d63565b915061251b826124b4565b604082019050919050565b6000602082019050818103600083015261253f81612503565b9050919050565b7f4572726f723a20547261636b696e6720494420616c726561647920657869737460008201527f7300000000000000000000000000000000000000000000000000000000000000602082015250565b60006125a2602183611d63565b91506125ad82612546565b604082019050919050565b600060208201905081810360008301526125d181612595565b9050919050565b7f4572726f723a20496e76616c69642052657461696c6572204944000000000000600082015250565b600061260e601a83611d63565b9150612619826125d8565b602082019050919050565b6000602082019050818103600083015261263d81612601565b9050919050565b7f4572726f723a20515220436f6465204349442063616e6e6f7420626520656d7060008201527f7479000000000000000000000000000000000000000000000000000000000000602082015250565b60006126a0602283611d63565b91506126ab82612644565b604082019050919050565b600060208201905081810360008301526126cf81612693565b9050919050565b7f4e487b7100000000000000000000000000000000000000000000000000000000600052602260045260246000fd5b6000600282049050600182168061271d57607f821691505b6020821081036127305761272f6126d6565b5b50919050565b60008190508160005260206000209050919050565b60006020601f8301049050919050565b600082821b905092915050565b6000600883026127987fffffffffffffffffffffffffffffffffffffffffffffffffffffffffffffffff8261275b565b6127a2868361275b565b95508019841693508086168417925050509392505050565b60006127d56127d06127cb846119a1565b611927565b6119a1565b9050919050565b6000819050919050565b6127ef836127ba565b6128036127fb826127dc565b848454612768565b825550505050565b600090565b61281861280b565b6128238184846127e6565b505050565b5b818110156128475761283c600082612810565b600181019050612829565b5050565b601f82111561288c5761285d81612736565b6128668461274b565b81016020851015612875578190505b6128896128818561274b565b830182612828565b50505b505050565b600082821c905092915050565b60006128af60001984600802612891565b1980831691505092915050565b60006128c8838361289e565b9150826002028217905092915050565b6128e182611d58565b67ffffffffffffffff8111156128fa576128f961173d565b5b6129048254612705565b61290f82828561284b565b600060209050601f8311600181146129425760008415612930578287015190505b61293a85826128bc565b8655506129a2565b601f19841661295086612736565b60005b8281101561297857848901518255600182019150602085019450602081019050612953565b868310156129955784890151612991601f89168261289e565b8355505b6001600288020188555050505b505050505050565b600081905092915050565b60006129c082611d58565b6129ca81856129aa565b93506129da818560208601611d74565b80840191505092915050565b60006129f282846129b5565b915081905092915050565b60006040820190508181036000830152612a178185611d9e565b90508181036020830152612a2b8184611d9e565b90509392505050565b6000602082019050612a496000830184612341565b92915050565b60058110612a5c57600080fd5b50565b600081519050612a6e81612a4f565b92915050565b600060208284031215612a8a57612a896116e2565b5b6000612a9884828501612a5f565b91505092915050565b7f4163636573732064656e6965643a204f6e6c79206c6f6769737469637320616c60008201527f6c6f776564000000000000000000000000000000000000000000000000000000602082015250565b6000612afd602583611d63565b9150612b0882612aa1565b604082019050919050565b60006020820190508181036000830152612b2c81612af0565b9050919050565b7f4572726f723a20547261636b696e6720494420646f6573206e6f74206578697360008201527f7400000000000000000000000000000000000000000000000000000000000000602082015250565b6000612b8f602183611d63565b9150612b9a82612b33565b604082019050919050565b60006020820190508181036000830152612bbe81612b82565b9050919050565b6000602082019050612bda600083018461235f565b92915050565b7f4163636573732064656e6965643a20496e76616c69642072657461696c65722060008201527f4944000000000000000000000000000000000000000000000000000000000000602082015250565b6000612c3c602283611d63565b9150612c4782612be0565b604082019050919050565b60006020820190508181036000830152612c6b81612c2f565b9050919050565b60008154612c7f81612705565b612c8981866129aa565b94506001821660008114612ca45760018114612cb957612cec565b60ff1983168652811515820286019350612cec565b612cc285612736565b60005b83811015612ce457815481890152600182019150602081019050612cc5565b838801955050505b50505092915050565b6000612d018284612c72565b915081905092915050565b7f4572726f723a204f6e6c792061737369676e65642072657461696c657220636160008201527f6e20726563656976650000000000000000000000000000000000000000000000602082015250565b6000612d68602983611d63565b9150612d7382612d0c565b604082019050919050565b60006020820190508181036000830152612d9781612d5b565b905091905056fea2646970667358221220cca61d9388f0d7bf77c8db3f52bcdfeae84f09ad7ccb19d325b5bc5b6a1dd0a364736f6c63430008130033",
  "immutableReferences": {},
  "source": "// SPDX-License-Identifier: MIT\npragma solidity ^0.8.19;\n\nimport \"./UserRegistry.sol\";\nimport \"./ProductLot.sol\";\n\ncontract Tracking {\n    UserRegistry public userRegistry;\n    ProductLot public productLotContract;\n\n    enum TrackingStatus { Pending, InTransit, Received }\n    enum LogisticsCheckType { Before, During, After }\n\n    struct TrackingEvent {\n        bytes32 trackingId;\n        bytes32 productLotId;\n        string retailerId; //   Address\n        string qrCodeCID;\n        TrackingStatus status;\n    }\n\n    struct LogisticsCheckpoint {\n        bytes32 trackingId;\n        address logisticsProvider;\n        uint256 pickupTime;\n        uint256 deliveryTime;\n        uint256 quantity;\n        int256 temperature;\n        string personInCharge;\n        LogisticsCheckType checkType;\n    }\n\n    struct RetailerConfirmation {\n        bytes32 trackingId;\n        string retailerId; //   Retailer ID  Address\n        uint256 receivedTime;\n        string qualityCID;\n        string personInCharge;\n    }\n\n    mapping(bytes32 => TrackingEvent) public trackingEvents;\n    mapping(bytes32 => LogisticsCheckpoint[]) public logisticsCheckpoints;\n    mapping(bytes32 => RetailerConfirmation) public retailerConfirmations;\n    mapping(string => bytes32[]) public retailerTracking; //   Retailer ID  key\n    bytes32[] public trackingIds;\n\n    event TrackingCreated(bytes32 indexed trackingId, bytes32 indexed productLotId, string retailerId, string qrCodeCID);\n    event LogisticsUpdated(bytes32 indexed trackingId, address indexed logisticsProvider, LogisticsCheckType checkType);\n    event RetailerReceived(bytes32 indexed trackingId, string retailerId, string qualityCID);\n\n    modifier onlyLogistics() {\n        require(userRegistry.getUserRole(msg.sender) == UserRegistry.UserRole.Logistics, \"Access denied: Only logistics allowed\");\n        _;\n    }\n\n    modifier onlyRetailer(string memory _retailerId) {\n        require(bytes(_retailerId).length > 0, \"Access denied: Invalid retailer ID\");\n        _;\n    }\n\n    constructor(address _userRegistry, address _productLotContract) {\n        userRegistry = UserRegistry(_userRegistry);\n        productLotContract = ProductLot(_productLotContract);\n    }\n\n    function createTrackingEvent(\n        bytes32 _trackingId,\n        bytes32 _productLotId,\n        string memory _retailerId,\n        string memory _qrCodeCID\n    ) public {\n        require(productLotContract.isProductLotExists(_productLotId), \"Error: Product Lot does not exist\");\n        require(trackingEvents[_trackingId].trackingId == bytes32(0), \"Error: Tracking ID already exists\");\n        require(bytes(_retailerId).length > 0, \"Error: Invalid Retailer ID\");\n        require(bytes(_qrCodeCID).length > 0, \"Error: QR Code CID cannot be empty\");\n\n        trackingEvents[_trackingId] = TrackingEvent({\n            trackingId: _trackingId,\n            productLotId: _productLotId,\n            retailerId: _retailerId,\n            qrCodeCID: _qrCodeCID,\n            status: TrackingStatus.Pending\n        });\n\n        trackingIds.push(_trackingId);\n        retailerTracking[_retailerId].push(_trackingId);\n        emit TrackingCreated(_trackingId, _productLotId, _retailerId, _qrCodeCID);\n    }\n\n    function updateLogisticsCheckpoint(\n        bytes32 _trackingId,\n        uint256 _pickupTime,\n        uint256 _deliveryTime,\n        uint256 _quantity,\n        int256 _temperature,\n        string memory _personInCharge,\n        LogisticsCheckType _checkType\n    ) public onlyLogistics {\n        require(trackingEvents[_trackingId].trackingId != bytes32(0), \"Error: Tracking ID does not exist\");\n        logisticsCheckpoints[_trackingId].push(LogisticsCheckpoint({\n            trackingId: _trackingId,\n            logisticsProvider: msg.sender,\n            pickupTime: _pickupTime,\n            deliveryTime: _deliveryTime,\n            quantity: _quantity,\n            temperature: _temperature,\n            personInCharge: _personInCharge,\n            checkType: _checkType\n        }));\n        emit LogisticsUpdated(_trackingId, msg.sender, _checkType);\n    }\n\n    function retailerReceiveProduct(\n        bytes32 _trackingId,\n        string memory _retailerId,\n        string memory _qualityCID,\n        string memory _personInCharge\n    ) public onlyRetailer(_retailerId) {\n        require(trackingEvents[_trackingId].trackingId != bytes32(0), \"Error: Tracking ID does not exist\");\n        require(keccak256(abi.encodePacked(trackingEvents[_trackingId].retailerId)) == keccak256(abi.encodePacked(_retailerId)), \"Error: Only assigned retailer can receive\");\n\n        trackingEvents[_trackingId].status = TrackingStatus.Received;\n        retailerConfirmations[_trackingId] = RetailerConfirmation({\n            trackingId: _trackingId,\n            retailerId: _retailerId,\n            receivedTime: block.timestamp,\n            qualityCID: _qualityCID,\n            personInCharge: _personInCharge\n        });\n        emit RetailerReceived(_trackingId, _retailerId, _qualityCID);\n    }\n\n    function getTrackingById(bytes32 _trackingId) public view returns (TrackingEvent memory, LogisticsCheckpoint[] memory, RetailerConfirmation memory) {\n        require(trackingEvents[_trackingId].trackingId != bytes32(0), \"Error: Tracking ID does not exist\");\n        return (trackingEvents[_trackingId], logisticsCheckpoints[_trackingId], retailerConfirmations[_trackingId]);\n    }\n\n    function getTrackingByRetailer(string memory _retailerId) public view returns (bytes32[] memory) {\n        return retailerTracking[_retailerId];\n    }\n}\n",
  "sourcePath": "/home/kmitl-ivo/Documents/Back/Backend/solidity/contracts/Tracking.sol",
  "compiler": {
    "name": "solc",
    "version": "0.8.19+commit.7dd6d404.Emscripten.clang"
  },
  "schemaVersion": "3.4.16",
  "updatedAt": "2025-03-13T11:10:35.391Z",
  "devdoc": {
    "kind": "dev",
    "methods": {},
    "version": 1
  },
  "userdoc": {
    "kind": "user",
    "methods": {},
    "version": 1
  }
}