{
  "contractName": "Tracking",
  "abi": [
    {
      "inputs": [
        {
          "internalType": "address",
          "name": "_userRegistry",
          "type": "address"
        },
        {
          "internalType": "address",
          "name": "_productLotContract",
          "type": "address"
        }
      ],
      "stateMutability": "nonpayable",
      "type": "constructor"
    },
    {
      "anonymous": false,
      "inputs": [
        {
          "indexed": true,
          "internalType": "bytes32",
          "name": "trackingId",
          "type": "bytes32"
        },
        {
          "indexed": true,
          "internalType": "address",
          "name": "logisticsProvider",
          "type": "address"
        },
        {
          "indexed": false,
          "internalType": "enum Tracking.LogisticsCheckType",
          "name": "checkType",
          "type": "uint8"
        },
        {
          "indexed": false,
          "internalType": "string",
          "name": "receiverCID",
          "type": "string"
        }
      ],
      "name": "LogisticsUpdated",
      "type": "event"
    },
    {
      "anonymous": false,
      "inputs": [
        {
          "indexed": true,
          "internalType": "bytes32",
          "name": "trackingId",
          "type": "bytes32"
        },
        {
          "indexed": false,
          "internalType": "string",
          "name": "retailerId",
          "type": "string"
        },
        {
          "indexed": false,
          "internalType": "string",
          "name": "qualityCID",
          "type": "string"
        }
      ],
      "name": "RetailerReceived",
      "type": "event"
    },
    {
      "anonymous": false,
      "inputs": [
        {
          "indexed": true,
          "internalType": "bytes32",
          "name": "trackingId",
          "type": "bytes32"
        },
        {
          "indexed": true,
          "internalType": "bytes32",
          "name": "productLotId",
          "type": "bytes32"
        },
        {
          "indexed": false,
          "internalType": "string",
          "name": "retailerId",
          "type": "string"
        },
        {
          "indexed": false,
          "internalType": "string",
          "name": "qrCodeCID",
          "type": "string"
        }
      ],
      "name": "TrackingCreated",
      "type": "event"
    },
    {
      "inputs": [
        {
          "internalType": "uint256",
          "name": "",
          "type": "uint256"
        }
      ],
      "name": "allTrackingIds",
      "outputs": [
        {
          "internalType": "bytes32",
          "name": "",
          "type": "bytes32"
        }
      ],
      "stateMutability": "view",
      "type": "function",
      "constant": true
    },
    {
      "inputs": [
        {
          "internalType": "bytes32",
          "name": "",
          "type": "bytes32"
        },
        {
          "internalType": "uint256",
          "name": "",
          "type": "uint256"
        }
      ],
      "name": "logisticsCheckpoints",
      "outputs": [
        {
          "internalType": "bytes32",
          "name": "trackingId",
          "type": "bytes32"
        },
        {
          "internalType": "address",
          "name": "logisticsProvider",
          "type": "address"
        },
        {
          "internalType": "uint256",
          "name": "pickupTime",
          "type": "uint256"
        },
        {
          "internalType": "uint256",
          "name": "deliveryTime",
          "type": "uint256"
        },
        {
          "internalType": "uint256",
          "name": "quantity",
          "type": "uint256"
        },
        {
          "internalType": "int256",
          "name": "temperature",
          "type": "int256"
        },
        {
          "internalType": "string",
          "name": "personInCharge",
          "type": "string"
        },
        {
          "internalType": "enum Tracking.LogisticsCheckType",
          "name": "checkType",
          "type": "uint8"
        },
        {
          "internalType": "string",
          "name": "receiverCID",
          "type": "string"
        }
      ],
      "stateMutability": "view",
      "type": "function",
      "constant": true
    },
    {
      "inputs": [],
      "name": "productLotContract",
      "outputs": [
        {
          "internalType": "contract ProductLot",
          "name": "",
          "type": "address"
        }
      ],
      "stateMutability": "view",
      "type": "function",
      "constant": true
    },
    {
      "inputs": [
        {
          "internalType": "bytes32",
          "name": "",
          "type": "bytes32"
        }
      ],
      "name": "retailerConfirmations",
      "outputs": [
        {
          "internalType": "bytes32",
          "name": "trackingId",
          "type": "bytes32"
        },
        {
          "internalType": "string",
          "name": "retailerId",
          "type": "string"
        },
        {
          "internalType": "uint256",
          "name": "receivedTime",
          "type": "uint256"
        },
        {
          "internalType": "string",
          "name": "qualityCID",
          "type": "string"
        },
        {
          "internalType": "string",
          "name": "personInCharge",
          "type": "string"
        }
      ],
      "stateMutability": "view",
      "type": "function",
      "constant": true
    },
    {
      "inputs": [
        {
          "internalType": "string",
          "name": "",
          "type": "string"
        },
        {
          "internalType": "uint256",
          "name": "",
          "type": "uint256"
        }
      ],
      "name": "retailerTracking",
      "outputs": [
        {
          "internalType": "bytes32",
          "name": "",
          "type": "bytes32"
        }
      ],
      "stateMutability": "view",
      "type": "function",
      "constant": true
    },
    {
      "inputs": [
        {
          "internalType": "bytes32",
          "name": "",
          "type": "bytes32"
        }
      ],
      "name": "trackingEvents",
      "outputs": [
        {
          "internalType": "bytes32",
          "name": "trackingId",
          "type": "bytes32"
        },
        {
          "internalType": "bytes32",
          "name": "productLotId",
          "type": "bytes32"
        },
        {
          "internalType": "string",
          "name": "retailerId",
          "type": "string"
        },
        {
          "internalType": "string",
          "name": "qrCodeCID",
          "type": "string"
        },
        {
          "internalType": "enum Tracking.TrackingStatus",
          "name": "status",
          "type": "uint8"
        }
      ],
      "stateMutability": "view",
      "type": "function",
      "constant": true
    },
    {
      "inputs": [],
      "name": "userRegistry",
      "outputs": [
        {
          "internalType": "contract UserRegistry",
          "name": "",
          "type": "address"
        }
      ],
      "stateMutability": "view",
      "type": "function",
      "constant": true
    },
    {
      "inputs": [
        {
          "internalType": "bytes32",
          "name": "_trackingId",
          "type": "bytes32"
        },
        {
          "internalType": "bytes32",
          "name": "_productLotId",
          "type": "bytes32"
        },
        {
          "internalType": "string",
          "name": "_retailerId",
          "type": "string"
        },
        {
          "internalType": "string",
          "name": "_qrCodeCID",
          "type": "string"
        }
      ],
      "name": "createTrackingEvent",
      "outputs": [],
      "stateMutability": "nonpayable",
      "type": "function"
    },
    {
      "inputs": [
        {
          "internalType": "bytes32",
          "name": "_trackingId",
          "type": "bytes32"
        },
        {
          "internalType": "uint256",
          "name": "_pickupTime",
          "type": "uint256"
        },
        {
          "internalType": "uint256",
          "name": "_deliveryTime",
          "type": "uint256"
        },
        {
          "internalType": "uint256",
          "name": "_quantity",
          "type": "uint256"
        },
        {
          "internalType": "int256",
          "name": "_temperature",
          "type": "int256"
        },
        {
          "internalType": "string",
          "name": "_personInCharge",
          "type": "string"
        },
        {
          "internalType": "enum Tracking.LogisticsCheckType",
          "name": "_checkType",
          "type": "uint8"
        },
        {
          "internalType": "string",
          "name": "_receiverCID",
          "type": "string"
        }
      ],
      "name": "updateLogisticsCheckpoint",
      "outputs": [],
      "stateMutability": "nonpayable",
      "type": "function"
    },
    {
      "inputs": [
        {
          "internalType": "bytes32",
          "name": "_trackingId",
          "type": "bytes32"
        },
        {
          "internalType": "string",
          "name": "_retailerId",
          "type": "string"
        },
        {
          "internalType": "string",
          "name": "_qualityCID",
          "type": "string"
        },
        {
          "internalType": "string",
          "name": "_personInCharge",
          "type": "string"
        }
      ],
      "name": "retailerReceiveProduct",
      "outputs": [],
      "stateMutability": "nonpayable",
      "type": "function"
    },
    {
      "inputs": [
        {
          "internalType": "bytes32",
          "name": "_trackingId",
          "type": "bytes32"
        }
      ],
      "name": "getTrackingById",
      "outputs": [
        {
          "components": [
            {
              "internalType": "bytes32",
              "name": "trackingId",
              "type": "bytes32"
            },
            {
              "internalType": "bytes32",
              "name": "productLotId",
              "type": "bytes32"
            },
            {
              "internalType": "string",
              "name": "retailerId",
              "type": "string"
            },
            {
              "internalType": "string",
              "name": "qrCodeCID",
              "type": "string"
            },
            {
              "internalType": "enum Tracking.TrackingStatus",
              "name": "status",
              "type": "uint8"
            }
          ],
          "internalType": "struct Tracking.TrackingEvent",
          "name": "",
          "type": "tuple"
        },
        {
          "components": [
            {
              "internalType": "bytes32",
              "name": "trackingId",
              "type": "bytes32"
            },
            {
              "internalType": "address",
              "name": "logisticsProvider",
              "type": "address"
            },
            {
              "internalType": "uint256",
              "name": "pickupTime",
              "type": "uint256"
            },
            {
              "internalType": "uint256",
              "name": "deliveryTime",
              "type": "uint256"
            },
            {
              "internalType": "uint256",
              "name": "quantity",
              "type": "uint256"
            },
            {
              "internalType": "int256",
              "name": "temperature",
              "type": "int256"
            },
            {
              "internalType": "string",
              "name": "personInCharge",
              "type": "string"
            },
            {
              "internalType": "enum Tracking.LogisticsCheckType",
              "name": "checkType",
              "type": "uint8"
            },
            {
              "internalType": "string",
              "name": "receiverCID",
              "type": "string"
            }
          ],
          "internalType": "struct Tracking.LogisticsCheckpoint[]",
          "name": "",
          "type": "tuple[]"
        },
        {
          "components": [
            {
              "internalType": "bytes32",
              "name": "trackingId",
              "type": "bytes32"
            },
            {
              "internalType": "string",
              "name": "retailerId",
              "type": "string"
            },
            {
              "internalType": "uint256",
              "name": "receivedTime",
              "type": "uint256"
            },
            {
              "internalType": "string",
              "name": "qualityCID",
              "type": "string"
            },
            {
              "internalType": "string",
              "name": "personInCharge",
              "type": "string"
            }
          ],
          "internalType": "struct Tracking.RetailerConfirmation",
          "name": "",
          "type": "tuple"
        }
      ],
      "stateMutability": "view",
      "type": "function",
      "constant": true
    },
    {
      "inputs": [
        {
          "internalType": "string",
          "name": "_retailerId",
          "type": "string"
        }
      ],
      "name": "getTrackingByRetailer",
      "outputs": [
        {
          "internalType": "bytes32[]",
          "name": "",
          "type": "bytes32[]"
        }
      ],
      "stateMutability": "view",
      "type": "function",
      "constant": true
    },
    {
      "inputs": [
        {
          "internalType": "bytes32",
          "name": "_productLotId",
          "type": "bytes32"
        }
      ],
      "name": "getTrackingByLotId",
      "outputs": [
        {
          "internalType": "bytes32[]",
          "name": "resultTrackingIds",
          "type": "bytes32[]"
        },
        {
          "internalType": "string[]",
          "name": "retailerIds",
          "type": "string[]"
        },
        {
          "internalType": "string[]",
          "name": "qrCodeCIDs",
          "type": "string[]"
        }
      ],
      "stateMutability": "view",
      "type": "function",
      "constant": true
    },
    {
      "inputs": [],
      "name": "getOngoingShipmentsByLogistics",
      "outputs": [
        {
          "internalType": "bytes32[]",
          "name": "trackingIds",
          "type": "bytes32[]"
        },
        {
          "internalType": "string[]",
          "name": "personInChargeList",
          "type": "string[]"
        }
      ],
      "stateMutability": "view",
      "type": "function",
      "constant": true
    },
    {
      "inputs": [],
      "name": "getAllTrackingIds",
      "outputs": [
        {
          "internalType": "bytes32[]",
          "name": "",
          "type": "bytes32[]"
        }
      ],
      "stateMutability": "view",
      "type": "function",
      "constant": true
    },
    {
      "inputs": [
        {
          "internalType": "bytes32",
          "name": "_trackingId",
          "type": "bytes32"
        }
      ],
      "name": "getLogisticsCheckpointsByTrackingId",
      "outputs": [
        {
          "components": [
            {
              "internalType": "bytes32",
              "name": "trackingId",
              "type": "bytes32"
            },
            {
              "internalType": "address",
              "name": "logisticsProvider",
              "type": "address"
            },
            {
              "internalType": "uint256",
              "name": "pickupTime",
              "type": "uint256"
            },
            {
              "internalType": "uint256",
              "name": "deliveryTime",
              "type": "uint256"
            },
            {
              "internalType": "uint256",
              "name": "quantity",
              "type": "uint256"
            },
            {
              "internalType": "int256",
              "name": "temperature",
              "type": "int256"
            },
            {
              "internalType": "string",
              "name": "personInCharge",
              "type": "string"
            },
            {
              "internalType": "enum Tracking.LogisticsCheckType",
              "name": "checkType",
              "type": "uint8"
            },
            {
              "internalType": "string",
              "name": "receiverCID",
              "type": "string"
            }
          ],
          "internalType": "struct Tracking.LogisticsCheckpoint[]",
          "name": "beforeCheckpoints",
          "type": "tuple[]"
        },
        {
          "components": [
            {
              "internalType": "bytes32",
              "name": "trackingId",
              "type": "bytes32"
            },
            {
              "internalType": "address",
              "name": "logisticsProvider",
              "type": "address"
            },
            {
              "internalType": "uint256",
              "name": "pickupTime",
              "type": "uint256"
            },
            {
              "internalType": "uint256",
              "name": "deliveryTime",
              "type": "uint256"
            },
            {
              "internalType": "uint256",
              "name": "quantity",
              "type": "uint256"
            },
            {
              "internalType": "int256",
              "name": "temperature",
              "type": "int256"
            },
            {
              "internalType": "string",
              "name": "personInCharge",
              "type": "string"
            },
            {
              "internalType": "enum Tracking.LogisticsCheckType",
              "name": "checkType",
              "type": "uint8"
            },
            {
              "internalType": "string",
              "name": "receiverCID",
              "type": "string"
            }
          ],
          "internalType": "struct Tracking.LogisticsCheckpoint[]",
          "name": "duringCheckpoints",
          "type": "tuple[]"
        },
        {
          "components": [
            {
              "internalType": "bytes32",
              "name": "trackingId",
              "type": "bytes32"
            },
            {
              "internalType": "address",
              "name": "logisticsProvider",
              "type": "address"
            },
            {
              "internalType": "uint256",
              "name": "pickupTime",
              "type": "uint256"
            },
            {
              "internalType": "uint256",
              "name": "deliveryTime",
              "type": "uint256"
            },
            {
              "internalType": "uint256",
              "name": "quantity",
              "type": "uint256"
            },
            {
              "internalType": "int256",
              "name": "temperature",
              "type": "int256"
            },
            {
              "internalType": "string",
              "name": "personInCharge",
              "type": "string"
            },
            {
              "internalType": "enum Tracking.LogisticsCheckType",
              "name": "checkType",
              "type": "uint8"
            },
            {
              "internalType": "string",
              "name": "receiverCID",
              "type": "string"
            }
          ],
          "internalType": "struct Tracking.LogisticsCheckpoint[]",
          "name": "afterCheckpoints",
          "type": "tuple[]"
        }
      ],
      "stateMutability": "view",
      "type": "function",
      "constant": true
    },
    {
      "inputs": [
        {
          "internalType": "bytes32",
          "name": "_trackingId",
          "type": "bytes32"
        }
      ],
      "name": "getLastLogisticsProvider",
      "outputs": [
        {
          "internalType": "address",
          "name": "",
          "type": "address"
        }
      ],
      "stateMutability": "view",
      "type": "function",
      "constant": true
    }
  ],
  "bytecode": "0x60806040523480156200001157600080fd5b5060405162004e9b38038062004e9b83398181016040528101906200003791906200012a565b816000806101000a81548173ffffffffffffffffffffffffffffffffffffffff021916908373ffffffffffffffffffffffffffffffffffffffff16021790555080600160006101000a81548173ffffffffffffffffffffffffffffffffffffffff021916908373ffffffffffffffffffffffffffffffffffffffff160217905550505062000171565b600080fd5b600073ffffffffffffffffffffffffffffffffffffffff82169050919050565b6000620000f282620000c5565b9050919050565b6200010481620000e5565b81146200011057600080fd5b50565b6000815190506200012481620000f9565b92915050565b60008060408385031215620001445762000143620000c0565b5b6000620001548582860162000113565b9250506020620001678582860162000113565b9150509250929050565b614d1a80620001816000396000f3fe608060405234801561001057600080fd5b506004361061010b5760003560e01c806383fb9889116100a2578063cc1faf8e11610071578063cc1faf8e146102e9578063cfd7b9af14610307578063f167173714610337578063f30459e31461036b578063f43dc2bc146103a35761010b565b806383fb9889146102375780639ed6f8ab14610267578063a7e604b21461029b578063c93c35eb146102b75761010b565b80635c7460d6116100de5780635c7460d6146101ac57806365f0f7d5146101ca5780637ea96547146101fc5780638120b3f7146102185761010b565b80631a5c3d0e14610110578063465b6e731461014057806354cb24a41461015c57806356ef21b41461017a575b600080fd5b61012a60048036038101906101259190613288565b6103d3565b60405161013791906132ce565b60405180910390f35b61015a6004803603810190610155919061345b565b6103f7565b005b610164610724565b60405161017191906135b8565b60405180910390f35b610194600480360381019061018f91906135da565b61077c565b6040516101a3939291906138f4565b60405180910390f35b6101b461132f565b6040516101c1919061399f565b60405180910390f35b6101e460048036038101906101df91906135da565b611353565b6040516101f393929190613a7c565b60405180910390f35b61021660048036038101906102119190613ac8565b61171e565b005b610220611a16565b60405161022e929190613b83565b60405180910390f35b610251600480360381019061024c9190613bba565b611fcb565b60405161025e91906135b8565b60405180910390f35b610281600480360381019061027c91906135da565b612041565b604051610292959493929190613c95565b60405180910390f35b6102b560048036038101906102b09190613d47565b612194565b005b6102d160048036038101906102cc91906135da565b6125f8565b6040516102e093929190613f45565b60405180910390f35b6102f1612c45565b6040516102fe9190613fb2565b60405180910390f35b610321600480360381019061031c91906135da565b612c6b565b60405161032e9190613fdc565b60405180910390f35b610351600480360381019061034c91906135da565b612d91565b604051610362959493929190614006565b60405180910390f35b6103856004803603810190610380919061406e565b612f5f565b60405161039a999897969594939291906140cc565b60405180910390f35b6103bd60048036038101906103b89190614167565b613107565b6040516103ca91906132ce565b60405180910390f35b600681815481106103e357600080fd5b906000526020600020016000915090505481565b600160009054906101000a900473ffffffffffffffffffffffffffffffffffffffff1673ffffffffffffffffffffffffffffffffffffffff1663fa0bff30846040518263ffffffff1660e01b815260040161045291906132ce565b602060405180830381865afa15801561046f573d6000803e3d6000fd5b505050506040513d601f19601f8201168201806040525081019061049391906141fb565b6104d2576040517f08c379a00000000000000000000000000000000000000000000000000000000081526004016104c99061429a565b60405180910390fd5b6000801b60026000868152602001908152602001600020600001541461052d576040517f08c379a00000000000000000000000000000000000000000000000000000000081526004016105249061432c565b60405180910390fd5b6000825111610571576040517f08c379a000000000000000000000000000000000000000000000000000000000815260040161056890614398565b60405180910390fd5b60008151116105b5576040517f08c379a00000000000000000000000000000000000000000000000000000000081526004016105ac9061442a565b60405180910390fd5b6040518060a00160405280858152602001848152602001838152602001828152602001600060028111156105ec576105eb61371b565b5b815250600260008681526020019081526020016000206000820151816000015560208201518160010155604082015181600201908161062b919061464c565b506060820151816003019081610641919061464c565b5060808201518160040160006101000a81548160ff0219169083600281111561066d5761066c61371b565b5b021790555090505060068490806001815401808255809150506001900390600052602060002001600090919091909150556005826040516106ae919061475a565b908152602001604051809103902084908060018154018082558091505060019003906000526020600020016000909190919091505582847fa2fc3ade0f3e8f9c31cda358ccb72883469278eb67b094b4d6d90a5cab7d5a538484604051610716929190614771565b60405180910390a350505050565b6060600680548060200260200160405190810160405280929190818152602001828054801561077257602002820191906000526020600020905b81548152602001906001019080831161075e575b5050505050905090565b60608060606000801b6002600086815260200190815260200160002060000154036107dc576040517f08c379a00000000000000000000000000000000000000000000000000000000081526004016107d39061481a565b60405180910390fd5b6000806000805b600360008981526020019081526020016000208054905081101561099757600060028111156108155761081461371b565b5b600360008a8152602001908152602001600020828154811061083a5761083961483a565b5b906000526020600020906009020160070160009054906101000a900460ff16600281111561086b5761086a61371b565b5b0361088357838061087b90614898565b945050610984565b600160028111156108975761089661371b565b5b600360008a815260200190815260200160002082815481106108bc576108bb61483a565b5b906000526020600020906009020160070160009054906101000a900460ff1660028111156108ed576108ec61371b565b5b036109055782806108fd90614898565b935050610983565b6002808111156109185761091761371b565b5b600360008a8152602001908152602001600020828154811061093d5761093c61483a565b5b906000526020600020906009020160070160009054906101000a900460ff16600281111561096e5761096d61371b565b5b0361098257818061097e90614898565b9250505b5b5b808061098f90614898565b9150506107e3565b508267ffffffffffffffff8111156109b2576109b1613330565b5b6040519080825280602002602001820160405280156109eb57816020015b6109d861314e565b8152602001906001900390816109d05790505b5095508167ffffffffffffffff811115610a0857610a07613330565b5b604051908082528060200260200182016040528015610a4157816020015b610a2e61314e565b815260200190600190039081610a265790505b5094508067ffffffffffffffff811115610a5e57610a5d613330565b5b604051908082528060200260200182016040528015610a9757816020015b610a8461314e565b815260200190600190039081610a7c5790505b5093506000806000805b600360008c8152602001908152602001600020805490508110156113215760006002811115610ad357610ad261371b565b5b600360008d81526020019081526020016000208281548110610af857610af761483a565b5b906000526020600020906009020160070160009054906101000a900460ff166002811115610b2957610b2861371b565b5b03610d8557600360008c81526020019081526020016000208181548110610b5357610b5261483a565b5b906000526020600020906009020160405180610120016040529081600082015481526020016001820160009054906101000a900473ffffffffffffffffffffffffffffffffffffffff1673ffffffffffffffffffffffffffffffffffffffff1673ffffffffffffffffffffffffffffffffffffffff16815260200160028201548152602001600382015481526020016004820154815260200160058201548152602001600682018054610c0590614479565b80601f0160208091040260200160405190810160405280929190818152602001828054610c3190614479565b8015610c7e5780601f10610c5357610100808354040283529160200191610c7e565b820191906000526020600020905b815481529060010190602001808311610c6157829003601f168201915b505050505081526020016007820160009054906101000a900460ff166002811115610cac57610cab61371b565b5b6002811115610cbe57610cbd61371b565b5b8152602001600882018054610cd290614479565b80601f0160208091040260200160405190810160405280929190818152602001828054610cfe90614479565b8015610d4b5780601f10610d2057610100808354040283529160200191610d4b565b820191906000526020600020905b815481529060010190602001808311610d2e57829003601f168201915b5050505050815250508a8581518110610d6757610d6661483a565b5b60200260200101819052508380610d7d90614898565b94505061130e565b60016002811115610d9957610d9861371b565b5b600360008d81526020019081526020016000208281548110610dbe57610dbd61483a565b5b906000526020600020906009020160070160009054906101000a900460ff166002811115610def57610dee61371b565b5b0361104b57600360008c81526020019081526020016000208181548110610e1957610e1861483a565b5b906000526020600020906009020160405180610120016040529081600082015481526020016001820160009054906101000a900473ffffffffffffffffffffffffffffffffffffffff1673ffffffffffffffffffffffffffffffffffffffff1673ffffffffffffffffffffffffffffffffffffffff16815260200160028201548152602001600382015481526020016004820154815260200160058201548152602001600682018054610ecb90614479565b80601f0160208091040260200160405190810160405280929190818152602001828054610ef790614479565b8015610f445780601f10610f1957610100808354040283529160200191610f44565b820191906000526020600020905b815481529060010190602001808311610f2757829003601f168201915b505050505081526020016007820160009054906101000a900460ff166002811115610f7257610f7161371b565b5b6002811115610f8457610f8361371b565b5b8152602001600882018054610f9890614479565b80601f0160208091040260200160405190810160405280929190818152602001828054610fc490614479565b80156110115780601f10610fe657610100808354040283529160200191611011565b820191906000526020600020905b815481529060010190602001808311610ff457829003601f168201915b50505050508152505089848151811061102d5761102c61483a565b5b6020026020010181905250828061104390614898565b93505061130d565b60028081111561105e5761105d61371b565b5b600360008d815260200190815260200160002082815481106110835761108261483a565b5b906000526020600020906009020160070160009054906101000a900460ff1660028111156110b4576110b361371b565b5b0361130c57600360008c815260200190815260200160002081815481106110de576110dd61483a565b5b906000526020600020906009020160405180610120016040529081600082015481526020016001820160009054906101000a900473ffffffffffffffffffffffffffffffffffffffff1673ffffffffffffffffffffffffffffffffffffffff1673ffffffffffffffffffffffffffffffffffffffff1681526020016002820154815260200160038201548152602001600482015481526020016005820154815260200160068201805461119090614479565b80601f01602080910402602001604051908101604052809291908181526020018280546111bc90614479565b80156112095780601f106111de57610100808354040283529160200191611209565b820191906000526020600020905b8154815290600101906020018083116111ec57829003601f168201915b505050505081526020016007820160009054906101000a900460ff1660028111156112375761123661371b565b5b60028111156112495761124861371b565b5b815260200160088201805461125d90614479565b80601f016020809104026020016040519081016040528092919081815260200182805461128990614479565b80156112d65780601f106112ab576101008083540402835291602001916112d6565b820191906000526020600020905b8154815290600101906020018083116112b957829003601f168201915b5050505050815250508883815181106112f2576112f161483a565b5b6020026020010181905250818061130890614898565b9250505b5b5b808061131990614898565b915050610aa1565b505050505050509193909250565b60008054906101000a900473ffffffffffffffffffffffffffffffffffffffff1681565b60608060606000805b6006805490508110156113c6578560026000600684815481106113825761138161483a565b5b9060005260206000200154815260200190815260200160002060010154036113b35781806113af90614898565b9250505b80806113be90614898565b91505061135c565b508067ffffffffffffffff8111156113e1576113e0613330565b5b60405190808252806020026020018201604052801561140f5781602001602082028036833780820191505090505b5093508067ffffffffffffffff81111561142c5761142b613330565b5b60405190808252806020026020018201604052801561145f57816020015b606081526020019060019003908161144a5790505b5092508067ffffffffffffffff81111561147c5761147b613330565b5b6040519080825280602002602001820160405280156114af57816020015b606081526020019060019003908161149a5790505b5091506000805b600680549050811015611714578660026000600684815481106114dc576114db61483a565b5b90600052602060002001548152602001908152602001600020600101540361170157600681815481106115125761151161483a565b5b90600052602060002001548683815181106115305761152f61483a565b5b60200260200101818152505060026000600683815481106115545761155361483a565b5b90600052602060002001548152602001908152602001600020600201805461157b90614479565b80601f01602080910402602001604051908101604052809291908181526020018280546115a790614479565b80156115f45780601f106115c9576101008083540402835291602001916115f4565b820191906000526020600020905b8154815290600101906020018083116115d757829003601f168201915b505050505085838151811061160c5761160b61483a565b5b6020026020010181905250600260006006838154811061162f5761162e61483a565b5b90600052602060002001548152602001908152602001600020600301805461165690614479565b80601f016020809104026020016040519081016040528092919081815260200182805461168290614479565b80156116cf5780601f106116a4576101008083540402835291602001916116cf565b820191906000526020600020905b8154815290600101906020018083116116b257829003601f168201915b50505050508483815181106116e7576116e661483a565b5b602002602001018190525081806116fd90614898565b9250505b808061170c90614898565b9150506114b6565b5050509193909250565b826000815111611763576040517f08c379a000000000000000000000000000000000000000000000000000000000815260040161175a90614952565b60405180910390fd5b6000801b6002600087815260200190815260200160002060000154036117be576040517f08c379a00000000000000000000000000000000000000000000000000000000081526004016117b59061481a565b60405180910390fd5b836040516020016117cf919061475a565b604051602081830303815290604052805190602001206002600087815260200190815260200160002060020160405160200161180b91906149f5565b6040516020818303038152906040528051906020012014611861576040517f08c379a000000000000000000000000000000000000000000000000000000000815260040161185890614a7e565b60405180910390fd5b600280600087815260200190815260200160002060040160006101000a81548160ff0219169083600281111561189a5761189961371b565b5b02179055506040518060a0016040528086815260200185815260200142815260200184815260200183815250600460008781526020019081526020016000206000820151816000015560208201518160010190816118f8919061464c565b50604082015181600201556060820151816003019081611918919061464c565b50608082015181600401908161192e919061464c565b50905050600160009054906101000a900473ffffffffffffffffffffffffffffffffffffffff1673ffffffffffffffffffffffffffffffffffffffff166352df0ee660026000888152602001908152602001600020600101546040518263ffffffff1660e01b81526004016119a391906132ce565b600060405180830381600087803b1580156119bd57600080fd5b505af11580156119d1573d6000803e3d6000fd5b50505050847f6931b58dbc3c7b4d9caec3ed0638b6990770e147b532536809aa388e4fa97b958585604051611a07929190614771565b60405180910390a25050505050565b60608060036004811115611a2d57611a2c61371b565b5b60008054906101000a900473ffffffffffffffffffffffffffffffffffffffff1673ffffffffffffffffffffffffffffffffffffffff166327820851336040518263ffffffff1660e01b8152600401611a869190613fdc565b602060405180830381865afa158015611aa3573d6000803e3d6000fd5b505050506040513d601f19601f82011682018060405250810190611ac79190614ac3565b6004811115611ad957611ad861371b565b5b14611b19576040517f08c379a0000000000000000000000000000000000000000000000000000000008152600401611b1090614b62565b60405180910390fd5b6000805b600680549050811015611c9157600060068281548110611b4057611b3f61483a565b5b9060005260206000200154905060016002811115611b6157611b6061371b565b5b6002600083815260200190815260200160002060040160009054906101000a900460ff166002811115611b9757611b9661371b565b5b148015611bba575060006003600083815260200190815260200160002080549050115b8015611c6957503373ffffffffffffffffffffffffffffffffffffffff166003600083815260200190815260200160002060016003600085815260200190815260200160002080549050611c0e9190614b82565b81548110611c1f57611c1e61483a565b5b906000526020600020906009020160010160009054906101000a900473ffffffffffffffffffffffffffffffffffffffff1673ffffffffffffffffffffffffffffffffffffffff16145b15611c7d578280611c7990614898565b9350505b508080611c8990614898565b915050611b1d565b508067ffffffffffffffff811115611cac57611cab613330565b5b604051908082528060200260200182016040528015611cda5781602001602082028036833780820191505090505b5092508067ffffffffffffffff811115611cf757611cf6613330565b5b604051908082528060200260200182016040528015611d2a57816020015b6060815260200190600190039081611d155790505b5091506000805b600680549050811015611fc457600060068281548110611d5457611d5361483a565b5b9060005260206000200154905060016002811115611d7557611d7461371b565b5b6002600083815260200190815260200160002060040160009054906101000a900460ff166002811115611dab57611daa61371b565b5b148015611dce575060006003600083815260200190815260200160002080549050115b8015611e7d57503373ffffffffffffffffffffffffffffffffffffffff166003600083815260200190815260200160002060016003600085815260200190815260200160002080549050611e229190614b82565b81548110611e3357611e3261483a565b5b906000526020600020906009020160010160009054906101000a900473ffffffffffffffffffffffffffffffffffffffff1673ffffffffffffffffffffffffffffffffffffffff16145b15611fb05780868481518110611e9657611e9561483a565b5b6020026020010181815250506003600082815260200190815260200160002060016003600084815260200190815260200160002080549050611ed89190614b82565b81548110611ee957611ee861483a565b5b90600052602060002090600902016006018054611f0590614479565b80601f0160208091040260200160405190810160405280929190818152602001828054611f3190614479565b8015611f7e5780601f10611f5357610100808354040283529160200191611f7e565b820191906000526020600020905b815481529060010190602001808311611f6157829003601f168201915b5050505050858481518110611f9657611f9561483a565b5b60200260200101819052508280611fac90614898565b9350505b508080611fbc90614898565b915050611d31565b5050509091565b6060600582604051611fdd919061475a565b908152602001604051809103902080548060200260200160405190810160405280929190818152602001828054801561203557602002820191906000526020600020905b815481526020019060010190808311612021575b50505050509050919050565b600260205280600052604060002060009150905080600001549080600101549080600201805461207090614479565b80601f016020809104026020016040519081016040528092919081815260200182805461209c90614479565b80156120e95780601f106120be576101008083540402835291602001916120e9565b820191906000526020600020905b8154815290600101906020018083116120cc57829003601f168201915b5050505050908060030180546120fe90614479565b80601f016020809104026020016040519081016040528092919081815260200182805461212a90614479565b80156121775780601f1061214c57610100808354040283529160200191612177565b820191906000526020600020905b81548152906001019060200180831161215a57829003601f168201915b5050505050908060040160009054906101000a900460ff16905085565b600360048111156121a8576121a761371b565b5b60008054906101000a900473ffffffffffffffffffffffffffffffffffffffff1673ffffffffffffffffffffffffffffffffffffffff166327820851336040518263ffffffff1660e01b81526004016122019190613fdc565b602060405180830381865afa15801561221e573d6000803e3d6000fd5b505050506040513d601f19601f820116820180604052508101906122429190614ac3565b60048111156122545761225361371b565b5b14612294576040517f08c379a000000000000000000000000000000000000000000000000000000000815260040161228b90614b62565b60405180910390fd5b6000801b600260008a815260200190815260200160002060000154036122ef576040517f08c379a00000000000000000000000000000000000000000000000000000000081526004016122e69061481a565b60405180910390fd5b600360008981526020019081526020016000206040518061012001604052808a81526020013373ffffffffffffffffffffffffffffffffffffffff1681526020018981526020018881526020018781526020018681526020018581526020018460028111156123615761236061371b565b5b81526020018381525090806001815401808255809150506001900390600052602060002090600902016000909190919091506000820151816000015560208201518160010160006101000a81548173ffffffffffffffffffffffffffffffffffffffff021916908373ffffffffffffffffffffffffffffffffffffffff16021790555060408201518160020155606082015181600301556080820151816004015560a0820151816005015560c0820151816006019081612421919061464c565b5060e08201518160070160006101000a81548160ff0219169083600281111561244d5761244c61371b565b5b0217905550610100820151816008019081612468919061464c565b5050506000600281111561247f5761247e61371b565b5b600260008a815260200190815260200160002060040160009054906101000a900460ff1660028111156124b5576124b461371b565b5b0361259d576001600260008a815260200190815260200160002060040160006101000a81548160ff021916908360028111156124f4576124f361371b565b5b0217905550600160009054906101000a900473ffffffffffffffffffffffffffffffffffffffff1673ffffffffffffffffffffffffffffffffffffffff166352df0ee6600260008b8152602001908152602001600020600101546040518263ffffffff1660e01b815260040161256a91906132ce565b600060405180830381600087803b15801561258457600080fd5b505af1158015612598573d6000803e3d6000fd5b505050505b3373ffffffffffffffffffffffffffffffffffffffff16887f710a10364a49834e8c6e0fafff5354ca1e160f26a1ba1d7b33c7100c80d7ea6d84846040516125e6929190614bb6565b60405180910390a35050505050505050565b6126006131c5565b606061260a61320c565b6000801b600260008681526020019081526020016000206000015403612665576040517f08c379a000000000000000000000000000000000000000000000000000000000815260040161265c9061481a565b60405180910390fd5b600260008581526020019081526020016000206003600086815260200190815260200160002060046000878152602001908152602001600020826040518060a001604052908160008201548152602001600182015481526020016002820180546126ce90614479565b80601f01602080910402602001604051908101604052809291908181526020018280546126fa90614479565b80156127475780601f1061271c57610100808354040283529160200191612747565b820191906000526020600020905b81548152906001019060200180831161272a57829003601f168201915b5050505050815260200160038201805461276090614479565b80601f016020809104026020016040519081016040528092919081815260200182805461278c90614479565b80156127d95780601f106127ae576101008083540402835291602001916127d9565b820191906000526020600020905b8154815290600101906020018083116127bc57829003601f168201915b505050505081526020016004820160009054906101000a900460ff1660028111156128075761280661371b565b5b60028111156128195761281861371b565b5b81525050925081805480602002602001604051908101604052809291908181526020016000905b82821015612a5a578382906000526020600020906009020160405180610120016040529081600082015481526020016001820160009054906101000a900473ffffffffffffffffffffffffffffffffffffffff1673ffffffffffffffffffffffffffffffffffffffff1673ffffffffffffffffffffffffffffffffffffffff168152602001600282015481526020016003820154815260200160048201548152602001600582015481526020016006820180546128fc90614479565b80601f016020809104026020016040519081016040528092919081815260200182805461292890614479565b80156129755780601f1061294a57610100808354040283529160200191612975565b820191906000526020600020905b81548152906001019060200180831161295857829003601f168201915b505050505081526020016007820160009054906101000a900460ff1660028111156129a3576129a261371b565b5b60028111156129b5576129b461371b565b5b81526020016008820180546129c990614479565b80601f01602080910402602001604051908101604052809291908181526020018280546129f590614479565b8015612a425780601f10612a1757610100808354040283529160200191612a42565b820191906000526020600020905b815481529060010190602001808311612a2557829003601f168201915b50505050508152505081526020019060010190612840565b505050509150806040518060a001604052908160008201548152602001600182018054612a8690614479565b80601f0160208091040260200160405190810160405280929190818152602001828054612ab290614479565b8015612aff5780601f10612ad457610100808354040283529160200191612aff565b820191906000526020600020905b815481529060010190602001808311612ae257829003601f168201915b5050505050815260200160028201548152602001600382018054612b2290614479565b80601f0160208091040260200160405190810160405280929190818152602001828054612b4e90614479565b8015612b9b5780601f10612b7057610100808354040283529160200191612b9b565b820191906000526020600020905b815481529060010190602001808311612b7e57829003601f168201915b50505050508152602001600482018054612bb490614479565b80601f0160208091040260200160405190810160405280929190818152602001828054612be090614479565b8015612c2d5780601f10612c0257610100808354040283529160200191612c2d565b820191906000526020600020905b815481529060010190602001808311612c1057829003601f168201915b50505050508152505090509250925092509193909250565b600160009054906101000a900473ffffffffffffffffffffffffffffffffffffffff1681565b60008060001b600260008481526020019081526020016000206000015403612cc8576040517f08c379a0000000000000000000000000000000000000000000000000000000008152600401612cbf90614c32565b60405180910390fd5b60006003600084815260200190815260200160002080549050905060008111612d26576040517f08c379a0000000000000000000000000000000000000000000000000000000008152600401612d1d90614cc4565b60405180910390fd5b60036000848152602001908152602001600020600182612d469190614b82565b81548110612d5757612d5661483a565b5b906000526020600020906009020160010160009054906101000a900473ffffffffffffffffffffffffffffffffffffffff16915050919050565b6004602052806000526040600020600091509050806000015490806001018054612dba90614479565b80601f0160208091040260200160405190810160405280929190818152602001828054612de690614479565b8015612e335780601f10612e0857610100808354040283529160200191612e33565b820191906000526020600020905b815481529060010190602001808311612e1657829003601f168201915b505050505090806002015490806003018054612e4e90614479565b80601f0160208091040260200160405190810160405280929190818152602001828054612e7a90614479565b8015612ec75780601f10612e9c57610100808354040283529160200191612ec7565b820191906000526020600020905b815481529060010190602001808311612eaa57829003601f168201915b505050505090806004018054612edc90614479565b80601f0160208091040260200160405190810160405280929190818152602001828054612f0890614479565b8015612f555780601f10612f2a57610100808354040283529160200191612f55565b820191906000526020600020905b815481529060010190602001808311612f3857829003601f168201915b5050505050905085565b60036020528160005260406000208181548110612f7b57600080fd5b9060005260206000209060090201600091509150508060000154908060010160009054906101000a900473ffffffffffffffffffffffffffffffffffffffff1690806002015490806003015490806004015490806005015490806006018054612fe390614479565b80601f016020809104026020016040519081016040528092919081815260200182805461300f90614479565b801561305c5780601f106130315761010080835404028352916020019161305c565b820191906000526020600020905b81548152906001019060200180831161303f57829003601f168201915b5050505050908060070160009054906101000a900460ff169080600801805461308490614479565b80601f01602080910402602001604051908101604052809291908181526020018280546130b090614479565b80156130fd5780601f106130d2576101008083540402835291602001916130fd565b820191906000526020600020905b8154815290600101906020018083116130e057829003601f168201915b5050505050905089565b600582805160208101820180518482526020830160208501208183528095505050505050818154811061313957600080fd5b90600052602060002001600091509150505481565b60405180610120016040528060008019168152602001600073ffffffffffffffffffffffffffffffffffffffff1681526020016000815260200160008152602001600081526020016000815260200160608152602001600060028111156131b8576131b761371b565b5b8152602001606081525090565b6040518060a0016040528060008019168152602001600080191681526020016060815260200160608152602001600060028111156132065761320561371b565b5b81525090565b6040518060a0016040528060008019168152602001606081526020016000815260200160608152602001606081525090565b6000604051905090565b600080fd5b600080fd5b6000819050919050565b61326581613252565b811461327057600080fd5b50565b6000813590506132828161325c565b92915050565b60006020828403121561329e5761329d613248565b5b60006132ac84828501613273565b91505092915050565b6000819050919050565b6132c8816132b5565b82525050565b60006020820190506132e360008301846132bf565b92915050565b6132f2816132b5565b81146132fd57600080fd5b50565b60008135905061330f816132e9565b92915050565b600080fd5b600080fd5b6000601f19601f8301169050919050565b7f4e487b7100000000000000000000000000000000000000000000000000000000600052604160045260246000fd5b6133688261331f565b810181811067ffffffffffffffff8211171561338757613386613330565b5b80604052505050565b600061339a61323e565b90506133a6828261335f565b919050565b600067ffffffffffffffff8211156133c6576133c5613330565b5b6133cf8261331f565b9050602081019050919050565b82818337600083830152505050565b60006133fe6133f9846133ab565b613390565b90508281526020810184848401111561341a5761341961331a565b5b6134258482856133dc565b509392505050565b600082601f83011261344257613441613315565b5b81356134528482602086016133eb565b91505092915050565b6000806000806080858703121561347557613474613248565b5b600061348387828801613300565b945050602061349487828801613300565b935050604085013567ffffffffffffffff8111156134b5576134b461324d565b5b6134c18782880161342d565b925050606085013567ffffffffffffffff8111156134e2576134e161324d565b5b6134ee8782880161342d565b91505092959194509250565b600081519050919050565b600082825260208201905092915050565b6000819050602082019050919050565b61352f816132b5565b82525050565b60006135418383613526565b60208301905092915050565b6000602082019050919050565b6000613565826134fa565b61356f8185613505565b935061357a83613516565b8060005b838110156135ab5781516135928882613535565b975061359d8361354d565b92505060018101905061357e565b5085935050505092915050565b600060208201905081810360008301526135d2818461355a565b905092915050565b6000602082840312156135f0576135ef613248565b5b60006135fe84828501613300565b91505092915050565b600081519050919050565b600082825260208201905092915050565b6000819050602082019050919050565b600073ffffffffffffffffffffffffffffffffffffffff82169050919050565b600061365e82613633565b9050919050565b61366e81613653565b82525050565b61367d81613252565b82525050565b6000819050919050565b61369681613683565b82525050565b600081519050919050565b600082825260208201905092915050565b60005b838110156136d65780820151818401526020810190506136bb565b60008484015250505050565b60006136ed8261369c565b6136f781856136a7565b93506137078185602086016136b8565b6137108161331f565b840191505092915050565b7f4e487b7100000000000000000000000000000000000000000000000000000000600052602160045260246000fd5b6003811061375b5761375a61371b565b5b50565b600081905061376c8261374a565b919050565b600061377c8261375e565b9050919050565b61378c81613771565b82525050565b6000610120830160008301516137ab6000860182613526565b5060208301516137be6020860182613665565b5060408301516137d16040860182613674565b5060608301516137e46060860182613674565b5060808301516137f76080860182613674565b5060a083015161380a60a086018261368d565b5060c083015184820360c086015261382282826136e2565b91505060e083015161383760e0860182613783565b5061010083015184820361010086015261385182826136e2565b9150508091505092915050565b600061386a8383613792565b905092915050565b6000602082019050919050565b600061388a82613607565b6138948185613612565b9350836020820285016138a685613623565b8060005b858110156138e257848403895281516138c3858261385e565b94506138ce83613872565b925060208a019950506001810190506138aa565b50829750879550505050505092915050565b6000606082019050818103600083015261390e818661387f565b90508181036020830152613922818561387f565b90508181036040830152613936818461387f565b9050949350505050565b6000819050919050565b600061396561396061395b84613633565b613940565b613633565b9050919050565b60006139778261394a565b9050919050565b60006139898261396c565b9050919050565b6139998161397e565b82525050565b60006020820190506139b46000830184613990565b92915050565b600081519050919050565b600082825260208201905092915050565b6000819050602082019050919050565b60006139f283836136e2565b905092915050565b6000602082019050919050565b6000613a12826139ba565b613a1c81856139c5565b935083602082028501613a2e856139d6565b8060005b85811015613a6a5784840389528151613a4b85826139e6565b9450613a56836139fa565b925060208a01995050600181019050613a32565b50829750879550505050505092915050565b60006060820190508181036000830152613a96818661355a565b90508181036020830152613aaa8185613a07565b90508181036040830152613abe8184613a07565b9050949350505050565b60008060008060808587031215613ae257613ae1613248565b5b6000613af087828801613300565b945050602085013567ffffffffffffffff811115613b1157613b1061324d565b5b613b1d8782880161342d565b935050604085013567ffffffffffffffff811115613b3e57613b3d61324d565b5b613b4a8782880161342d565b925050606085013567ffffffffffffffff811115613b6b57613b6a61324d565b5b613b778782880161342d565b91505092959194509250565b60006040820190508181036000830152613b9d818561355a565b90508181036020830152613bb18184613a07565b90509392505050565b600060208284031215613bd057613bcf613248565b5b600082013567ffffffffffffffff811115613bee57613bed61324d565b5b613bfa8482850161342d565b91505092915050565b600082825260208201905092915050565b6000613c1f8261369c565b613c298185613c03565b9350613c398185602086016136b8565b613c428161331f565b840191505092915050565b60038110613c5e57613c5d61371b565b5b50565b6000819050613c6f82613c4d565b919050565b6000613c7f82613c61565b9050919050565b613c8f81613c74565b82525050565b600060a082019050613caa60008301886132bf565b613cb760208301876132bf565b8181036040830152613cc98186613c14565b90508181036060830152613cdd8185613c14565b9050613cec6080830184613c86565b9695505050505050565b613cff81613683565b8114613d0a57600080fd5b50565b600081359050613d1c81613cf6565b92915050565b60038110613d2f57600080fd5b50565b600081359050613d4181613d22565b92915050565b600080600080600080600080610100898b031215613d6857613d67613248565b5b6000613d768b828c01613300565b9850506020613d878b828c01613273565b9750506040613d988b828c01613273565b9650506060613da98b828c01613273565b9550506080613dba8b828c01613d0d565b94505060a089013567ffffffffffffffff811115613ddb57613dda61324d565b5b613de78b828c0161342d565b93505060c0613df88b828c01613d32565b92505060e089013567ffffffffffffffff811115613e1957613e1861324d565b5b613e258b828c0161342d565b9150509295985092959890939650565b613e3e81613c74565b82525050565b600060a083016000830151613e5c6000860182613526565b506020830151613e6f6020860182613526565b5060408301518482036040860152613e8782826136e2565b91505060608301518482036060860152613ea182826136e2565b9150506080830151613eb66080860182613e35565b508091505092915050565b600060a083016000830151613ed96000860182613526565b5060208301518482036020860152613ef182826136e2565b9150506040830151613f066040860182613674565b5060608301518482036060860152613f1e82826136e2565b91505060808301518482036080860152613f3882826136e2565b9150508091505092915050565b60006060820190508181036000830152613f5f8186613e44565b90508181036020830152613f73818561387f565b90508181036040830152613f878184613ec1565b9050949350505050565b6000613f9c8261396c565b9050919050565b613fac81613f91565b82525050565b6000602082019050613fc76000830184613fa3565b92915050565b613fd681613653565b82525050565b6000602082019050613ff16000830184613fcd565b92915050565b61400081613252565b82525050565b600060a08201905061401b60008301886132bf565b818103602083015261402d8187613c14565b905061403c6040830186613ff7565b818103606083015261404e8185613c14565b905081810360808301526140628184613c14565b90509695505050505050565b6000806040838503121561408557614084613248565b5b600061409385828601613300565b92505060206140a485828601613273565b9150509250929050565b6140b781613683565b82525050565b6140c681613771565b82525050565b6000610120820190506140e2600083018c6132bf565b6140ef602083018b613fcd565b6140fc604083018a613ff7565b6141096060830189613ff7565b6141166080830188613ff7565b61412360a08301876140ae565b81810360c08301526141358186613c14565b905061414460e08301856140bd565b8181036101008301526141578184613c14565b90509a9950505050505050505050565b6000806040838503121561417e5761417d613248565b5b600083013567ffffffffffffffff81111561419c5761419b61324d565b5b6141a88582860161342d565b92505060206141b985828601613273565b9150509250929050565b60008115159050919050565b6141d8816141c3565b81146141e357600080fd5b50565b6000815190506141f5816141cf565b92915050565b60006020828403121561421157614210613248565b5b600061421f848285016141e6565b91505092915050565b7f4572726f723a2050726f64756374204c6f7420646f6573206e6f74206578697360008201527f7400000000000000000000000000000000000000000000000000000000000000602082015250565b6000614284602183613c03565b915061428f82614228565b604082019050919050565b600060208201905081810360008301526142b381614277565b9050919050565b7f4572726f723a20547261636b696e6720494420616c726561647920657869737460008201527f7300000000000000000000000000000000000000000000000000000000000000602082015250565b6000614316602183613c03565b9150614321826142ba565b604082019050919050565b6000602082019050818103600083015261434581614309565b9050919050565b7f4572726f723a20496e76616c69642052657461696c6572204944000000000000600082015250565b6000614382601a83613c03565b915061438d8261434c565b602082019050919050565b600060208201905081810360008301526143b181614375565b9050919050565b7f4572726f723a20515220436f6465204349442063616e6e6f7420626520656d7060008201527f7479000000000000000000000000000000000000000000000000000000000000602082015250565b6000614414602283613c03565b915061441f826143b8565b604082019050919050565b6000602082019050818103600083015261444381614407565b9050919050565b7f4e487b7100000000000000000000000000000000000000000000000000000000600052602260045260246000fd5b6000600282049050600182168061449157607f821691505b6020821081036144a4576144a361444a565b5b50919050565b60008190508160005260206000209050919050565b60006020601f8301049050919050565b600082821b905092915050565b60006008830261450c7fffffffffffffffffffffffffffffffffffffffffffffffffffffffffffffffff826144cf565b61451686836144cf565b95508019841693508086168417925050509392505050565b600061454961454461453f84613252565b613940565b613252565b9050919050565b6000819050919050565b6145638361452e565b61457761456f82614550565b8484546144dc565b825550505050565b600090565b61458c61457f565b61459781848461455a565b505050565b5b818110156145bb576145b0600082614584565b60018101905061459d565b5050565b601f821115614600576145d1816144aa565b6145da846144bf565b810160208510156145e9578190505b6145fd6145f5856144bf565b83018261459c565b50505b505050565b600082821c905092915050565b600061462360001984600802614605565b1980831691505092915050565b600061463c8383614612565b9150826002028217905092915050565b6146558261369c565b67ffffffffffffffff81111561466e5761466d613330565b5b6146788254614479565b6146838282856145bf565b600060209050601f8311600181146146b657600084156146a4578287015190505b6146ae8582614630565b865550614716565b601f1984166146c4866144aa565b60005b828110156146ec578489015182556001820191506020850194506020810190506146c7565b868310156147095784890151614705601f891682614612565b8355505b6001600288020188555050505b505050505050565b600081905092915050565b60006147348261369c565b61473e818561471e565b935061474e8185602086016136b8565b80840191505092915050565b60006147668284614729565b915081905092915050565b6000604082019050818103600083015261478b8185613c14565b9050818103602083015261479f8184613c14565b90509392505050565b7f4572726f723a20547261636b696e6720494420646f6573206e6f74206578697360008201527f7400000000000000000000000000000000000000000000000000000000000000602082015250565b6000614804602183613c03565b915061480f826147a8565b604082019050919050565b60006020820190508181036000830152614833816147f7565b9050919050565b7f4e487b7100000000000000000000000000000000000000000000000000000000600052603260045260246000fd5b7f4e487b7100000000000000000000000000000000000000000000000000000000600052601160045260246000fd5b60006148a382613252565b91507fffffffffffffffffffffffffffffffffffffffffffffffffffffffffffffffff82036148d5576148d4614869565b5b600182019050919050565b7f4163636573732064656e6965643a20496e76616c69642072657461696c65722060008201527f4944000000000000000000000000000000000000000000000000000000000000602082015250565b600061493c602283613c03565b9150614947826148e0565b604082019050919050565b6000602082019050818103600083015261496b8161492f565b9050919050565b6000815461497f81614479565b614989818661471e565b945060018216600081146149a457600181146149b9576149ec565b60ff19831686528115158202860193506149ec565b6149c2856144aa565b60005b838110156149e4578154818901526001820191506020810190506149c5565b838801955050505b50505092915050565b6000614a018284614972565b915081905092915050565b7f4572726f723a204f6e6c792061737369676e65642072657461696c657220636160008201527f6e20726563656976650000000000000000000000000000000000000000000000602082015250565b6000614a68602983613c03565b9150614a7382614a0c565b604082019050919050565b60006020820190508181036000830152614a9781614a5b565b9050919050565b60058110614aab57600080fd5b50565b600081519050614abd81614a9e565b92915050565b600060208284031215614ad957614ad8613248565b5b6000614ae784828501614aae565b91505092915050565b7f4163636573732064656e6965643a204f6e6c79206c6f6769737469637320616c60008201527f6c6f776564000000000000000000000000000000000000000000000000000000602082015250565b6000614b4c602583613c03565b9150614b5782614af0565b604082019050919050565b60006020820190508181036000830152614b7b81614b3f565b9050919050565b6000614b8d82613252565b9150614b9883613252565b9250828203905081811115614bb057614baf614869565b5b92915050565b6000604082019050614bcb60008301856140bd565b8181036020830152614bdd8184613c14565b90509392505050565b7f547261636b696e6720494420646f6573206e6f74206578697374000000000000600082015250565b6000614c1c601a83613c03565b9150614c2782614be6565b602082019050919050565b60006020820190508181036000830152614c4b81614c0f565b9050919050565b7f4e6f20636865636b706f696e747320666f756e6420666f72207468697320747260008201527f61636b696e670000000000000000000000000000000000000000000000000000602082015250565b6000614cae602683613c03565b9150614cb982614c52565b604082019050919050565b60006020820190508181036000830152614cdd81614ca1565b905091905056fea26469706673582212205562978dc9a91e349495b3e9f4771667d3e1de85aa3c5746257f6bfe03243a9664736f6c63430008130033",
  "immutableReferences": {},
  "source": "// SPDX-License-Identifier: MIT\npragma solidity ^0.8.19;\n\nimport \"./UserRegistry.sol\";\nimport \"./ProductLot.sol\";\n\ncontract Tracking {\n    UserRegistry public userRegistry;\n    ProductLot public productLotContract;\n\n    enum TrackingStatus { Pending, InTransit, Received }\n    enum LogisticsCheckType { Before, During, After }\n\n    struct TrackingEvent {\n        bytes32 trackingId;\n        bytes32 productLotId;\n        string retailerId; //   Address\n        string qrCodeCID;\n        TrackingStatus status;\n    }\n\n    struct LogisticsCheckpoint {\n    bytes32 trackingId;\n    address logisticsProvider;\n    uint256 pickupTime;\n    uint256 deliveryTime;\n    uint256 quantity;\n    int256 temperature;\n    string personInCharge;\n    LogisticsCheckType checkType;\n    string receiverCID; //   (IPFS CID)\n}\n\n    struct RetailerConfirmation {\n        bytes32 trackingId;\n        string retailerId; //   Retailer ID  Address\n        uint256 receivedTime;\n        string qualityCID;\n        string personInCharge;\n    }\n\n    mapping(bytes32 => TrackingEvent) public trackingEvents;\n    mapping(bytes32 => LogisticsCheckpoint[]) public logisticsCheckpoints;\n    mapping(bytes32 => RetailerConfirmation) public retailerConfirmations;\n    mapping(string => bytes32[]) public retailerTracking; //   Retailer ID  key\n   bytes32[] public allTrackingIds; //  \n\n\n\n    event TrackingCreated(bytes32 indexed trackingId, bytes32 indexed productLotId, string retailerId, string qrCodeCID);\n    event LogisticsUpdated(\n    bytes32 indexed trackingId,\n    address indexed logisticsProvider,\n    LogisticsCheckType checkType,\n    string receiverCID //  \n);\n    event RetailerReceived(bytes32 indexed trackingId, string retailerId, string qualityCID);\n\n    modifier onlyLogistics() {\n        require(userRegistry.getUserRole(msg.sender) == UserRegistry.UserRole.Logistics, \"Access denied: Only logistics allowed\");\n        _;\n    }\n\n    modifier onlyRetailer(string memory _retailerId) {\n        require(bytes(_retailerId).length > 0, \"Access denied: Invalid retailer ID\");\n        _;\n    }\n\n    constructor(address _userRegistry, address _productLotContract) {\n        userRegistry = UserRegistry(_userRegistry);\n        productLotContract = ProductLot(_productLotContract);\n    }\n\n    function createTrackingEvent(\n        bytes32 _trackingId,\n        bytes32 _productLotId,\n        string memory _retailerId,\n        string memory _qrCodeCID\n    ) public {\n        require(productLotContract.isProductLotExists(_productLotId), \"Error: Product Lot does not exist\");\n        require(trackingEvents[_trackingId].trackingId == bytes32(0), \"Error: Tracking ID already exists\");\n        require(bytes(_retailerId).length > 0, \"Error: Invalid Retailer ID\");\n        require(bytes(_qrCodeCID).length > 0, \"Error: QR Code CID cannot be empty\");\n\n        trackingEvents[_trackingId] = TrackingEvent({\n            trackingId: _trackingId,\n            productLotId: _productLotId,\n            retailerId: _retailerId,\n            qrCodeCID: _qrCodeCID,\n            status: TrackingStatus.Pending\n        });\n\n        allTrackingIds.push(_trackingId);\n        retailerTracking[_retailerId].push(_trackingId);\n        emit TrackingCreated(_trackingId, _productLotId, _retailerId, _qrCodeCID);\n    }\n\n    function updateLogisticsCheckpoint(\n    bytes32 _trackingId,\n    uint256 _pickupTime,\n    uint256 _deliveryTime,\n    uint256 _quantity,\n    int256 _temperature,\n    string memory _personInCharge,\n    LogisticsCheckType _checkType,\n    string memory _receiverCID\n) public onlyLogistics {\n    require(trackingEvents[_trackingId].trackingId != bytes32(0), \"Error: Tracking ID does not exist\");\n\n    logisticsCheckpoints[_trackingId].push(LogisticsCheckpoint({\n        trackingId: _trackingId,\n        logisticsProvider: msg.sender,\n        pickupTime: _pickupTime,\n        deliveryTime: _deliveryTime,\n        quantity: _quantity,\n        temperature: _temperature,\n        personInCharge: _personInCharge,\n        checkType: _checkType,\n        receiverCID: _receiverCID\n    }));\n\n    //   InTransit  Pending\n    if (trackingEvents[_trackingId].status == TrackingStatus.Pending) {\n        trackingEvents[_trackingId].status = TrackingStatus.InTransit;\n        //   Product Lot  InTransit\n        productLotContract.updateProductLotStatus(trackingEvents[_trackingId].productLotId);\n    }\n\n    emit LogisticsUpdated(_trackingId, msg.sender, _checkType, _receiverCID);\n}\n\n\n\n    function retailerReceiveProduct(\n    bytes32 _trackingId,\n    string memory _retailerId,\n    string memory _qualityCID,\n    string memory _personInCharge\n) public onlyRetailer(_retailerId) {\n    require(trackingEvents[_trackingId].trackingId != bytes32(0), \"Error: Tracking ID does not exist\");\n    require(keccak256(abi.encodePacked(trackingEvents[_trackingId].retailerId)) == keccak256(abi.encodePacked(_retailerId)), \"Error: Only assigned retailer can receive\");\n\n    trackingEvents[_trackingId].status = TrackingStatus.Received;\n    retailerConfirmations[_trackingId] = RetailerConfirmation({\n        trackingId: _trackingId,\n        retailerId: _retailerId,\n        receivedTime: block.timestamp,\n        qualityCID: _qualityCID,\n        personInCharge: _personInCharge\n    });\n\n    //   Product Lot  Tracking  \"Received\"\n    productLotContract.updateProductLotStatus(trackingEvents[_trackingId].productLotId);\n\n    emit RetailerReceived(_trackingId, _retailerId, _qualityCID);\n}\n\n\n    function getTrackingById(bytes32 _trackingId) public view returns (TrackingEvent memory, LogisticsCheckpoint[] memory, RetailerConfirmation memory) {\n        require(trackingEvents[_trackingId].trackingId != bytes32(0), \"Error: Tracking ID does not exist\");\n        return (trackingEvents[_trackingId], logisticsCheckpoints[_trackingId], retailerConfirmations[_trackingId]);\n    }\n\n    function getTrackingByRetailer(string memory _retailerId) public view returns (bytes32[] memory) {\n        return retailerTracking[_retailerId];\n    }\nfunction getTrackingByLotId(bytes32 _productLotId) \n    public view \n    returns (bytes32[] memory resultTrackingIds, string[] memory retailerIds, string[] memory qrCodeCIDs) \n{\n    uint count = 0;\n\n    //   `allTrackingIds`  Tracking Events\n    for (uint i = 0; i < allTrackingIds.length; i++) {\n        if (trackingEvents[allTrackingIds[i]].productLotId == _productLotId) {\n            count++;\n        }\n    }\n\n    //  \n    resultTrackingIds = new bytes32[](count);\n    retailerIds = new string[](count);\n    qrCodeCIDs = new string[](count);\n\n    uint index = 0;\n    for (uint i = 0; i < allTrackingIds.length; i++) {\n        if (trackingEvents[allTrackingIds[i]].productLotId == _productLotId) {\n            resultTrackingIds[index] = allTrackingIds[i];\n            retailerIds[index] = trackingEvents[allTrackingIds[i]].retailerId;\n            qrCodeCIDs[index] = trackingEvents[allTrackingIds[i]].qrCodeCID;\n            index++;\n        }\n    }\n\n    return (resultTrackingIds, retailerIds, qrCodeCIDs);\n}\nfunction getOngoingShipmentsByLogistics() \n    public view onlyLogistics \n    returns (bytes32[] memory trackingIds, string[] memory personInChargeList) \n{\n    uint count = 0;\n\n    //   Tracking  InTransit \n    for (uint i = 0; i < allTrackingIds.length; i++) {\n        bytes32 trackingId = allTrackingIds[i];\n\n        if (\n            trackingEvents[trackingId].status == TrackingStatus.InTransit && \n            logisticsCheckpoints[trackingId].length > 0 &&\n            logisticsCheckpoints[trackingId][logisticsCheckpoints[trackingId].length - 1].logisticsProvider == msg.sender\n        ) {\n            count++;\n        }\n    }\n\n    //  \n    trackingIds = new bytes32[](count);\n    personInChargeList = new string[](count);\n    uint index = 0;\n\n    for (uint i = 0; i < allTrackingIds.length; i++) {\n        bytes32 trackingId = allTrackingIds[i];\n\n        if (\n            trackingEvents[trackingId].status == TrackingStatus.InTransit && \n            logisticsCheckpoints[trackingId].length > 0 &&\n            logisticsCheckpoints[trackingId][logisticsCheckpoints[trackingId].length - 1].logisticsProvider == msg.sender\n        ) {\n            trackingIds[index] = trackingId;\n            personInChargeList[index] = logisticsCheckpoints[trackingId][logisticsCheckpoints[trackingId].length - 1].personInCharge;\n            index++;\n        }\n    }\n\n    return (trackingIds, personInChargeList);\n}\n\nfunction getAllTrackingIds() public view returns (bytes32[] memory) {\n    return allTrackingIds;\n}\nfunction getLogisticsCheckpointsByTrackingId(bytes32 _trackingId) \n    public view \n    returns (\n        LogisticsCheckpoint[] memory beforeCheckpoints, \n        LogisticsCheckpoint[] memory duringCheckpoints, \n        LogisticsCheckpoint[] memory afterCheckpoints\n    ) \n{\n    require(trackingEvents[_trackingId].trackingId != bytes32(0), \"Error: Tracking ID does not exist\");\n\n    uint beforeCount = 0;\n    uint duringCount = 0;\n    uint afterCount = 0;\n\n    //  \n    for (uint i = 0; i < logisticsCheckpoints[_trackingId].length; i++) {\n        if (logisticsCheckpoints[_trackingId][i].checkType == LogisticsCheckType.Before) {\n            beforeCount++;\n        } else if (logisticsCheckpoints[_trackingId][i].checkType == LogisticsCheckType.During) {\n            duringCount++;\n        } else if (logisticsCheckpoints[_trackingId][i].checkType == LogisticsCheckType.After) {\n            afterCount++;\n        }\n    }\n\n    //  \n    beforeCheckpoints = new LogisticsCheckpoint[](beforeCount);\n    duringCheckpoints = new LogisticsCheckpoint[](duringCount);\n    afterCheckpoints = new LogisticsCheckpoint[](afterCount);\n\n    uint beforeIndex = 0;\n    uint duringIndex = 0;\n    uint afterIndex = 0;\n\n    //  \n    for (uint i = 0; i < logisticsCheckpoints[_trackingId].length; i++) {\n        if (logisticsCheckpoints[_trackingId][i].checkType == LogisticsCheckType.Before) {\n            beforeCheckpoints[beforeIndex] = logisticsCheckpoints[_trackingId][i];\n            beforeIndex++;\n        } else if (logisticsCheckpoints[_trackingId][i].checkType == LogisticsCheckType.During) {\n            duringCheckpoints[duringIndex] = logisticsCheckpoints[_trackingId][i];\n            duringIndex++;\n        } else if (logisticsCheckpoints[_trackingId][i].checkType == LogisticsCheckType.After) {\n            afterCheckpoints[afterIndex] = logisticsCheckpoints[_trackingId][i];\n            afterIndex++;\n        }\n    }\n\n    return (beforeCheckpoints, duringCheckpoints, afterCheckpoints);\n}\nfunction getLastLogisticsProvider(bytes32 _trackingId) public view returns (address) {\n    require(trackingEvents[_trackingId].trackingId != bytes32(0), \"Tracking ID does not exist\");\n\n    uint checkpointCount = logisticsCheckpoints[_trackingId].length;\n    require(checkpointCount > 0, \"No checkpoints found for this tracking\");\n\n    return logisticsCheckpoints[_trackingId][checkpointCount - 1].logisticsProvider;\n}\n\n\n}\n",
  "sourcePath": "/home/kmitl-ivo/Documents/Back/Backend/solidity/contracts/Tracking.sol",
  "compiler": {
    "name": "solc",
    "version": "0.8.19+commit.7dd6d404.Emscripten.clang"
  },
  "schemaVersion": "3.4.16",
  "updatedAt": "2025-03-18T10:11:07.805Z",
  "networkType": "ethereum",
  "devdoc": {
    "kind": "dev",
    "methods": {},
    "version": 1
  },
  "userdoc": {
    "kind": "user",
    "methods": {},
    "version": 1
  }
}