{
  "contractName": "UserRegistry",
  "abi": [
    {
      "anonymous": false,
      "inputs": [
        {
          "indexed": true,
          "internalType": "address",
          "name": "wallet",
          "type": "address"
        },
        {
          "indexed": false,
          "internalType": "enum UserRegistry.UserRole",
          "name": "role",
          "type": "uint8"
        }
      ],
      "name": "UserRegistered",
      "type": "event"
    },
    {
      "inputs": [
        {
          "internalType": "address",
          "name": "",
          "type": "address"
        }
      ],
      "name": "users",
      "outputs": [
        {
          "internalType": "address",
          "name": "wallet",
          "type": "address"
        },
        {
          "internalType": "enum UserRegistry.UserRole",
          "name": "role",
          "type": "uint8"
        },
        {
          "internalType": "bool",
          "name": "isRegistered",
          "type": "bool"
        }
      ],
      "stateMutability": "view",
      "type": "function",
      "constant": true
    },
    {
      "inputs": [
        {
          "internalType": "enum UserRegistry.UserRole",
          "name": "role",
          "type": "uint8"
        }
      ],
      "name": "registerUser",
      "outputs": [],
      "stateMutability": "nonpayable",
      "type": "function"
    },
    {
      "inputs": [
        {
          "internalType": "address",
          "name": "wallet",
          "type": "address"
        }
      ],
      "name": "isUserRegistered",
      "outputs": [
        {
          "internalType": "bool",
          "name": "",
          "type": "bool"
        }
      ],
      "stateMutability": "view",
      "type": "function",
      "constant": true
    },
    {
      "inputs": [
        {
          "internalType": "address",
          "name": "wallet",
          "type": "address"
        }
      ],
      "name": "getUserRole",
      "outputs": [
        {
          "internalType": "enum UserRegistry.UserRole",
          "name": "",
          "type": "uint8"
        }
      ],
      "stateMutability": "view",
      "type": "function",
      "constant": true
    }
  ],
  "bytecode": "0x608060405234801561001057600080fd5b5061078d806100206000396000f3fe608060405234801561001057600080fd5b506004361061004c5760003560e01c806302b8c8cd14610051578063163f75221461006d578063278208511461009d578063a87430ba146100cd575b600080fd5b61006b600480360381019061006691906104a8565b6100ff565b005b61008760048036038101906100829190610533565b61036a565b604051610094919061057b565b60405180910390f35b6100b760048036038101906100b29190610533565b6103c2565b6040516100c4919061060d565b60405180910390f35b6100e760048036038101906100e29190610533565b61041a565b6040516100f693929190610637565b60405180910390f35b600015156000803373ffffffffffffffffffffffffffffffffffffffff1673ffffffffffffffffffffffffffffffffffffffff16815260200190815260200160002060000160159054906101000a900460ff16151514610194576040517f08c379a000000000000000000000000000000000000000000000000000000000815260040161018b906106cb565b60405180910390fd5b600060048111156101a8576101a7610596565b5b8160048111156101bb576101ba610596565b5b036101fb576040517f08c379a00000000000000000000000000000000000000000000000000000000081526004016101f290610737565b60405180910390fd5b60405180606001604052803373ffffffffffffffffffffffffffffffffffffffff16815260200182600481111561023557610234610596565b5b8152602001600115158152506000803373ffffffffffffffffffffffffffffffffffffffff1673ffffffffffffffffffffffffffffffffffffffff16815260200190815260200160002060008201518160000160006101000a81548173ffffffffffffffffffffffffffffffffffffffff021916908373ffffffffffffffffffffffffffffffffffffffff16021790555060208201518160000160146101000a81548160ff021916908360048111156102f1576102f0610596565b5b021790555060408201518160000160156101000a81548160ff0219169083151502179055509050503373ffffffffffffffffffffffffffffffffffffffff167f8e18574f8a7333e6a87112742a55853a643e2f0550f4e1a3a2c3f1bb2994441d8260405161035f919061060d565b60405180910390a250565b60008060008373ffffffffffffffffffffffffffffffffffffffff1673ffffffffffffffffffffffffffffffffffffffff16815260200190815260200160002060000160159054906101000a900460ff169050919050565b60008060008373ffffffffffffffffffffffffffffffffffffffff1673ffffffffffffffffffffffffffffffffffffffff16815260200190815260200160002060000160149054906101000a900460ff169050919050565b60006020528060005260406000206000915090508060000160009054906101000a900473ffffffffffffffffffffffffffffffffffffffff16908060000160149054906101000a900460ff16908060000160159054906101000a900460ff16905083565b600080fd5b6005811061049057600080fd5b50565b6000813590506104a281610483565b92915050565b6000602082840312156104be576104bd61047e565b5b60006104cc84828501610493565b91505092915050565b600073ffffffffffffffffffffffffffffffffffffffff82169050919050565b6000610500826104d5565b9050919050565b610510816104f5565b811461051b57600080fd5b50565b60008135905061052d81610507565b92915050565b6000602082840312156105495761054861047e565b5b60006105578482850161051e565b91505092915050565b60008115159050919050565b61057581610560565b82525050565b6000602082019050610590600083018461056c565b92915050565b7f4e487b7100000000000000000000000000000000000000000000000000000000600052602160045260246000fd5b600581106105d6576105d5610596565b5b50565b60008190506105e7826105c5565b919050565b60006105f7826105d9565b9050919050565b610607816105ec565b82525050565b600060208201905061062260008301846105fe565b92915050565b610631816104f5565b82525050565b600060608201905061064c6000830186610628565b61065960208301856105fe565b610666604083018461056c565b949350505050565b600082825260208201905092915050565b7f4572726f723a205573657220616c726561647920726567697374657265640000600082015250565b60006106b5601e8361066e565b91506106c08261067f565b602082019050919050565b600060208201905081810360008301526106e4816106a8565b9050919050565b7f4572726f723a20496e76616c696420726f6c6500000000000000000000000000600082015250565b600061072160138361066e565b915061072c826106eb565b602082019050919050565b6000602082019050818103600083015261075081610714565b905091905056fea2646970667358221220ef2d146650948968700b1fd0777e124b47bbfd9aac8d82fcb1c2ac818e98fb4a64736f6c63430008130033",
  "immutableReferences": {},
  "source": "// SPDX-License-Identifier: MIT\npragma solidity ^0.8.19;\n\ncontract UserRegistry {\n    enum UserRole { None, Farmer, Factory, Logistics, Retailer } //  \n\n    struct User {\n        address wallet;\n        UserRole role;\n        bool isRegistered;\n    }\n\n    mapping(address => User) public users;\n\n    event UserRegistered(address indexed wallet, UserRole role);\n\n    //  \n    function registerUser(UserRole role) public {\n        require(users[msg.sender].isRegistered == false, \"Error: User already registered\");\n        require(role != UserRole.None, \"Error: Invalid role\");\n\n        users[msg.sender] = User({\n            wallet: msg.sender,\n            role: role,\n            isRegistered: true\n        });\n\n        emit UserRegistered(msg.sender, role);\n    }\n\n    //  \n    function isUserRegistered(address wallet) public view returns (bool) {\n        return users[wallet].isRegistered;\n    }\n\n    //  \n    function getUserRole(address wallet) public view returns (UserRole) {\n        return users[wallet].role;\n    }\n}\n",
  "sourcePath": "/home/apiwat/Documents/Backend/Backend/solidity/contracts/UserRegistry.sol",
  "compiler": {
    "name": "solc",
    "version": "0.8.19+commit.7dd6d404.Emscripten.clang"
  },
  "schemaVersion": "3.4.16",
  "updatedAt": "2025-03-11T16:05:32.447Z",
  "networkType": "ethereum",
  "devdoc": {
    "kind": "dev",
    "methods": {},
    "version": 1
  },
  "userdoc": {
    "kind": "user",
    "methods": {},
    "version": 1
  }
}